{"abi":[{"type":"function","name":"PRICE_PRECISION","inputs":[],"outputs":[{"name":"","type":"uint256","internalType":"uint256"}],"stateMutability":"view"},{"type":"function","name":"getPrice","inputs":[{"name":"asset","type":"address","internalType":"address"}],"outputs":[{"name":"","type":"uint256","internalType":"uint256"},{"name":"","type":"uint256","internalType":"uint256"}],"stateMutability":"view"},{"type":"function","name":"setPrice","inputs":[{"name":"asset","type":"address","internalType":"address"},{"name":"price","type":"uint256","internalType":"uint256"}],"outputs":[],"stateMutability":"nonpayable"},{"type":"function","name":"setPriceStaleness","inputs":[{"name":"asset","type":"address","internalType":"address"},{"name":"_staleness","type":"uint256","internalType":"uint256"}],"outputs":[],"stateMutability":"nonpayable"},{"type":"event","name":"PriceUpdated","inputs":[{"name":"asset","type":"address","indexed":false,"internalType":"address"},{"name":"price","type":"uint256","indexed":false,"internalType":"uint256"}],"anonymous":false}],"bytecode":{"object":"0x6080604052348015600e575f5ffd5b5061021f8061001c5f395ff3fe608060405234801561000f575f5ffd5b5060043610610049575f3560e01c8062e4768b1461004d5780630a7d2f331461006257806341976e091461008b57806395082d25146100b8575b5f5ffd5b61006061005b36600461017c565b6100d5565b005b61006061007036600461017c565b6001600160a01b039091165f90815260016020526040902055565b61009e6100993660046101a4565b61012a565b604080519283526020830191909152015b60405180910390f35b6100c7670de0b6b3a764000081565b6040519081526020016100af565b6001600160a01b0382165f8181526020818152604091829020849055815192835282018390527f0d86730737b142fc160892fa8a0f2db687a92a0e294d1ad70624cf5acef03b84910160405180910390a15050565b6001600160a01b0381165f9081526020818152604080832054600190925282205482919061015890426101c4565b91509150915091565b80356001600160a01b0381168114610177575f5ffd5b919050565b5f5f6040838503121561018d575f5ffd5b61019683610161565b946020939093013593505050565b5f602082840312156101b4575f5ffd5b6101bd82610161565b9392505050565b818103818111156101e357634e487b7160e01b5f52601160045260245ffd5b9291505056fea2646970667358221220e1f0f7a9da9cf4bc26a54ee092b41d822398b15e54e6a08801e7ff67076b385564736f6c634300081c0033","linkReferences":{}},"methodIdentifiers":{"PRICE_PRECISION()":"95082d25","getPrice(address)":"41976e09","setPrice(address,uint256)":"00e4768b","setPriceStaleness(address,uint256)":"0a7d2f33"},"id":337}