{"abi":[{"type":"function","name":"price","inputs":[{"name":"_asset","type":"address","internalType":"address"}],"outputs":[{"name":"latestAnswer","type":"uint256","internalType":"uint256"},{"name":"lastUpdated","type":"uint256","internalType":"uint256"}],"stateMutability":"view"}],"bytecode":{"object":"0x610450610034600b8282823980515f1a607314602857634e487b7160e01b5f525f60045260245ffd5b305f52607381538281f3fe7300000000000000000000000000000000000000003014608060405260043610610034575f3560e01c8063aea9107814610038575b5f5ffd5b61004b610046366004610247565b610064565b6040805192835260208301919091520160405180910390f35b5f5f5f836001600160a01b03166338d52e0f6040518163ffffffff1660e01b8152600401602060405180830381865afa1580156100a3573d5f5f3e3d5ffd5b505050506040513d601f19601f820116820180604052508101906100c79190610269565b6040516341976e0960e01b81526001600160a01b038216600482015290915033906341976e09906024016040805180830381865afa15801561010b573d5f5f3e3d5ffd5b505050506040513d601f19601f8201168201806040525081019061012f9190610284565b80935081945050505f816001600160a01b031663313ce5676040518163ffffffff1660e01b8152600401602060405180830381865afa158015610174573d5f5f3e3d5ffd5b505050506040513d601f19601f8201168201806040525081019061019891906102a6565b6101a390600a6103bf565b6040516303d1689d60e11b8152600481018290529091505f906001600160a01b038716906307a2d13a90602401602060405180830381865afa1580156101eb573d5f5f3e3d5ffd5b505050506040513d601f19601f8201168201806040525081019061020f91906103cd565b90508161021c82876103e4565b61022691906103fb565b9450505050915091565b6001600160a01b0381168114610244575f5ffd5b50565b5f60208284031215610257575f5ffd5b813561026281610230565b9392505050565b5f60208284031215610279575f5ffd5b815161026281610230565b5f5f60408385031215610295575f5ffd5b505080516020909101519092909150565b5f602082840312156102b6575f5ffd5b815160ff81168114610262575f5ffd5b634e487b7160e01b5f52601160045260245ffd5b6001815b6001841115610315578085048111156102f9576102f96102c6565b600184161561030757908102905b60019390931c9280026102de565b935093915050565b5f8261032b575060016103b9565b8161033757505f6103b9565b816001811461034d576002811461035757610373565b60019150506103b9565b60ff841115610368576103686102c6565b50506001821b6103b9565b5060208310610133831016604e8410600b8410161715610396575081810a6103b9565b6103a25f1984846102da565b805f19048211156103b5576103b56102c6565b0290505b92915050565b5f61026260ff84168361031d565b5f602082840312156103dd575f5ffd5b5051919050565b80820281158282048414176103b9576103b96102c6565b5f8261041557634e487b7160e01b5f52601260045260245ffd5b50049056fea26469706673582212203b98fc800a146dd3e46a5e03090355131b43bbe0cd4f74cae40e3c55582affe764736f6c634300081c0033","linkReferences":{}},"methodIdentifiers":{"price(address)":"aea91078"},"id":73}