{"abi":[{"type":"function","name":"ZAP_CONFIG_PATH_FROM_PROJECT_ROOT","inputs":[],"outputs":[{"name":"","type":"string","internalType":"string"}],"stateMutability":"view"}],"bytecode":{"object":"0x6080604052348015600e575f5ffd5b5060d680601a5f395ff3fe6080604052348015600e575f5ffd5b50600436106026575f3560e01c80638fbab11114602a575b5f5ffd5b60576040518060400160405280600f81526020016e31b7b73334b397bd30b8173539b7b760891b81525081565b60405160629190606b565b60405180910390f35b602081525f82518060208401528060208501604085015e5f604082850101526040601f19601f8301168401019150509291505056fea2646970667358221220dcdd984d34cc0a8dd00079ba3fcf66c793b383ccc52df7457634dea2b7c9da6a64736f6c634300081c0033","linkReferences":{}},"methodIdentifiers":{"ZAP_CONFIG_PATH_FROM_PROJECT_ROOT()":"8fbab111"},"id":22}