{"abi":[{"type":"constructor","inputs":[{"name":"_token","type":"address","internalType":"address"},{"name":"_lzEndpoint","type":"address","internalType":"address"},{"name":"_delegate","type":"address","internalType":"address"}],"stateMutability":"nonpayable"},{"type":"function","name":"SEND","inputs":[],"outputs":[{"name":"","type":"uint16","internalType":"uint16"}],"stateMutability":"view"},{"type":"function","name":"SEND_AND_CALL","inputs":[],"outputs":[{"name":"","type":"uint16","internalType":"uint16"}],"stateMutability":"view"},{"type":"function","name":"allowInitializePath","inputs":[{"name":"origin","type":"tuple","internalType":"struct Origin","components":[{"name":"srcEid","type":"uint32","internalType":"uint32"},{"name":"sender","type":"bytes32","internalType":"bytes32"},{"name":"nonce","type":"uint64","internalType":"uint64"}]}],"outputs":[{"name":"","type":"bool","internalType":"bool"}],"stateMutability":"view"},{"type":"function","name":"approvalRequired","inputs":[],"outputs":[{"name":"","type":"bool","internalType":"bool"}],"stateMutability":"pure"},{"type":"function","name":"combineOptions","inputs":[{"name":"_eid","type":"uint32","internalType":"uint32"},{"name":"_msgType","type":"uint16","internalType":"uint16"},{"name":"_extraOptions","type":"bytes","internalType":"bytes"}],"outputs":[{"name":"","type":"bytes","internalType":"bytes"}],"stateMutability":"view"},{"type":"function","name":"decimalConversionRate","inputs":[],"outputs":[{"name":"","type":"uint256","internalType":"uint256"}],"stateMutability":"view"},{"type":"function","name":"endpoint","inputs":[],"outputs":[{"name":"","type":"address","internalType":"contract ILayerZeroEndpointV2"}],"stateMutability":"view"},{"type":"function","name":"enforcedOptions","inputs":[{"name":"eid","type":"uint32","internalType":"uint32"},{"name":"msgType","type":"uint16","internalType":"uint16"}],"outputs":[{"name":"enforcedOption","type":"bytes","internalType":"bytes"}],"stateMutability":"view"},{"type":"function","name":"isComposeMsgSender","inputs":[{"name":"","type":"tuple","internalType":"struct Origin","components":[{"name":"srcEid","type":"uint32","internalType":"uint32"},{"name":"sender","type":"bytes32","internalType":"bytes32"},{"name":"nonce","type":"uint64","internalType":"uint64"}]},{"name":"","type":"bytes","internalType":"bytes"},{"name":"_sender","type":"address","internalType":"address"}],"outputs":[{"name":"","type":"bool","internalType":"bool"}],"stateMutability":"view"},{"type":"function","name":"isPeer","inputs":[{"name":"_eid","type":"uint32","internalType":"uint32"},{"name":"_peer","type":"bytes32","internalType":"bytes32"}],"outputs":[{"name":"","type":"bool","internalType":"bool"}],"stateMutability":"view"},{"type":"function","name":"lzReceive","inputs":[{"name":"_origin","type":"tuple","internalType":"struct Origin","components":[{"name":"srcEid","type":"uint32","internalType":"uint32"},{"name":"sender","type":"bytes32","internalType":"bytes32"},{"name":"nonce","type":"uint64","internalType":"uint64"}]},{"name":"_guid","type":"bytes32","internalType":"bytes32"},{"name":"_message","type":"bytes","internalType":"bytes"},{"name":"_executor","type":"address","internalType":"address"},{"name":"_extraData","type":"bytes","internalType":"bytes"}],"outputs":[],"stateMutability":"payable"},{"type":"function","name":"lzReceiveAndRevert","inputs":[{"name":"_packets","type":"tuple[]","internalType":"struct InboundPacket[]","components":[{"name":"origin","type":"tuple","internalType":"struct Origin","components":[{"name":"srcEid","type":"uint32","internalType":"uint32"},{"name":"sender","type":"bytes32","internalType":"bytes32"},{"name":"nonce","type":"uint64","internalType":"uint64"}]},{"name":"dstEid","type":"uint32","internalType":"uint32"},{"name":"receiver","type":"address","internalType":"address"},{"name":"guid","type":"bytes32","internalType":"bytes32"},{"name":"value","type":"uint256","internalType":"uint256"},{"name":"executor","type":"address","internalType":"address"},{"name":"message","type":"bytes","internalType":"bytes"},{"name":"extraData","type":"bytes","internalType":"bytes"}]}],"outputs":[],"stateMutability":"payable"},{"type":"function","name":"lzReceiveSimulate","inputs":[{"name":"_origin","type":"tuple","internalType":"struct Origin","components":[{"name":"srcEid","type":"uint32","internalType":"uint32"},{"name":"sender","type":"bytes32","internalType":"bytes32"},{"name":"nonce","type":"uint64","internalType":"uint64"}]},{"name":"_guid","type":"bytes32","internalType":"bytes32"},{"name":"_message","type":"bytes","internalType":"bytes"},{"name":"_executor","type":"address","internalType":"address"},{"name":"_extraData","type":"bytes","internalType":"bytes"}],"outputs":[],"stateMutability":"payable"},{"type":"function","name":"msgInspector","inputs":[],"outputs":[{"name":"","type":"address","internalType":"address"}],"stateMutability":"view"},{"type":"function","name":"nextNonce","inputs":[{"name":"","type":"uint32","internalType":"uint32"},{"name":"","type":"bytes32","internalType":"bytes32"}],"outputs":[{"name":"nonce","type":"uint64","internalType":"uint64"}],"stateMutability":"view"},{"type":"function","name":"oApp","inputs":[],"outputs":[{"name":"","type":"address","internalType":"address"}],"stateMutability":"view"},{"type":"function","name":"oAppVersion","inputs":[],"outputs":[{"name":"senderVersion","type":"uint64","internalType":"uint64"},{"name":"receiverVersion","type":"uint64","internalType":"uint64"}],"stateMutability":"pure"},{"type":"function","name":"oftVersion","inputs":[],"outputs":[{"name":"interfaceId","type":"bytes4","internalType":"bytes4"},{"name":"version","type":"uint64","internalType":"uint64"}],"stateMutability":"pure"},{"type":"function","name":"owner","inputs":[],"outputs":[{"name":"","type":"address","internalType":"address"}],"stateMutability":"view"},{"type":"function","name":"peers","inputs":[{"name":"eid","type":"uint32","internalType":"uint32"}],"outputs":[{"name":"peer","type":"bytes32","internalType":"bytes32"}],"stateMutability":"view"},{"type":"function","name":"preCrime","inputs":[],"outputs":[{"name":"","type":"address","internalType":"address"}],"stateMutability":"view"},{"type":"function","name":"quoteOFT","inputs":[{"name":"_sendParam","type":"tuple","internalType":"struct SendParam","components":[{"name":"dstEid","type":"uint32","internalType":"uint32"},{"name":"to","type":"bytes32","internalType":"bytes32"},{"name":"amountLD","type":"uint256","internalType":"uint256"},{"name":"minAmountLD","type":"uint256","internalType":"uint256"},{"name":"extraOptions","type":"bytes","internalType":"bytes"},{"name":"composeMsg","type":"bytes","internalType":"bytes"},{"name":"oftCmd","type":"bytes","internalType":"bytes"}]}],"outputs":[{"name":"oftLimit","type":"tuple","internalType":"struct OFTLimit","components":[{"name":"minAmountLD","type":"uint256","internalType":"uint256"},{"name":"maxAmountLD","type":"uint256","internalType":"uint256"}]},{"name":"oftFeeDetails","type":"tuple[]","internalType":"struct OFTFeeDetail[]","components":[{"name":"feeAmountLD","type":"int256","internalType":"int256"},{"name":"description","type":"string","internalType":"string"}]},{"name":"oftReceipt","type":"tuple","internalType":"struct OFTReceipt","components":[{"name":"amountSentLD","type":"uint256","internalType":"uint256"},{"name":"amountReceivedLD","type":"uint256","internalType":"uint256"}]}],"stateMutability":"view"},{"type":"function","name":"quoteSend","inputs":[{"name":"_sendParam","type":"tuple","internalType":"struct SendParam","components":[{"name":"dstEid","type":"uint32","internalType":"uint32"},{"name":"to","type":"bytes32","internalType":"bytes32"},{"name":"amountLD","type":"uint256","internalType":"uint256"},{"name":"minAmountLD","type":"uint256","internalType":"uint256"},{"name":"extraOptions","type":"bytes","internalType":"bytes"},{"name":"composeMsg","type":"bytes","internalType":"bytes"},{"name":"oftCmd","type":"bytes","internalType":"bytes"}]},{"name":"_payInLzToken","type":"bool","internalType":"bool"}],"outputs":[{"name":"msgFee","type":"tuple","internalType":"struct MessagingFee","components":[{"name":"nativeFee","type":"uint256","internalType":"uint256"},{"name":"lzTokenFee","type":"uint256","internalType":"uint256"}]}],"stateMutability":"view"},{"type":"function","name":"renounceOwnership","inputs":[],"outputs":[],"stateMutability":"nonpayable"},{"type":"function","name":"send","inputs":[{"name":"_sendParam","type":"tuple","internalType":"struct SendParam","components":[{"name":"dstEid","type":"uint32","internalType":"uint32"},{"name":"to","type":"bytes32","internalType":"bytes32"},{"name":"amountLD","type":"uint256","internalType":"uint256"},{"name":"minAmountLD","type":"uint256","internalType":"uint256"},{"name":"extraOptions","type":"bytes","internalType":"bytes"},{"name":"composeMsg","type":"bytes","internalType":"bytes"},{"name":"oftCmd","type":"bytes","internalType":"bytes"}]},{"name":"_fee","type":"tuple","internalType":"struct MessagingFee","components":[{"name":"nativeFee","type":"uint256","internalType":"uint256"},{"name":"lzTokenFee","type":"uint256","internalType":"uint256"}]},{"name":"_refundAddress","type":"address","internalType":"address"}],"outputs":[{"name":"msgReceipt","type":"tuple","internalType":"struct MessagingReceipt","components":[{"name":"guid","type":"bytes32","internalType":"bytes32"},{"name":"nonce","type":"uint64","internalType":"uint64"},{"name":"fee","type":"tuple","internalType":"struct MessagingFee","components":[{"name":"nativeFee","type":"uint256","internalType":"uint256"},{"name":"lzTokenFee","type":"uint256","internalType":"uint256"}]}]},{"name":"oftReceipt","type":"tuple","internalType":"struct OFTReceipt","components":[{"name":"amountSentLD","type":"uint256","internalType":"uint256"},{"name":"amountReceivedLD","type":"uint256","internalType":"uint256"}]}],"stateMutability":"payable"},{"type":"function","name":"setDelegate","inputs":[{"name":"_delegate","type":"address","internalType":"address"}],"outputs":[],"stateMutability":"nonpayable"},{"type":"function","name":"setEnforcedOptions","inputs":[{"name":"_enforcedOptions","type":"tuple[]","internalType":"struct EnforcedOptionParam[]","components":[{"name":"eid","type":"uint32","internalType":"uint32"},{"name":"msgType","type":"uint16","internalType":"uint16"},{"name":"options","type":"bytes","internalType":"bytes"}]}],"outputs":[],"stateMutability":"nonpayable"},{"type":"function","name":"setMsgInspector","inputs":[{"name":"_msgInspector","type":"address","internalType":"address"}],"outputs":[],"stateMutability":"nonpayable"},{"type":"function","name":"setPeer","inputs":[{"name":"_eid","type":"uint32","internalType":"uint32"},{"name":"_peer","type":"bytes32","internalType":"bytes32"}],"outputs":[],"stateMutability":"nonpayable"},{"type":"function","name":"setPreCrime","inputs":[{"name":"_preCrime","type":"address","internalType":"address"}],"outputs":[],"stateMutability":"nonpayable"},{"type":"function","name":"sharedDecimals","inputs":[],"outputs":[{"name":"","type":"uint8","internalType":"uint8"}],"stateMutability":"view"},{"type":"function","name":"token","inputs":[],"outputs":[{"name":"","type":"address","internalType":"address"}],"stateMutability":"view"},{"type":"function","name":"transferOwnership","inputs":[{"name":"newOwner","type":"address","internalType":"address"}],"outputs":[],"stateMutability":"nonpayable"},{"type":"event","name":"EnforcedOptionSet","inputs":[{"name":"_enforcedOptions","type":"tuple[]","indexed":false,"internalType":"struct EnforcedOptionParam[]","components":[{"name":"eid","type":"uint32","internalType":"uint32"},{"name":"msgType","type":"uint16","internalType":"uint16"},{"name":"options","type":"bytes","internalType":"bytes"}]}],"anonymous":false},{"type":"event","name":"MsgInspectorSet","inputs":[{"name":"inspector","type":"address","indexed":false,"internalType":"address"}],"anonymous":false},{"type":"event","name":"OFTReceived","inputs":[{"name":"guid","type":"bytes32","indexed":true,"internalType":"bytes32"},{"name":"srcEid","type":"uint32","indexed":false,"internalType":"uint32"},{"name":"toAddress","type":"address","indexed":true,"internalType":"address"},{"name":"amountReceivedLD","type":"uint256","indexed":false,"internalType":"uint256"}],"anonymous":false},{"type":"event","name":"OFTSent","inputs":[{"name":"guid","type":"bytes32","indexed":true,"internalType":"bytes32"},{"name":"dstEid","type":"uint32","indexed":false,"internalType":"uint32"},{"name":"fromAddress","type":"address","indexed":true,"internalType":"address"},{"name":"amountSentLD","type":"uint256","indexed":false,"internalType":"uint256"},{"name":"amountReceivedLD","type":"uint256","indexed":false,"internalType":"uint256"}],"anonymous":false},{"type":"event","name":"OwnershipTransferred","inputs":[{"name":"previousOwner","type":"address","indexed":true,"internalType":"address"},{"name":"newOwner","type":"address","indexed":true,"internalType":"address"}],"anonymous":false},{"type":"event","name":"PeerSet","inputs":[{"name":"eid","type":"uint32","indexed":false,"internalType":"uint32"},{"name":"peer","type":"bytes32","indexed":false,"internalType":"bytes32"}],"anonymous":false},{"type":"event","name":"PreCrimeSet","inputs":[{"name":"preCrimeAddress","type":"address","indexed":false,"internalType":"address"}],"anonymous":false},{"type":"error","name":"InvalidDelegate","inputs":[]},{"type":"error","name":"InvalidEndpointCall","inputs":[]},{"type":"error","name":"InvalidLocalDecimals","inputs":[]},{"type":"error","name":"InvalidOptions","inputs":[{"name":"options","type":"bytes","internalType":"bytes"}]},{"type":"error","name":"LzTokenUnavailable","inputs":[]},{"type":"error","name":"NoPeer","inputs":[{"name":"eid","type":"uint32","internalType":"uint32"}]},{"type":"error","name":"NotEnoughNative","inputs":[{"name":"msgValue","type":"uint256","internalType":"uint256"}]},{"type":"error","name":"OnlyEndpoint","inputs":[{"name":"addr","type":"address","internalType":"address"}]},{"type":"error","name":"OnlyPeer","inputs":[{"name":"eid","type":"uint32","internalType":"uint32"},{"name":"sender","type":"bytes32","internalType":"bytes32"}]},{"type":"error","name":"OnlySelf","inputs":[]},{"type":"error","name":"OwnableInvalidOwner","inputs":[{"name":"owner","type":"address","internalType":"address"}]},{"type":"error","name":"OwnableUnauthorizedAccount","inputs":[{"name":"account","type":"address","internalType":"address"}]},{"type":"error","name":"SafeERC20FailedOperation","inputs":[{"name":"token","type":"address","internalType":"address"}]},{"type":"error","name":"SimulationResult","inputs":[{"name":"result","type":"bytes","internalType":"bytes"}]},{"type":"error","name":"SlippageExceeded","inputs":[{"name":"amountLD","type":"uint256","internalType":"uint256"},{"name":"minAmountLD","type":"uint256","internalType":"uint256"}]}],"bytecode":{"object":"0x60e060405234801561000f575f5ffd5b50604051612e42380380612e4283398101604081905261002e91610232565b828282826001600160a01b031663313ce5676040518163ffffffff1660e01b8152600401602060405180830381865afa15801561006d573d5f5f3e3d5ffd5b505050506040513d601f19601f820116820180604052508101906100919190610272565b8282818181818a6001600160a01b0381166100c557604051631e4fbdf760e01b81525f600482015260240160405180910390fd5b6100ce816101c3565b506001600160a01b0380831660805281166100fc57604051632d618d8160e21b815260040160405180910390fd5b60805160405163ca5eb5e160e01b81526001600160a01b0383811660048301529091169063ca5eb5e1906024015f604051808303815f87803b158015610140575f5ffd5b505af1158015610152573d5f5f3e3d5ffd5b505050505050505061016861021260201b60201c565b60ff168360ff16101561018e576040516301e9714b60e41b815260040160405180910390fd5b6101996006846102ad565b6101a490600a6103af565b60a0525050506001600160a01b0390921660c052506103bd9350505050565b5f80546001600160a01b038381166001600160a01b0319831681178455604051919092169283917f8be0079c531659141344cd1fd0a4f28419497f9722a3daafe3b4186f6b6457e09190a35050565b600690565b80516001600160a01b038116811461022d575f5ffd5b919050565b5f5f5f60608486031215610244575f5ffd5b61024d84610217565b925061025b60208501610217565b915061026960408501610217565b90509250925092565b5f60208284031215610282575f5ffd5b815160ff81168114610292575f5ffd5b9392505050565b634e487b7160e01b5f52601160045260245ffd5b60ff82811682821603908111156102c6576102c6610299565b92915050565b6001815b6001841115610307578085048111156102eb576102eb610299565b60018416156102f957908102905b60019390931c9280026102d0565b935093915050565b5f8261031d575060016102c6565b8161032957505f6102c6565b816001811461033f576002811461034957610365565b60019150506102c6565b60ff84111561035a5761035a610299565b50506001821b6102c6565b5060208310610133831016604e8410600b8410161715610388575081810a6102c6565b6103945f1984846102cc565b805f19048211156103a7576103a7610299565b029392505050565b5f61029260ff84168361030f565b60805160a05160c051612a0761043b5f395f8181610640015281816116d0015261183f01525f81816104c30152818161161b01528181611694015261178101525f81816103ce0152818161080e01528181610e040152818161105c015281816112db015281816118a101528181611a430152611afa0152612a075ff3fe6080604052600436106101e6575f3560e01c806382413eac11610108578063bc70b3541161009d578063d045a0dc1161006d578063d045a0dc146105e1578063d4243885146105f4578063f2fde38b14610613578063fc0c546a14610632578063ff7bd03d14610664575f5ffd5b8063bc70b3541461056f578063bd815db01461058e578063c7c7f5b3146105a1578063ca5eb5e1146105c2575f5ffd5b80639f68b964116100d85780639f68b964146104f3578063b731ea0a14610506578063b98bd07014610525578063bb0b6a5314610544575f5ffd5b806382413eac1461045c578063857749b01461047b5780638da5cb5b14610496578063963efcaa146104b2575f5ffd5b80633b6f743b1161017e5780635e280f111161014e5780635e280f11146103bd5780636fc1b31e146103f0578063715018a61461040f5780637d25a05e14610423575f5ffd5b80633b6f743b1461030e57806352ae28791461033a5780635535d4611461034c5780635a0dfe4d14610378575f5ffd5b8063156a0d0f116101b9578063156a0d0f1461029457806317442b70146102ba5780631f5e1334146102db5780633400288b146102ef575f5ffd5b80630d35b415146101ea578063111ecdad1461022157806313137d6514610258578063134d4f251461026d575b5f5ffd5b3480156101f5575f5ffd5b50610209610204366004611be1565b610683565b60405161021893929190611c40565b60405180910390f35b34801561022c575f5ffd5b50600454610240906001600160a01b031681565b6040516001600160a01b039091168152602001610218565b61026b610266366004611d43565b61080c565b005b348015610278575f5ffd5b50610281600281565b60405161ffff9091168152602001610218565b34801561029f575f5ffd5b506040805162b9270b60e21b81526001602082015201610218565b3480156102c5575f5ffd5b5060408051600181526002602082015201610218565b3480156102e6575f5ffd5b50610281600181565b3480156102fa575f5ffd5b5061026b610309366004611df5565b6108cc565b348015610319575f5ffd5b5061032d610328366004611e2a565b6108e2565b6040516102189190611e78565b348015610345575f5ffd5b5030610240565b348015610357575f5ffd5b5061036b610366366004611ea0565b610948565b6040516102189190611ed1565b348015610383575f5ffd5b506103ad610392366004611df5565b63ffffffff919091165f908152600160205260409020541490565b6040519015158152602001610218565b3480156103c8575f5ffd5b506102407f000000000000000000000000000000000000000000000000000000000000000081565b3480156103fb575f5ffd5b5061026b61040a366004611ee3565b6109ea565b34801561041a575f5ffd5b5061026b610a47565b34801561042e575f5ffd5b5061044461043d366004611df5565b5f92915050565b6040516001600160401b039091168152602001610218565b348015610467575f5ffd5b506103ad610476366004611efe565b610a5a565b348015610486575f5ffd5b5060405160068152602001610218565b3480156104a1575f5ffd5b505f546001600160a01b0316610240565b3480156104bd575f5ffd5b506104e57f000000000000000000000000000000000000000000000000000000000000000081565b604051908152602001610218565b3480156104fe575f5ffd5b5060016103ad565b348015610511575f5ffd5b50600254610240906001600160a01b031681565b348015610530575f5ffd5b5061026b61053f366004611fa0565b610a6f565b34801561054f575f5ffd5b506104e561055e366004611fde565b60016020525f908152604090205481565b34801561057a575f5ffd5b5061036b610589366004611ff7565b610a89565b61026b61059c366004611fa0565b610c2a565b6105b46105af366004612053565b610daa565b6040516102189291906120bb565b3480156105cd575f5ffd5b5061026b6105dc366004611ee3565b610ddd565b61026b6105ef366004611d43565b610e5e565b3480156105ff575f5ffd5b5061026b61060e366004611ee3565b610e8d565b34801561061e575f5ffd5b5061026b61062d366004611ee3565b610ee3565b34801561063d575f5ffd5b507f0000000000000000000000000000000000000000000000000000000000000000610240565b34801561066f575f5ffd5b506103ad61067e36600461210c565b610f20565b604080518082019091525f808252602082015260606106b360405180604001604052805f81526020015f81525090565b5f5f90505f306001600160a01b031663fc0c546a6040518163ffffffff1660e01b8152600401602060405180830381865afa1580156106f4573d5f5f3e3d5ffd5b505050506040513d601f19601f820116820180604052508101906107189190612126565b6001600160a01b03166318160ddd6040518163ffffffff1660e01b8152600401602060405180830381865afa158015610753573d5f5f3e3d5ffd5b505050506040513d601f19601f820116820180604052508101906107779190612141565b604080518082018252848152602080820184905282515f808252918101909352909750919250906107ca565b604080518082019091525f8152606060208201528152602001906001900390816107a35790505b5093505f806107ee604089013560608a01356107e960208c018c611fde565b610f54565b60408051808201909152918252602082015296989597505050505050565b7f00000000000000000000000000000000000000000000000000000000000000006001600160a01b0316331461085c576040516391ac5e4f60e01b81523360048201526024015b60405180910390fd5b6020870180359061087690610871908a611fde565b610f8f565b146108b4576108886020880188611fde565b60405163309afaf360e21b815263ffffffff909116600482015260208801356024820152604401610853565b6108c387878787878787610fca565b50505050505050565b6108d4611128565b6108de8282611154565b5050565b604080518082019091525f80825260208201525f610910604085013560608601356107e96020880188611fde565b9150505f5f61091f86846111a8565b909250905061093c6109346020880188611fde565b8383886112c6565b93505050505b92915050565b600360209081525f92835260408084209091529082529020805461096b9061216c565b80601f01602080910402602001604051908101604052809291908181526020018280546109979061216c565b80156109e25780601f106109b9576101008083540402835291602001916109e2565b820191905f5260205f20905b8154815290600101906020018083116109c557829003601f168201915b505050505081565b6109f2611128565b600480546001600160a01b0319166001600160a01b0383169081179091556040519081527ff0be4f1e87349231d80c36b33f9e8639658eeaf474014dee15a3e6a4d4414197906020015b60405180910390a150565b610a4f611128565b610a585f6113a4565b565b6001600160a01b03811630145b949350505050565b610a77611128565b6108de610a84828461223e565b6113f3565b63ffffffff84165f90815260036020908152604080832061ffff87168452909152812080546060929190610abc9061216c565b80601f0160208091040260200160405190810160405280929190818152602001828054610ae89061216c565b8015610b335780601f10610b0a57610100808354040283529160200191610b33565b820191905f5260205f20905b815481529060010190602001808311610b1657829003601f168201915b5050505050905080515f03610b815783838080601f0160208091040260200160405190810160405280939291908181526020018383808284375f92019190915250929450610a679350505050565b5f839003610b90579050610a67565b60028310610c0d57610bd684848080601f0160208091040260200160405190810160405280939291908181526020018383808284375f920191909152506114f492505050565b80610be4846002818861235f565b604051602001610bf69392919061239d565b604051602081830303815290604052915050610a67565b8383604051639a6d49cd60e01b81526004016108539291906123e3565b5f5b81811015610d2d5736838383818110610c4757610c476123f6565b9050602002810190610c59919061240a565b9050610c8b610c6b6020830183611fde565b602083013563ffffffff919091165f908152600160205260409020541490565b610c955750610d25565b3063d045a0dc60c08301358360a0810135610cb4610100830183612429565b610cc5610100890160e08a01611ee3565b610cd36101208a018a612429565b6040518963ffffffff1660e01b8152600401610cf5979695949392919061247f565b5f604051808303818588803b158015610d0c575f5ffd5b505af1158015610d1e573d5f5f3e3d5ffd5b5050505050505b600101610c2c565b50336001600160a01b0316638e9e70996040518163ffffffff1660e01b81526004015f60405180830381865afa158015610d69573d5f5f3e3d5ffd5b505050506040513d5f823e601f3d908101601f19168201604052610d909190810190612504565b604051638351eea760e01b81526004016108539190611ed1565b610db2611b8b565b604080518082019091525f8082526020820152610dd0858585611520565b915091505b935093915050565b610de5611128565b60405163ca5eb5e160e01b81526001600160a01b0382811660048301527f0000000000000000000000000000000000000000000000000000000000000000169063ca5eb5e1906024015f604051808303815f87803b158015610e45575f5ffd5b505af1158015610e57573d5f5f3e3d5ffd5b5050505050565b333014610e7e5760405163029a949d60e31b815260040160405180910390fd5b6108c3878787878787876108b4565b610e95611128565b600280546001600160a01b0319166001600160a01b0383169081179091556040519081527fd48d879cef83a1c0bdda516f27b13ddb1b3f8bbac1c9e1511bb2a659c242776090602001610a3c565b610eeb611128565b6001600160a01b038116610f1457604051631e4fbdf760e01b81525f6004820152602401610853565b610f1d816113a4565b50565b5f602082018035906001908390610f379086611fde565b63ffffffff16815260208101919091526040015f20541492915050565b5f5f610f5f85611618565b915081905083811015610dd5576040516371c4efed60e01b81526004810182905260248101859052604401610853565b63ffffffff81165f90815260016020526040812054806109425760405163f6ff4fb760e01b815263ffffffff84166004820152602401610853565b5f610fdb610fd8878761164e565b90565b90505f61100682610ff4610fef8a8a61166c565b61168e565b61100160208d018d611fde565b6116c2565b905060288611156110c6575f61104261102560608c0160408d01612578565b61103260208d018d611fde565b8461103d8c8c6116ff565b611749565b604051633e5ac80960e11b81529091506001600160a01b037f00000000000000000000000000000000000000000000000000000000000000001690637cb59012906110979086908d905f908790600401612593565b5f604051808303815f87803b1580156110ae575f5ffd5b505af11580156110c0573d5f5f3e3d5ffd5b50505050505b6001600160a01b038216887fefed6d3500546b29533b128a29e3a94d70788727f0507505ac12eaf2e578fd9c6110ff60208d018d611fde565b6040805163ffffffff9092168252602082018690520160405180910390a3505050505050505050565b5f546001600160a01b03163314610a585760405163118cdaa760e01b8152336004820152602401610853565b63ffffffff82165f81815260016020908152604091829020849055815192835282018390527f238399d427b947898edb290f5ff0f9109849b1c3ba196a42e35f00c50a54b98b910160405180910390a15050565b6060805f61120385602001356111bd8661177b565b6111ca60a0890189612429565b8080601f0160208091040260200160405190810160405280939291908181526020018383808284375f920191909152506117a692505050565b90935090505f81611215576001611218565b60025b905061123861122a6020880188611fde565b8261058960808a018a612429565b6004549093506001600160a01b031680156112bc5760405163043a78eb60e01b81526001600160a01b0382169063043a78eb9061127b90889088906004016125cd565b602060405180830381865afa158015611296573d5f5f3e3d5ffd5b505050506040513d601f19601f820116820180604052508101906112ba91906125f1565b505b5050509250929050565b604080518082019091525f80825260208201527f00000000000000000000000000000000000000000000000000000000000000006001600160a01b031663ddc28c586040518060a001604052808863ffffffff16815260200161132889610f8f565b8152602001878152602001868152602001851515815250306040518363ffffffff1660e01b815260040161135d92919061260c565b6040805180830381865afa158015611377573d5f5f3e3d5ffd5b505050506040513d601f19601f8201168201806040525081019061139b91906126b3565b95945050505050565b5f80546001600160a01b038381166001600160a01b0319831681178455604051919092169283917f8be0079c531659141344cd1fd0a4f28419497f9722a3daafe3b4186f6b6457e09190a35050565b5f5b81518110156114c457611424828281518110611413576114136123f6565b6020026020010151604001516114f4565b818181518110611436576114366123f6565b60200260200101516040015160035f848481518110611457576114576123f6565b60200260200101515f015163ffffffff1663ffffffff1681526020019081526020015f205f84848151811061148e5761148e6123f6565b60200260200101516020015161ffff1661ffff1681526020019081526020015f2090816114bb9190612711565b506001016113f5565b507fbe4864a8e820971c0247f5992e2da559595f7bf076a21cb5928d443d2a13b67481604051610a3c91906127cb565b600281015161ffff81166003146108de5781604051639a6d49cd60e01b81526004016108539190611ed1565b611528611b8b565b604080518082019091525f80825260208201525f8061155d33604089013560608a013561155860208c018c611fde565b611820565b915091505f5f61156d89846111a8565b909250905061159961158260208b018b611fde565b8383611593368d90038d018d612859565b8b611870565b60408051808201909152858152602080820186905282519298509096503391907f85496b760a4b7f8d66384b9df21b381f5d1b1e79f229a47aaf4c232edc2fe59a906115e7908d018d611fde565b6040805163ffffffff909216825260208201899052810187905260600160405180910390a350505050935093915050565b5f7f0000000000000000000000000000000000000000000000000000000000000000611644818461288a565b61094291906128a9565b5f61165c602082848661235f565b611665916128cc565b9392505050565b5f61167b60286020848661235f565b611684916128e9565b60c01c9392505050565b5f6109427f00000000000000000000000000000000000000000000000000000000000000006001600160401b0384166128a9565b5f6116f76001600160a01b037f0000000000000000000000000000000000000000000000000000000000000000168585611976565b509092915050565b606061170e826028818661235f565b8080601f0160208091040260200160405190810160405280939291908181526020018383808284375f92019190915250929695505050505050565b6060848484846040516020016117629493929190612921565b6040516020818303038152906040529050949350505050565b5f6109427f00000000000000000000000000000000000000000000000000000000000000008361288a565b80516060901515806117ef5784846040516020016117db92919091825260c01b6001600160c01b031916602082015260280190565b604051602081830303815290604052611816565b84843385604051602001611806949392919061295b565b6040516020818303038152906040525b9150935093915050565b5f5f61182d858585610f54565b90925090506118676001600160a01b037f0000000000000000000000000000000000000000000000000000000000000000168730856119da565b94509492505050565b611878611b8b565b5f611885845f0151611a19565b60208501519091501561189f5761189f8460200151611a40565b7f00000000000000000000000000000000000000000000000000000000000000006001600160a01b0316632637a450826040518060a001604052808b63ffffffff1681526020016118ef8c610f8f565b81526020018a81526020018981526020015f8960200151111515815250866040518463ffffffff1660e01b815260040161192a92919061260c565b60806040518083038185885af1158015611946573d5f5f3e3d5ffd5b50505050506040513d601f19601f8201168201806040525081019061196b9190612987565b979650505050505050565b6040516001600160a01b038381166024830152604482018390526119d591859182169063a9059cbb906064015b604051602081830303815290604052915060e01b6020820180516001600160e01b038381831617835250505050611b1f565b505050565b6040516001600160a01b038481166024830152838116604483015260648201839052611a139186918216906323b872dd906084016119a3565b50505050565b5f813414611a3c576040516304fb820960e51b8152346004820152602401610853565b5090565b5f7f00000000000000000000000000000000000000000000000000000000000000006001600160a01b031663e4fe1d946040518163ffffffff1660e01b8152600401602060405180830381865afa158015611a9d573d5f5f3e3d5ffd5b505050506040513d601f19601f82011682018060405250810190611ac19190612126565b90506001600160a01b038116611aea576040516329b99a9560e11b815260040160405180910390fd5b6108de6001600160a01b038216337f0000000000000000000000000000000000000000000000000000000000000000856119da565b5f5f60205f8451602086015f885af180611b3e576040513d5f823e3d81fd5b50505f513d91508115611b55578060011415611b62565b6001600160a01b0384163b155b15611a1357604051635274afe760e01b81526001600160a01b0385166004820152602401610853565b60405180606001604052805f81526020015f6001600160401b03168152602001611bc660405180604001604052805f81526020015f81525090565b905290565b5f60e08284031215611bdb575f5ffd5b50919050565b5f60208284031215611bf1575f5ffd5b81356001600160401b03811115611c06575f5ffd5b610a6784828501611bcb565b5f81518084528060208401602086015e5f602082860101526020601f19601f83011685010191505092915050565b83518152602080850151908201525f60a0820160a0604084015280855180835260c08501915060c08160051b8601019250602087015f5b82811015611cbf5760bf198786030184528151805186526020810151905060406020870152611ca96040870182611c12565b9550506020938401939190910190600101611c77565b5050855160608601525050602084015160808401529050610a67565b5f60608284031215611bdb575f5ffd5b5f5f83601f840112611cfb575f5ffd5b5081356001600160401b03811115611d11575f5ffd5b602083019150836020828501011115611d28575f5ffd5b9250929050565b6001600160a01b0381168114610f1d575f5ffd5b5f5f5f5f5f5f5f60e0888a031215611d59575f5ffd5b611d638989611cdb565b96506060880135955060808801356001600160401b03811115611d84575f5ffd5b611d908a828b01611ceb565b90965094505060a0880135611da481611d2f565b925060c08801356001600160401b03811115611dbe575f5ffd5b611dca8a828b01611ceb565b989b979a50959850939692959293505050565b803563ffffffff81168114611df0575f5ffd5b919050565b5f5f60408385031215611e06575f5ffd5b611e0f83611ddd565b946020939093013593505050565b8015158114610f1d575f5ffd5b5f5f60408385031215611e3b575f5ffd5b82356001600160401b03811115611e50575f5ffd5b611e5c85828601611bcb565b9250506020830135611e6d81611e1d565b809150509250929050565b815181526020808301519082015260408101610942565b803561ffff81168114611df0575f5ffd5b5f5f60408385031215611eb1575f5ffd5b611eba83611ddd565b9150611ec860208401611e8f565b90509250929050565b602081525f6116656020830184611c12565b5f60208284031215611ef3575f5ffd5b813561166581611d2f565b5f5f5f5f60a08587031215611f11575f5ffd5b611f1b8686611cdb565b935060608501356001600160401b03811115611f35575f5ffd5b611f4187828801611ceb565b9094509250506080850135611f5581611d2f565b939692955090935050565b5f5f83601f840112611f70575f5ffd5b5081356001600160401b03811115611f86575f5ffd5b6020830191508360208260051b8501011115611d28575f5ffd5b5f5f60208385031215611fb1575f5ffd5b82356001600160401b03811115611fc6575f5ffd5b611fd285828601611f60565b90969095509350505050565b5f60208284031215611fee575f5ffd5b61166582611ddd565b5f5f5f5f6060858703121561200a575f5ffd5b61201385611ddd565b935061202160208601611e8f565b925060408501356001600160401b0381111561203b575f5ffd5b61204787828801611ceb565b95989497509550505050565b5f5f5f8385036080811215612066575f5ffd5b84356001600160401b0381111561207b575f5ffd5b61208787828801611bcb565b9450506040601f198201121561209b575f5ffd5b5060208401915060608401356120b081611d2f565b809150509250925092565b5f60c082019050835182526001600160401b03602085015116602083015260408401516120f5604084018280518252602090810151910152565b5082516080830152602083015160a0830152611665565b5f6060828403121561211c575f5ffd5b6116658383611cdb565b5f60208284031215612136575f5ffd5b815161166581611d2f565b5f60208284031215612151575f5ffd5b5051919050565b634e487b7160e01b5f52604160045260245ffd5b600181811c9082168061218057607f821691505b602082108103611bdb57634e487b7160e01b5f52602260045260245ffd5b604051606081016001600160401b03811182821017156121c0576121c0612158565b60405290565b604080519081016001600160401b03811182821017156121c0576121c0612158565b604051601f8201601f191681016001600160401b038111828210171561221057612210612158565b604052919050565b5f6001600160401b0382111561223057612230612158565b50601f01601f191660200190565b5f6001600160401b0383111561225657612256612158565b8260051b612266602082016121e8565b8481529083019060208101903683111561227e575f5ffd5b845b838110156123555780356001600160401b0381111561229d575f5ffd5b860160603682900312156122af575f5ffd5b6122b761219e565b6122c082611ddd565b81526122ce60208301611e8f565b602082015260408201356001600160401b038111156122eb575f5ffd5b919091019036601f8301126122fe575f5ffd5b813561231161230c82612218565b6121e8565b818152366020838601011115612325575f5ffd5b816020850160208301375f6020838301015280604084015250508085525050602083019250602081019050612280565b5095945050505050565b5f5f8585111561236d575f5ffd5b83861115612379575f5ffd5b5050820193919092039150565b5f81518060208401855e5f93019283525090919050565b5f6123a88286612386565b838582375f930192835250909392505050565b81835281816020850137505f828201602090810191909152601f909101601f19169091010190565b602081525f610a676020830184866123bb565b634e487b7160e01b5f52603260045260245ffd5b5f823561013e1983360301811261241f575f5ffd5b9190910192915050565b5f5f8335601e1984360301811261243e575f5ffd5b8301803591506001600160401b03821115612457575f5ffd5b602001915036819003821315611d28575f5ffd5b6001600160401b0381168114610f1d575f5ffd5b63ffffffff61248d89611ddd565b168152602088810135908201525f60408901356124a98161246b565b6001600160401b03811660408401525087606083015260e060808301526124d460e0830187896123bb565b6001600160a01b03861660a084015282810360c08401526124f68185876123bb565b9a9950505050505050505050565b5f60208284031215612514575f5ffd5b81516001600160401b03811115612529575f5ffd5b8201601f81018413612539575f5ffd5b805161254761230c82612218565b81815285602083850101111561255b575f5ffd5b8160208401602083015e5f91810160200191909152949350505050565b5f60208284031215612588575f5ffd5b81356116658161246b565b60018060a01b038516815283602082015261ffff83166040820152608060608201525f6125c36080830184611c12565b9695505050505050565b604081525f6125df6040830185611c12565b828103602084015261139b8185611c12565b5f60208284031215612601575f5ffd5b815161166581611e1d565b6040815263ffffffff8351166040820152602083015160608201525f604084015160a0608084015261264160e0840182611c12565b90506060850151603f198483030160a085015261265e8282611c12565b60809690960151151560c08501525050506001600160a01b039190911660209091015290565b5f60408284031215612694575f5ffd5b61269c6121c6565b825181526020928301519281019290925250919050565b5f604082840312156126c3575f5ffd5b6116658383612684565b601f8211156119d557805f5260205f20601f840160051c810160208510156126f25750805b601f840160051c820191505b81811015610e57575f81556001016126fe565b81516001600160401b0381111561272a5761272a612158565b61273e81612738845461216c565b846126cd565b6020601f821160018114612770575f83156127595750848201515b5f19600385901b1c1916600184901b178455610e57565b5f84815260208120601f198516915b8281101561279f578785015182556020948501946001909201910161277f565b50848210156127bc57868401515f19600387901b60f8161c191681555b50505050600190811b01905550565b5f602082016020835280845180835260408501915060408160051b8601019250602086015f5b8281101561284d57603f19878603018452815163ffffffff815116865261ffff602082015116602087015260408101519050606060408701526128376060870182611c12565b95505060209384019391909101906001016127f1565b50929695505050505050565b5f604082840312801561286a575f5ffd5b506128736121c6565b823581526020928301359281019290925250919050565b5f826128a457634e487b7160e01b5f52601260045260245ffd5b500490565b808202811582820484141761094257634e487b7160e01b5f52601160045260245ffd5b80356020831015610942575f19602084900360031b1b1692915050565b80356001600160c01b0319811690600884101561291a576001600160c01b0319600885900360031b81901b82161691505b5092915050565b60c085901b6001600160c01b031916815260e084901b6001600160e01b0319166008820152600c81018390525f6125c3602c830184612386565b8481526001600160401b0360c01b8460c01b1660208201528260288201525f6125c36048830184612386565b5f6080828403128015612998575f5ffd5b506129a161219e565b8251815260208301516129b38161246b565b60208201526129c58460408501612684565b6040820152939250505056fea2646970667358221220ba3b7f7261a6382da39868f0feb5f82c6206f0e4ce65fc7069175b47809293c164736f6c634300081c0033","linkReferences":{}},"methodIdentifiers":{"SEND()":"1f5e1334","SEND_AND_CALL()":"134d4f25","allowInitializePath((uint32,bytes32,uint64))":"ff7bd03d","approvalRequired()":"9f68b964","combineOptions(uint32,uint16,bytes)":"bc70b354","decimalConversionRate()":"963efcaa","endpoint()":"5e280f11","enforcedOptions(uint32,uint16)":"5535d461","isComposeMsgSender((uint32,bytes32,uint64),bytes,address)":"82413eac","isPeer(uint32,bytes32)":"5a0dfe4d","lzReceive((uint32,bytes32,uint64),bytes32,bytes,address,bytes)":"13137d65","lzReceiveAndRevert(((uint32,bytes32,uint64),uint32,address,bytes32,uint256,address,bytes,bytes)[])":"bd815db0","lzReceiveSimulate((uint32,bytes32,uint64),bytes32,bytes,address,bytes)":"d045a0dc","msgInspector()":"111ecdad","nextNonce(uint32,bytes32)":"7d25a05e","oApp()":"52ae2879","oAppVersion()":"17442b70","oftVersion()":"156a0d0f","owner()":"8da5cb5b","peers(uint32)":"bb0b6a53","preCrime()":"b731ea0a","quoteOFT((uint32,bytes32,uint256,uint256,bytes,bytes,bytes))":"0d35b415","quoteSend((uint32,bytes32,uint256,uint256,bytes,bytes,bytes),bool)":"3b6f743b","renounceOwnership()":"715018a6","send((uint32,bytes32,uint256,uint256,bytes,bytes,bytes),(uint256,uint256),address)":"c7c7f5b3","setDelegate(address)":"ca5eb5e1","setEnforcedOptions((uint32,uint16,bytes)[])":"b98bd070","setMsgInspector(address)":"6fc1b31e","setPeer(uint32,bytes32)":"3400288b","setPreCrime(address)":"d4243885","sharedDecimals()":"857749b0","token()":"fc0c546a","transferOwnership(address)":"f2fde38b"},"id":97}