{"abi":[{"type":"constructor","inputs":[{"name":"_localEidV2","type":"uint32","internalType":"uint32"},{"name":"_vid","type":"uint32","internalType":"uint32"},{"name":"_messageLibs","type":"address[]","internalType":"address[]"},{"name":"_priceFeed","type":"address","internalType":"address"},{"name":"_signers","type":"address[]","internalType":"address[]"},{"name":"_quorum","type":"uint64","internalType":"uint64"},{"name":"_admins","type":"address[]","internalType":"address[]"}],"stateMutability":"nonpayable"},{"type":"function","name":"DEFAULT_ADMIN_ROLE","inputs":[],"outputs":[{"name":"","type":"bytes32","internalType":"bytes32"}],"stateMutability":"view"},{"type":"function","name":"allowlistSize","inputs":[],"outputs":[{"name":"","type":"uint64","internalType":"uint64"}],"stateMutability":"view"},{"type":"function","name":"assignJob","inputs":[{"name":"_param","type":"tuple","internalType":"struct ILayerZeroDVN.AssignJobParam","components":[{"name":"dstEid","type":"uint32","internalType":"uint32"},{"name":"packetHeader","type":"bytes","internalType":"bytes"},{"name":"payloadHash","type":"bytes32","internalType":"bytes32"},{"name":"confirmations","type":"uint64","internalType":"uint64"},{"name":"sender","type":"address","internalType":"address"}]},{"name":"_options","type":"bytes","internalType":"bytes"}],"outputs":[{"name":"totalFee","type":"uint256","internalType":"uint256"}],"stateMutability":"payable"},{"type":"function","name":"assignJob","inputs":[{"name":"_dstEid","type":"uint16","internalType":"uint16"},{"name":"","type":"uint16","internalType":"uint16"},{"name":"_confirmations","type":"uint64","internalType":"uint64"},{"name":"_sender","type":"address","internalType":"address"}],"outputs":[{"name":"totalFee","type":"uint256","internalType":"uint256"}],"stateMutability":"nonpayable"},{"type":"function","name":"assignJob","inputs":[{"name":"_sender","type":"address","internalType":"address"},{"name":"","type":"bytes","internalType":"bytes"},{"name":"_cmd","type":"bytes","internalType":"bytes"},{"name":"_options","type":"bytes","internalType":"bytes"}],"outputs":[{"name":"fee","type":"uint256","internalType":"uint256"}],"stateMutability":"payable"},{"type":"function","name":"defaultMultiplierBps","inputs":[],"outputs":[{"name":"","type":"uint16","internalType":"uint16"}],"stateMutability":"view"},{"type":"function","name":"dstConfig","inputs":[{"name":"dstEid","type":"uint32","internalType":"uint32"}],"outputs":[{"name":"gas","type":"uint64","internalType":"uint64"},{"name":"multiplierBps","type":"uint16","internalType":"uint16"},{"name":"floorMarginUSD","type":"uint128","internalType":"uint128"}],"stateMutability":"view"},{"type":"function","name":"execute","inputs":[{"name":"_params","type":"tuple[]","internalType":"struct ExecuteParam[]","components":[{"name":"vid","type":"uint32","internalType":"uint32"},{"name":"target","type":"address","internalType":"address"},{"name":"callData","type":"bytes","internalType":"bytes"},{"name":"expiration","type":"uint256","internalType":"uint256"},{"name":"signatures","type":"bytes","internalType":"bytes"}]}],"outputs":[],"stateMutability":"nonpayable"},{"type":"function","name":"getFee","inputs":[{"name":"_dstEid","type":"uint32","internalType":"uint32"},{"name":"_confirmations","type":"uint64","internalType":"uint64"},{"name":"_sender","type":"address","internalType":"address"},{"name":"_options","type":"bytes","internalType":"bytes"}],"outputs":[{"name":"fee","type":"uint256","internalType":"uint256"}],"stateMutability":"view"},{"type":"function","name":"getFee","inputs":[{"name":"_dstEid","type":"uint16","internalType":"uint16"},{"name":"","type":"uint16","internalType":"uint16"},{"name":"_confirmations","type":"uint64","internalType":"uint64"},{"name":"_sender","type":"address","internalType":"address"}],"outputs":[{"name":"fee","type":"uint256","internalType":"uint256"}],"stateMutability":"view"},{"type":"function","name":"getFee","inputs":[{"name":"_sender","type":"address","internalType":"address"},{"name":"","type":"bytes","internalType":"bytes"},{"name":"_cmd","type":"bytes","internalType":"bytes"},{"name":"_options","type":"bytes","internalType":"bytes"}],"outputs":[{"name":"fee","type":"uint256","internalType":"uint256"}],"stateMutability":"view"},{"type":"function","name":"getRoleAdmin","inputs":[{"name":"role","type":"bytes32","internalType":"bytes32"}],"outputs":[{"name":"","type":"bytes32","internalType":"bytes32"}],"stateMutability":"view"},{"type":"function","name":"getSupportedOptionTypes","inputs":[{"name":"_eid","type":"uint32","internalType":"uint32"}],"outputs":[{"name":"","type":"uint8[]","internalType":"uint8[]"}],"stateMutability":"view"},{"type":"function","name":"grantRole","inputs":[{"name":"_role","type":"bytes32","internalType":"bytes32"},{"name":"_account","type":"address","internalType":"address"}],"outputs":[],"stateMutability":"nonpayable"},{"type":"function","name":"hasAcl","inputs":[{"name":"_sender","type":"address","internalType":"address"}],"outputs":[{"name":"","type":"bool","internalType":"bool"}],"stateMutability":"view"},{"type":"function","name":"hasRole","inputs":[{"name":"role","type":"bytes32","internalType":"bytes32"},{"name":"account","type":"address","internalType":"address"}],"outputs":[{"name":"","type":"bool","internalType":"bool"}],"stateMutability":"view"},{"type":"function","name":"hashCallData","inputs":[{"name":"_vid","type":"uint32","internalType":"uint32"},{"name":"_target","type":"address","internalType":"address"},{"name":"_callData","type":"bytes","internalType":"bytes"},{"name":"_expiration","type":"uint256","internalType":"uint256"}],"outputs":[{"name":"","type":"bytes32","internalType":"bytes32"}],"stateMutability":"pure"},{"type":"function","name":"localEidV2","inputs":[],"outputs":[{"name":"","type":"uint32","internalType":"uint32"}],"stateMutability":"view"},{"type":"function","name":"paused","inputs":[],"outputs":[{"name":"","type":"bool","internalType":"bool"}],"stateMutability":"view"},{"type":"function","name":"priceFeed","inputs":[],"outputs":[{"name":"","type":"address","internalType":"address"}],"stateMutability":"view"},{"type":"function","name":"quorum","inputs":[],"outputs":[{"name":"","type":"uint64","internalType":"uint64"}],"stateMutability":"view"},{"type":"function","name":"quorumChangeAdmin","inputs":[{"name":"_param","type":"tuple","internalType":"struct ExecuteParam","components":[{"name":"vid","type":"uint32","internalType":"uint32"},{"name":"target","type":"address","internalType":"address"},{"name":"callData","type":"bytes","internalType":"bytes"},{"name":"expiration","type":"uint256","internalType":"uint256"},{"name":"signatures","type":"bytes","internalType":"bytes"}]}],"outputs":[],"stateMutability":"nonpayable"},{"type":"function","name":"renounceRole","inputs":[{"name":"","type":"bytes32","internalType":"bytes32"},{"name":"","type":"address","internalType":"address"}],"outputs":[],"stateMutability":"pure"},{"type":"function","name":"revokeRole","inputs":[{"name":"_role","type":"bytes32","internalType":"bytes32"},{"name":"_account","type":"address","internalType":"address"}],"outputs":[],"stateMutability":"nonpayable"},{"type":"function","name":"setDefaultMultiplierBps","inputs":[{"name":"_multiplierBps","type":"uint16","internalType":"uint16"}],"outputs":[],"stateMutability":"nonpayable"},{"type":"function","name":"setDstConfig","inputs":[{"name":"_params","type":"tuple[]","internalType":"struct IDVN.DstConfigParam[]","components":[{"name":"dstEid","type":"uint32","internalType":"uint32"},{"name":"gas","type":"uint64","internalType":"uint64"},{"name":"multiplierBps","type":"uint16","internalType":"uint16"},{"name":"floorMarginUSD","type":"uint128","internalType":"uint128"}]}],"outputs":[],"stateMutability":"nonpayable"},{"type":"function","name":"setPaused","inputs":[{"name":"_paused","type":"bool","internalType":"bool"}],"outputs":[],"stateMutability":"nonpayable"},{"type":"function","name":"setPriceFeed","inputs":[{"name":"_priceFeed","type":"address","internalType":"address"}],"outputs":[],"stateMutability":"nonpayable"},{"type":"function","name":"setQuorum","inputs":[{"name":"_quorum","type":"uint64","internalType":"uint64"}],"outputs":[],"stateMutability":"nonpayable"},{"type":"function","name":"setSigner","inputs":[{"name":"_signer","type":"address","internalType":"address"},{"name":"_active","type":"bool","internalType":"bool"}],"outputs":[],"stateMutability":"nonpayable"},{"type":"function","name":"setSupportedOptionTypes","inputs":[{"name":"_eid","type":"uint32","internalType":"uint32"},{"name":"_optionTypes","type":"uint8[]","internalType":"uint8[]"}],"outputs":[],"stateMutability":"nonpayable"},{"type":"function","name":"setWorkerFeeLib","inputs":[{"name":"_workerFeeLib","type":"address","internalType":"address"}],"outputs":[],"stateMutability":"nonpayable"},{"type":"function","name":"signerSize","inputs":[],"outputs":[{"name":"","type":"uint64","internalType":"uint64"}],"stateMutability":"view"},{"type":"function","name":"signers","inputs":[{"name":"signer","type":"address","internalType":"address"}],"outputs":[{"name":"active","type":"bool","internalType":"bool"}],"stateMutability":"view"},{"type":"function","name":"supportsInterface","inputs":[{"name":"interfaceId","type":"bytes4","internalType":"bytes4"}],"outputs":[{"name":"","type":"bool","internalType":"bool"}],"stateMutability":"view"},{"type":"function","name":"usedHashes","inputs":[{"name":"executableHash","type":"bytes32","internalType":"bytes32"}],"outputs":[{"name":"used","type":"bool","internalType":"bool"}],"stateMutability":"view"},{"type":"function","name":"verifySignatures","inputs":[{"name":"_hash","type":"bytes32","internalType":"bytes32"},{"name":"_signatures","type":"bytes","internalType":"bytes"}],"outputs":[{"name":"","type":"bool","internalType":"bool"},{"name":"","type":"uint8","internalType":"enum MultiSigMock.Errors"}],"stateMutability":"view"},{"type":"function","name":"vid","inputs":[],"outputs":[{"name":"","type":"uint32","internalType":"uint32"}],"stateMutability":"view"},{"type":"function","name":"withdrawFee","inputs":[{"name":"_lib","type":"address","internalType":"address"},{"name":"_to","type":"address","internalType":"address"},{"name":"_amount","type":"uint256","internalType":"uint256"}],"outputs":[],"stateMutability":"nonpayable"},{"type":"function","name":"withdrawFeeFromUlnV2","inputs":[{"name":"_lib","type":"address","internalType":"address"},{"name":"_to","type":"address","internalType":"address payable"},{"name":"_amount","type":"uint256","internalType":"uint256"}],"outputs":[],"stateMutability":"nonpayable"},{"type":"function","name":"withdrawToken","inputs":[{"name":"_token","type":"address","internalType":"address"},{"name":"_to","type":"address","internalType":"address"},{"name":"_amount","type":"uint256","internalType":"uint256"}],"outputs":[],"stateMutability":"nonpayable"},{"type":"function","name":"workerFeeLib","inputs":[],"outputs":[{"name":"","type":"address","internalType":"address"}],"stateMutability":"view"},{"type":"event","name":"ExecuteFailed","inputs":[{"name":"_index","type":"uint256","indexed":false,"internalType":"uint256"},{"name":"_data","type":"bytes","indexed":false,"internalType":"bytes"}],"anonymous":false},{"type":"event","name":"HashAlreadyUsed","inputs":[{"name":"param","type":"tuple","indexed":false,"internalType":"struct ExecuteParam","components":[{"name":"vid","type":"uint32","internalType":"uint32"},{"name":"target","type":"address","internalType":"address"},{"name":"callData","type":"bytes","internalType":"bytes"},{"name":"expiration","type":"uint256","internalType":"uint256"},{"name":"signatures","type":"bytes","internalType":"bytes"}]},{"name":"_hash","type":"bytes32","indexed":false,"internalType":"bytes32"}],"anonymous":false},{"type":"event","name":"Paused","inputs":[{"name":"account","type":"address","indexed":false,"internalType":"address"}],"anonymous":false},{"type":"event","name":"RoleAdminChanged","inputs":[{"name":"role","type":"bytes32","indexed":true,"internalType":"bytes32"},{"name":"previousAdminRole","type":"bytes32","indexed":true,"internalType":"bytes32"},{"name":"newAdminRole","type":"bytes32","indexed":true,"internalType":"bytes32"}],"anonymous":false},{"type":"event","name":"RoleGranted","inputs":[{"name":"role","type":"bytes32","indexed":true,"internalType":"bytes32"},{"name":"account","type":"address","indexed":true,"internalType":"address"},{"name":"sender","type":"address","indexed":true,"internalType":"address"}],"anonymous":false},{"type":"event","name":"RoleRevoked","inputs":[{"name":"role","type":"bytes32","indexed":true,"internalType":"bytes32"},{"name":"account","type":"address","indexed":true,"internalType":"address"},{"name":"sender","type":"address","indexed":true,"internalType":"address"}],"anonymous":false},{"type":"event","name":"SetDefaultMultiplierBps","inputs":[{"name":"multiplierBps","type":"uint16","indexed":false,"internalType":"uint16"}],"anonymous":false},{"type":"event","name":"SetDstConfig","inputs":[{"name":"params","type":"tuple[]","indexed":false,"internalType":"struct IDVN.DstConfigParam[]","components":[{"name":"dstEid","type":"uint32","internalType":"uint32"},{"name":"gas","type":"uint64","internalType":"uint64"},{"name":"multiplierBps","type":"uint16","internalType":"uint16"},{"name":"floorMarginUSD","type":"uint128","internalType":"uint128"}]}],"anonymous":false},{"type":"event","name":"SetPriceFeed","inputs":[{"name":"priceFeed","type":"address","indexed":false,"internalType":"address"}],"anonymous":false},{"type":"event","name":"SetSupportedOptionTypes","inputs":[{"name":"dstEid","type":"uint32","indexed":false,"internalType":"uint32"},{"name":"optionTypes","type":"uint8[]","indexed":false,"internalType":"uint8[]"}],"anonymous":false},{"type":"event","name":"SetWorkerLib","inputs":[{"name":"workerLib","type":"address","indexed":false,"internalType":"address"}],"anonymous":false},{"type":"event","name":"Unpaused","inputs":[{"name":"account","type":"address","indexed":false,"internalType":"address"}],"anonymous":false},{"type":"event","name":"UpdateQuorum","inputs":[{"name":"_quorum","type":"uint64","indexed":false,"internalType":"uint64"}],"anonymous":false},{"type":"event","name":"UpdateSigner","inputs":[{"name":"_signer","type":"address","indexed":false,"internalType":"address"},{"name":"_active","type":"bool","indexed":false,"internalType":"bool"}],"anonymous":false},{"type":"event","name":"VerifierFeePaid","inputs":[{"name":"fee","type":"uint256","indexed":false,"internalType":"uint256"}],"anonymous":false},{"type":"event","name":"VerifySignaturesFailed","inputs":[{"name":"idx","type":"uint256","indexed":false,"internalType":"uint256"}],"anonymous":false},{"type":"event","name":"Withdraw","inputs":[{"name":"lib","type":"address","indexed":false,"internalType":"address"},{"name":"to","type":"address","indexed":false,"internalType":"address"},{"name":"amount","type":"uint256","indexed":false,"internalType":"uint256"}],"anonymous":false},{"type":"error","name":"AccessControlBadConfirmation","inputs":[]},{"type":"error","name":"AccessControlUnauthorizedAccount","inputs":[{"name":"account","type":"address","internalType":"address"},{"name":"neededRole","type":"bytes32","internalType":"bytes32"}]},{"type":"error","name":"DVN_DuplicatedHash","inputs":[{"name":"executableHash","type":"bytes32","internalType":"bytes32"}]},{"type":"error","name":"DVN_InstructionExpired","inputs":[]},{"type":"error","name":"DVN_InvalidRole","inputs":[{"name":"role","type":"bytes32","internalType":"bytes32"}]},{"type":"error","name":"DVN_InvalidSignatures","inputs":[]},{"type":"error","name":"DVN_InvalidTarget","inputs":[{"name":"target","type":"address","internalType":"address"}]},{"type":"error","name":"DVN_InvalidVid","inputs":[{"name":"vid","type":"uint32","internalType":"uint32"}]},{"type":"error","name":"DVN_OnlySelf","inputs":[]},{"type":"error","name":"EnforcedPause","inputs":[]},{"type":"error","name":"ExpectedPause","inputs":[]},{"type":"error","name":"MultiSig_OnlySigner","inputs":[]},{"type":"error","name":"MultiSig_QuorumIsZero","inputs":[]},{"type":"error","name":"MultiSig_SignersSizeIsLessThanQuorum","inputs":[{"name":"signersSize","type":"uint64","internalType":"uint64"},{"name":"quorum","type":"uint64","internalType":"uint64"}]},{"type":"error","name":"MultiSig_StateAlreadySet","inputs":[{"name":"signer","type":"address","internalType":"address"},{"name":"active","type":"bool","internalType":"bool"}]},{"type":"error","name":"MultiSig_UnorderedSigners","inputs":[]},{"type":"error","name":"SafeERC20FailedOperation","inputs":[{"name":"token","type":"address","internalType":"address"}]},{"type":"error","name":"Transfer_NativeFailed","inputs":[{"name":"_to","type":"address","internalType":"address"},{"name":"_value","type":"uint256","internalType":"uint256"}]},{"type":"error","name":"Transfer_ToAddressIsZero","inputs":[]},{"type":"error","name":"Worker_NotAllowed","inputs":[]},{"type":"error","name":"Worker_OnlyMessageLib","inputs":[]},{"type":"error","name":"Worker_RoleRenouncingDisabled","inputs":[]}],"bytecode":{"object":"0x60c060405234801561000f575f5ffd5b50604051613a5d380380613a5d83398101604081905261002e91610499565b6001805460ff61ffff60e81b01191661017760ed1b179055600280546001600160a01b0319166001600160a01b03861617905582828686612ee05f865f5b85518110156100c7576100be7f724aface199fe5bed93ae8508474576a9adf3dc443b2c451842a2242919f19de8783815181106100ab576100ab610577565b602002602001015161025d60201b60201c565b5060010161006c565b505f5b8151811015610112576101097fa49807205ce4d355092ef5a8a18f56e8913cf4a201fbe287825b095693c217758383815181106100ab576100ab610577565b506001016100ca565b505050505050806001600160401b03165f0361014157604051635f86e17760e01b815260040160405180910390fd5b806001600160401b0316825110156101865781516040516378e2c15760e11b81526001600160401b039182166004820152908216602482015260440160405180910390fd5b5f805b835181101561020f575f8482815181106101a5576101a5610577565b60200260200101519050826001600160a01b0316816001600160a01b0316116101e1576040516305fa937f60e11b815260040160405180910390fd5b6001600160a01b0381165f908152600460205260409020805460ff1916600190811790915590925001610189565b50509051600580546001600160401b0393841668010000000000000000026001600160801b0319909116939092169290921717905550505063ffffffff92831660805250501660a0526105c2565b5f7f74845de37cfabd357633214b47fa91ccd19b05b7c5a08ac22c187f811fb62bca831480156102ad57505f838152602081815260408083206001600160a01b038616845290915290205460ff16155b156102f757600180546015906102d290600160a81b90046001600160401b031661058b565b91906101000a8154816001600160401b0302191690836001600160401b031602179055505b610301838361030d565b50600190505b92915050565b5f828152602081815260408083206001600160a01b038516845290915281205460ff166103ad575f838152602081815260408083206001600160a01b03861684529091529020805460ff191660011790556103653390565b6001600160a01b0316826001600160a01b0316847f2f8788117e7eff1d82e926ec794901d17c78024a50270940304540a733656f0d60405160405180910390a4506001610307565b505f610307565b805163ffffffff811681146103c7575f5ffd5b919050565b634e487b7160e01b5f52604160045260245ffd5b80516001600160a01b03811681146103c7575f5ffd5b5f82601f830112610405575f5ffd5b81516001600160401b0381111561041e5761041e6103cc565b604051600582901b90603f8201601f191681016001600160401b038111828210171561044c5761044c6103cc565b604052918252602081850181019290810186841115610469575f5ffd5b6020860192505b8383101561048f57610481836103e0565b815260209283019201610470565b5095945050505050565b5f5f5f5f5f5f5f60e0888a0312156104af575f5ffd5b6104b8886103b4565b96506104c6602089016103b4565b60408901519096506001600160401b038111156104e1575f5ffd5b6104ed8a828b016103f6565b9550506104fc606089016103e0565b60808901519094506001600160401b03811115610517575f5ffd5b6105238a828b016103f6565b60a08a015190945090506001600160401b0381168114610541575f5ffd5b60c08901519092506001600160401b0381111561055c575f5ffd5b6105688a828b016103f6565b91505092959891949750929550565b634e487b7160e01b5f52603260045260245ffd5b5f6001600160401b0382166002600160401b031981016105b957634e487b7160e01b5f52601160045260245ffd5b60010192915050565b60805160a05161345e6105ff5f395f81816107eb01528181611cc00152611df001525f818161073f0152818161124c0152611b05015261345e5ff3fe608060405260043610610248575f3560e01c806395d376d711610134578063cd88b903116100b3578063e395eb5c11610078578063e395eb5c146107da578063f010cb231461080d578063f3b4ebd01461082c578063f42ed2ed1461084b578063fd62e7501461085e578063fdb9b0f11461087d575f5ffd5b8063cd88b9031461070f578063cf34c7681461072e578063d2ae210414610776578063d547741f1461079c578063dafe0ccc146107bb575f5ffd5b8063c358de0a116100f9578063c358de0a14610661578063c416aa5114610680578063c5e193cd146106a4578063c7a823e0146106c3578063c7b2370b146106f0575f5ffd5b806395d376d71461056b5780639e9449651461057e578063a217fddf14610601578063aef18bf714610614578063b143044b14610642575f5ffd5b806330bb3aac116101cb5780635c975abb116101905780635c975abb14610492578063724e78da146104a9578063736c0d5b146104c8578063741bef1a146104f65780638585c9451461052d57806391d148541461054c575f5ffd5b806330bb3aac146103f757806331cb61051461041657806336568abe1461043557806352d3b871146104545780635553fb8e14610473575f5ffd5b80631703a018116102115780631703a01814610313578063248a9ca31461035157806326e67a371461038d5780632de11376146103b95780632f2ff15d146103d8575f5ffd5b8062bf2e801461024c57806301e336671461028557806301ffc9a7146102a65780631095b6d7146102d557806316c38b3c146102f4575b5f5ffd5b348015610257575f5ffd5b5060015461026d90600160e81b900461ffff1681565b60405161ffff90911681526020015b60405180910390f35b348015610290575f5ffd5b506102a461029f3660046127cb565b61089c565b005b3480156102b1575f5ffd5b506102c56102c0366004612809565b6108c4565b604051901515815260200161027c565b3480156102e0575f5ffd5b506102a46102ef3660046127cb565b6108fa565b3480156102ff575f5ffd5b506102a461030e366004612846565b6109f5565b34801561031e575f5ffd5b5060055461033990600160401b90046001600160401b031681565b6040516001600160401b03909116815260200161027c565b34801561035c575f5ffd5b5061037f61036b36600461285f565b5f9081526020819052604090206001015490565b60405190815260200161027c565b348015610398575f5ffd5b506103ac6103a7366004612889565b610a19565b60405161027c91906128a2565b3480156103c4575f5ffd5b506102c56103d33660046128e7565b610a9c565b3480156103e3575f5ffd5b506102a46103f2366004612902565b610b1d565b348015610402575f5ffd5b5061037f61041136600461298a565b610bee565b348015610421575f5ffd5b506102a46104303660046129fc565b610d02565b348015610440575f5ffd5b506102a461044f366004612902565b610d2c565b34801561045f575f5ffd5b506102a461046e366004612a2f565b610d45565b34801561047e575f5ffd5b5061037f61048d366004612aaf565b610eba565b34801561049d575f5ffd5b5060015460ff166102c5565b3480156104b4575f5ffd5b506102a46104c33660046128e7565b610fce565b3480156104d3575f5ffd5b506102c56104e23660046128e7565b60046020525f908152604090205460ff1681565b348015610501575f5ffd5b50600254610515906001600160a01b031681565b6040516001600160a01b03909116815260200161027c565b348015610538575f5ffd5b506102a4610547366004612b02565b61103b565b348015610557575f5ffd5b506102c5610566366004612902565b611067565b61037f610579366004612b31565b61108f565b348015610589575f5ffd5b506105d0610598366004612889565b60066020525f90815260409020546001600160401b03811690600160401b810461ffff1690600160501b90046001600160801b031683565b604080516001600160401b03909416845261ffff90921660208401526001600160801b03169082015260600161027c565b34801561060c575f5ffd5b5061037f5f81565b34801561061f575f5ffd5b506102c561062e36600461285f565b60076020525f908152604090205460ff1681565b34801561064d575f5ffd5b506102a461065c366004612bd8565b6111fd565b34801561066c575f5ffd5b506102a461067b366004612c16565b6114a5565b34801561068b575f5ffd5b506001546105159061010090046001600160a01b031681565b3480156106af575f5ffd5b5061037f6106be366004612aaf565b61150c565b3480156106ce575f5ffd5b506106e26106dd366004612c2f565b611673565b60405161027c929190612c71565b3480156106fb575f5ffd5b506102a461070a3660046128e7565b611843565b34801561071a575f5ffd5b506102a4610729366004612ca3565b6118b0565b348015610739575f5ffd5b506107617f000000000000000000000000000000000000000000000000000000000000000081565b60405163ffffffff909116815260200161027c565b348015610781575f5ffd5b5060015461033990600160a81b90046001600160401b031681565b3480156107a7575f5ffd5b506102a46107b6366004612902565b6118ed565b3480156107c6575f5ffd5b506102a46107d53660046127cb565b61199d565b3480156107e5575f5ffd5b506107617f000000000000000000000000000000000000000000000000000000000000000081565b348015610818575f5ffd5b5061037f610827366004612ce4565b611a4b565b348015610837575f5ffd5b506102a4610846366004612d49565b611a86565b61037f610859366004612d82565b611c2f565b348015610869575f5ffd5b50600554610339906001600160401b031681565b348015610888575f5ffd5b5061037f610897366004612d82565b611d76565b5f5160206133e95f395f51905f526108b381611ea3565b6108be848484611ead565b50505050565b5f6001600160e01b03198216637965db0b60e01b14806108f457506301ffc9a760e01b6001600160e01b03198316145b92915050565b5f5160206133e95f395f51905f5261091181611ea3565b6109285f5160206133c95f395f51905f5285611067565b61094557604051635ee08b9760e01b815260040160405180910390fd5b604051637ecdf29160e11b81526001600160a01b0384811660048301526024820184905285169063fd9be522906044015f604051808303815f87803b15801561098c575f5ffd5b505af115801561099e573d5f5f3e3d5ffd5b5050604080516001600160a01b038089168252871660208201529081018590527f9b1bfa7fa9ee420a16e124f794c35ac9f90472acc99140eb2f6447c714cad8eb925060600190505b60405180910390a150505050565b5f6109ff81611ea3565b8115610a1157610a0d611ed5565b5050565b610a0d611f29565b63ffffffff81165f90815260036020908152604091829020805483518184028101840190945280845260609392830182828015610a9057602002820191905f5260205f20905f905b825461010083900a900460ff16815260206001928301818104948501949093039092029101808411610a615790505b50505050509050919050565b5f610ac77f4270fae16c6d150d00e80b689daca99e8073b1838ff2b6063a37be9d851283e483611067565b15610ad357505f919050565b600154600160a81b90046001600160401b03161580610b045750610b045f5160206134095f395f51905f5283611067565b15610b1157506001919050565b505f919050565b919050565b815f5160206134095f395f51905f52811480610b5857507f4270fae16c6d150d00e80b689daca99e8073b1838ff2b6063a37be9d851283e481145b80610b6f57505f5160206133c95f395f51905f5281145b15610b9957303314610b9457604051637d5d391d60e11b815260040160405180910390fd5b610be4565b5f5160206133e95f395f51905f528103610bc357610b945f5160206133e95f395f51905f52611ea3565b604051634a7ee1b960e11b8152600481018290526024015b60405180910390fd5b6108be8383611f62565b5f83610bf981610a9c565b610c1657604051634ab5ebcd60e01b815260040160405180910390fd5b6040805160c0810182526002546001600160a01b03908116825263ffffffff8a1660208084018290526001600160401b03808c16858701528a84166060860152600554600160401b900416608085015260015461ffff600160e81b82041660a08601525f9283526006909152908490209351637bfa20a960e01b8152929361010090910490911691637bfa20a991610cb7918591908a908a90600401612eed565b602060405180830381865afa158015610cd2573d5f5f3e3d5ffd5b505050506040513d601f19601f82011682018060405250810190610cf69190612f27565b98975050505050505050565b303314610d2257604051637d5d391d60e11b815260040160405180910390fd5b610a0d8282611fe4565b60405163dec9f03160e01b815260040160405180910390fd5b5f5160206133e95f395f51905f52610d5c81611ea3565b5f5b82811015610e7b5736848483818110610d7957610d79612f3e565b90506080020190506040518060600160405280826020016020810190610d9f9190612b02565b6001600160401b03168152602001610dbd6060840160408501612c16565b61ffff168152602001610dd66080840160608501612f68565b6001600160801b0316905260065f610df16020850185612889565b63ffffffff16815260208082019290925260409081015f20835181549385015194909201516001600160801b0316600160501b026fffffffffffffffffffffffffffffffff60501b1961ffff909516600160401b0269ffffffffffffffffffff199094166001600160401b0390931692909217929092179290921691909117905550600101610d5e565b507f7dd21e42791b013d1929e86f0c59085e4fca24251f0f1aa81917b3b1611766e08383604051610ead929190612f81565b60405180910390a1505050565b5f81610ec581610a9c565b610ee257604051634ab5ebcd60e01b815260040160405180910390fd5b6040805160c0810182526002546001600160a01b03908116825261ffff808a1660208085018290526001600160401b03808b16868801528985166060870152600554600160401b9004166080860152600154600160e81b810490931660a08601525f91825260068152858220865191820187529181529451637bfa20a960e01b8152939461010090920490921692637bfa20a992610f8492869260040161303f565b602060405180830381865afa158015610f9f573d5f5f3e3d5ffd5b505050506040513d601f19601f82011682018060405250810190610fc39190612f27565b979650505050505050565b5f5160206133e95f395f51905f52610fe581611ea3565b600280546001600160a01b0319166001600160a01b0384169081179091556040519081527ff724a45d041687842411f2b977ef22ab8f43c8f1104f4592b42a00f9b34a643d906020015b60405180910390a15050565b30331461105b57604051637d5d391d60e11b815260040160405180910390fd5b6110648161213d565b50565b5f918252602082815260408084206001600160a01b0393909316845291905290205460ff1690565b5f5f5160206133c95f395f51905f526110a781611ea3565b6110b760a08601608087016128e7565b6110c081610a9c565b6110dd57604051634ab5ebcd60e01b815260040160405180910390fd5b6040805160c081019091526002546001600160a01b031681525f9060208082019061110a908a018a612889565b63ffffffff16815260200161112560808a0160608b01612b02565b6001600160401b0316815260200161114360a08a0160808b016128e7565b6001600160a01b039081168252600554600160401b90046001600160401b0316602080840191909152600154600160e81b810461ffff16604090940193909352929350610100909104169063df2b057e9083906006905f906111a7908d018d612889565b63ffffffff1663ffffffff1681526020019081526020015f2089896040518563ffffffff1660e01b81526004016111e19493929190612eed565b6020604051808303815f875af1158015610f9f573d5f5f3e3d5ffd5b5f5160206133e95f395f51905f5261121481611ea3565b5f5b828110156108be573684848381811061123157611231612f3e565b90506020028101906112439190613077565b905063ffffffff7f0000000000000000000000000000000000000000000000000000000000000000166112796020830183612889565b63ffffffff161461128a575061149d565b4281606001351161129b575061149d565b5f6112d36112ac6020840184612889565b6112bc60408501602086016128e7565b6112c96040860186613095565b8660600135611a4b565b90505f6112e7826106dd6080860186613095565b5090508061132a576040518481527fd6d90193101048cc1b6edcdc2348f5acf7a4a4a97d3e7b668b74cb7602ab3ebc9060200160405180910390a150505061149d565b5f61134961133b6040860186613095565b611344916130d7565b61220a565b905080156113c2575f8381526007602052604090205460ff16156113a9577f9bb9bddbdf537a2104255307230b323d7982f4512ee8e5bd15df62ddca50ab978484604051611398929190613150565b60405180910390a15050505061149d565b5f838152600760205260409020805460ff191660011790555b5f806113d460408701602088016128e7565b6001600160a01b03166113ea6040880188613095565b6040516113f89291906131eb565b5f604051808303815f865af19150503d805f8114611431576040519150601f19603f3d011682016040523d82523d5f602084013e611436565b606091505b50915091508161149657821561145c575f858152600760205260409020805460ff191690555b7fdc8cdd96296241bbefda4a8e18ad2e0985a8da6495b34d409cfc4c886ee3b0cf878260405161148d9291906131fa565b60405180910390a15b5050505050505b600101611216565b5f5160206133e95f395f51905f526114bc81611ea3565b6001805461ffff60e81b1916600160e81b61ffff8516908102919091179091556040519081527f7af0ac740036ffb1c97b03697859d729e80a44ae5030543d64971c313565ab4d9060200161102f565b5f5f5160206133c95f395f51905f5261152481611ea3565b8261152e81610a9c565b61154b57604051634ab5ebcd60e01b815260040160405180910390fd5b6040805160c0810182526002546001600160a01b03908116825261ffff808b1660208085018290526001600160401b03808c16868801528a85166060870152600554600160401b9004166080860152600154600160e81b810490931660a08601525f91825260068152858220865191820187529181529451636f9582bf60e11b815293946101009092049092169263df2b057e926115ed92869260040161303f565b6020604051808303815f875af1158015611609573d5f5f3e3d5ffd5b505050506040513d601f19601f8201168201806040525081019061162d9190612f27565b93507f87e46b0a6199bc734632187269a103c05714ee0adae5b28f30723955724f37ef8460405161166091815260200190565b60405180910390a1505050949350505050565b6005545f90819061169590600160401b90046001600160401b03166041613226565b83146116a657505f9050600161183b565b5f6116fd866040517f19457468657265756d205369676e6564204d6573736167653a0a3332000000006020820152603c81018290525f90605c01604051602081830303815290604052805190602001209050919050565b90505f805b600554600160401b90046001600160401b031681101561183057365f888861172b856041613226565b9061173786600161323d565b611742906041613226565b9261174f93929190613250565b915091505f5f6117948785858080601f0160208091040260200160405190810160405280939291908181526020018383808284375f9201919091525061225f92505050565b5090925090505f8160038111156117ad576117ad612c5d565b146117c5575f6001985098505050505050505061183b565b856001600160a01b0316826001600160a01b0316116117f1575f6002985098505050505050505061183b565b6001600160a01b0382165f9081526004602052604090205460ff16611823575f6003985098505050505050505061183b565b5093505050600101611702565b5060015f9350935050505b935093915050565b5f5160206133e95f395f51905f5261185a81611ea3565b60018054610100600160a81b0319166101006001600160a01b038516908102919091179091556040519081527f1399be28223800f8669b3ba5f8721d9fc16fc4e8d0bbf98378791c8c5a3015e09060200161102f565b5f5160206133e95f395f51905f526118c781611ea3565b63ffffffff84165f9081526003602052604090206118e69084846126ff565b5050505050565b815f5160206134095f395f51905f5281148061192857507f4270fae16c6d150d00e80b689daca99e8073b1838ff2b6063a37be9d851283e481145b8061193f57505f5160206133c95f395f51905f5281145b156119695730331461196457604051637d5d391d60e11b815260040160405180910390fd5b611993565b5f5160206133e95f395f51905f528103610bc3576119645f5160206133e95f395f51905f52611ea3565b6108be83836122a8565b5f5160206133e95f395f51905f526119b481611ea3565b6119cb5f5160206133c95f395f51905f5285611067565b6119e857604051635ee08b9760e01b815260040160405180910390fd5b6040516303d8c5ef60e11b81526001600160a01b038481166004830152602482018490528516906307b18bde906044015f604051808303815f87803b158015611a2f575f5ffd5b505af1158015611a41573d5f5f3e3d5ffd5b5050505050505050565b5f8585838686604051602001611a65959493929190613277565b60405160208183030381529060405280519060200120905095945050505050565b42816060013511611aaa57604051630bbaf26360e01b815260040160405180910390fd5b30611abb60408301602084016128e7565b6001600160a01b031614611afe57611ad960408201602083016128e7565b604051631ce0bfcd60e01b81526001600160a01b039091166004820152602401610bdb565b63ffffffff7f000000000000000000000000000000000000000000000000000000000000000016611b326020830183612889565b63ffffffff1614611b6c57611b4a6020820182612889565b60405163134bf0e160e11b815263ffffffff9091166004820152602401610bdb565b5f611b7d6112ac6020840184612889565b90505f611b91826106dd6080860186613095565b50905080611bb257604051630af656f760e11b815260040160405180910390fd5b5f8281526007602052604090205460ff1615611be457604051634eb522d360e11b815260048101839052602401610bdb565b5f8281526007602052604090819020805460ff191660011790556108be905f5160206133e95f395f51905f5290611c1d90860186613095565b810190611c2a91906128e7565b611f62565b5f5f5160206133c95f395f51905f52611c4781611ea3565b88611c5181610a9c565b611c6e57604051634ab5ebcd60e01b815260040160405180910390fd5b604080516080810182526002546001600160a01b0390811682528c8116602080840191909152600554600160401b90046001600160401b031683850152600154600160e81b810461ffff1660608501527f000000000000000000000000000000000000000000000000000000000000000063ffffffff165f908152600690925290849020935163bbc5a33b60e01b815292936101009091049091169163bbc5a33b91611d27918591908d908d908d908d906004016132bc565b6020604051808303815f875af1158015611d43573d5f5f3e3d5ffd5b505050506040513d601f19601f82011682018060405250810190611d679190612f27565b9b9a5050505050505050505050565b5f87611d8181610a9c565b611d9e57604051634ab5ebcd60e01b815260040160405180910390fd5b604080516080810182526002546001600160a01b0390811682528b8116602080840191909152600554600160401b90046001600160401b031683850152600154600160e81b810461ffff1660608501527f000000000000000000000000000000000000000000000000000000000000000063ffffffff165f908152600690925290849020935162d358b360e81b815292936101009091049091169163d358b30091611e56918591908c908c908c908c906004016132bc565b602060405180830381865afa158015611e71573d5f5f3e3d5ffd5b505050506040513d601f19601f82011682018060405250810190611e959190612f27565b9a9950505050505050505050565b611064813361231e565b6001600160a01b038316611eca57611ec58282612357565b505050565b611ec5838383612400565b611edd61243b565b6001805460ff1916811790557f62e78cea01bee320cd4e420270b5ea74000d11b0c9f74754ebdbfc544b05a258335b6040516001600160a01b03909116815260200160405180910390a1565b611f31612461565b6001805460ff191690557f5db9ee0a495bf2e6ff9c91a7834c1ba4fdd244a5e8aa4e537bd38aeae4b073aa33611f0c565b5f5f5160206134095f395f51905f5283148015611f865750611f848383611067565b155b15611fd05760018054601590611fab90600160a81b90046001600160401b031661333f565b91906101000a8154816001600160401b0302191690836001600160401b031602179055505b611fda8383612484565b5060019392505050565b6001600160a01b0382165f9081526004602052604090205481151560ff909116151503612037576040516302c6469560e51b81526001600160a01b03831660048201528115156024820152604401610bdb565b6001600160a01b0382165f908152600460205260408120805460ff19168315151790558161207c57600554612077906001906001600160401b0316613369565b612093565b600554612093906001600160401b03166001613388565b6005549091506001600160401b03600160401b90910481169082168111156120e1576040516378e2c15760e11b81526001600160401b03808416600483015282166024820152604401610bdb565b6005805467ffffffffffffffff19166001600160401b038416179055604080516001600160a01b038616815284151560208201527f863d338cad74814b108a06288ad5e0e80d56495e0332238b1d2cdcfa0ca8e5ce91016109e7565b806001600160401b03165f0361216657604051635f86e17760e01b815260040160405180910390fd5b6005546001600160401b039081169082168110156121aa576040516378e2c15760e11b81526001600160401b03808316600483015283166024820152604401610bdb565b600580546fffffffffffffffff00000000000000001916600160401b6001600160401b038516908102919091179091556040519081527fb600f3cf7f38a4b49bb0c75f722ef69f7e3e39ef3bb4aa8207fd86e724a232499060200161102f565b5f6001600160e01b03198216630111a9b760e11b1480159061223d57506001600160e01b0319821663ab750e7560e01b14155b80156108f457506001600160e01b0319821663704316e560e01b141592915050565b5f5f5f8351604103612296576020840151604085015160608601515f1a61228888828585612513565b9550955095505050506122a1565b505081515f91506002905b9250925092565b5f5f5160206134095f395f51905f52831480156122ca57506122ca8383611067565b1561231457600180546015906122ef90600160a81b90046001600160401b03166133a7565b91906101000a8154816001600160401b0302191690836001600160401b031602179055505b611fda83836125db565b6123288282611067565b610a0d5760405163e2517d3f60e01b81526001600160a01b038216600482015260248101839052604401610bdb565b6001600160a01b03821661237e576040516306b7a93160e41b815260040160405180910390fd5b5f826001600160a01b0316826040515f6040518083038185875af1925050503d805f81146123c7576040519150601f19603f3d011682016040523d82523d5f602084013e6123cc565b606091505b5050905080611ec557604051631196f20d60e21b81526001600160a01b038416600482015260248101839052604401610bdb565b6001600160a01b038216612427576040516306b7a93160e41b815260040160405180910390fd5b611ec56001600160a01b0384168383612644565b60015460ff161561245f5760405163d93c066560e01b815260040160405180910390fd5b565b60015460ff1661245f57604051638dfc202b60e01b815260040160405180910390fd5b5f61248f8383611067565b61250c575f838152602081815260408083206001600160a01b03861684529091529020805460ff191660011790556124c43390565b6001600160a01b0316826001600160a01b0316847f2f8788117e7eff1d82e926ec794901d17c78024a50270940304540a733656f0d60405160405180910390a45060016108f4565b505f6108f4565b5f80807f7fffffffffffffffffffffffffffffff5d576e7357a4501ddfe92f46681b20a084111561254c57505f915060039050826125d1565b604080515f808252602082018084528a905260ff891692820192909252606081018790526080810186905260019060a0016020604051602081039080840390855afa15801561259d573d5f5f3e3d5ffd5b5050604051601f1901519150506001600160a01b0381166125c857505f9250600191508290506125d1565b92505f91508190505b9450945094915050565b5f6125e68383611067565b1561250c575f838152602081815260408083206001600160a01b0386168085529252808320805460ff1916905551339286917ff6391f5c32d9c69d2a47ea670b442974b53935d1edc7fd64eb21e047a839171b9190a45060016108f4565b604080516001600160a01b03841660248201526044808201849052825180830390910181526064909101909152602080820180516001600160e01b031663a9059cbb60e01b1781528251611ec593879390925f9283929183919082885af1806126b2576040513d5f823e3d81fd5b50505f513d915081156126c95780600114156126d6565b6001600160a01b0384163b155b156108be57604051635274afe760e01b81526001600160a01b0385166004820152602401610bdb565b828054828255905f5260205f2090601f01602090048101928215612793579160200282015f5b8382111561276557833560ff1683826101000a81548160ff021916908360ff16021790555092602001926001016020815f01049283019260010302612725565b80156127915782816101000a81549060ff02191690556001016020815f01049283019260010302612765565b505b5061279f9291506127a3565b5090565b5b8082111561279f575f81556001016127a4565b6001600160a01b0381168114611064575f5ffd5b5f5f5f606084860312156127dd575f5ffd5b83356127e8816127b7565b925060208401356127f8816127b7565b929592945050506040919091013590565b5f60208284031215612819575f5ffd5b81356001600160e01b031981168114612830575f5ffd5b9392505050565b80358015158114610b18575f5ffd5b5f60208284031215612856575f5ffd5b61283082612837565b5f6020828403121561286f575f5ffd5b5035919050565b803563ffffffff81168114610b18575f5ffd5b5f60208284031215612899575f5ffd5b61283082612876565b602080825282518282018190525f918401906040840190835b818110156128dc57835160ff168352602093840193909201916001016128bb565b509095945050505050565b5f602082840312156128f7575f5ffd5b8135612830816127b7565b5f5f60408385031215612913575f5ffd5b823591506020830135612925816127b7565b809150509250929050565b80356001600160401b0381168114610b18575f5ffd5b5f5f83601f840112612956575f5ffd5b5081356001600160401b0381111561296c575f5ffd5b602083019150836020828501011115612983575f5ffd5b9250929050565b5f5f5f5f5f6080868803121561299e575f5ffd5b6129a786612876565b94506129b560208701612930565b935060408601356129c5816127b7565b925060608601356001600160401b038111156129df575f5ffd5b6129eb88828901612946565b969995985093965092949392505050565b5f5f60408385031215612a0d575f5ffd5b8235612a18816127b7565b9150612a2660208401612837565b90509250929050565b5f5f60208385031215612a40575f5ffd5b82356001600160401b03811115612a55575f5ffd5b8301601f81018513612a65575f5ffd5b80356001600160401b03811115612a7a575f5ffd5b8560208260071b8401011115612a8e575f5ffd5b6020919091019590945092505050565b803561ffff81168114610b18575f5ffd5b5f5f5f5f60808587031215612ac2575f5ffd5b612acb85612a9e565b9350612ad960208601612a9e565b9250612ae760408601612930565b91506060850135612af7816127b7565b939692955090935050565b5f60208284031215612b12575f5ffd5b61283082612930565b5f60a08284031215612b2b575f5ffd5b50919050565b5f5f5f60408486031215612b43575f5ffd5b83356001600160401b03811115612b58575f5ffd5b612b6486828701612b1b565b93505060208401356001600160401b03811115612b7f575f5ffd5b612b8b86828701612946565b9497909650939450505050565b5f5f83601f840112612ba8575f5ffd5b5081356001600160401b03811115612bbe575f5ffd5b6020830191508360208260051b8501011115612983575f5ffd5b5f5f60208385031215612be9575f5ffd5b82356001600160401b03811115612bfe575f5ffd5b612c0a85828601612b98565b90969095509350505050565b5f60208284031215612c26575f5ffd5b61283082612a9e565b5f5f5f60408486031215612c41575f5ffd5b8335925060208401356001600160401b03811115612b7f575f5ffd5b634e487b7160e01b5f52602160045260245ffd5b82151581526040810160048310612c9657634e487b7160e01b5f52602160045260245ffd5b8260208301529392505050565b5f5f5f60408486031215612cb5575f5ffd5b612cbe84612876565b925060208401356001600160401b03811115612cd8575f5ffd5b612b8b86828701612b98565b5f5f5f5f5f60808688031215612cf8575f5ffd5b612d0186612876565b94506020860135612d11816127b7565b935060408601356001600160401b03811115612d2b575f5ffd5b612d3788828901612946565b96999598509660600135949350505050565b5f60208284031215612d59575f5ffd5b81356001600160401b03811115612d6e575f5ffd5b612d7a84828501612b1b565b949350505050565b5f5f5f5f5f5f5f6080888a031215612d98575f5ffd5b8735612da3816127b7565b965060208801356001600160401b03811115612dbd575f5ffd5b612dc98a828b01612946565b90975095505060408801356001600160401b03811115612de7575f5ffd5b612df38a828b01612946565b90955093505060608801356001600160401b03811115612e11575f5ffd5b612e1d8a828b01612946565b989b979a50959850939692959293505050565b60018060a01b03815116825263ffffffff60208201511660208301526001600160401b03604082015116604083015260018060a01b0360608201511660608301526001600160401b03608082015116608083015261ffff60a08201511660a08301525050565b546001600160401b0381168252604081811c61ffff16602084015260509190911c6001600160801b0316910152565b81835281816020850137505f828201602090810191909152601f909101601f19169091010190565b612ef78186612e30565b612f0460c0820185612e96565b6101406101208201525f612f1d61014083018486612ec5565b9695505050505050565b5f60208284031215612f37575f5ffd5b5051919050565b634e487b7160e01b5f52603260045260245ffd5b80356001600160801b0381168114610b18575f5ffd5b5f60208284031215612f78575f5ffd5b61283082612f52565b602080825281018290525f8360408301825b858110156130075763ffffffff612fa984612876565b1682526001600160401b03612fc060208501612930565b16602083015261ffff612fd560408501612a9e565b1660408301526001600160801b03612fef60608501612f52565b16606083015260809283019290910190600101612f93565b5095945050505050565b5f81518084528060208401602086015e5f602082860101526020601f19601f83011685010191505092915050565b6130498185612e30565b61305660c0820184612e96565b6101406101208201525f61306e610140830184613011565b95945050505050565b5f8235609e1983360301811261308b575f5ffd5b9190910192915050565b5f5f8335601e198436030181126130aa575f5ffd5b8301803591506001600160401b038211156130c3575f5ffd5b602001915036819003821315612983575f5ffd5b80356001600160e01b03198116906004841015613108576001600160e01b0319600485900360031b81901b82161691505b5092915050565b5f5f8335601e19843603018112613124575f5ffd5b83016020810192503590506001600160401b03811115613142575f5ffd5b803603821315612983575f5ffd5b6040815263ffffffff61316284612876565b1660408201525f6020840135613177816127b7565b6001600160a01b03166060830152613192604085018561310f565b60a060808501526131a760e085018284612ec5565b606087013560a086015291506131c29050608086018661310f565b848303603f190160c08601526131d9838284612ec5565b93505050508260208301529392505050565b818382375f9101908152919050565b828152604060208201525f612d7a6040830184613011565b634e487b7160e01b5f52601160045260245ffd5b80820281158282048414176108f4576108f4613212565b808201808211156108f4576108f4613212565b5f5f8585111561325e575f5ffd5b8386111561326a575f5ffd5b5050820193919092039150565b63ffffffff60e01b8660e01b1681526bffffffffffffffffffffffff198560601b166004820152836018820152818360388301375f9101603801908152949350505050565b86516001600160a01b039081168252602080890151909116908201526040808801516001600160401b03169082015260608088015161ffff16908201526133066080820187612e96565b61012060e08201525f61331e61012083018688612ec5565b828103610100840152613332818587612ec5565b9998505050505050505050565b5f6001600160401b0382166001600160401b03810361336057613360613212565b60010192915050565b6001600160401b0382811682821603908111156108f4576108f4613212565b6001600160401b0381811683821601908111156108f4576108f4613212565b5f6001600160401b038216806133bf576133bf613212565b5f19019291505056fe724aface199fe5bed93ae8508474576a9adf3dc443b2c451842a2242919f19dea49807205ce4d355092ef5a8a18f56e8913cf4a201fbe287825b095693c2177574845de37cfabd357633214b47fa91ccd19b05b7c5a08ac22c187f811fb62bcaa264697066735822122004b303a598567f7d59c417a3b7f3b6662bde4a414c4d127d5ec0a3bbdcf94b5564736f6c634300081c0033","linkReferences":{}},"methodIdentifiers":{"DEFAULT_ADMIN_ROLE()":"a217fddf","allowlistSize()":"d2ae2104","assignJob((uint32,bytes,bytes32,uint64,address),bytes)":"95d376d7","assignJob(address,bytes,bytes,bytes)":"f42ed2ed","assignJob(uint16,uint16,uint64,address)":"c5e193cd","defaultMultiplierBps()":"00bf2e80","dstConfig(uint32)":"9e944965","execute((uint32,address,bytes,uint256,bytes)[])":"b143044b","getFee(address,bytes,bytes,bytes)":"fdb9b0f1","getFee(uint16,uint16,uint64,address)":"5553fb8e","getFee(uint32,uint64,address,bytes)":"30bb3aac","getRoleAdmin(bytes32)":"248a9ca3","getSupportedOptionTypes(uint32)":"26e67a37","grantRole(bytes32,address)":"2f2ff15d","hasAcl(address)":"2de11376","hasRole(bytes32,address)":"91d14854","hashCallData(uint32,address,bytes,uint256)":"f010cb23","localEidV2()":"e395eb5c","paused()":"5c975abb","priceFeed()":"741bef1a","quorum()":"1703a018","quorumChangeAdmin((uint32,address,bytes,uint256,bytes))":"f3b4ebd0","renounceRole(bytes32,address)":"36568abe","revokeRole(bytes32,address)":"d547741f","setDefaultMultiplierBps(uint16)":"c358de0a","setDstConfig((uint32,uint64,uint16,uint128)[])":"52d3b871","setPaused(bool)":"16c38b3c","setPriceFeed(address)":"724e78da","setQuorum(uint64)":"8585c945","setSigner(address,bool)":"31cb6105","setSupportedOptionTypes(uint32,uint8[])":"cd88b903","setWorkerFeeLib(address)":"c7b2370b","signerSize()":"fd62e750","signers(address)":"736c0d5b","supportsInterface(bytes4)":"01ffc9a7","usedHashes(bytes32)":"aef18bf7","verifySignatures(bytes32,bytes)":"c7a823e0","vid()":"cf34c768","withdrawFee(address,address,uint256)":"1095b6d7","withdrawFeeFromUlnV2(address,address,uint256)":"dafe0ccc","withdrawToken(address,address,uint256)":"01e33667","workerFeeLib()":"c416aa51"},"id":153}