{"abi":[{"type":"constructor","inputs":[{"name":"_endpoint","type":"address","internalType":"address"},{"name":"_oApp","type":"address","internalType":"address"},{"name":"_zapRouter","type":"address","internalType":"address"},{"name":"_zapTokenManager","type":"address","internalType":"address"}],"stateMutability":"nonpayable"},{"type":"function","name":"endpoint","inputs":[],"outputs":[{"name":"","type":"address","internalType":"address"}],"stateMutability":"view"},{"type":"function","name":"fallbackGas","inputs":[],"outputs":[{"name":"","type":"uint256","internalType":"uint256"}],"stateMutability":"view"},{"type":"function","name":"lzCompose","inputs":[{"name":"_oApp","type":"address","internalType":"address"},{"name":"_guid","type":"bytes32","internalType":"bytes32"},{"name":"_message","type":"bytes","internalType":"bytes"},{"name":"_executor","type":"address","internalType":"address"},{"name":"_extraData","type":"bytes","internalType":"bytes"}],"outputs":[],"stateMutability":"payable"},{"type":"function","name":"oApp","inputs":[],"outputs":[{"name":"","type":"address","internalType":"address"}],"stateMutability":"view"},{"type":"function","name":"safeLzCompose","inputs":[{"name":"_oApp","type":"address","internalType":"address"},{"name":"_guid","type":"bytes32","internalType":"bytes32"},{"name":"_message","type":"bytes","internalType":"bytes"},{"name":"_executor","type":"address","internalType":"address"},{"name":"_extraData","type":"bytes","internalType":"bytes"}],"outputs":[],"stateMutability":"nonpayable"},{"type":"function","name":"zapRouter","inputs":[],"outputs":[{"name":"","type":"address","internalType":"address"}],"stateMutability":"view"},{"type":"function","name":"zapTokenManager","inputs":[],"outputs":[{"name":"","type":"address","internalType":"address"}],"stateMutability":"view"},{"type":"error","name":"SafeERC20FailedOperation","inputs":[{"name":"token","type":"address","internalType":"address"}]},{"type":"error","name":"SafeOFTLzComposer_InvalidEndpoint","inputs":[]},{"type":"error","name":"SafeOFTLzComposer_InvalidOApp","inputs":[]},{"type":"error","name":"SafeOFTLzComposer_Unauthorized","inputs":[]}],"bytecode":{"object":"0x610120604052619c40608052348015610016575f5ffd5b506040516112b33803806112b383398101604081905261003591610073565b6001600160a01b0392831660a05292821660c052811660e05216610100526100c4565b80516001600160a01b038116811461006e575f5ffd5b919050565b5f5f5f5f60808587031215610086575f5ffd5b61008f85610058565b935061009d60208601610058565b92506100ab60408601610058565b91506100b960608601610058565b905092959194509250565b60805160a05160c05160e0516101005161118a6101295f395f818161015a015261049701525f8181608301526104e401525f8181610106015261026501525f818160d30152818161020a015261037001525f818161018d01526102ab015261118a5ff3fe60806040526004361061006e575f3560e01c8063a7d08a441161004c578063a7d08a4414610128578063a7e18a8814610149578063b255ed081461017c578063d0a10260146101bd575f5ffd5b80632b7b6e081461007257806352ae2879146100c25780635e280f11146100f5575b5f5ffd5b34801561007d575f5ffd5b506100a57f000000000000000000000000000000000000000000000000000000000000000081565b6040516001600160a01b0390911681526020015b60405180910390f35b3480156100cd575f5ffd5b506100a57f000000000000000000000000000000000000000000000000000000000000000081565b348015610100575f5ffd5b506100a57f000000000000000000000000000000000000000000000000000000000000000081565b348015610133575f5ffd5b506101476101423660046107d8565b6101d0565b005b348015610154575f5ffd5b506100a57f000000000000000000000000000000000000000000000000000000000000000081565b348015610187575f5ffd5b506101af7f000000000000000000000000000000000000000000000000000000000000000081565b6040519081526020016100b9565b6101476101cb3660046107d8565b610208565b3330146101f057604051632824d84960e11b815260040160405180910390fd5b6101ff87878787878787610420565b50505050505050565b7f00000000000000000000000000000000000000000000000000000000000000006001600160a01b0316876001600160a01b03161461025a576040516362b9fc5b60e01b815260040160405180910390fd5b336001600160a01b037f000000000000000000000000000000000000000000000000000000000000000016146102a35760405163ed2358ff60e01b815260040160405180910390fd5b3063a7d08a447f00000000000000000000000000000000000000000000000000000000000000005a6102d59190610873565b898989898989896040518963ffffffff1660e01b81526004016102fe97969594939291906108ba565b5f604051808303815f88803b158015610315575f5ffd5b5087f193505050508015610327575060015b6101ff573d808015610354576040519150601f19603f3d011682016040523d82523d5f602084013e610359565b606091505b505f61036b6103688888610551565b90565b90505f7f00000000000000000000000000000000000000000000000000000000000000006001600160a01b031663fc0c546a6040518163ffffffff1660e01b8152600401602060405180830381865afa1580156103ca573d5f5f3e3d5ffd5b505050506040513d601f19601f820116820180604052508101906103ee9190610921565b90505f6103fb8989610572565b90508015610417576104176001600160a01b0383168483610581565b505050506101ff565b5f61042b86866105e5565b90505f818060200190518101906104429190610d34565b8051518051919250905f5b818110156104c5575f83828151811061046857610468610e6f565b602002602001015190505f816020015111156104bc57602081015181516104bc916001600160a01b03909116907f00000000000000000000000000000000000000000000000000000000000000009061062f565b5060010161044d565b5082516020840151604051637a0d96db60e11b81526001600160a01b037f0000000000000000000000000000000000000000000000000000000000000000169263f41b2db69261051792600401611021565b5f604051808303815f87803b15801561052e575f5ffd5b505af1158015610540573d5f5f3e3d5ffd5b505050505050505050505050505050565b5f610560604c602c8486611110565b61056991611137565b90505b92915050565b5f610560602c600c8486611110565b6040516001600160a01b038381166024830152604482018390526105e091859182169063a9059cbb906064015b604051602081830303815290604052915060e01b6020820180516001600160e01b0383818316178352505050506106c4565b505050565b60606105f482604c8186611110565b8080601f0160208091040260200160405190810160405280939291908181526020018383808284375f92019190915250929695505050505050565b604080516001600160a01b038416602482015260448082018490528251808303909101815260649091019091526020810180516001600160e01b031663095ea7b360e01b1790526106808482610734565b6106be576040516001600160a01b0384811660248301525f60448301526106b491869182169063095ea7b3906064016105ae565b6106be84826106c4565b50505050565b5f5f60205f8451602086015f885af1806106e3576040513d5f823e3d81fd5b50505f513d915081156106fa578060011415610707565b6001600160a01b0384163b155b156106be57604051635274afe760e01b81526001600160a01b038516600482015260240160405180910390fd5b5f5f5f5f60205f8651602088015f8a5af192503d91505f519050828015610773575081156107655780600114610773565b5f866001600160a01b03163b115b9695505050505050565b6001600160a01b0381168114610791575f5ffd5b50565b5f5f83601f8401126107a4575f5ffd5b5081356001600160401b038111156107ba575f5ffd5b6020830191508360208285010111156107d1575f5ffd5b9250929050565b5f5f5f5f5f5f5f60a0888a0312156107ee575f5ffd5b87356107f98161077d565b96506020880135955060408801356001600160401b0381111561081a575f5ffd5b6108268a828b01610794565b909650945050606088013561083a8161077d565b925060808801356001600160401b03811115610854575f5ffd5b6108608a828b01610794565b989b979a50959850939692959293505050565b8181038181111561056c57634e487b7160e01b5f52601160045260245ffd5b81835281816020850137505f828201602090810191909152601f909101601f19169091010190565b60018060a01b038816815286602082015260a060408201525f6108e160a083018789610892565b6001600160a01b03861660608401528281036080840152610903818587610892565b9a9950505050505050505050565b805161091c8161077d565b919050565b5f60208284031215610931575f5ffd5b815161093c8161077d565b9392505050565b634e487b7160e01b5f52604160045260245ffd5b604080519081016001600160401b038111828210171561097957610979610943565b60405290565b604051608081016001600160401b038111828210171561097957610979610943565b60405160a081016001600160401b038111828210171561097957610979610943565b604051601f8201601f191681016001600160401b03811182821017156109eb576109eb610943565b604052919050565b5f6001600160401b03821115610a0b57610a0b610943565b5060051b60200190565b5f82601f830112610a24575f5ffd5b8151602083015f610a3c610a37846109f3565b6109c3565b83815260069390931b82019290506020810186841115610a5a575f5ffd5b83831015610aa2575f60408489031215610a72575f5ffd5b610a7a610957565b90508351610a878161077d565b81526020848101518183015290825260409093019201610a5a565b5095945050505050565b5f82601f830112610abb575f5ffd5b81516001600160401b03811115610ad457610ad4610943565b610ae7601f8201601f19166020016109c3565b818152846020838601011115610afb575f5ffd5b8160208501602083015e5f918101602001919091529392505050565b5f60608284031215610b27575f5ffd5b604051606081016001600160401b0381118282101715610b4957610b49610943565b80604052508091508251610b5c8161077d565b81526020838101519082015260408301516001600160401b03811115610b80575f5ffd5b610b8c85828601610aac565b6040830152505092915050565b5f82601f830112610ba8575f5ffd5b8151610bb6610a37826109f3565b8082825260208201915060208360051b860101925085831115610bd7575f5ffd5b602085015b83811015610aa25780516001600160401b03811115610bf9575f5ffd5b86016080818903601f19011215610c0e575f5ffd5b610c1661097f565b6020820151610c248161077d565b81526040820151602082015260608201516001600160401b03811115610c48575f5ffd5b610c578a602083860101610aac565b60408301525060808201516001600160401b03811115610c75575f5ffd5b60208184010192505088601f830112610c8c575f5ffd5b8151610c9a610a37826109f3565b8082825260208201915060208360061b86010192508b831115610cbb575f5ffd5b6020850194505b82851015610d1e576040858d031215610cd9575f5ffd5b610ce1610957565b8551610cec8161077d565b81526020860151600381900b8114610d02575f5ffd5b8060208301525080835250602082019150604085019450610cc2565b6060840152505084525060209283019201610bdc565b5f60208284031215610d44575f5ffd5b81516001600160401b03811115610d59575f5ffd5b820160408185031215610d6a575f5ffd5b610d72610957565b81516001600160401b03811115610d87575f5ffd5b820160a08187031215610d98575f5ffd5b610da06109a1565b81516001600160401b03811115610db5575f5ffd5b610dc188828501610a15565b82525060208201516001600160401b03811115610ddc575f5ffd5b610de888828501610a15565b60208301525060408201516001600160401b03811115610e06575f5ffd5b610e1288828501610b17565b604083015250610e2460608301610911565b6060820152610e3560808301610911565b608082015282525060208201516001600160401b03811115610e55575f5ffd5b610e6186828501610b99565b602083015250949350505050565b634e487b7160e01b5f52603260045260245ffd5b5f8151808452602084019350602083015f5b82811015610ed157610ebb86835180516001600160a01b03168252602090810151910152565b6040959095019460209190910190600101610e95565b5093949350505050565b5f81518084528060208401602086015e5f602082860101526020601f19601f83011685010191505092915050565b60018060a01b038151168252602081015160208301525f604082015160606040850152610f396060850182610edb565b949350505050565b5f82825180855260208501945060208160051b830101602085015f5b8381101561101557601f19858403018852815160018060a01b03815116845260208101516020850152604081015160806040860152610f9f6080860182610edb565b6060928301518682039387019390935282518082526020938401935f9350909101905b80831015610ffc57835180516001600160a01b0316835260209081015160030b818401529093019260019290920191604090910190610fc2565b5060209a8b019a90955093909301925050600101610f5d565b50909695505050505050565b604081525f60e08201845160a06040850152818151808452610100860191506020830193505f92505b808310156110875761107082855180516001600160a01b03168252602090810151910152565b60408201915060208401935060018301925061104a565b506020870151858203603f1901606087015292506110a58184610e83565b925050506040850151603f198483030160808501526110c48282610f09565b91505060608501516110e160a08501826001600160a01b03169052565b5060808501516001600160a01b031660c084015282810360208401526111078185610f41565b95945050505050565b5f5f8585111561111e575f5ffd5b8386111561112a575f5ffd5b5050820193919092039150565b8035602083101561056c575f19602084900360031b1b169291505056fea26469706673582212207a34187896dfdfe9cc0a566c8a264dc7b6a9c67a1fb431113a5319c447ae4d7164736f6c634300081c0033","linkReferences":{}},"methodIdentifiers":{"endpoint()":"5e280f11","fallbackGas()":"b255ed08","lzCompose(address,bytes32,bytes,address,bytes)":"d0a10260","oApp()":"52ae2879","safeLzCompose(address,bytes32,bytes,address,bytes)":"a7d08a44","zapRouter()":"2b7b6e08","zapTokenManager()":"a7e18a88"},"id":107}