{"abi":[{"type":"function","name":"getReserveData","inputs":[{"name":"","type":"address","internalType":"address"}],"outputs":[{"name":"","type":"uint256","internalType":"uint256"},{"name":"","type":"uint256","internalType":"uint256"},{"name":"","type":"uint256","internalType":"uint256"},{"name":"","type":"uint256","internalType":"uint256"},{"name":"","type":"uint256","internalType":"uint256"},{"name":"","type":"uint256","internalType":"uint256"},{"name":"","type":"uint256","internalType":"uint256"},{"name":"","type":"uint256","internalType":"uint256"},{"name":"","type":"uint256","internalType":"uint256"},{"name":"","type":"uint256","internalType":"uint256"},{"name":"","type":"uint256","internalType":"uint256"},{"name":"","type":"uint40","internalType":"uint40"}],"stateMutability":"view"},{"type":"function","name":"getVariableBorrowRate","inputs":[],"outputs":[{"name":"","type":"uint256","internalType":"uint256"}],"stateMutability":"view"},{"type":"function","name":"setVariableBorrowRate","inputs":[{"name":"_variableBorrowRate","type":"uint256","internalType":"uint256"}],"outputs":[],"stateMutability":"nonpayable"}],"bytecode":{"object":"0x6080604052348015600e575f5ffd5b506101718061001c5f395ff3fe608060405234801561000f575f5ffd5b506004361061003f575f3560e01c806335ea6a75146100435780637d15a636146100d3578063aa16fe34146100e3575b5f5ffd5b61006e6100513660046100f7565b505f80549091829182918291829182919082908190819081904290565b604080519c8d5260208d019b909b52998b019890985260608a0196909652608089019490945260a088019290925260c087015260e086015261010085015261012084015261014083015264ffffffffff16610160820152610180015b60405180910390f35b5f546040519081526020016100ca565b6100f56100f1366004610124565b5f55565b005b5f60208284031215610107575f5ffd5b81356001600160a01b038116811461011d575f5ffd5b9392505050565b5f60208284031215610134575f5ffd5b503591905056fea2646970667358221220dbd2d42b77bf7562f592356da31319b26ed8c3302933d694a8cfd9a53664f86964736f6c634300081c0033","linkReferences":{}},"methodIdentifiers":{"getReserveData(address)":"35ea6a75","getVariableBorrowRate()":"7d15a636","setVariableBorrowRate(uint256)":"aa16fe34"},"id":330}