{"abi":[{"type":"function","name":"getWalletAddress","inputs":[],"outputs":[{"name":"wallet","type":"address","internalType":"address"}],"stateMutability":"view"}],"bytecode":{"object":"0x6080604052348015600e575f5ffd5b506101bb8061001c5f395ff3fe608060405234801561000f575f5ffd5b5060043610610029575f3560e01c806304d2dec61461002d575b5f5ffd5b610035610051565b6040516001600160a01b03909116815260200160405180910390f35b328061005a5750335b6001600160a01b0381166100ae5760405162461bcd60e51b815260206004820152601660248201527515d85b1b195d081859191c995cdcc81b9bdd081cd95d60521b60448201526064015b60405180910390fd5b6001600160a01b038116731804c8ab1f12e6bbf3894d4083f33e07309d1f38036101825760405162461bcd60e51b815260206004820152607360248201527f57616c6c657420616464726573732069732073657420746f207468652064656660448201527f61756c7420666f756e64727920616464726573732e20506c7a2070726f76696460648201527f65202d2d73656e646572202428636173742077616c6c65742061646472657373608482015272202d2d6163636f756e74206361702d6465762960681b60a482015260c4016100a5565b9056fea264697066735822122066a8dc9f75c1971ca655133c124b96190054947bdc8c1ff178e5e39994d3173f64736f6c634300081c0033","linkReferences":{}},"methodIdentifiers":{"getWalletAddress()":"04d2dec6"},"id":21}