{"abi":[{"type":"constructor","inputs":[{"name":"_name","type":"string","internalType":"string"},{"name":"_symbol","type":"string","internalType":"string"}],"stateMutability":"nonpayable"},{"type":"function","name":"allowance","inputs":[{"name":"owner","type":"address","internalType":"address"},{"name":"spender","type":"address","internalType":"address"}],"outputs":[{"name":"","type":"uint256","internalType":"uint256"}],"stateMutability":"view"},{"type":"function","name":"approve","inputs":[{"name":"spender","type":"address","internalType":"address"},{"name":"value","type":"uint256","internalType":"uint256"}],"outputs":[{"name":"","type":"bool","internalType":"bool"}],"stateMutability":"nonpayable"},{"type":"function","name":"balanceOf","inputs":[{"name":"account","type":"address","internalType":"address"}],"outputs":[{"name":"","type":"uint256","internalType":"uint256"}],"stateMutability":"view"},{"type":"function","name":"decimals","inputs":[],"outputs":[{"name":"","type":"uint8","internalType":"uint8"}],"stateMutability":"view"},{"type":"function","name":"maxMintAmount","inputs":[],"outputs":[{"name":"","type":"uint256","internalType":"uint256"}],"stateMutability":"view"},{"type":"function","name":"mint","inputs":[{"name":"to","type":"address","internalType":"address"},{"name":"amount","type":"uint256","internalType":"uint256"}],"outputs":[],"stateMutability":"nonpayable"},{"type":"function","name":"name","inputs":[],"outputs":[{"name":"","type":"string","internalType":"string"}],"stateMutability":"view"},{"type":"function","name":"owner","inputs":[],"outputs":[{"name":"","type":"address","internalType":"address"}],"stateMutability":"view"},{"type":"function","name":"renounceOwnership","inputs":[],"outputs":[],"stateMutability":"nonpayable"},{"type":"function","name":"setMaxMintAmount","inputs":[{"name":"_maxMintAmount","type":"uint256","internalType":"uint256"}],"outputs":[],"stateMutability":"nonpayable"},{"type":"function","name":"symbol","inputs":[],"outputs":[{"name":"","type":"string","internalType":"string"}],"stateMutability":"view"},{"type":"function","name":"totalSupply","inputs":[],"outputs":[{"name":"","type":"uint256","internalType":"uint256"}],"stateMutability":"view"},{"type":"function","name":"transfer","inputs":[{"name":"to","type":"address","internalType":"address"},{"name":"value","type":"uint256","internalType":"uint256"}],"outputs":[{"name":"","type":"bool","internalType":"bool"}],"stateMutability":"nonpayable"},{"type":"function","name":"transferFrom","inputs":[{"name":"from","type":"address","internalType":"address"},{"name":"to","type":"address","internalType":"address"},{"name":"value","type":"uint256","internalType":"uint256"}],"outputs":[{"name":"","type":"bool","internalType":"bool"}],"stateMutability":"nonpayable"},{"type":"function","name":"transferOwnership","inputs":[{"name":"newOwner","type":"address","internalType":"address"}],"outputs":[],"stateMutability":"nonpayable"},{"type":"event","name":"Approval","inputs":[{"name":"owner","type":"address","indexed":true,"internalType":"address"},{"name":"spender","type":"address","indexed":true,"internalType":"address"},{"name":"value","type":"uint256","indexed":false,"internalType":"uint256"}],"anonymous":false},{"type":"event","name":"OwnershipTransferred","inputs":[{"name":"previousOwner","type":"address","indexed":true,"internalType":"address"},{"name":"newOwner","type":"address","indexed":true,"internalType":"address"}],"anonymous":false},{"type":"event","name":"Transfer","inputs":[{"name":"from","type":"address","indexed":true,"internalType":"address"},{"name":"to","type":"address","indexed":true,"internalType":"address"},{"name":"value","type":"uint256","indexed":false,"internalType":"uint256"}],"anonymous":false},{"type":"error","name":"ERC20InsufficientAllowance","inputs":[{"name":"spender","type":"address","internalType":"address"},{"name":"allowance","type":"uint256","internalType":"uint256"},{"name":"needed","type":"uint256","internalType":"uint256"}]},{"type":"error","name":"ERC20InsufficientBalance","inputs":[{"name":"sender","type":"address","internalType":"address"},{"name":"balance","type":"uint256","internalType":"uint256"},{"name":"needed","type":"uint256","internalType":"uint256"}]},{"type":"error","name":"ERC20InvalidApprover","inputs":[{"name":"approver","type":"address","internalType":"address"}]},{"type":"error","name":"ERC20InvalidReceiver","inputs":[{"name":"receiver","type":"address","internalType":"address"}]},{"type":"error","name":"ERC20InvalidSender","inputs":[{"name":"sender","type":"address","internalType":"address"}]},{"type":"error","name":"ERC20InvalidSpender","inputs":[{"name":"spender","type":"address","internalType":"address"}]},{"type":"error","name":"MaxMintAmountExceeded","inputs":[{"name":"amount","type":"uint256","internalType":"uint256"}]},{"type":"error","name":"OwnableInvalidOwner","inputs":[{"name":"owner","type":"address","internalType":"address"}]},{"type":"error","name":"OwnableUnauthorizedAccount","inputs":[{"name":"account","type":"address","internalType":"address"}]}],"bytecode":{"object":"0x60806040525f19600655348015610014575f5ffd5b50604051610c33380380610c338339810160408190526100339161017e565b33828260036100428382610267565b50600461004f8282610267565b5050506001600160a01b03811661007f57604051631e4fbdf760e01b81525f600482015260240160405180910390fd5b61008881610090565b505050610321565b600580546001600160a01b038381166001600160a01b0319831681179093556040519116919082907f8be0079c531659141344cd1fd0a4f28419497f9722a3daafe3b4186f6b6457e0905f90a35050565b634e487b7160e01b5f52604160045260245ffd5b5f82601f830112610104575f5ffd5b81516001600160401b0381111561011d5761011d6100e1565b604051601f8201601f19908116603f011681016001600160401b038111828210171561014b5761014b6100e1565b604052818152838201602001851015610162575f5ffd5b8160208501602083015e5f918101602001919091529392505050565b5f5f6040838503121561018f575f5ffd5b82516001600160401b038111156101a4575f5ffd5b6101b0858286016100f5565b602085015190935090506001600160401b038111156101cd575f5ffd5b6101d9858286016100f5565b9150509250929050565b600181811c908216806101f757607f821691505b60208210810361021557634e487b7160e01b5f52602260045260245ffd5b50919050565b601f82111561026257805f5260205f20601f840160051c810160208510156102405750805b601f840160051c820191505b8181101561025f575f815560010161024c565b50505b505050565b81516001600160401b03811115610280576102806100e1565b6102948161028e84546101e3565b8461021b565b6020601f8211600181146102c6575f83156102af5750848201515b5f19600385901b1c1916600184901b17845561025f565b5f84815260208120601f198516915b828110156102f557878501518255602094850194600190920191016102d5565b508482101561031257868401515f19600387901b60f8161c191681555b50505050600190811b01905550565b6109058061032e5f395ff3fe608060405234801561000f575f5ffd5b50600436106100f0575f3560e01c806340c10f191161009357806395d89b411161006357806395d89b41146101e5578063a9059cbb146101ed578063dd62ed3e14610200578063f2fde38b14610238575f5ffd5b806340c10f191461018757806370a082311461019a578063715018a6146101c25780638da5cb5b146101ca575f5ffd5b806318160ddd116100ce57806318160ddd1461014a578063239c70ae1461015c57806323b872dd14610165578063313ce56714610178575f5ffd5b806306fdde03146100f4578063088a4ed014610112578063095ea7b314610127575b5f5ffd5b6100fc61024b565b604051610109919061075e565b60405180910390f35b610125610120366004610793565b6102db565b005b61013a6101353660046107c5565b6102e8565b6040519015158152602001610109565b6002545b604051908152602001610109565b61014e60065481565b61013a6101733660046107ed565b610301565b60405160128152602001610109565b6101256101953660046107c5565b610324565b61014e6101a8366004610827565b6001600160a01b03165f9081526020819052604090205490565b61012561035d565b6005546040516001600160a01b039091168152602001610109565b6100fc610370565b61013a6101fb3660046107c5565b61037f565b61014e61020e366004610847565b6001600160a01b039182165f90815260016020908152604080832093909416825291909152205490565b610125610246366004610827565b61038c565b60606003805461025a90610878565b80601f016020809104026020016040519081016040528092919081815260200182805461028690610878565b80156102d15780601f106102a8576101008083540402835291602001916102d1565b820191905f5260205f20905b8154815290600101906020018083116102b457829003601f168201915b5050505050905090565b6102e36103c9565b600655565b5f336102f58185856103f6565b60019150505b92915050565b5f3361030e858285610408565b610319858585610484565b506001949350505050565b60065481111561034f5760405163413226c360e11b8152600481018290526024015b60405180910390fd5b61035982826104e1565b5050565b6103656103c9565b61036e5f610515565b565b60606004805461025a90610878565b5f336102f5818585610484565b6103946103c9565b6001600160a01b0381166103bd57604051631e4fbdf760e01b81525f6004820152602401610346565b6103c681610515565b50565b6005546001600160a01b0316331461036e5760405163118cdaa760e01b8152336004820152602401610346565b6104038383836001610566565b505050565b6001600160a01b038381165f908152600160209081526040808320938616835292905220545f1981101561047e578181101561047057604051637dc7a0d960e11b81526001600160a01b03841660048201526024810182905260448101839052606401610346565b61047e84848484035f610566565b50505050565b6001600160a01b0383166104ad57604051634b637e8f60e11b81525f6004820152602401610346565b6001600160a01b0382166104d65760405163ec442f0560e01b81525f6004820152602401610346565b610403838383610638565b6001600160a01b03821661050a5760405163ec442f0560e01b81525f6004820152602401610346565b6103595f8383610638565b600580546001600160a01b038381166001600160a01b0319831681179093556040519116919082907f8be0079c531659141344cd1fd0a4f28419497f9722a3daafe3b4186f6b6457e0905f90a35050565b6001600160a01b03841661058f5760405163e602df0560e01b81525f6004820152602401610346565b6001600160a01b0383166105b857604051634a1406b160e11b81525f6004820152602401610346565b6001600160a01b038085165f908152600160209081526040808320938716835292905220829055801561047e57826001600160a01b0316846001600160a01b03167f8c5be1e5ebec7d5bd14f71427d1e84f3dd0314c0f7b2291e5b200ac8c7c3b9258460405161062a91815260200190565b60405180910390a350505050565b6001600160a01b038316610662578060025f82825461065791906108b0565b909155506106d29050565b6001600160a01b0383165f90815260208190526040902054818110156106b45760405163391434e360e21b81526001600160a01b03851660048201526024810182905260448101839052606401610346565b6001600160a01b0384165f9081526020819052604090209082900390555b6001600160a01b0382166106ee5760028054829003905561070c565b6001600160a01b0382165f9081526020819052604090208054820190555b816001600160a01b0316836001600160a01b03167fddf252ad1be2c89b69c2b068fc378daa952ba7f163c4a11628f55a4df523b3ef8360405161075191815260200190565b60405180910390a3505050565b602081525f82518060208401528060208501604085015e5f604082850101526040601f19601f83011684010191505092915050565b5f602082840312156107a3575f5ffd5b5035919050565b80356001600160a01b03811681146107c0575f5ffd5b919050565b5f5f604083850312156107d6575f5ffd5b6107df836107aa565b946020939093013593505050565b5f5f5f606084860312156107ff575f5ffd5b610808846107aa565b9250610816602085016107aa565b929592945050506040919091013590565b5f60208284031215610837575f5ffd5b610840826107aa565b9392505050565b5f5f60408385031215610858575f5ffd5b610861836107aa565b915061086f602084016107aa565b90509250929050565b600181811c9082168061088c57607f821691505b6020821081036108aa57634e487b7160e01b5f52602260045260245ffd5b50919050565b808201808211156102fb57634e487b7160e01b5f52601160045260245ffdfea26469706673582212202c73e28e5e0d8f46dd42f9d7b873ec6956671f657bdfcdaee02d8e427429c87b64736f6c634300081c0033","linkReferences":{}},"methodIdentifiers":{"allowance(address,address)":"dd62ed3e","approve(address,uint256)":"095ea7b3","balanceOf(address)":"70a08231","decimals()":"313ce567","maxMintAmount()":"239c70ae","mint(address,uint256)":"40c10f19","name()":"06fdde03","owner()":"8da5cb5b","renounceOwnership()":"715018a6","setMaxMintAmount(uint256)":"088a4ed0","symbol()":"95d89b41","totalSupply()":"18160ddd","transfer(address,uint256)":"a9059cbb","transferFrom(address,address,uint256)":"23b872dd","transferOwnership(address)":"f2fde38b"},"id":94}