{"abi":[{"type":"constructor","inputs":[{"name":"name_","type":"string","internalType":"string"},{"name":"symbol_","type":"string","internalType":"string"},{"name":"decimals_","type":"uint8","internalType":"uint8"}],"stateMutability":"nonpayable"},{"type":"function","name":"MAX_MINT","inputs":[],"outputs":[{"name":"","type":"uint256","internalType":"uint256"}],"stateMutability":"view"},{"type":"function","name":"MAX_TOTAL_SUPPLY","inputs":[],"outputs":[{"name":"","type":"uint256","internalType":"uint256"}],"stateMutability":"view"},{"type":"function","name":"allowance","inputs":[{"name":"owner","type":"address","internalType":"address"},{"name":"spender","type":"address","internalType":"address"}],"outputs":[{"name":"","type":"uint256","internalType":"uint256"}],"stateMutability":"view"},{"type":"function","name":"approve","inputs":[{"name":"spender","type":"address","internalType":"address"},{"name":"value","type":"uint256","internalType":"uint256"}],"outputs":[{"name":"","type":"bool","internalType":"bool"}],"stateMutability":"nonpayable"},{"type":"function","name":"balanceOf","inputs":[{"name":"account","type":"address","internalType":"address"}],"outputs":[{"name":"","type":"uint256","internalType":"uint256"}],"stateMutability":"view"},{"type":"function","name":"burn","inputs":[{"name":"from","type":"address","internalType":"address"},{"name":"amount","type":"uint256","internalType":"uint256"}],"outputs":[],"stateMutability":"nonpayable"},{"type":"function","name":"decimals","inputs":[],"outputs":[{"name":"","type":"uint8","internalType":"uint8"}],"stateMutability":"view"},{"type":"function","name":"getMintAmount","inputs":[{"name":"","type":"address","internalType":"address"},{"name":"_amountIn","type":"uint256","internalType":"uint256"}],"outputs":[{"name":"amountOut","type":"uint256","internalType":"uint256"},{"name":"fee","type":"uint256","internalType":"uint256"}],"stateMutability":"pure"},{"type":"function","name":"mint","inputs":[{"name":"_asset","type":"address","internalType":"address"},{"name":"_amountIn","type":"uint256","internalType":"uint256"},{"name":"_minAmountOut","type":"uint256","internalType":"uint256"},{"name":"_receiver","type":"address","internalType":"address"},{"name":"_deadline","type":"uint256","internalType":"uint256"}],"outputs":[{"name":"amountOut","type":"uint256","internalType":"uint256"}],"stateMutability":"nonpayable"},{"type":"function","name":"mockDecimals","inputs":[{"name":"decimals_","type":"uint8","internalType":"uint8"}],"outputs":[],"stateMutability":"nonpayable"},{"type":"function","name":"mockMinimumTotalSupply","inputs":[{"name":"totalSupply_","type":"uint256","internalType":"uint256"}],"outputs":[],"stateMutability":"nonpayable"},{"type":"function","name":"name","inputs":[],"outputs":[{"name":"","type":"string","internalType":"string"}],"stateMutability":"view"},{"type":"function","name":"symbol","inputs":[],"outputs":[{"name":"","type":"string","internalType":"string"}],"stateMutability":"view"},{"type":"function","name":"totalSupply","inputs":[],"outputs":[{"name":"","type":"uint256","internalType":"uint256"}],"stateMutability":"view"},{"type":"function","name":"transfer","inputs":[{"name":"to","type":"address","internalType":"address"},{"name":"value","type":"uint256","internalType":"uint256"}],"outputs":[{"name":"","type":"bool","internalType":"bool"}],"stateMutability":"nonpayable"},{"type":"function","name":"transferFrom","inputs":[{"name":"from","type":"address","internalType":"address"},{"name":"to","type":"address","internalType":"address"},{"name":"value","type":"uint256","internalType":"uint256"}],"outputs":[{"name":"","type":"bool","internalType":"bool"}],"stateMutability":"nonpayable"},{"type":"event","name":"Approval","inputs":[{"name":"owner","type":"address","indexed":true,"internalType":"address"},{"name":"spender","type":"address","indexed":true,"internalType":"address"},{"name":"value","type":"uint256","indexed":false,"internalType":"uint256"}],"anonymous":false},{"type":"event","name":"Transfer","inputs":[{"name":"from","type":"address","indexed":true,"internalType":"address"},{"name":"to","type":"address","indexed":true,"internalType":"address"},{"name":"value","type":"uint256","indexed":false,"internalType":"uint256"}],"anonymous":false},{"type":"error","name":"DeadlinePassed","inputs":[]},{"type":"error","name":"ERC20InsufficientAllowance","inputs":[{"name":"spender","type":"address","internalType":"address"},{"name":"allowance","type":"uint256","internalType":"uint256"},{"name":"needed","type":"uint256","internalType":"uint256"}]},{"type":"error","name":"ERC20InsufficientBalance","inputs":[{"name":"sender","type":"address","internalType":"address"},{"name":"balance","type":"uint256","internalType":"uint256"},{"name":"needed","type":"uint256","internalType":"uint256"}]},{"type":"error","name":"ERC20InvalidApprover","inputs":[{"name":"approver","type":"address","internalType":"address"}]},{"type":"error","name":"ERC20InvalidReceiver","inputs":[{"name":"receiver","type":"address","internalType":"address"}]},{"type":"error","name":"ERC20InvalidSender","inputs":[{"name":"sender","type":"address","internalType":"address"}]},{"type":"error","name":"ERC20InvalidSpender","inputs":[{"name":"spender","type":"address","internalType":"address"}]},{"type":"error","name":"SafeERC20FailedOperation","inputs":[{"name":"token","type":"address","internalType":"address"}]},{"type":"error","name":"ZeroAddress","inputs":[]},{"type":"error","name":"ZeroAmount","inputs":[]}],"bytecode":{"object":"0x608060405234801561000f575f5ffd5b5060405161106338038061106383398101604081905261002e91610106565b8282600361003c8382610207565b5060046100498282610207565b50506005805460ff191660ff9390931692909217909155506102c1915050565b634e487b7160e01b5f52604160045260245ffd5b5f82601f83011261008c575f5ffd5b81516001600160401b038111156100a5576100a5610069565b604051601f8201601f19908116603f011681016001600160401b03811182821017156100d3576100d3610069565b6040528181528382016020018510156100ea575f5ffd5b8160208501602083015e5f918101602001919091529392505050565b5f5f5f60608486031215610118575f5ffd5b83516001600160401b0381111561012d575f5ffd5b6101398682870161007d565b602086015190945090506001600160401b03811115610156575f5ffd5b6101628682870161007d565b925050604084015160ff81168114610178575f5ffd5b809150509250925092565b600181811c9082168061019757607f821691505b6020821081036101b557634e487b7160e01b5f52602260045260245ffd5b50919050565b601f82111561020257805f5260205f20601f840160051c810160208510156101e05750805b601f840160051c820191505b818110156101ff575f81556001016101ec565b50505b505050565b81516001600160401b0381111561022057610220610069565b6102348161022e8454610183565b846101bb565b6020601f821160018114610266575f831561024f5750848201515b5f19600385901b1c1916600184901b1784556101ff565b5f84815260208120601f198516915b828110156102955787850151825560209485019460019092019101610275565b50848210156102b257868401515f19600387901b60f8161c191681555b50505050600190811b01905550565b610d95806102ce5f395ff3fe608060405234801561000f575f5ffd5b50600436106100fb575f3560e01c806333039d3d11610093578063a445058711610063578063a445058714610229578063a9059cbb1461023c578063dd62ed3e1461024f578063f0292a03146101ca575f5ffd5b806333039d3d146101ca57806370a08231146101e657806395d89b411461020e5780639dc29fac14610216575f5ffd5b8063195d0e28116100ce578063195d0e281461016757806323a411371461018f57806323b872dd146101a2578063313ce567146101b5575f5ffd5b806306fdde03146100ff578063095ea7b31461011d5780630be284a21461014057806318160ddd14610155575b5f5ffd5b610107610287565b6040516101149190610a1e565b60405180910390f35b61013061012b366004610a6e565b610317565b6040519015158152602001610114565b61015361014e366004610a96565b610330565b005b6002545b604051908152602001610114565b61017a610175366004610a6e565b6103db565b60408051928352602083019190915201610114565b61015361019d366004610abb565b610407565b6101306101b0366004610add565b610471565b60055460405160ff9091168152602001610114565b61015974446c3b15f9926687d2c40534fdb56400000000000081565b6101596101f4366004610b17565b6001600160a01b03165f9081526020819052604090205490565b610107610494565b610153610224366004610a6e565b6104a3565b610159610237366004610b30565b6104b1565b61013061024a366004610a6e565b610600565b61015961025d366004610b7a565b6001600160a01b039182165f90815260016020908152604080832093909416825291909152205490565b60606003805461029690610bab565b80601f01602080910402602001604051908101604052809291908181526020018280546102c290610bab565b801561030d5780601f106102e45761010080835404028352916020019161030d565b820191905f5260205f20905b8154815290600101906020018083116102f057829003601f168201915b5050505050905090565b5f3361032481858561060d565b60019150505b92915050565b74446c3b15f9926687d2c40534fdb5640000000000008111156103b25760405162461bcd60e51b815260206004820152602f60248201527f546f74616c20737570706c79206d757374206265206c657373207468616e204d60448201526e41585f544f54414c5f535550504c5960881b60648201526084015b60405180910390fd5b6002548111156103d8576103d8306103c960025490565b6103d39084610bf7565b61061f565b50565b5f80620f42406103f384670de0b6b3a7640000610c0a565b6103fd9190610c21565b945f945092505050565b60328160ff16111561045b5760405162461bcd60e51b815260206004820152601d60248201527f446563696d616c73206d757374206265206c657373207468616e20353000000060448201526064016103a9565b6005805460ff191660ff92909216919091179055565b5f3361047e858285610653565b6104898585856106cf565b506001949350505050565b60606004805461029690610bab565b6104ad828261072c565b5050565b5f428210156104d35760405163387b2e5560e11b815260040160405180910390fd5b845f036104f357604051631f2a200560e01b815260040160405180910390fd5b6001600160a01b038316158061051057506001600160a01b038616155b1561052e5760405163d92e233d60e01b815260040160405180910390fd5b6105436001600160a01b038716333088610760565b856001600160a01b031663313ce5676040518163ffffffff1660e01b8152600401602060405180830381865afa15801561057f573d5f5f3e3d5ffd5b505050506040513d601f19601f820116820180604052508101906105a39190610c40565b6105ae90600a610d3e565b6105c086670de0b6b3a7640000610c0a565b6105ca9190610c21565b9050838110156105ed57604051631f2a200560e01b815260040160405180910390fd5b6105f7838261061f565b95945050505050565b5f336103248185856106cf565b61061a83838360016107ba565b505050565b6001600160a01b0382166106485760405163ec442f0560e01b81525f60048201526024016103a9565b6104ad5f838361088c565b6001600160a01b038381165f908152600160209081526040808320938616835292905220545f198110156106c957818110156106bb57604051637dc7a0d960e11b81526001600160a01b038416600482015260248101829052604481018390526064016103a9565b6106c984848484035f6107ba565b50505050565b6001600160a01b0383166106f857604051634b637e8f60e11b81525f60048201526024016103a9565b6001600160a01b0382166107215760405163ec442f0560e01b81525f60048201526024016103a9565b61061a83838361088c565b6001600160a01b03821661075557604051634b637e8f60e11b81525f60048201526024016103a9565b6104ad825f8361088c565b604080516001600160a01b0385811660248301528416604482015260648082018490528251808303909101815260849091019091526020810180516001600160e01b03166323b872dd60e01b1790526106c99085906109b2565b6001600160a01b0384166107e35760405163e602df0560e01b81525f60048201526024016103a9565b6001600160a01b03831661080c57604051634a1406b160e11b81525f60048201526024016103a9565b6001600160a01b038085165f90815260016020908152604080832093871683529290522082905580156106c957826001600160a01b0316846001600160a01b03167f8c5be1e5ebec7d5bd14f71427d1e84f3dd0314c0f7b2291e5b200ac8c7c3b9258460405161087e91815260200190565b60405180910390a350505050565b6001600160a01b0383166108b6578060025f8282546108ab9190610d4c565b909155506109269050565b6001600160a01b0383165f90815260208190526040902054818110156109085760405163391434e360e21b81526001600160a01b038516600482015260248101829052604481018390526064016103a9565b6001600160a01b0384165f9081526020819052604090209082900390555b6001600160a01b03821661094257600280548290039055610960565b6001600160a01b0382165f9081526020819052604090208054820190555b816001600160a01b0316836001600160a01b03167fddf252ad1be2c89b69c2b068fc378daa952ba7f163c4a11628f55a4df523b3ef836040516109a591815260200190565b60405180910390a3505050565b5f5f60205f8451602086015f885af1806109d1576040513d5f823e3d81fd5b50505f513d915081156109e85780600114156109f5565b6001600160a01b0384163b155b156106c957604051635274afe760e01b81526001600160a01b03851660048201526024016103a9565b602081525f82518060208401528060208501604085015e5f604082850101526040601f19601f83011684010191505092915050565b80356001600160a01b0381168114610a69575f5ffd5b919050565b5f5f60408385031215610a7f575f5ffd5b610a8883610a53565b946020939093013593505050565b5f60208284031215610aa6575f5ffd5b5035919050565b60ff811681146103d8575f5ffd5b5f60208284031215610acb575f5ffd5b8135610ad681610aad565b9392505050565b5f5f5f60608486031215610aef575f5ffd5b610af884610a53565b9250610b0660208501610a53565b929592945050506040919091013590565b5f60208284031215610b27575f5ffd5b610ad682610a53565b5f5f5f5f5f60a08688031215610b44575f5ffd5b610b4d86610a53565b94506020860135935060408601359250610b6960608701610a53565b949793965091946080013592915050565b5f5f60408385031215610b8b575f5ffd5b610b9483610a53565b9150610ba260208401610a53565b90509250929050565b600181811c90821680610bbf57607f821691505b602082108103610bdd57634e487b7160e01b5f52602260045260245ffd5b50919050565b634e487b7160e01b5f52601160045260245ffd5b8181038181111561032a5761032a610be3565b808202811582820484141761032a5761032a610be3565b5f82610c3b57634e487b7160e01b5f52601260045260245ffd5b500490565b5f60208284031215610c50575f5ffd5b8151610ad681610aad565b6001815b6001841115610c9657808504811115610c7a57610c7a610be3565b6001841615610c8857908102905b60019390931c928002610c5f565b935093915050565b5f82610cac5750600161032a565b81610cb857505f61032a565b8160018114610cce5760028114610cd857610cf4565b600191505061032a565b60ff841115610ce957610ce9610be3565b50506001821b61032a565b5060208310610133831016604e8410600b8410161715610d17575081810a61032a565b610d235f198484610c5b565b805f1904821115610d3657610d36610be3565b029392505050565b5f610ad660ff841683610c9e565b8082018082111561032a5761032a610be356fea2646970667358221220a7ccca7488b4a627749865e8113688beed50be4e907e9e9f0f76a0f7d0754d9a64736f6c634300081c0033","linkReferences":{}},"methodIdentifiers":{"MAX_MINT()":"f0292a03","MAX_TOTAL_SUPPLY()":"33039d3d","allowance(address,address)":"dd62ed3e","approve(address,uint256)":"095ea7b3","balanceOf(address)":"70a08231","burn(address,uint256)":"9dc29fac","decimals()":"313ce567","getMintAmount(address,uint256)":"195d0e28","mint(address,uint256,uint256,address,uint256)":"a4450587","mockDecimals(uint8)":"23a41137","mockMinimumTotalSupply(uint256)":"0be284a2","name()":"06fdde03","symbol()":"95d89b41","totalSupply()":"18160ddd","transfer(address,uint256)":"a9059cbb","transferFrom(address,address,uint256)":"23b872dd"},"id":338}