{"abi":[{"type":"function","name":"rate","inputs":[{"name":"_aaveDataProvider","type":"address","internalType":"address"},{"name":"_asset","type":"address","internalType":"address"}],"outputs":[{"name":"latestAnswer","type":"uint256","internalType":"uint256"}],"stateMutability":"view"}],"bytecode":{"object":"0x61022a610034600b8282823980515f1a607314602857634e487b7160e01b5f525f60045260245ffd5b305f52607381538281f3fe7300000000000000000000000000000000000000003014608060405260043610610034575f3560e01c806350e3004214610038575b5f5ffd5b61004b6100463660046100f7565b61005d565b60405190815260200160405180910390f35b6040516335ea6a7560e01b81526001600160a01b0382811660048301525f91908416906335ea6a759060240161018060405180830381865afa1580156100a5573d5f5f3e3d5ffd5b505050506040513d601f19601f820116820180604052508101906100c99190610128565b50939d9c50505050505050505050505050565b80356001600160a01b03811681146100f2575f5ffd5b919050565b5f5f60408385031215610108575f5ffd5b610111836100dc565b915061011f602084016100dc565b90509250929050565b5f5f5f5f5f5f5f5f5f5f5f5f6101808d8f031215610144575f5ffd5b5f8d519050809c50505f60208e01519050809b50505f60408e01519050809a50505f60608e01519050809950505f60808e01519050809850505f60a08e01519050809750505f60c08e01519050809650505f60e08e01519050809550505f6101008e01519050809450505f6101208e01519050809350505f6101408e01519050809250506101608d015164ffffffffff811681146101e0575f5ffd5b809150509295989b509295989b509295989b56fea26469706673582212202f56ae183a9b512c08ec3c157c7736b3b7aba92145a4c125a69b5a3e9192bbbd64736f6c634300081c0033","linkReferences":{}},"methodIdentifiers":{"rate(address,address)":"50e30042"},"id":70}