{"abi":[{"type":"constructor","inputs":[],"stateMutability":"nonpayable"},{"type":"function","name":"UPGRADE_INTERFACE_VERSION","inputs":[],"outputs":[{"name":"","type":"string","internalType":"string"}],"stateMutability":"view"},{"type":"function","name":"buy","inputs":[{"name":"_maxPrice","type":"uint256","internalType":"uint256"},{"name":"_assets","type":"address[]","internalType":"address[]"},{"name":"_minAmounts","type":"uint256[]","internalType":"uint256[]"},{"name":"_receiver","type":"address","internalType":"address"},{"name":"_deadline","type":"uint256","internalType":"uint256"}],"outputs":[],"stateMutability":"nonpayable"},{"type":"function","name":"currentPrice","inputs":[],"outputs":[{"name":"price","type":"uint256","internalType":"uint256"}],"stateMutability":"view"},{"type":"function","name":"duration","inputs":[],"outputs":[{"name":"auctionDuration","type":"uint256","internalType":"uint256"}],"stateMutability":"view"},{"type":"function","name":"initialize","inputs":[{"name":"_accessControl","type":"address","internalType":"address"},{"name":"_paymentToken","type":"address","internalType":"address"},{"name":"_paymentRecipient","type":"address","internalType":"address"},{"name":"_duration","type":"uint256","internalType":"uint256"},{"name":"_minStartPrice","type":"uint256","internalType":"uint256"}],"outputs":[],"stateMutability":"nonpayable"},{"type":"function","name":"minStartPrice","inputs":[],"outputs":[{"name":"price","type":"uint256","internalType":"uint256"}],"stateMutability":"view"},{"type":"function","name":"paymentRecipient","inputs":[],"outputs":[{"name":"recipient","type":"address","internalType":"address"}],"stateMutability":"view"},{"type":"function","name":"paymentToken","inputs":[],"outputs":[{"name":"token","type":"address","internalType":"address"}],"stateMutability":"view"},{"type":"function","name":"proxiableUUID","inputs":[],"outputs":[{"name":"","type":"bytes32","internalType":"bytes32"}],"stateMutability":"view"},{"type":"function","name":"setDuration","inputs":[{"name":"_duration","type":"uint256","internalType":"uint256"}],"outputs":[],"stateMutability":"nonpayable"},{"type":"function","name":"setMinStartPrice","inputs":[{"name":"_minStartPrice","type":"uint256","internalType":"uint256"}],"outputs":[],"stateMutability":"nonpayable"},{"type":"function","name":"setStartPrice","inputs":[{"name":"_startPrice","type":"uint256","internalType":"uint256"}],"outputs":[],"stateMutability":"nonpayable"},{"type":"function","name":"startPrice","inputs":[],"outputs":[{"name":"price","type":"uint256","internalType":"uint256"}],"stateMutability":"view"},{"type":"function","name":"startTimestamp","inputs":[],"outputs":[{"name":"timestamp","type":"uint256","internalType":"uint256"}],"stateMutability":"view"},{"type":"function","name":"upgradeToAndCall","inputs":[{"name":"newImplementation","type":"address","internalType":"address"},{"name":"data","type":"bytes","internalType":"bytes"}],"outputs":[],"stateMutability":"payable"},{"type":"event","name":"Buy","inputs":[{"name":"buyer","type":"address","indexed":false,"internalType":"address"},{"name":"price","type":"uint256","indexed":false,"internalType":"uint256"},{"name":"assets","type":"address[]","indexed":false,"internalType":"address[]"},{"name":"balances","type":"uint256[]","indexed":false,"internalType":"uint256[]"}],"anonymous":false},{"type":"event","name":"Initialized","inputs":[{"name":"version","type":"uint64","indexed":false,"internalType":"uint64"}],"anonymous":false},{"type":"event","name":"SetDuration","inputs":[{"name":"duration","type":"uint256","indexed":false,"internalType":"uint256"}],"anonymous":false},{"type":"event","name":"SetMinStartPrice","inputs":[{"name":"minStartPrice","type":"uint256","indexed":false,"internalType":"uint256"}],"anonymous":false},{"type":"event","name":"SetStartPrice","inputs":[{"name":"startPrice","type":"uint256","indexed":false,"internalType":"uint256"}],"anonymous":false},{"type":"event","name":"Upgraded","inputs":[{"name":"implementation","type":"address","indexed":true,"internalType":"address"}],"anonymous":false},{"type":"error","name":"AccessDenied","inputs":[]},{"type":"error","name":"AddressEmptyCode","inputs":[{"name":"target","type":"address","internalType":"address"}]},{"type":"error","name":"ERC1967InvalidImplementation","inputs":[{"name":"implementation","type":"address","internalType":"address"}]},{"type":"error","name":"ERC1967NonPayable","inputs":[]},{"type":"error","name":"FailedCall","inputs":[]},{"type":"error","name":"InsufficientBalance","inputs":[{"name":"asset","type":"address","internalType":"address"},{"name":"balance","type":"uint256","internalType":"uint256"},{"name":"minAmount","type":"uint256","internalType":"uint256"}]},{"type":"error","name":"InvalidAssets","inputs":[]},{"type":"error","name":"InvalidDeadline","inputs":[]},{"type":"error","name":"InvalidInitialization","inputs":[]},{"type":"error","name":"InvalidPrice","inputs":[]},{"type":"error","name":"InvalidReceiver","inputs":[]},{"type":"error","name":"InvalidStartPrice","inputs":[]},{"type":"error","name":"NoDuration","inputs":[]},{"type":"error","name":"NoMinStartPrice","inputs":[]},{"type":"error","name":"NotInitializing","inputs":[]},{"type":"error","name":"SafeERC20FailedOperation","inputs":[{"name":"token","type":"address","internalType":"address"}]},{"type":"error","name":"UUPSUnauthorizedCallContext","inputs":[]},{"type":"error","name":"UUPSUnsupportedProxiableUUID","inputs":[{"name":"slot","type":"bytes32","internalType":"bytes32"}]}],"bytecode":{"object":"0x60a060405230608052348015610013575f5ffd5b5061001c610021565b6100d3565b7ff0c57e16840df040f15088dc2f81fe391c3923bec73e23a9662efc9c229c6a00805468010000000000000000900460ff16156100715760405163f92ee8a960e01b815260040160405180910390fd5b80546001600160401b03908116146100d05780546001600160401b0319166001600160401b0390811782556040519081527fc7f505b2f371ae2175ee4913f4499e1f2633a7b5936321eed1cdaeb6115181d29060200160405180910390a15b50565b6080516115576100f95f395f8181610a1601528181610a3f0152610b7601526115575ff3fe6080604052600436106100e4575f3560e01c8063885f615111610087578063ad3cb1cc11610057578063ad3cb1cc1461027a578063e6fd48bc146102b7578063f1a9af89146102d7578063f6be71d11461030a575f5ffd5b8063885f6151146101f55780639d1b464a14610228578063a16faeaa1461023c578063a6b63eb81461025b575f5ffd5b80633013ce29116100c25780633013ce291461019b5780634f1ef286146101af57806352d1902d146101c257806375bb23e8146101d6575f5ffd5b80630fb5a6b4146100e857806317d861541461012a5780632b1eaf291461014b575b5f5ffd5b3480156100f3575f5ffd5b507fbbabf7dab1936c7afe15748adafbe56186d0b57f14b5bc3e6f8d57aad0236104545b6040519081526020015b60405180910390f35b348015610135575f5ffd5b506101496101443660046110df565b610329565b005b348015610156575f5ffd5b507fbbabf7dab1936c7afe15748adafbe56186d0b57f14b5bc3e6f8d57aad0236101546001600160a01b03165b6040516001600160a01b039091168152602001610121565b3480156101a6575f5ffd5b506101836103cb565b6101496101bd366004611125565b6103ea565b3480156101cd575f5ffd5b50610117610409565b3480156101e1575f5ffd5b506101496101f03660046110df565b610424565b348015610200575f5ffd5b507fbbabf7dab1936c7afe15748adafbe56186d0b57f14b5bc3e6f8d57aad023610554610117565b348015610233575f5ffd5b506101176104b8565b348015610247575f5ffd5b50610149610256366004611231565b610562565b348015610266575f5ffd5b506101496102753660046112c6565b6106c3565b348015610285575f5ffd5b506102aa604051806040016040528060058152602001640352e302e360dc1b81525081565b6040516101219190611317565b3480156102c2575f5ffd5b505f5160206115025f395f51905f5254610117565b3480156102e2575f5ffd5b507fbbabf7dab1936c7afe15748adafbe56186d0b57f14b5bc3e6f8d57aad023610254610117565b348015610315575f5ffd5b506101496103243660046110df565b6108b7565b6305f6185560e21b61033a8161094b565b7fbbabf7dab1936c7afe15748adafbe56186d0b57f14b5bc3e6f8d57aad0236105545f5160206114e25f395f51905f529083101561038b57604051630fbc961960e31b815260040160405180910390fd5b600281018390556040518381527ff80c27d4671c8c90dce5976e1d545b7c1403c48379b10b7e8d8b451e86d79b36906020015b60405180910390a1505050565b5f5f5160206114e25f395f51905f525b546001600160a01b0316919050565b6103f2610a0b565b6103fb82610a9b565b6104058282610aa5565b5050565b5f610412610b6b565b505f5160206114c25f395f51905f5290565b630eb7647d60e31b6104358161094b565b815f036104555760405163559aacf360e11b815260040160405180910390fd5b7fbbabf7dab1936c7afe15748adafbe56186d0b57f14b5bc3e6f8d57aad02361058290556040518281525f5160206114e25f395f51905f52907f54a271d79eeee80af3054e816c63b1e08e92cfe3606b2d537595032a14d6fc46906020016103be565b5f5160206115025f395f51905f52545f905f5160206114e25f395f51905f529082906104e49042611360565b905081600401548111156104f9575060048101545b60048201546b033b2e3c9fd0803ce800000090610522836b02e87669c308736a04000000611373565b61052c919061138a565b610542906b033b2e3c9fd0803ce8000000611360565b83600201546105519190611373565b61055b919061138a565b9250505090565b5f61056b6104b8565b90508781111561058d5760405162bfc92160e01b815260040160405180910390fd5b85158061059a5750858414155b156105b8576040516318374fd160e21b815260040160405180910390fd5b6001600160a01b0383166105df57604051631e4ec46b60e01b815260040160405180910390fd5b4282101561060057604051631da7447960e21b815260040160405180910390fd5b425f5160206115025f395f51905f52555f5160206114e25f395f51905f525f61062a836002611373565b9050816005015481101561063f575060058101545b600282018190555f6106548a8a8a8a8a610bb4565b60018401548454919250610677916001600160a01b039081169133911687610d57565b7fd20c929f417baf0af661fae6f1365f4afbfa370a8207c89bbdcb99506404c99a33858c8c856040516106ae9594939291906113a9565b60405180910390a15050505050505050505050565b7ff0c57e16840df040f15088dc2f81fe391c3923bec73e23a9662efc9c229c6a008054600160401b810460ff16159067ffffffffffffffff165f811580156107085750825b90505f8267ffffffffffffffff1660011480156107245750303b155b905081158015610732575080155b156107505760405163f92ee8a960e01b815260040160405180910390fd5b845467ffffffffffffffff19166001178555831561077a57845460ff60401b1916600160401b1785555b6107838a610dc4565b61078b610dd8565b5f5160206114e25f395f51905f5280546001600160a01b038b81166001600160a01b03199283161783557fbbabf7dab1936c7afe15748adafbe56186d0b57f14b5bc3e6f8d57aad02361018054918c16919092161790557fbbabf7dab1936c7afe15748adafbe56186d0b57f14b5bc3e6f8d57aad0236102879055425f5160206115025f395f51905f52555f889003610837576040516363c6843b60e01b815260040160405180910390fd5b600481018890555f87900361085f5760405163559aacf360e11b815260040160405180910390fd5b60050186905583156108ab57845460ff60401b19168555604051600181527fc7f505b2f371ae2175ee4913f4499e1f2633a7b5936321eed1cdaeb6115181d29060200160405180910390a15b50505050505050505050565b63f6be71d160e01b6108c88161094b565b815f036108e8576040516363c6843b60e01b815260040160405180910390fd5b7fbbabf7dab1936c7afe15748adafbe56186d0b57f14b5bc3e6f8d57aad02361048290556040518281525f5160206114e25f395f51905f52907f30e4fe018f9748721db1d6cfa76687e1ff0f75594888399281701125a49774ee906020016103be565b5f7fb413d65cb88f23816c329284a0d3eb15a99df7963ab7402ade4c5da22bff6b0054604051633657648360e21b81526001600160e01b0319841660048201523060248201523360448201526001600160a01b039091169063d95d920c90606401602060405180830381865afa1580156109c7573d5f5f3e3d5ffd5b505050506040513d601f19601f820116820180604052508101906109eb9190611448565b90508061040557604051634ca8886760e01b815260040160405180910390fd5b306001600160a01b037f0000000000000000000000000000000000000000000000000000000000000000161480610a7b57507f00000000000000000000000000000000000000000000000000000000000000006001600160a01b0316610a6f610de0565b6001600160a01b031614155b15610a995760405163703e46dd60e11b815260040160405180910390fd5b565b5f6104058161094b565b816001600160a01b03166352d1902d6040518163ffffffff1660e01b8152600401602060405180830381865afa925050508015610aff575060408051601f3d908101601f19168201909252610afc91810190611467565b60015b610b2c57604051634c9c8ce360e01b81526001600160a01b03831660048201526024015b60405180910390fd5b5f5160206114c25f395f51905f528114610b5c57604051632a87526960e21b815260048101829052602401610b23565b610b668383610df4565b505050565b306001600160a01b037f00000000000000000000000000000000000000000000000000000000000000001614610a995760405163703e46dd60e11b815260040160405180910390fd5b6060848067ffffffffffffffff811115610bd057610bd0611111565b604051908082528060200260200182016040528015610bf9578160200160208202803683370190505b5091505f5b81811015610d4c575f888883818110610c1957610c1961147e565b9050602002016020810190610c2e9190611492565b6040516370a0823160e01b81523060048201529091505f906001600160a01b038316906370a0823190602401602060405180830381865afa158015610c75573d5f5f3e3d5ffd5b505050506040513d601f19601f82011682018060405250810190610c999190611467565b905080858481518110610cae57610cae61147e565b602002602001018181525050878784818110610ccc57610ccc61147e565b90506020020135811015610d28578181898986818110610cee57610cee61147e565b60405163db42144d60e01b81526001600160a01b039095166004860152602485019390935250602090910201356044820152606401610b23565b8015610d4257610d426001600160a01b0383168783610e49565b5050600101610bfe565b505095945050505050565b6040516001600160a01b038481166024830152838116604483015260648201839052610dbe9186918216906323b872dd906084015b604051602081830303815290604052915060e01b6020820180516001600160e01b038381831617835250505050610e7a565b50505050565b610dcc610ee6565b610dd581610f2f565b50565b610a99610ee6565b5f5f5160206114c25f395f51905f526103db565b610dfd82610f7b565b6040516001600160a01b038316907fbc7cd75a20ee27fd9adebab32041f755214dbc6bffa90cc0225b39da2e5c2d3b905f90a2805115610e4157610b668282610fc4565b610405611038565b6040516001600160a01b03838116602483015260448201839052610b6691859182169063a9059cbb90606401610d8c565b5f5f60205f8451602086015f885af180610e99576040513d5f823e3d81fd5b50505f513d91508115610eb0578060011415610ebd565b6001600160a01b0384163b155b15610dbe57604051635274afe760e01b81526001600160a01b0385166004820152602401610b23565b7ff0c57e16840df040f15088dc2f81fe391c3923bec73e23a9662efc9c229c6a0054600160401b900460ff16610a9957604051631afcd79f60e31b815260040160405180910390fd5b610f37610ee6565b807fb413d65cb88f23816c329284a0d3eb15a99df7963ab7402ade4c5da22bff6b005b80546001600160a01b0319166001600160a01b039290921691909117905550565b806001600160a01b03163b5f03610fb057604051634c9c8ce360e01b81526001600160a01b0382166004820152602401610b23565b805f5160206114c25f395f51905f52610f5a565b60605f5f846001600160a01b031684604051610fe091906114ab565b5f60405180830381855af49150503d805f8114611018576040519150601f19603f3d011682016040523d82523d5f602084013e61101d565b606091505b509150915061102d858383611057565b925050505b92915050565b3415610a995760405163b398979f60e01b815260040160405180910390fd5b60608261106c57611067826110b6565b6110af565b815115801561108357506001600160a01b0384163b155b156110ac57604051639996b31560e01b81526001600160a01b0385166004820152602401610b23565b50805b9392505050565b8051156110c65780518082602001fd5b60405163d6bda27560e01b815260040160405180910390fd5b5f602082840312156110ef575f5ffd5b5035919050565b80356001600160a01b038116811461110c575f5ffd5b919050565b634e487b7160e01b5f52604160045260245ffd5b5f5f60408385031215611136575f5ffd5b61113f836110f6565b9150602083013567ffffffffffffffff81111561115a575f5ffd5b8301601f8101851361116a575f5ffd5b803567ffffffffffffffff81111561118457611184611111565b604051601f8201601f19908116603f0116810167ffffffffffffffff811182821017156111b3576111b3611111565b6040528181528282016020018710156111ca575f5ffd5b816020840160208301375f602083830101528093505050509250929050565b5f5f83601f8401126111f9575f5ffd5b50813567ffffffffffffffff811115611210575f5ffd5b6020830191508360208260051b850101111561122a575f5ffd5b9250929050565b5f5f5f5f5f5f5f60a0888a031215611247575f5ffd5b87359650602088013567ffffffffffffffff811115611264575f5ffd5b6112708a828b016111e9565b909750955050604088013567ffffffffffffffff81111561128f575f5ffd5b61129b8a828b016111e9565b90955093506112ae9050606089016110f6565b96999598509396929591949193505060809091013590565b5f5f5f5f5f60a086880312156112da575f5ffd5b6112e3866110f6565b94506112f1602087016110f6565b93506112ff604087016110f6565b94979396509394606081013594506080013592915050565b602081525f82518060208401528060208501604085015e5f604082850101526040601f19601f83011684010191505092915050565b634e487b7160e01b5f52601160045260245ffd5b818103818111156110325761103261134c565b80820281158282048414176110325761103261134c565b5f826113a457634e487b7160e01b5f52601260045260245ffd5b500490565b6001600160a01b03861681526020810185905260806040820181905281018390525f8460a08301825b86811015611400576001600160a01b036113eb846110f6565b168252602092830192909101906001016113d2565b508381036060850152845180825260209182019250908501905f5b8181101561143957825184526020938401939092019160010161141b565b50919998505050505050505050565b5f60208284031215611458575f5ffd5b815180151581146110af575f5ffd5b5f60208284031215611477575f5ffd5b5051919050565b634e487b7160e01b5f52603260045260245ffd5b5f602082840312156114a2575f5ffd5b6110af826110f6565b5f82518060208501845e5f92019182525091905056fe360894a13ba1a3210667c828492db98dca3e2076cc3735a920a3ca505d382bbcbbabf7dab1936c7afe15748adafbe56186d0b57f14b5bc3e6f8d57aad0236100bbabf7dab1936c7afe15748adafbe56186d0b57f14b5bc3e6f8d57aad0236103a2646970667358221220f49fa68b72d2c930c823ca0d6cf041be8545c4626f4fec7ce98e71ac86ba2be064736f6c634300081c0033","linkReferences":{}},"methodIdentifiers":{"UPGRADE_INTERFACE_VERSION()":"ad3cb1cc","buy(uint256,address[],uint256[],address,uint256)":"a16faeaa","currentPrice()":"9d1b464a","duration()":"0fb5a6b4","initialize(address,address,address,uint256,uint256)":"a6b63eb8","minStartPrice()":"885f6151","paymentRecipient()":"2b1eaf29","paymentToken()":"3013ce29","proxiableUUID()":"52d1902d","setDuration(uint256)":"f6be71d1","setMinStartPrice(uint256)":"75bb23e8","setStartPrice(uint256)":"17d86154","startPrice()":"f1a9af89","startTimestamp()":"e6fd48bc","upgradeToAndCall(address,bytes)":"4f1ef286"},"id":23}