{"abi":[{"type":"function","name":"_deployLibs","inputs":[],"outputs":[{"name":"d","type":"tuple","internalType":"struct LibsConfig","components":[{"name":"aaveAdapter","type":"address","internalType":"address"},{"name":"chainlinkAdapter","type":"address","internalType":"address"},{"name":"capTokenAdapter","type":"address","internalType":"address"},{"name":"stakedCapAdapter","type":"address","internalType":"address"}]}],"stateMutability":"pure"}],"bytecode":{"object":"0x6080604052348015600e575f5ffd5b506101168061001c5f395ff3fe6080604052348015600e575f5ffd5b50600436106026575f3560e01c80632f50b08014602a575b5f5ffd5b60408051608080820183526001600160a01b0373__$fa97e977f2dcf7039d969a7e04954ec8d0$__811680845273__$41f1de14e74eb2c4f8fcf5f08a84e1cfb3$__8216602080860191825273__$ffb84941c99e9a598b25748de14c278fc0$__841686880190815273__$ec111366e9ffc188c461160ddaeb517122$__851660609788019081528851948552925185169184019190915251831695820195909552935116918301919091520160405180910390f3fea2646970667358221220ef9d78e6312aa47b0552adfcce8ae1dfcc0f7bd98eff3bc173368908ba0d872b64736f6c634300081c0033","linkReferences":{"contracts/oracle/libraries/AaveAdapter.sol":{"AaveAdapter":[{"start":91,"length":20}]},"contracts/oracle/libraries/CapTokenAdapter.sol":{"CapTokenAdapter":[{"start":148,"length":20}]},"contracts/oracle/libraries/ChainlinkAdapter.sol":{"ChainlinkAdapter":[{"start":117,"length":20}]},"contracts/oracle/libraries/StakedCapAdapter.sol":{"StakedCapAdapter":[{"start":177,"length":20}]}}},"methodIdentifiers":{"_deployLibs()":"2f50b080"},"id":12}