{"abi":[{"type":"constructor","inputs":[{"name":"_name","type":"string","internalType":"string"},{"name":"_symbol","type":"string","internalType":"string"},{"name":"_lzEndpoint","type":"address","internalType":"address"},{"name":"_delegate","type":"address","internalType":"address"}],"stateMutability":"nonpayable"},{"type":"function","name":"DOMAIN_SEPARATOR","inputs":[],"outputs":[{"name":"","type":"bytes32","internalType":"bytes32"}],"stateMutability":"view"},{"type":"function","name":"SEND","inputs":[],"outputs":[{"name":"","type":"uint16","internalType":"uint16"}],"stateMutability":"view"},{"type":"function","name":"SEND_AND_CALL","inputs":[],"outputs":[{"name":"","type":"uint16","internalType":"uint16"}],"stateMutability":"view"},{"type":"function","name":"allowInitializePath","inputs":[{"name":"origin","type":"tuple","internalType":"struct Origin","components":[{"name":"srcEid","type":"uint32","internalType":"uint32"},{"name":"sender","type":"bytes32","internalType":"bytes32"},{"name":"nonce","type":"uint64","internalType":"uint64"}]}],"outputs":[{"name":"","type":"bool","internalType":"bool"}],"stateMutability":"view"},{"type":"function","name":"allowance","inputs":[{"name":"owner","type":"address","internalType":"address"},{"name":"spender","type":"address","internalType":"address"}],"outputs":[{"name":"","type":"uint256","internalType":"uint256"}],"stateMutability":"view"},{"type":"function","name":"approvalRequired","inputs":[],"outputs":[{"name":"","type":"bool","internalType":"bool"}],"stateMutability":"pure"},{"type":"function","name":"approve","inputs":[{"name":"spender","type":"address","internalType":"address"},{"name":"value","type":"uint256","internalType":"uint256"}],"outputs":[{"name":"","type":"bool","internalType":"bool"}],"stateMutability":"nonpayable"},{"type":"function","name":"balanceOf","inputs":[{"name":"account","type":"address","internalType":"address"}],"outputs":[{"name":"","type":"uint256","internalType":"uint256"}],"stateMutability":"view"},{"type":"function","name":"combineOptions","inputs":[{"name":"_eid","type":"uint32","internalType":"uint32"},{"name":"_msgType","type":"uint16","internalType":"uint16"},{"name":"_extraOptions","type":"bytes","internalType":"bytes"}],"outputs":[{"name":"","type":"bytes","internalType":"bytes"}],"stateMutability":"view"},{"type":"function","name":"decimalConversionRate","inputs":[],"outputs":[{"name":"","type":"uint256","internalType":"uint256"}],"stateMutability":"view"},{"type":"function","name":"decimals","inputs":[],"outputs":[{"name":"","type":"uint8","internalType":"uint8"}],"stateMutability":"view"},{"type":"function","name":"eip712Domain","inputs":[],"outputs":[{"name":"fields","type":"bytes1","internalType":"bytes1"},{"name":"name","type":"string","internalType":"string"},{"name":"version","type":"string","internalType":"string"},{"name":"chainId","type":"uint256","internalType":"uint256"},{"name":"verifyingContract","type":"address","internalType":"address"},{"name":"salt","type":"bytes32","internalType":"bytes32"},{"name":"extensions","type":"uint256[]","internalType":"uint256[]"}],"stateMutability":"view"},{"type":"function","name":"endpoint","inputs":[],"outputs":[{"name":"","type":"address","internalType":"contract ILayerZeroEndpointV2"}],"stateMutability":"view"},{"type":"function","name":"enforcedOptions","inputs":[{"name":"eid","type":"uint32","internalType":"uint32"},{"name":"msgType","type":"uint16","internalType":"uint16"}],"outputs":[{"name":"enforcedOption","type":"bytes","internalType":"bytes"}],"stateMutability":"view"},{"type":"function","name":"isComposeMsgSender","inputs":[{"name":"","type":"tuple","internalType":"struct Origin","components":[{"name":"srcEid","type":"uint32","internalType":"uint32"},{"name":"sender","type":"bytes32","internalType":"bytes32"},{"name":"nonce","type":"uint64","internalType":"uint64"}]},{"name":"","type":"bytes","internalType":"bytes"},{"name":"_sender","type":"address","internalType":"address"}],"outputs":[{"name":"","type":"bool","internalType":"bool"}],"stateMutability":"view"},{"type":"function","name":"isPeer","inputs":[{"name":"_eid","type":"uint32","internalType":"uint32"},{"name":"_peer","type":"bytes32","internalType":"bytes32"}],"outputs":[{"name":"","type":"bool","internalType":"bool"}],"stateMutability":"view"},{"type":"function","name":"lzReceive","inputs":[{"name":"_origin","type":"tuple","internalType":"struct Origin","components":[{"name":"srcEid","type":"uint32","internalType":"uint32"},{"name":"sender","type":"bytes32","internalType":"bytes32"},{"name":"nonce","type":"uint64","internalType":"uint64"}]},{"name":"_guid","type":"bytes32","internalType":"bytes32"},{"name":"_message","type":"bytes","internalType":"bytes"},{"name":"_executor","type":"address","internalType":"address"},{"name":"_extraData","type":"bytes","internalType":"bytes"}],"outputs":[],"stateMutability":"payable"},{"type":"function","name":"lzReceiveAndRevert","inputs":[{"name":"_packets","type":"tuple[]","internalType":"struct InboundPacket[]","components":[{"name":"origin","type":"tuple","internalType":"struct Origin","components":[{"name":"srcEid","type":"uint32","internalType":"uint32"},{"name":"sender","type":"bytes32","internalType":"bytes32"},{"name":"nonce","type":"uint64","internalType":"uint64"}]},{"name":"dstEid","type":"uint32","internalType":"uint32"},{"name":"receiver","type":"address","internalType":"address"},{"name":"guid","type":"bytes32","internalType":"bytes32"},{"name":"value","type":"uint256","internalType":"uint256"},{"name":"executor","type":"address","internalType":"address"},{"name":"message","type":"bytes","internalType":"bytes"},{"name":"extraData","type":"bytes","internalType":"bytes"}]}],"outputs":[],"stateMutability":"payable"},{"type":"function","name":"lzReceiveSimulate","inputs":[{"name":"_origin","type":"tuple","internalType":"struct Origin","components":[{"name":"srcEid","type":"uint32","internalType":"uint32"},{"name":"sender","type":"bytes32","internalType":"bytes32"},{"name":"nonce","type":"uint64","internalType":"uint64"}]},{"name":"_guid","type":"bytes32","internalType":"bytes32"},{"name":"_message","type":"bytes","internalType":"bytes"},{"name":"_executor","type":"address","internalType":"address"},{"name":"_extraData","type":"bytes","internalType":"bytes"}],"outputs":[],"stateMutability":"payable"},{"type":"function","name":"msgInspector","inputs":[],"outputs":[{"name":"","type":"address","internalType":"address"}],"stateMutability":"view"},{"type":"function","name":"name","inputs":[],"outputs":[{"name":"","type":"string","internalType":"string"}],"stateMutability":"view"},{"type":"function","name":"nextNonce","inputs":[{"name":"","type":"uint32","internalType":"uint32"},{"name":"","type":"bytes32","internalType":"bytes32"}],"outputs":[{"name":"nonce","type":"uint64","internalType":"uint64"}],"stateMutability":"view"},{"type":"function","name":"nonces","inputs":[{"name":"owner","type":"address","internalType":"address"}],"outputs":[{"name":"","type":"uint256","internalType":"uint256"}],"stateMutability":"view"},{"type":"function","name":"oApp","inputs":[],"outputs":[{"name":"","type":"address","internalType":"address"}],"stateMutability":"view"},{"type":"function","name":"oAppVersion","inputs":[],"outputs":[{"name":"senderVersion","type":"uint64","internalType":"uint64"},{"name":"receiverVersion","type":"uint64","internalType":"uint64"}],"stateMutability":"pure"},{"type":"function","name":"oftVersion","inputs":[],"outputs":[{"name":"interfaceId","type":"bytes4","internalType":"bytes4"},{"name":"version","type":"uint64","internalType":"uint64"}],"stateMutability":"pure"},{"type":"function","name":"owner","inputs":[],"outputs":[{"name":"","type":"address","internalType":"address"}],"stateMutability":"view"},{"type":"function","name":"peers","inputs":[{"name":"eid","type":"uint32","internalType":"uint32"}],"outputs":[{"name":"peer","type":"bytes32","internalType":"bytes32"}],"stateMutability":"view"},{"type":"function","name":"permit","inputs":[{"name":"owner","type":"address","internalType":"address"},{"name":"spender","type":"address","internalType":"address"},{"name":"value","type":"uint256","internalType":"uint256"},{"name":"deadline","type":"uint256","internalType":"uint256"},{"name":"v","type":"uint8","internalType":"uint8"},{"name":"r","type":"bytes32","internalType":"bytes32"},{"name":"s","type":"bytes32","internalType":"bytes32"}],"outputs":[],"stateMutability":"nonpayable"},{"type":"function","name":"preCrime","inputs":[],"outputs":[{"name":"","type":"address","internalType":"address"}],"stateMutability":"view"},{"type":"function","name":"quoteOFT","inputs":[{"name":"_sendParam","type":"tuple","internalType":"struct SendParam","components":[{"name":"dstEid","type":"uint32","internalType":"uint32"},{"name":"to","type":"bytes32","internalType":"bytes32"},{"name":"amountLD","type":"uint256","internalType":"uint256"},{"name":"minAmountLD","type":"uint256","internalType":"uint256"},{"name":"extraOptions","type":"bytes","internalType":"bytes"},{"name":"composeMsg","type":"bytes","internalType":"bytes"},{"name":"oftCmd","type":"bytes","internalType":"bytes"}]}],"outputs":[{"name":"oftLimit","type":"tuple","internalType":"struct OFTLimit","components":[{"name":"minAmountLD","type":"uint256","internalType":"uint256"},{"name":"maxAmountLD","type":"uint256","internalType":"uint256"}]},{"name":"oftFeeDetails","type":"tuple[]","internalType":"struct OFTFeeDetail[]","components":[{"name":"feeAmountLD","type":"int256","internalType":"int256"},{"name":"description","type":"string","internalType":"string"}]},{"name":"oftReceipt","type":"tuple","internalType":"struct OFTReceipt","components":[{"name":"amountSentLD","type":"uint256","internalType":"uint256"},{"name":"amountReceivedLD","type":"uint256","internalType":"uint256"}]}],"stateMutability":"view"},{"type":"function","name":"quoteSend","inputs":[{"name":"_sendParam","type":"tuple","internalType":"struct SendParam","components":[{"name":"dstEid","type":"uint32","internalType":"uint32"},{"name":"to","type":"bytes32","internalType":"bytes32"},{"name":"amountLD","type":"uint256","internalType":"uint256"},{"name":"minAmountLD","type":"uint256","internalType":"uint256"},{"name":"extraOptions","type":"bytes","internalType":"bytes"},{"name":"composeMsg","type":"bytes","internalType":"bytes"},{"name":"oftCmd","type":"bytes","internalType":"bytes"}]},{"name":"_payInLzToken","type":"bool","internalType":"bool"}],"outputs":[{"name":"msgFee","type":"tuple","internalType":"struct MessagingFee","components":[{"name":"nativeFee","type":"uint256","internalType":"uint256"},{"name":"lzTokenFee","type":"uint256","internalType":"uint256"}]}],"stateMutability":"view"},{"type":"function","name":"renounceOwnership","inputs":[],"outputs":[],"stateMutability":"nonpayable"},{"type":"function","name":"send","inputs":[{"name":"_sendParam","type":"tuple","internalType":"struct SendParam","components":[{"name":"dstEid","type":"uint32","internalType":"uint32"},{"name":"to","type":"bytes32","internalType":"bytes32"},{"name":"amountLD","type":"uint256","internalType":"uint256"},{"name":"minAmountLD","type":"uint256","internalType":"uint256"},{"name":"extraOptions","type":"bytes","internalType":"bytes"},{"name":"composeMsg","type":"bytes","internalType":"bytes"},{"name":"oftCmd","type":"bytes","internalType":"bytes"}]},{"name":"_fee","type":"tuple","internalType":"struct MessagingFee","components":[{"name":"nativeFee","type":"uint256","internalType":"uint256"},{"name":"lzTokenFee","type":"uint256","internalType":"uint256"}]},{"name":"_refundAddress","type":"address","internalType":"address"}],"outputs":[{"name":"msgReceipt","type":"tuple","internalType":"struct MessagingReceipt","components":[{"name":"guid","type":"bytes32","internalType":"bytes32"},{"name":"nonce","type":"uint64","internalType":"uint64"},{"name":"fee","type":"tuple","internalType":"struct MessagingFee","components":[{"name":"nativeFee","type":"uint256","internalType":"uint256"},{"name":"lzTokenFee","type":"uint256","internalType":"uint256"}]}]},{"name":"oftReceipt","type":"tuple","internalType":"struct OFTReceipt","components":[{"name":"amountSentLD","type":"uint256","internalType":"uint256"},{"name":"amountReceivedLD","type":"uint256","internalType":"uint256"}]}],"stateMutability":"payable"},{"type":"function","name":"setDelegate","inputs":[{"name":"_delegate","type":"address","internalType":"address"}],"outputs":[],"stateMutability":"nonpayable"},{"type":"function","name":"setEnforcedOptions","inputs":[{"name":"_enforcedOptions","type":"tuple[]","internalType":"struct EnforcedOptionParam[]","components":[{"name":"eid","type":"uint32","internalType":"uint32"},{"name":"msgType","type":"uint16","internalType":"uint16"},{"name":"options","type":"bytes","internalType":"bytes"}]}],"outputs":[],"stateMutability":"nonpayable"},{"type":"function","name":"setMsgInspector","inputs":[{"name":"_msgInspector","type":"address","internalType":"address"}],"outputs":[],"stateMutability":"nonpayable"},{"type":"function","name":"setPeer","inputs":[{"name":"_eid","type":"uint32","internalType":"uint32"},{"name":"_peer","type":"bytes32","internalType":"bytes32"}],"outputs":[],"stateMutability":"nonpayable"},{"type":"function","name":"setPreCrime","inputs":[{"name":"_preCrime","type":"address","internalType":"address"}],"outputs":[],"stateMutability":"nonpayable"},{"type":"function","name":"sharedDecimals","inputs":[],"outputs":[{"name":"","type":"uint8","internalType":"uint8"}],"stateMutability":"view"},{"type":"function","name":"symbol","inputs":[],"outputs":[{"name":"","type":"string","internalType":"string"}],"stateMutability":"view"},{"type":"function","name":"token","inputs":[],"outputs":[{"name":"","type":"address","internalType":"address"}],"stateMutability":"view"},{"type":"function","name":"totalSupply","inputs":[],"outputs":[{"name":"","type":"uint256","internalType":"uint256"}],"stateMutability":"view"},{"type":"function","name":"transfer","inputs":[{"name":"to","type":"address","internalType":"address"},{"name":"value","type":"uint256","internalType":"uint256"}],"outputs":[{"name":"","type":"bool","internalType":"bool"}],"stateMutability":"nonpayable"},{"type":"function","name":"transferFrom","inputs":[{"name":"from","type":"address","internalType":"address"},{"name":"to","type":"address","internalType":"address"},{"name":"value","type":"uint256","internalType":"uint256"}],"outputs":[{"name":"","type":"bool","internalType":"bool"}],"stateMutability":"nonpayable"},{"type":"function","name":"transferOwnership","inputs":[{"name":"newOwner","type":"address","internalType":"address"}],"outputs":[],"stateMutability":"nonpayable"},{"type":"event","name":"Approval","inputs":[{"name":"owner","type":"address","indexed":true,"internalType":"address"},{"name":"spender","type":"address","indexed":true,"internalType":"address"},{"name":"value","type":"uint256","indexed":false,"internalType":"uint256"}],"anonymous":false},{"type":"event","name":"EIP712DomainChanged","inputs":[],"anonymous":false},{"type":"event","name":"EnforcedOptionSet","inputs":[{"name":"_enforcedOptions","type":"tuple[]","indexed":false,"internalType":"struct EnforcedOptionParam[]","components":[{"name":"eid","type":"uint32","internalType":"uint32"},{"name":"msgType","type":"uint16","internalType":"uint16"},{"name":"options","type":"bytes","internalType":"bytes"}]}],"anonymous":false},{"type":"event","name":"MsgInspectorSet","inputs":[{"name":"inspector","type":"address","indexed":false,"internalType":"address"}],"anonymous":false},{"type":"event","name":"OFTReceived","inputs":[{"name":"guid","type":"bytes32","indexed":true,"internalType":"bytes32"},{"name":"srcEid","type":"uint32","indexed":false,"internalType":"uint32"},{"name":"toAddress","type":"address","indexed":true,"internalType":"address"},{"name":"amountReceivedLD","type":"uint256","indexed":false,"internalType":"uint256"}],"anonymous":false},{"type":"event","name":"OFTSent","inputs":[{"name":"guid","type":"bytes32","indexed":true,"internalType":"bytes32"},{"name":"dstEid","type":"uint32","indexed":false,"internalType":"uint32"},{"name":"fromAddress","type":"address","indexed":true,"internalType":"address"},{"name":"amountSentLD","type":"uint256","indexed":false,"internalType":"uint256"},{"name":"amountReceivedLD","type":"uint256","indexed":false,"internalType":"uint256"}],"anonymous":false},{"type":"event","name":"OwnershipTransferred","inputs":[{"name":"previousOwner","type":"address","indexed":true,"internalType":"address"},{"name":"newOwner","type":"address","indexed":true,"internalType":"address"}],"anonymous":false},{"type":"event","name":"PeerSet","inputs":[{"name":"eid","type":"uint32","indexed":false,"internalType":"uint32"},{"name":"peer","type":"bytes32","indexed":false,"internalType":"bytes32"}],"anonymous":false},{"type":"event","name":"PreCrimeSet","inputs":[{"name":"preCrimeAddress","type":"address","indexed":false,"internalType":"address"}],"anonymous":false},{"type":"event","name":"Transfer","inputs":[{"name":"from","type":"address","indexed":true,"internalType":"address"},{"name":"to","type":"address","indexed":true,"internalType":"address"},{"name":"value","type":"uint256","indexed":false,"internalType":"uint256"}],"anonymous":false},{"type":"error","name":"ECDSAInvalidSignature","inputs":[]},{"type":"error","name":"ECDSAInvalidSignatureLength","inputs":[{"name":"length","type":"uint256","internalType":"uint256"}]},{"type":"error","name":"ECDSAInvalidSignatureS","inputs":[{"name":"s","type":"bytes32","internalType":"bytes32"}]},{"type":"error","name":"ERC20InsufficientAllowance","inputs":[{"name":"spender","type":"address","internalType":"address"},{"name":"allowance","type":"uint256","internalType":"uint256"},{"name":"needed","type":"uint256","internalType":"uint256"}]},{"type":"error","name":"ERC20InsufficientBalance","inputs":[{"name":"sender","type":"address","internalType":"address"},{"name":"balance","type":"uint256","internalType":"uint256"},{"name":"needed","type":"uint256","internalType":"uint256"}]},{"type":"error","name":"ERC20InvalidApprover","inputs":[{"name":"approver","type":"address","internalType":"address"}]},{"type":"error","name":"ERC20InvalidReceiver","inputs":[{"name":"receiver","type":"address","internalType":"address"}]},{"type":"error","name":"ERC20InvalidSender","inputs":[{"name":"sender","type":"address","internalType":"address"}]},{"type":"error","name":"ERC20InvalidSpender","inputs":[{"name":"spender","type":"address","internalType":"address"}]},{"type":"error","name":"ERC2612ExpiredSignature","inputs":[{"name":"deadline","type":"uint256","internalType":"uint256"}]},{"type":"error","name":"ERC2612InvalidSigner","inputs":[{"name":"signer","type":"address","internalType":"address"},{"name":"owner","type":"address","internalType":"address"}]},{"type":"error","name":"InvalidAccountNonce","inputs":[{"name":"account","type":"address","internalType":"address"},{"name":"currentNonce","type":"uint256","internalType":"uint256"}]},{"type":"error","name":"InvalidDelegate","inputs":[]},{"type":"error","name":"InvalidEndpointCall","inputs":[]},{"type":"error","name":"InvalidLocalDecimals","inputs":[]},{"type":"error","name":"InvalidOptions","inputs":[{"name":"options","type":"bytes","internalType":"bytes"}]},{"type":"error","name":"InvalidShortString","inputs":[]},{"type":"error","name":"LzTokenUnavailable","inputs":[]},{"type":"error","name":"NoPeer","inputs":[{"name":"eid","type":"uint32","internalType":"uint32"}]},{"type":"error","name":"NotEnoughNative","inputs":[{"name":"msgValue","type":"uint256","internalType":"uint256"}]},{"type":"error","name":"OnlyEndpoint","inputs":[{"name":"addr","type":"address","internalType":"address"}]},{"type":"error","name":"OnlyPeer","inputs":[{"name":"eid","type":"uint32","internalType":"uint32"},{"name":"sender","type":"bytes32","internalType":"bytes32"}]},{"type":"error","name":"OnlySelf","inputs":[]},{"type":"error","name":"OwnableInvalidOwner","inputs":[{"name":"owner","type":"address","internalType":"address"}]},{"type":"error","name":"OwnableUnauthorizedAccount","inputs":[{"name":"account","type":"address","internalType":"address"}]},{"type":"error","name":"SafeERC20FailedOperation","inputs":[{"name":"token","type":"address","internalType":"address"}]},{"type":"error","name":"SimulationResult","inputs":[{"name":"result","type":"bytes","internalType":"bytes"}]},{"type":"error","name":"SlippageExceeded","inputs":[{"name":"amountLD","type":"uint256","internalType":"uint256"},{"name":"minAmountLD","type":"uint256","internalType":"uint256"}]},{"type":"error","name":"StringTooLong","inputs":[{"name":"str","type":"string","internalType":"string"}]}],"bytecode":{"object":"0x6101a0604052348015610010575f5ffd5b50604051613f23380380613f2383398101604081905261002f916103da565b838383838380604051806040016040528060018152602001603160f81b815250868661005f61025a60201b60201c565b878781818181806001600160a01b03811661009457604051631e4fbdf760e01b81525f60048201526024015b60405180910390fd5b61009d8161025f565b506001600160a01b0380831660805281166100cb57604051632d618d8160e21b815260040160405180910390fd5b60805160405163ca5eb5e160e01b81526001600160a01b0383811660048301529091169063ca5eb5e1906024015f604051808303815f87803b15801561010f575f5ffd5b505af1158015610121573d5f5f3e3d5ffd5b50505050505050506101376102ae60201b60201c565b60ff168360ff16101561015d576040516301e9714b60e41b815260040160405180910390fd5b610168600684610473565b61017390600a61056f565b60a052506008915061018790508382610608565b5060096101948282610608565b506101a49150839050600a6102b3565b610160526101b381600b6102b3565b61018052815160208084019190912061012052815190820120610140524660e0526102416101205161014051604080517f8b73c3c69bb8fe3d512ecc4cf759cc79239f7b179b0ffacaa9a75d522b39400f60208201529081019290925260608201524660808201523060a08201525f9060c00160405160208183030381529060405280519060200120905090565b60c052505030610100525061071a975050505050505050565b601290565b5f80546001600160a01b038381166001600160a01b0319831681178455604051919092169283917f8be0079c531659141344cd1fd0a4f28419497f9722a3daafe3b4186f6b6457e09190a35050565b600690565b5f6020835110156102ce576102c7836102e5565b90506102df565b816102d98482610608565b5060ff90505b92915050565b5f5f829050601f8151111561030f578260405163305a27a960e01b815260040161008b91906106c2565b805161031a826106f7565b179392505050565b634e487b7160e01b5f52604160045260245ffd5b5f82601f830112610345575f5ffd5b81516001600160401b0381111561035e5761035e610322565b604051601f8201601f19908116603f011681016001600160401b038111828210171561038c5761038c610322565b6040528181528382016020018510156103a3575f5ffd5b8160208501602083015e5f918101602001919091529392505050565b80516001600160a01b03811681146103d5575f5ffd5b919050565b5f5f5f5f608085870312156103ed575f5ffd5b84516001600160401b03811115610402575f5ffd5b61040e87828801610336565b602087015190955090506001600160401b0381111561042b575f5ffd5b61043787828801610336565b935050610446604086016103bf565b9150610454606086016103bf565b905092959194509250565b634e487b7160e01b5f52601160045260245ffd5b60ff82811682821603908111156102df576102df61045f565b6001815b60018411156104c7578085048111156104ab576104ab61045f565b60018416156104b957908102905b60019390931c928002610490565b935093915050565b5f826104dd575060016102df565b816104e957505f6102df565b81600181146104ff576002811461050957610525565b60019150506102df565b60ff84111561051a5761051a61045f565b50506001821b6102df565b5060208310610133831016604e8410600b8410161715610548575081810a6102df565b6105545f19848461048c565b805f19048211156105675761056761045f565b029392505050565b5f61057d60ff8416836104cf565b9392505050565b600181811c9082168061059857607f821691505b6020821081036105b657634e487b7160e01b5f52602260045260245ffd5b50919050565b601f82111561060357805f5260205f20601f840160051c810160208510156105e15750805b601f840160051c820191505b81811015610600575f81556001016105ed565b50505b505050565b81516001600160401b0381111561062157610621610322565b6106358161062f8454610584565b846105bc565b6020601f821160018114610667575f83156106505750848201515b5f19600385901b1c1916600184901b178455610600565b5f84815260208120601f198516915b828110156106965787850151825560209485019460019092019101610676565b50848210156106b357868401515f19600387901b60f8161c191681555b50505050600190811b01905550565b602081525f82518060208401528060208501604085015e5f604082850101526040601f19601f83011684010191505092915050565b805160208083015191908110156105b6575f1960209190910360031b1b16919050565b60805160a05160c05160e051610100516101205161014051610160516101805161375e6107c55f395f611ac101525f611a9401525f6117f201525f6117ca01525f61172501525f61174f01525f61177901525f818161067d01528181611e3901528181611eab01526120a801525f818161050201528181610ab201528181611154015281816114f401528181611975015281816122460152818161256a0152612621015261375e5ff3fe608060405260043610610275575f3560e01c80637ecebe001161014a578063bb0b6a53116100be578063d424388511610078578063d4243885146107be578063d505accf146107dd578063dd62ed3e146107fc578063f2fde38b14610840578063fc0c546a1461048b578063ff7bd03d1461085f575f5ffd5b8063bb0b6a531461070e578063bc70b35414610739578063bd815db014610758578063c7c7f5b31461076b578063ca5eb5e11461078c578063d045a0dc146107ab575f5ffd5b806395d89b411161010f57806395d89b4114610658578063963efcaa1461066c5780639f68b9641461069f578063a9059cbb146106b1578063b731ea0a146106d0578063b98bd070146106ef575f5ffd5b80637ecebe00146105c457806382413eac146105e357806384b0196e14610602578063857749b0146106295780638da5cb5b1461063c575f5ffd5b8063313ce567116101ec5780635a0dfe4d116101a65780635a0dfe4d146104bc5780635e280f11146104f15780636fc1b31e1461052457806370a0823114610543578063715018a6146105775780637d25a05e1461058b575f5ffd5b8063313ce5671461040b5780633400288b1461042c5780633644e5151461044b5780633b6f743b1461045f57806352ae28791461048b5780635535d4611461049d575f5ffd5b8063134d4f251161023d578063134d4f251461034c578063156a0d0f1461037357806317442b701461039957806318160ddd146103ba5780631f5e1334146103d857806323b872dd146103ec575f5ffd5b806306fdde0314610279578063095ea7b3146102a35780630d35b415146102d2578063111ecdad1461030057806313137d6514610337575b5f5ffd5b348015610284575f5ffd5b5061028d61087e565b60405161029a919061279e565b60405180910390f35b3480156102ae575f5ffd5b506102c26102bd3660046127c4565b61090e565b604051901515815260200161029a565b3480156102dd575f5ffd5b506102f16102ec366004612804565b610927565b60405161029a93929190612835565b34801561030b575f5ffd5b5060045461031f906001600160a01b031681565b6040516001600160a01b03909116815260200161029a565b61034a610345366004612924565b610ab0565b005b348015610357575f5ffd5b50610360600281565b60405161ffff909116815260200161029a565b34801561037e575f5ffd5b506040805162b9270b60e21b8152600160208201520161029a565b3480156103a4575f5ffd5b506040805160018152600260208201520161029a565b3480156103c5575f5ffd5b506007545b60405190815260200161029a565b3480156103e3575f5ffd5b50610360600181565b3480156103f7575f5ffd5b506102c26104063660046129be565b610b70565b348015610416575f5ffd5b5060125b60405160ff909116815260200161029a565b348015610437575f5ffd5b5061034a610446366004612a14565b610b95565b348015610456575f5ffd5b506103ca610bab565b34801561046a575f5ffd5b5061047e610479366004612a3b565b610bb9565b60405161029a9190612a89565b348015610496575f5ffd5b503061031f565b3480156104a8575f5ffd5b5061028d6104b7366004612ab1565b610c1d565b3480156104c7575f5ffd5b506102c26104d6366004612a14565b63ffffffff919091165f908152600160205260409020541490565b3480156104fc575f5ffd5b5061031f7f000000000000000000000000000000000000000000000000000000000000000081565b34801561052f575f5ffd5b5061034a61053e366004612ae2565b610cbf565b34801561054e575f5ffd5b506103ca61055d366004612ae2565b6001600160a01b03165f9081526005602052604090205490565b348015610582575f5ffd5b5061034a610d1c565b348015610596575f5ffd5b506105ac6105a5366004612a14565b5f92915050565b6040516001600160401b03909116815260200161029a565b3480156105cf575f5ffd5b506103ca6105de366004612ae2565b610d2f565b3480156105ee575f5ffd5b506102c26105fd366004612afd565b610d4c565b34801561060d575f5ffd5b50610616610d61565b60405161029a9796959493929190612b5f565b348015610634575f5ffd5b50600661041a565b348015610647575f5ffd5b505f546001600160a01b031661031f565b348015610663575f5ffd5b5061028d610da3565b348015610677575f5ffd5b506103ca7f000000000000000000000000000000000000000000000000000000000000000081565b3480156106aa575f5ffd5b505f6102c2565b3480156106bc575f5ffd5b506102c26106cb3660046127c4565b610db2565b3480156106db575f5ffd5b5060025461031f906001600160a01b031681565b3480156106fa575f5ffd5b5061034a610709366004612c35565b610dbf565b348015610719575f5ffd5b506103ca610728366004612c73565b60016020525f908152604090205481565b348015610744575f5ffd5b5061028d610753366004612c8c565b610dd9565b61034a610766366004612c35565b610f7a565b61077e610779366004612ce8565b6110fa565b60405161029a929190612d50565b348015610797575f5ffd5b5061034a6107a6366004612ae2565b61112d565b61034a6107b9366004612924565b6111ae565b3480156107c9575f5ffd5b5061034a6107d8366004612ae2565b6111dd565b3480156107e8575f5ffd5b5061034a6107f7366004612da1565b611233565b348015610807575f5ffd5b506103ca610816366004612e12565b6001600160a01b039182165f90815260066020908152604080832093909416825291909152205490565b34801561084b575f5ffd5b5061034a61085a366004612ae2565b611369565b34801561086a575f5ffd5b506102c2610879366004612e3e565b6113a6565b60606008805461088d90612e58565b80601f01602080910402602001604051908101604052809291908181526020018280546108b990612e58565b80156109045780601f106108db57610100808354040283529160200191610904565b820191905f5260205f20905b8154815290600101906020018083116108e757829003601f168201915b5050505050905090565b5f3361091b8185856113da565b60019150505b92915050565b604080518082019091525f8082526020820152606061095760405180604001604052805f81526020015f81525090565b5f5f90505f306001600160a01b031663fc0c546a6040518163ffffffff1660e01b8152600401602060405180830381865afa158015610998573d5f5f3e3d5ffd5b505050506040513d601f19601f820116820180604052508101906109bc9190612e8a565b6001600160a01b03166318160ddd6040518163ffffffff1660e01b8152600401602060405180830381865afa1580156109f7573d5f5f3e3d5ffd5b505050506040513d601f19601f82011682018060405250810190610a1b9190612ea5565b604080518082018252848152602080820184905282515f80825291810190935290975091925090610a6e565b604080518082019091525f815260606020820152815260200190600190039081610a475790505b5093505f80610a92604089013560608a0135610a8d60208c018c612c73565b6113ec565b60408051808201909152918252602082015296989597505050505050565b7f00000000000000000000000000000000000000000000000000000000000000006001600160a01b03163314610b00576040516391ac5e4f60e01b81523360048201526024015b60405180910390fd5b60208701803590610b1a90610b15908a612c73565b611427565b14610b5857610b2c6020880188612c73565b60405163309afaf360e21b815263ffffffff909116600482015260208801356024820152604401610af7565b610b6787878787878787611462565b50505050505050565b5f33610b7d8582856115c0565b610b8885858561163c565b60019150505b9392505050565b610b9d611699565b610ba782826116c5565b5050565b5f610bb4611719565b905090565b604080518082019091525f80825260208201525f610be760408501356060860135610a8d6020880188612c73565b9150505f5f610bf68684611842565b9092509050610c13610c0b6020880188612c73565b838388611960565b9695505050505050565b600360209081525f928352604080842090915290825290208054610c4090612e58565b80601f0160208091040260200160405190810160405280929190818152602001828054610c6c90612e58565b8015610cb75780601f10610c8e57610100808354040283529160200191610cb7565b820191905f5260205f20905b815481529060010190602001808311610c9a57829003601f168201915b505050505081565b610cc7611699565b600480546001600160a01b0319166001600160a01b0383169081179091556040519081527ff0be4f1e87349231d80c36b33f9e8639658eeaf474014dee15a3e6a4d4414197906020015b60405180910390a150565b610d24611699565b610d2d5f611a3e565b565b6001600160a01b0381165f908152600c6020526040812054610921565b6001600160a01b03811630145b949350505050565b5f6060805f5f5f6060610d72611a8d565b610d7a611aba565b604080515f80825260208201909252600f60f81b9b939a50919850469750309650945092509050565b60606009805461088d90612e58565b5f3361091b81858561163c565b610dc7611699565b610ba7610dd48284612f70565b611ae7565b63ffffffff84165f90815260036020908152604080832061ffff87168452909152812080546060929190610e0c90612e58565b80601f0160208091040260200160405190810160405280929190818152602001828054610e3890612e58565b8015610e835780601f10610e5a57610100808354040283529160200191610e83565b820191905f5260205f20905b815481529060010190602001808311610e6657829003601f168201915b5050505050905080515f03610ed15783838080601f0160208091040260200160405190810160405280939291908181526020018383808284375f92019190915250929450610d599350505050565b5f839003610ee0579050610d59565b60028310610f5d57610f2684848080601f0160208091040260200160405190810160405280939291908181526020018383808284375f92019190915250611be892505050565b80610f348460028188613091565b604051602001610f46939291906130cf565b604051602081830303815290604052915050610d59565b8383604051639a6d49cd60e01b8152600401610af7929190613115565b5f5b8181101561107d5736838383818110610f9757610f97613128565b9050602002810190610fa9919061313c565b9050610fdb610fbb6020830183612c73565b602083013563ffffffff919091165f908152600160205260409020541490565b610fe55750611075565b3063d045a0dc60c08301358360a081013561100461010083018361315b565b611015610100890160e08a01612ae2565b6110236101208a018a61315b565b6040518963ffffffff1660e01b815260040161104597969594939291906131b1565b5f604051808303818588803b15801561105c575f5ffd5b505af115801561106e573d5f5f3e3d5ffd5b5050505050505b600101610f7c565b50336001600160a01b0316638e9e70996040518163ffffffff1660e01b81526004015f60405180830381865afa1580156110b9573d5f5f3e3d5ffd5b505050506040513d5f823e601f3d908101601f191682016040526110e09190810190613236565b604051638351eea760e01b8152600401610af7919061279e565b611102612730565b604080518082019091525f8082526020820152611120858585611c14565b915091505b935093915050565b611135611699565b60405163ca5eb5e160e01b81526001600160a01b0382811660048301527f0000000000000000000000000000000000000000000000000000000000000000169063ca5eb5e1906024015f604051808303815f87803b158015611195575f5ffd5b505af11580156111a7573d5f5f3e3d5ffd5b5050505050565b3330146111ce5760405163029a949d60e31b815260040160405180910390fd5b610b6787878787878787610b58565b6111e5611699565b600280546001600160a01b0319166001600160a01b0383169081179091556040519081527fd48d879cef83a1c0bdda516f27b13ddb1b3f8bbac1c9e1511bb2a659c242776090602001610d11565b834211156112575760405163313c898160e11b815260048101859052602401610af7565b5f7f6e71edae12b1b97f4d1f60370fef10105fa2faae0126114a169c64845d6126c98888886112a28c6001600160a01b03165f908152600c6020526040902080546001810190915590565b6040805160208101969096526001600160a01b0394851690860152929091166060840152608083015260a082015260c0810186905260e0016040516020818303038152906040528051906020012090505f6112fc82611d0c565b90505f61130b82878787611d38565b9050896001600160a01b0316816001600160a01b031614611352576040516325c0072360e11b81526001600160a01b0380831660048301528b166024820152604401610af7565b61135d8a8a8a6113da565b50505050505050505050565b611371611699565b6001600160a01b03811661139a57604051631e4fbdf760e01b81525f6004820152602401610af7565b6113a381611a3e565b50565b5f6020820180359060019083906113bd9086612c73565b63ffffffff16815260208101919091526040015f20541492915050565b6113e78383836001611d64565b505050565b5f5f6113f785611e36565b915081905083811015611125576040516371c4efed60e01b81526004810182905260248101859052604401610af7565b63ffffffff81165f90815260016020526040812054806109215760405163f6ff4fb760e01b815263ffffffff84166004820152602401610af7565b5f6114736114708787611e6c565b90565b90505f61149e8261148c6114878a8a611e83565b611ea5565b61149960208d018d612c73565b611ed9565b9050602886111561155e575f6114da6114bd60608c0160408d016132aa565b6114ca60208d018d612c73565b846114d58c8c611f00565b611f4a565b604051633e5ac80960e11b81529091506001600160a01b037f00000000000000000000000000000000000000000000000000000000000000001690637cb590129061152f9086908d905f9087906004016132c5565b5f604051808303815f87803b158015611546575f5ffd5b505af1158015611558573d5f5f3e3d5ffd5b50505050505b6001600160a01b038216887fefed6d3500546b29533b128a29e3a94d70788727f0507505ac12eaf2e578fd9c61159760208d018d612c73565b6040805163ffffffff9092168252602082018690520160405180910390a3505050505050505050565b6001600160a01b038381165f908152600660209081526040808320938616835292905220545f19811015611636578181101561162857604051637dc7a0d960e11b81526001600160a01b03841660048201526024810182905260448101839052606401610af7565b61163684848484035f611d64565b50505050565b6001600160a01b03831661166557604051634b637e8f60e11b81525f6004820152602401610af7565b6001600160a01b03821661168e5760405163ec442f0560e01b81525f6004820152602401610af7565b6113e7838383611f7c565b5f546001600160a01b03163314610d2d5760405163118cdaa760e01b8152336004820152602401610af7565b63ffffffff82165f81815260016020908152604091829020849055815192835282018390527f238399d427b947898edb290f5ff0f9109849b1c3ba196a42e35f00c50a54b98b910160405180910390a15050565b5f306001600160a01b037f00000000000000000000000000000000000000000000000000000000000000001614801561177157507f000000000000000000000000000000000000000000000000000000000000000046145b1561179b57507f000000000000000000000000000000000000000000000000000000000000000090565b610bb4604080517f8b73c3c69bb8fe3d512ecc4cf759cc79239f7b179b0ffacaa9a75d522b39400f60208201527f0000000000000000000000000000000000000000000000000000000000000000918101919091527f000000000000000000000000000000000000000000000000000000000000000060608201524660808201523060a08201525f9060c00160405160208183030381529060405280519060200120905090565b6060805f61189d8560200135611857866120a2565b61186460a089018961315b565b8080601f0160208091040260200160405190810160405280939291908181526020018383808284375f920191909152506120cd92505050565b90935090505f816118af5760016118b2565b60025b90506118d26118c46020880188612c73565b8261075360808a018a61315b565b6004549093506001600160a01b031680156119565760405163043a78eb60e01b81526001600160a01b0382169063043a78eb9061191590889088906004016132f5565b602060405180830381865afa158015611930573d5f5f3e3d5ffd5b505050506040513d601f19601f820116820180604052508101906119549190613319565b505b5050509250929050565b604080518082019091525f80825260208201527f00000000000000000000000000000000000000000000000000000000000000006001600160a01b031663ddc28c586040518060a001604052808863ffffffff1681526020016119c289611427565b8152602001878152602001868152602001851515815250306040518363ffffffff1660e01b81526004016119f7929190613334565b6040805180830381865afa158015611a11573d5f5f3e3d5ffd5b505050506040513d601f19601f82011682018060405250810190611a3591906133db565b95945050505050565b5f80546001600160a01b038381166001600160a01b0319831681178455604051919092169283917f8be0079c531659141344cd1fd0a4f28419497f9722a3daafe3b4186f6b6457e09190a35050565b6060610bb47f0000000000000000000000000000000000000000000000000000000000000000600a612147565b6060610bb47f0000000000000000000000000000000000000000000000000000000000000000600b612147565b5f5b8151811015611bb857611b18828281518110611b0757611b07613128565b602002602001015160400151611be8565b818181518110611b2a57611b2a613128565b60200260200101516040015160035f848481518110611b4b57611b4b613128565b60200260200101515f015163ffffffff1663ffffffff1681526020019081526020015f205f848481518110611b8257611b82613128565b60200260200101516020015161ffff1661ffff1681526020019081526020015f209081611baf9190613439565b50600101611ae9565b507fbe4864a8e820971c0247f5992e2da559595f7bf076a21cb5928d443d2a13b67481604051610d1191906134f3565b600281015161ffff8116600314610ba75781604051639a6d49cd60e01b8152600401610af7919061279e565b611c1c612730565b604080518082019091525f80825260208201525f80611c5133604089013560608a0135611c4c60208c018c612c73565b6121f0565b915091505f5f611c618984611842565b9092509050611c8d611c7660208b018b612c73565b8383611c87368d90038d018d613581565b8b612215565b60408051808201909152858152602080820186905282519298509096503391907f85496b760a4b7f8d66384b9df21b381f5d1b1e79f229a47aaf4c232edc2fe59a90611cdb908d018d612c73565b6040805163ffffffff909216825260208201899052810187905260600160405180910390a350505050935093915050565b5f610921611d18611719565b8360405161190160f01b8152600281019290925260228201526042902090565b5f5f5f5f611d488888888861231b565b925092509250611d5882826123e3565b50909695505050505050565b6001600160a01b038416611d8d5760405163e602df0560e01b81525f6004820152602401610af7565b6001600160a01b038316611db657604051634a1406b160e11b81525f6004820152602401610af7565b6001600160a01b038085165f908152600660209081526040808320938716835292905220829055801561163657826001600160a01b0316846001600160a01b03167f8c5be1e5ebec7d5bd14f71427d1e84f3dd0314c0f7b2291e5b200ac8c7c3b92584604051611e2891815260200190565b60405180910390a350505050565b5f7f0000000000000000000000000000000000000000000000000000000000000000611e6281846135c6565b61092191906135e5565b5f611e7a6020828486613091565b610b8e916135fc565b5f611e92602860208486613091565b611e9b91613619565b60c01c9392505050565b5f6109217f00000000000000000000000000000000000000000000000000000000000000006001600160401b0384166135e5565b5f6001600160a01b038416611eee5761dead93505b611ef8848461249b565b509092915050565b6060611f0f8260288186613091565b8080601f0160208091040260200160405190810160405280939291908181526020018383808284375f92019190915250929695505050505050565b606084848484604051602001611f639493929190613651565b6040516020818303038152906040529050949350505050565b6001600160a01b038316611fa6578060075f828254611f9b919061368b565b909155506120169050565b6001600160a01b0383165f9081526005602052604090205481811015611ff85760405163391434e360e21b81526001600160a01b03851660048201526024810182905260448101839052606401610af7565b6001600160a01b0384165f9081526005602052604090209082900390555b6001600160a01b03821661203257600780548290039055612050565b6001600160a01b0382165f9081526005602052604090208054820190555b816001600160a01b0316836001600160a01b03167fddf252ad1be2c89b69c2b068fc378daa952ba7f163c4a11628f55a4df523b3ef8360405161209591815260200190565b60405180910390a3505050565b5f6109217f0000000000000000000000000000000000000000000000000000000000000000836135c6565b805160609015158061211657848460405160200161210292919091825260c01b6001600160c01b031916602082015260280190565b60405160208183030381529060405261213d565b8484338560405160200161212d949392919061369e565b6040516020818303038152906040525b9150935093915050565b606060ff83146121615761215a836124cf565b9050610921565b81805461216d90612e58565b80601f016020809104026020016040519081016040528092919081815260200182805461219990612e58565b80156121e45780601f106121bb576101008083540402835291602001916121e4565b820191905f5260205f20905b8154815290600101906020018083116121c757829003601f168201915b50505050509050610921565b5f5f6121fd8585856113ec565b909250905061220c868361250c565b94509492505050565b61221d612730565b5f61222a845f0151612540565b602085015190915015612244576122448460200151612567565b7f00000000000000000000000000000000000000000000000000000000000000006001600160a01b0316632637a450826040518060a001604052808b63ffffffff1681526020016122948c611427565b81526020018a81526020018981526020015f8960200151111515815250866040518463ffffffff1660e01b81526004016122cf929190613334565b60806040518083038185885af11580156122eb573d5f5f3e3d5ffd5b50505050506040513d601f19601f8201168201806040525081019061231091906136ca565b979650505050505050565b5f80807f7fffffffffffffffffffffffffffffff5d576e7357a4501ddfe92f46681b20a084111561235457505f915060039050826123d9565b604080515f808252602082018084528a905260ff891692820192909252606081018790526080810186905260019060a0016020604051602081039080840390855afa1580156123a5573d5f5f3e3d5ffd5b5050604051601f1901519150506001600160a01b0381166123d057505f9250600191508290506123d9565b92505f91508190505b9450945094915050565b5f8260038111156123f6576123f6613714565b036123ff575050565b600182600381111561241357612413613714565b036124315760405163f645eedf60e01b815260040160405180910390fd5b600282600381111561244557612445613714565b036124665760405163fce698f760e01b815260048101829052602401610af7565b600382600381111561247a5761247a613714565b03610ba7576040516335e2f38360e21b815260048101829052602401610af7565b6001600160a01b0382166124c45760405163ec442f0560e01b81525f6004820152602401610af7565b610ba75f8383611f7c565b60605f6124db83612646565b6040805160208082528183019092529192505f91906020820181803683375050509182525060208101929092525090565b6001600160a01b03821661253557604051634b637e8f60e11b81525f6004820152602401610af7565b610ba7825f83611f7c565b5f813414612563576040516304fb820960e51b8152346004820152602401610af7565b5090565b5f7f00000000000000000000000000000000000000000000000000000000000000006001600160a01b031663e4fe1d946040518163ffffffff1660e01b8152600401602060405180830381865afa1580156125c4573d5f5f3e3d5ffd5b505050506040513d601f19601f820116820180604052508101906125e89190612e8a565b90506001600160a01b038116612611576040516329b99a9560e11b815260040160405180910390fd5b610ba76001600160a01b038216337f00000000000000000000000000000000000000000000000000000000000000008561266d565b5f60ff8216601f81111561092157604051632cd44ac360e21b815260040160405180910390fd5b604080516001600160a01b038581166024830152841660448201526064808201849052825180830390910181526084909101909152602080820180516001600160e01b03166323b872dd60e01b178152825161163693889390925f9283929183919082885af1806126e3576040513d5f823e3d81fd5b50505f513d915081156126fa578060011415612707565b6001600160a01b0384163b155b1561163657604051635274afe760e01b81526001600160a01b0385166004820152602401610af7565b60405180606001604052805f81526020015f6001600160401b0316815260200161276b60405180604001604052805f81526020015f81525090565b905290565b5f81518084528060208401602086015e5f602082860101526020601f19601f83011685010191505092915050565b602081525f610b8e6020830184612770565b6001600160a01b03811681146113a3575f5ffd5b5f5f604083850312156127d5575f5ffd5b82356127e0816127b0565b946020939093013593505050565b5f60e082840312156127fe575f5ffd5b50919050565b5f60208284031215612814575f5ffd5b81356001600160401b03811115612829575f5ffd5b610d59848285016127ee565b83518152602080850151908201525f60a0820160a0604084015280855180835260c08501915060c08160051b8601019250602087015f5b828110156128b45760bf19878603018452815180518652602081015190506040602087015261289e6040870182612770565b955050602093840193919091019060010161286c565b5050855160608601525050602084015160808401529050610d59565b5f606082840312156127fe575f5ffd5b5f5f83601f8401126128f0575f5ffd5b5081356001600160401b03811115612906575f5ffd5b60208301915083602082850101111561291d575f5ffd5b9250929050565b5f5f5f5f5f5f5f60e0888a03121561293a575f5ffd5b61294489896128d0565b96506060880135955060808801356001600160401b03811115612965575f5ffd5b6129718a828b016128e0565b90965094505060a0880135612985816127b0565b925060c08801356001600160401b0381111561299f575f5ffd5b6129ab8a828b016128e0565b989b979a50959850939692959293505050565b5f5f5f606084860312156129d0575f5ffd5b83356129db816127b0565b925060208401356129eb816127b0565b929592945050506040919091013590565b803563ffffffff81168114612a0f575f5ffd5b919050565b5f5f60408385031215612a25575f5ffd5b6127e0836129fc565b80151581146113a3575f5ffd5b5f5f60408385031215612a4c575f5ffd5b82356001600160401b03811115612a61575f5ffd5b612a6d858286016127ee565b9250506020830135612a7e81612a2e565b809150509250929050565b815181526020808301519082015260408101610921565b803561ffff81168114612a0f575f5ffd5b5f5f60408385031215612ac2575f5ffd5b612acb836129fc565b9150612ad960208401612aa0565b90509250929050565b5f60208284031215612af2575f5ffd5b8135610b8e816127b0565b5f5f5f5f60a08587031215612b10575f5ffd5b612b1a86866128d0565b935060608501356001600160401b03811115612b34575f5ffd5b612b40878288016128e0565b9094509250506080850135612b54816127b0565b939692955090935050565b60ff60f81b8816815260e060208201525f612b7d60e0830189612770565b8281036040840152612b8f8189612770565b606084018890526001600160a01b038716608085015260a0840186905283810360c0850152845180825260208087019350909101905f5b81811015612be4578351835260209384019390920191600101612bc6565b50909b9a5050505050505050505050565b5f5f83601f840112612c05575f5ffd5b5081356001600160401b03811115612c1b575f5ffd5b6020830191508360208260051b850101111561291d575f5ffd5b5f5f60208385031215612c46575f5ffd5b82356001600160401b03811115612c5b575f5ffd5b612c6785828601612bf5565b90969095509350505050565b5f60208284031215612c83575f5ffd5b610b8e826129fc565b5f5f5f5f60608587031215612c9f575f5ffd5b612ca8856129fc565b9350612cb660208601612aa0565b925060408501356001600160401b03811115612cd0575f5ffd5b612cdc878288016128e0565b95989497509550505050565b5f5f5f8385036080811215612cfb575f5ffd5b84356001600160401b03811115612d10575f5ffd5b612d1c878288016127ee565b9450506040601f1982011215612d30575f5ffd5b506020840191506060840135612d45816127b0565b809150509250925092565b5f60c082019050835182526001600160401b0360208501511660208301526040840151612d8a604084018280518252602090810151910152565b5082516080830152602083015160a0830152610b8e565b5f5f5f5f5f5f5f60e0888a031215612db7575f5ffd5b8735612dc2816127b0565b96506020880135612dd2816127b0565b95506040880135945060608801359350608088013560ff81168114612df5575f5ffd5b9699959850939692959460a0840135945060c09093013592915050565b5f5f60408385031215612e23575f5ffd5b8235612e2e816127b0565b91506020830135612a7e816127b0565b5f60608284031215612e4e575f5ffd5b610b8e83836128d0565b600181811c90821680612e6c57607f821691505b6020821081036127fe57634e487b7160e01b5f52602260045260245ffd5b5f60208284031215612e9a575f5ffd5b8151610b8e816127b0565b5f60208284031215612eb5575f5ffd5b5051919050565b634e487b7160e01b5f52604160045260245ffd5b604051606081016001600160401b0381118282101715612ef257612ef2612ebc565b60405290565b604080519081016001600160401b0381118282101715612ef257612ef2612ebc565b604051601f8201601f191681016001600160401b0381118282101715612f4257612f42612ebc565b604052919050565b5f6001600160401b03821115612f6257612f62612ebc565b50601f01601f191660200190565b5f6001600160401b03831115612f8857612f88612ebc565b8260051b612f9860208201612f1a565b84815290830190602081019036831115612fb0575f5ffd5b845b838110156130875780356001600160401b03811115612fcf575f5ffd5b86016060368290031215612fe1575f5ffd5b612fe9612ed0565b612ff2826129fc565b815261300060208301612aa0565b602082015260408201356001600160401b0381111561301d575f5ffd5b919091019036601f830112613030575f5ffd5b813561304361303e82612f4a565b612f1a565b818152366020838601011115613057575f5ffd5b816020850160208301375f6020838301015280604084015250508085525050602083019250602081019050612fb2565b5095945050505050565b5f5f8585111561309f575f5ffd5b838611156130ab575f5ffd5b5050820193919092039150565b5f81518060208401855e5f93019283525090919050565b5f6130da82866130b8565b838582375f930192835250909392505050565b81835281816020850137505f828201602090810191909152601f909101601f19169091010190565b602081525f610d596020830184866130ed565b634e487b7160e01b5f52603260045260245ffd5b5f823561013e19833603018112613151575f5ffd5b9190910192915050565b5f5f8335601e19843603018112613170575f5ffd5b8301803591506001600160401b03821115613189575f5ffd5b60200191503681900382131561291d575f5ffd5b6001600160401b03811681146113a3575f5ffd5b63ffffffff6131bf896129fc565b168152602088810135908201525f60408901356131db8161319d565b6001600160401b03811660408401525087606083015260e0608083015261320660e0830187896130ed565b6001600160a01b03861660a084015282810360c08401526132288185876130ed565b9a9950505050505050505050565b5f60208284031215613246575f5ffd5b81516001600160401b0381111561325b575f5ffd5b8201601f8101841361326b575f5ffd5b805161327961303e82612f4a565b81815285602083850101111561328d575f5ffd5b8160208401602083015e5f91810160200191909152949350505050565b5f602082840312156132ba575f5ffd5b8135610b8e8161319d565b60018060a01b038516815283602082015261ffff83166040820152608060608201525f610c136080830184612770565b604081525f6133076040830185612770565b8281036020840152611a358185612770565b5f60208284031215613329575f5ffd5b8151610b8e81612a2e565b6040815263ffffffff8351166040820152602083015160608201525f604084015160a0608084015261336960e0840182612770565b90506060850151603f198483030160a08501526133868282612770565b60809690960151151560c08501525050506001600160a01b039190911660209091015290565b5f604082840312156133bc575f5ffd5b6133c4612ef8565b825181526020928301519281019290925250919050565b5f604082840312156133eb575f5ffd5b610b8e83836133ac565b601f8211156113e757805f5260205f20601f840160051c8101602085101561341a5750805b601f840160051c820191505b818110156111a7575f8155600101613426565b81516001600160401b0381111561345257613452612ebc565b613466816134608454612e58565b846133f5565b6020601f821160018114613498575f83156134815750848201515b5f19600385901b1c1916600184901b1784556111a7565b5f84815260208120601f198516915b828110156134c757878501518255602094850194600190920191016134a7565b50848210156134e457868401515f19600387901b60f8161c191681555b50505050600190811b01905550565b5f602082016020835280845180835260408501915060408160051b8601019250602086015f5b8281101561357557603f19878603018452815163ffffffff815116865261ffff6020820151166020870152604081015190506060604087015261355f6060870182612770565b9550506020938401939190910190600101613519565b50929695505050505050565b5f6040828403128015613592575f5ffd5b5061359b612ef8565b823581526020928301359281019290925250919050565b634e487b7160e01b5f52601160045260245ffd5b5f826135e057634e487b7160e01b5f52601260045260245ffd5b500490565b8082028115828204841417610921576109216135b2565b80356020831015610921575f19602084900360031b1b1692915050565b80356001600160c01b0319811690600884101561364a576001600160c01b0319600885900360031b81901b82161691505b5092915050565b60c085901b6001600160c01b031916815260e084901b6001600160e01b0319166008820152600c81018390525f610c13602c8301846130b8565b80820180821115610921576109216135b2565b8481526001600160401b0360c01b8460c01b1660208201528260288201525f610c1360488301846130b8565b5f60808284031280156136db575f5ffd5b506136e4612ed0565b8251815260208301516136f68161319d565b602082015261370884604085016133ac565b60408201529392505050565b634e487b7160e01b5f52602160045260245ffdfea264697066735822122014352d075e98dee192aa6b97b08f075d3215ac946058094d1208c9438c99b32964736f6c634300081c0033","linkReferences":{}},"methodIdentifiers":{"DOMAIN_SEPARATOR()":"3644e515","SEND()":"1f5e1334","SEND_AND_CALL()":"134d4f25","allowInitializePath((uint32,bytes32,uint64))":"ff7bd03d","allowance(address,address)":"dd62ed3e","approvalRequired()":"9f68b964","approve(address,uint256)":"095ea7b3","balanceOf(address)":"70a08231","combineOptions(uint32,uint16,bytes)":"bc70b354","decimalConversionRate()":"963efcaa","decimals()":"313ce567","eip712Domain()":"84b0196e","endpoint()":"5e280f11","enforcedOptions(uint32,uint16)":"5535d461","isComposeMsgSender((uint32,bytes32,uint64),bytes,address)":"82413eac","isPeer(uint32,bytes32)":"5a0dfe4d","lzReceive((uint32,bytes32,uint64),bytes32,bytes,address,bytes)":"13137d65","lzReceiveAndRevert(((uint32,bytes32,uint64),uint32,address,bytes32,uint256,address,bytes,bytes)[])":"bd815db0","lzReceiveSimulate((uint32,bytes32,uint64),bytes32,bytes,address,bytes)":"d045a0dc","msgInspector()":"111ecdad","name()":"06fdde03","nextNonce(uint32,bytes32)":"7d25a05e","nonces(address)":"7ecebe00","oApp()":"52ae2879","oAppVersion()":"17442b70","oftVersion()":"156a0d0f","owner()":"8da5cb5b","peers(uint32)":"bb0b6a53","permit(address,address,uint256,uint256,uint8,bytes32,bytes32)":"d505accf","preCrime()":"b731ea0a","quoteOFT((uint32,bytes32,uint256,uint256,bytes,bytes,bytes))":"0d35b415","quoteSend((uint32,bytes32,uint256,uint256,bytes,bytes,bytes),bool)":"3b6f743b","renounceOwnership()":"715018a6","send((uint32,bytes32,uint256,uint256,bytes,bytes,bytes),(uint256,uint256),address)":"c7c7f5b3","setDelegate(address)":"ca5eb5e1","setEnforcedOptions((uint32,uint16,bytes)[])":"b98bd070","setMsgInspector(address)":"6fc1b31e","setPeer(uint32,bytes32)":"3400288b","setPreCrime(address)":"d4243885","sharedDecimals()":"857749b0","symbol()":"95d89b41","token()":"fc0c546a","totalSupply()":"18160ddd","transfer(address,uint256)":"a9059cbb","transferFrom(address,address,uint256)":"23b872dd","transferOwnership(address)":"f2fde38b"},"id":96}