{"abi":[{"type":"constructor","inputs":[],"stateMutability":"nonpayable"},{"type":"function","name":"DOMAIN_SEPARATOR","inputs":[],"outputs":[{"name":"","type":"bytes32","internalType":"bytes32"}],"stateMutability":"view"},{"type":"function","name":"UPGRADE_INTERFACE_VERSION","inputs":[],"outputs":[{"name":"","type":"string","internalType":"string"}],"stateMutability":"view"},{"type":"function","name":"addAsset","inputs":[{"name":"_asset","type":"address","internalType":"address"}],"outputs":[],"stateMutability":"nonpayable"},{"type":"function","name":"allowance","inputs":[{"name":"owner","type":"address","internalType":"address"},{"name":"spender","type":"address","internalType":"address"}],"outputs":[{"name":"","type":"uint256","internalType":"uint256"}],"stateMutability":"view"},{"type":"function","name":"approve","inputs":[{"name":"spender","type":"address","internalType":"address"},{"name":"value","type":"uint256","internalType":"uint256"}],"outputs":[{"name":"","type":"bool","internalType":"bool"}],"stateMutability":"nonpayable"},{"type":"function","name":"assets","inputs":[],"outputs":[{"name":"assetList","type":"address[]","internalType":"address[]"}],"stateMutability":"view"},{"type":"function","name":"availableBalance","inputs":[{"name":"_asset","type":"address","internalType":"address"}],"outputs":[{"name":"amount","type":"uint256","internalType":"uint256"}],"stateMutability":"view"},{"type":"function","name":"balanceOf","inputs":[{"name":"account","type":"address","internalType":"address"}],"outputs":[{"name":"","type":"uint256","internalType":"uint256"}],"stateMutability":"view"},{"type":"function","name":"borrow","inputs":[{"name":"_asset","type":"address","internalType":"address"},{"name":"_amount","type":"uint256","internalType":"uint256"},{"name":"_receiver","type":"address","internalType":"address"}],"outputs":[],"stateMutability":"nonpayable"},{"type":"function","name":"burn","inputs":[{"name":"_asset","type":"address","internalType":"address"},{"name":"_amountIn","type":"uint256","internalType":"uint256"},{"name":"_minAmountOut","type":"uint256","internalType":"uint256"},{"name":"_receiver","type":"address","internalType":"address"},{"name":"_deadline","type":"uint256","internalType":"uint256"}],"outputs":[{"name":"amountOut","type":"uint256","internalType":"uint256"}],"stateMutability":"nonpayable"},{"type":"function","name":"claimableInterest","inputs":[{"name":"_asset","type":"address","internalType":"address"}],"outputs":[{"name":"interest","type":"uint256","internalType":"uint256"}],"stateMutability":"view"},{"type":"function","name":"currentUtilizationIndex","inputs":[{"name":"_asset","type":"address","internalType":"address"}],"outputs":[{"name":"index","type":"uint256","internalType":"uint256"}],"stateMutability":"view"},{"type":"function","name":"decimals","inputs":[],"outputs":[{"name":"","type":"uint8","internalType":"uint8"}],"stateMutability":"view"},{"type":"function","name":"divestAll","inputs":[{"name":"_asset","type":"address","internalType":"address"}],"outputs":[],"stateMutability":"nonpayable"},{"type":"function","name":"eip712Domain","inputs":[],"outputs":[{"name":"fields","type":"bytes1","internalType":"bytes1"},{"name":"name","type":"string","internalType":"string"},{"name":"version","type":"string","internalType":"string"},{"name":"chainId","type":"uint256","internalType":"uint256"},{"name":"verifyingContract","type":"address","internalType":"address"},{"name":"salt","type":"bytes32","internalType":"bytes32"},{"name":"extensions","type":"uint256[]","internalType":"uint256[]"}],"stateMutability":"view"},{"type":"function","name":"fractionalReserveVault","inputs":[{"name":"_asset","type":"address","internalType":"address"}],"outputs":[{"name":"vaultAddress","type":"address","internalType":"address"}],"stateMutability":"view"},{"type":"function","name":"fractionalReserveVaults","inputs":[],"outputs":[{"name":"vaultAddresses","type":"address[]","internalType":"address[]"}],"stateMutability":"view"},{"type":"function","name":"getBurnAmount","inputs":[{"name":"_asset","type":"address","internalType":"address"},{"name":"_amountIn","type":"uint256","internalType":"uint256"}],"outputs":[{"name":"amountOut","type":"uint256","internalType":"uint256"},{"name":"fee","type":"uint256","internalType":"uint256"}],"stateMutability":"view"},{"type":"function","name":"getMintAmount","inputs":[{"name":"_asset","type":"address","internalType":"address"},{"name":"_amountIn","type":"uint256","internalType":"uint256"}],"outputs":[{"name":"amountOut","type":"uint256","internalType":"uint256"},{"name":"fee","type":"uint256","internalType":"uint256"}],"stateMutability":"view"},{"type":"function","name":"getRedeemAmount","inputs":[{"name":"_amountIn","type":"uint256","internalType":"uint256"}],"outputs":[{"name":"amountsOut","type":"uint256[]","internalType":"uint256[]"},{"name":"fees","type":"uint256[]","internalType":"uint256[]"}],"stateMutability":"view"},{"type":"function","name":"initialize","inputs":[{"name":"_name","type":"string","internalType":"string"},{"name":"_symbol","type":"string","internalType":"string"},{"name":"_accessControl","type":"address","internalType":"address"},{"name":"_feeAuction","type":"address","internalType":"address"},{"name":"_oracle","type":"address","internalType":"address"},{"name":"_assets","type":"address[]","internalType":"address[]"},{"name":"_insuranceFund","type":"address","internalType":"address"}],"outputs":[],"stateMutability":"nonpayable"},{"type":"function","name":"insuranceFund","inputs":[],"outputs":[{"name":"","type":"address","internalType":"address"}],"stateMutability":"view"},{"type":"function","name":"interestReceiver","inputs":[],"outputs":[{"name":"_interestReceiver","type":"address","internalType":"address"}],"stateMutability":"view"},{"type":"function","name":"investAll","inputs":[{"name":"_asset","type":"address","internalType":"address"}],"outputs":[],"stateMutability":"nonpayable"},{"type":"function","name":"loaned","inputs":[{"name":"_asset","type":"address","internalType":"address"}],"outputs":[{"name":"loanedAmount","type":"uint256","internalType":"uint256"}],"stateMutability":"view"},{"type":"function","name":"mint","inputs":[{"name":"_asset","type":"address","internalType":"address"},{"name":"_amountIn","type":"uint256","internalType":"uint256"},{"name":"_minAmountOut","type":"uint256","internalType":"uint256"},{"name":"_receiver","type":"address","internalType":"address"},{"name":"_deadline","type":"uint256","internalType":"uint256"}],"outputs":[{"name":"amountOut","type":"uint256","internalType":"uint256"}],"stateMutability":"nonpayable"},{"type":"function","name":"name","inputs":[],"outputs":[{"name":"","type":"string","internalType":"string"}],"stateMutability":"view"},{"type":"function","name":"nonces","inputs":[{"name":"owner","type":"address","internalType":"address"}],"outputs":[{"name":"","type":"uint256","internalType":"uint256"}],"stateMutability":"view"},{"type":"function","name":"pauseAsset","inputs":[{"name":"_asset","type":"address","internalType":"address"}],"outputs":[],"stateMutability":"nonpayable"},{"type":"function","name":"pauseProtocol","inputs":[],"outputs":[],"stateMutability":"nonpayable"},{"type":"function","name":"paused","inputs":[{"name":"_asset","type":"address","internalType":"address"}],"outputs":[{"name":"isPaused","type":"bool","internalType":"bool"}],"stateMutability":"view"},{"type":"function","name":"paused","inputs":[],"outputs":[{"name":"","type":"bool","internalType":"bool"}],"stateMutability":"view"},{"type":"function","name":"permit","inputs":[{"name":"owner","type":"address","internalType":"address"},{"name":"spender","type":"address","internalType":"address"},{"name":"value","type":"uint256","internalType":"uint256"},{"name":"deadline","type":"uint256","internalType":"uint256"},{"name":"v","type":"uint8","internalType":"uint8"},{"name":"r","type":"bytes32","internalType":"bytes32"},{"name":"s","type":"bytes32","internalType":"bytes32"}],"outputs":[],"stateMutability":"nonpayable"},{"type":"function","name":"proxiableUUID","inputs":[],"outputs":[{"name":"","type":"bytes32","internalType":"bytes32"}],"stateMutability":"view"},{"type":"function","name":"realizeInterest","inputs":[{"name":"_asset","type":"address","internalType":"address"}],"outputs":[],"stateMutability":"nonpayable"},{"type":"function","name":"redeem","inputs":[{"name":"_amountIn","type":"uint256","internalType":"uint256"},{"name":"_minAmountsOut","type":"uint256[]","internalType":"uint256[]"},{"name":"_receiver","type":"address","internalType":"address"},{"name":"_deadline","type":"uint256","internalType":"uint256"}],"outputs":[{"name":"amountsOut","type":"uint256[]","internalType":"uint256[]"}],"stateMutability":"nonpayable"},{"type":"function","name":"removeAsset","inputs":[{"name":"_asset","type":"address","internalType":"address"}],"outputs":[],"stateMutability":"nonpayable"},{"type":"function","name":"repay","inputs":[{"name":"_asset","type":"address","internalType":"address"},{"name":"_amount","type":"uint256","internalType":"uint256"}],"outputs":[],"stateMutability":"nonpayable"},{"type":"function","name":"rescueERC20","inputs":[{"name":"_asset","type":"address","internalType":"address"},{"name":"_receiver","type":"address","internalType":"address"}],"outputs":[],"stateMutability":"nonpayable"},{"type":"function","name":"reserve","inputs":[{"name":"_asset","type":"address","internalType":"address"}],"outputs":[{"name":"reserveAmount","type":"uint256","internalType":"uint256"}],"stateMutability":"view"},{"type":"function","name":"setFeeData","inputs":[{"name":"_asset","type":"address","internalType":"address"},{"name":"_feeData","type":"tuple","internalType":"struct IMinter.FeeData","components":[{"name":"minMintFee","type":"uint256","internalType":"uint256"},{"name":"slope0","type":"uint256","internalType":"uint256"},{"name":"slope1","type":"uint256","internalType":"uint256"},{"name":"mintKinkRatio","type":"uint256","internalType":"uint256"},{"name":"burnKinkRatio","type":"uint256","internalType":"uint256"},{"name":"optimalRatio","type":"uint256","internalType":"uint256"}]}],"outputs":[],"stateMutability":"nonpayable"},{"type":"function","name":"setFractionalReserveVault","inputs":[{"name":"_asset","type":"address","internalType":"address"},{"name":"_vault","type":"address","internalType":"address"}],"outputs":[],"stateMutability":"nonpayable"},{"type":"function","name":"setInsuranceFund","inputs":[{"name":"_insuranceFund","type":"address","internalType":"address"}],"outputs":[],"stateMutability":"nonpayable"},{"type":"function","name":"setRedeemFee","inputs":[{"name":"_redeemFee","type":"uint256","internalType":"uint256"}],"outputs":[],"stateMutability":"nonpayable"},{"type":"function","name":"setReserve","inputs":[{"name":"_asset","type":"address","internalType":"address"},{"name":"_reserve","type":"uint256","internalType":"uint256"}],"outputs":[],"stateMutability":"nonpayable"},{"type":"function","name":"setWhitelist","inputs":[{"name":"_user","type":"address","internalType":"address"},{"name":"_whitelisted","type":"bool","internalType":"bool"}],"outputs":[],"stateMutability":"nonpayable"},{"type":"function","name":"symbol","inputs":[],"outputs":[{"name":"","type":"string","internalType":"string"}],"stateMutability":"view"},{"type":"function","name":"totalBorrows","inputs":[{"name":"_asset","type":"address","internalType":"address"}],"outputs":[{"name":"totalBorrow","type":"uint256","internalType":"uint256"}],"stateMutability":"view"},{"type":"function","name":"totalSupplies","inputs":[{"name":"_asset","type":"address","internalType":"address"}],"outputs":[{"name":"_totalSupply","type":"uint256","internalType":"uint256"}],"stateMutability":"view"},{"type":"function","name":"totalSupply","inputs":[],"outputs":[{"name":"","type":"uint256","internalType":"uint256"}],"stateMutability":"view"},{"type":"function","name":"transfer","inputs":[{"name":"to","type":"address","internalType":"address"},{"name":"value","type":"uint256","internalType":"uint256"}],"outputs":[{"name":"","type":"bool","internalType":"bool"}],"stateMutability":"nonpayable"},{"type":"function","name":"transferFrom","inputs":[{"name":"from","type":"address","internalType":"address"},{"name":"to","type":"address","internalType":"address"},{"name":"value","type":"uint256","internalType":"uint256"}],"outputs":[{"name":"","type":"bool","internalType":"bool"}],"stateMutability":"nonpayable"},{"type":"function","name":"unpauseAsset","inputs":[{"name":"_asset","type":"address","internalType":"address"}],"outputs":[],"stateMutability":"nonpayable"},{"type":"function","name":"unpauseProtocol","inputs":[],"outputs":[],"stateMutability":"nonpayable"},{"type":"function","name":"upgradeToAndCall","inputs":[{"name":"newImplementation","type":"address","internalType":"address"},{"name":"data","type":"bytes","internalType":"bytes"}],"outputs":[],"stateMutability":"payable"},{"type":"function","name":"utilization","inputs":[{"name":"_asset","type":"address","internalType":"address"}],"outputs":[{"name":"ratio","type":"uint256","internalType":"uint256"}],"stateMutability":"view"},{"type":"function","name":"whitelisted","inputs":[{"name":"_user","type":"address","internalType":"address"}],"outputs":[{"name":"isWhitelisted","type":"bool","internalType":"bool"}],"stateMutability":"view"},{"type":"event","name":"Approval","inputs":[{"name":"owner","type":"address","indexed":true,"internalType":"address"},{"name":"spender","type":"address","indexed":true,"internalType":"address"},{"name":"value","type":"uint256","indexed":false,"internalType":"uint256"}],"anonymous":false},{"type":"event","name":"EIP712DomainChanged","inputs":[],"anonymous":false},{"type":"event","name":"Initialized","inputs":[{"name":"version","type":"uint64","indexed":false,"internalType":"uint64"}],"anonymous":false},{"type":"event","name":"Notify","inputs":[{"name":"","type":"uint256","indexed":false,"internalType":"uint256"},{"name":"","type":"uint256","indexed":false,"internalType":"uint256"}],"anonymous":false},{"type":"event","name":"Paused","inputs":[{"name":"account","type":"address","indexed":false,"internalType":"address"}],"anonymous":false},{"type":"event","name":"SetFeeData","inputs":[{"name":"asset","type":"address","indexed":false,"internalType":"address"},{"name":"feeData","type":"tuple","indexed":false,"internalType":"struct IMinter.FeeData","components":[{"name":"minMintFee","type":"uint256","internalType":"uint256"},{"name":"slope0","type":"uint256","internalType":"uint256"},{"name":"slope1","type":"uint256","internalType":"uint256"},{"name":"mintKinkRatio","type":"uint256","internalType":"uint256"},{"name":"burnKinkRatio","type":"uint256","internalType":"uint256"},{"name":"optimalRatio","type":"uint256","internalType":"uint256"}]}],"anonymous":false},{"type":"event","name":"SetRedeemFee","inputs":[{"name":"redeemFee","type":"uint256","indexed":false,"internalType":"uint256"}],"anonymous":false},{"type":"event","name":"SetWhitelist","inputs":[{"name":"user","type":"address","indexed":false,"internalType":"address"},{"name":"whitelisted","type":"bool","indexed":false,"internalType":"bool"}],"anonymous":false},{"type":"event","name":"Transfer","inputs":[{"name":"from","type":"address","indexed":true,"internalType":"address"},{"name":"to","type":"address","indexed":true,"internalType":"address"},{"name":"value","type":"uint256","indexed":false,"internalType":"uint256"}],"anonymous":false},{"type":"event","name":"Unpaused","inputs":[{"name":"account","type":"address","indexed":false,"internalType":"address"}],"anonymous":false},{"type":"event","name":"Upgraded","inputs":[{"name":"implementation","type":"address","indexed":true,"internalType":"address"}],"anonymous":false},{"type":"error","name":"AccessDenied","inputs":[]},{"type":"error","name":"AddressEmptyCode","inputs":[{"name":"target","type":"address","internalType":"address"}]},{"type":"error","name":"ECDSAInvalidSignature","inputs":[]},{"type":"error","name":"ECDSAInvalidSignatureLength","inputs":[{"name":"length","type":"uint256","internalType":"uint256"}]},{"type":"error","name":"ECDSAInvalidSignatureS","inputs":[{"name":"s","type":"bytes32","internalType":"bytes32"}]},{"type":"error","name":"ERC1967InvalidImplementation","inputs":[{"name":"implementation","type":"address","internalType":"address"}]},{"type":"error","name":"ERC1967NonPayable","inputs":[]},{"type":"error","name":"ERC20InsufficientAllowance","inputs":[{"name":"spender","type":"address","internalType":"address"},{"name":"allowance","type":"uint256","internalType":"uint256"},{"name":"needed","type":"uint256","internalType":"uint256"}]},{"type":"error","name":"ERC20InsufficientBalance","inputs":[{"name":"sender","type":"address","internalType":"address"},{"name":"balance","type":"uint256","internalType":"uint256"},{"name":"needed","type":"uint256","internalType":"uint256"}]},{"type":"error","name":"ERC20InvalidApprover","inputs":[{"name":"approver","type":"address","internalType":"address"}]},{"type":"error","name":"ERC20InvalidReceiver","inputs":[{"name":"receiver","type":"address","internalType":"address"}]},{"type":"error","name":"ERC20InvalidSender","inputs":[{"name":"sender","type":"address","internalType":"address"}]},{"type":"error","name":"ERC20InvalidSpender","inputs":[{"name":"spender","type":"address","internalType":"address"}]},{"type":"error","name":"ERC2612ExpiredSignature","inputs":[{"name":"deadline","type":"uint256","internalType":"uint256"}]},{"type":"error","name":"ERC2612InvalidSigner","inputs":[{"name":"signer","type":"address","internalType":"address"},{"name":"owner","type":"address","internalType":"address"}]},{"type":"error","name":"EnforcedPause","inputs":[]},{"type":"error","name":"ExpectedPause","inputs":[]},{"type":"error","name":"FailedCall","inputs":[]},{"type":"error","name":"InvalidAccountNonce","inputs":[{"name":"account","type":"address","internalType":"address"},{"name":"currentNonce","type":"uint256","internalType":"uint256"}]},{"type":"error","name":"InvalidBurnKinkRatio","inputs":[]},{"type":"error","name":"InvalidInitialization","inputs":[]},{"type":"error","name":"InvalidMinMintFee","inputs":[]},{"type":"error","name":"InvalidMintKinkRatio","inputs":[]},{"type":"error","name":"InvalidOptimalRatio","inputs":[]},{"type":"error","name":"NotInitializing","inputs":[]},{"type":"error","name":"UUPSUnauthorizedCallContext","inputs":[]},{"type":"error","name":"UUPSUnsupportedProxiableUUID","inputs":[{"name":"slot","type":"bytes32","internalType":"bytes32"}]}],"bytecode":{"object":"0x60a060405230608052348015610013575f5ffd5b5061001c610021565b6100d3565b7ff0c57e16840df040f15088dc2f81fe391c3923bec73e23a9662efc9c229c6a00805468010000000000000000900460ff16156100715760405163f92ee8a960e01b815260040160405180910390fd5b80546001600160401b03908116146100d05780546001600160401b0319166001600160401b0390811782556040519081527fc7f505b2f371ae2175ee4913f4499e1f2633a7b5936321eed1cdaeb6115181d29060200160405180910390a15b50565b608051613b6a6100f95f395f81816122bc015281816122e501526124100152613b6a5ff3fe608060405260043610610366575f3560e01c80637ecebe00116101c8578063b7902303116100fd578063d505accf1161009d578063df6e7cc81161006d578063df6e7cc814610abc578063e75179a414610adb578063f93b6be514610afa578063feee175614610b0e575f5ffd5b8063d505accf14610a14578063d936547e14610a33578063dbf6248914610a89578063dd62ed3e14610a9d575f5ffd5b8063bf20d9dc116100d8578063bf20d9dc14610996578063c3c05293146109b5578063c77cf615146109d4578063cf23a0c6146109e8575f5ffd5b8063b790230314610910578063b7c4a6bf14610924578063baf11db814610943575f5ffd5b80639782e82111610168578063a445058711610143578063a445058714610883578063a9059cbb146108a2578063ad3cb1cc146108c1578063adc5ce6e146108f1575f5ffd5b80639782e821146108265780639abacb4114610845578063a0821be314610864575f5ffd5b80638bee2a8e116101a35780638bee2a8e146107715780638d730124146107df578063908ab68c146107fe57806395d89b4114610812575f5ffd5b80637ecebe001461070c57806384b0196e1461072b5780638a7595ad14610752575f5ffd5b80634a5e42b11161029e5780635d799f871161023e57806370a082311161021957806370a082311461068e57806371a97305146106ad578063753842db146106ce57806378250b63146106ed575f5ffd5b80635d799f87146106315780635d841af5146106505780636c665a551461066f575f5ffd5b806352d1902d1161027957806352d1902d146105bc57806353d6fd59146105d057806356127987146105ef5780635c975abb1461060e575f5ffd5b80634a5e42b11461056b5780634f1ef2861461058a5780634f24d20a1461059d575f5ffd5b8063298410e511610309578063313ce567116102e4578063313ce567146104fe5780633644e515146105195780633753b14a1461052d57806341d951261461054c575f5ffd5b8063298410e5146104935780632c3ee88c146104b25780632e48152c146104df575f5ffd5b806318160ddd1161034457806318160ddd146103e4578063195d0e281461042157806322867d781461045557806323b872dd14610474575f5ffd5b8063012ea17c1461036a57806306fdde031461038b578063095ea7b3146103b5575b5f5ffd5b348015610375575f5ffd5b50610389610384366004613107565b610b2d565b005b348015610396575f5ffd5b5061039f610d3a565b6040516103ac9190613171565b60405180910390f35b3480156103c0575f5ffd5b506103d46103cf366004613183565b610ddf565b60405190151581526020016103ac565b3480156103ef575f5ffd5b507f52c63247e1f47db19d5ce0460030c497f067ca4cebf71ba98eeadabe20bace02545b6040519081526020016103ac565b34801561042c575f5ffd5b5061044061043b366004613183565b610df8565b604080519283526020830191909152016103ac565b348015610460575f5ffd5b5061038961046f366004613183565b610ec1565b34801561047f575f5ffd5b506103d461048e3660046131ab565b610f77565b34801561049e575f5ffd5b506103896104ad3660046131e5565b610f9c565b3480156104bd575f5ffd5b506104d16104cc3660046131fe565b61102e565b6040516103ac92919061324f565b3480156104ea575f5ffd5b506103d46104f93660046131e5565b6110d5565b348015610509575f5ffd5b50604051601281526020016103ac565b348015610524575f5ffd5b50610413611102565b348015610538575f5ffd5b506103896105473660046131e5565b611110565b348015610557575f5ffd5b50610389610566366004613374565b611143565b348015610576575f5ffd5b506103896105853660046131e5565b611265565b610389610598366004613446565b611298565b3480156105a8575f5ffd5b506104136105b73660046131e5565b6112b7565b3480156105c7575f5ffd5b5061041361134e565b3480156105db575f5ffd5b506103896105ea3660046134b0565b611369565b3480156105fa575f5ffd5b506104136106093660046134e5565b6113f4565b348015610619575f5ffd5b505f516020613b155f395f51905f525460ff166103d4565b34801561063c575f5ffd5b5061038961064b36600461352f565b611517565b34801561065b575f5ffd5b5061038961066a3660046131fe565b611598565b34801561067a575f5ffd5b50610389610689366004613560565b6115f3565b348015610699575f5ffd5b506104136106a83660046131e5565b6116c8565b3480156106b8575f5ffd5b506106c16116f8565b6040516103ac9190613599565b3480156106d9575f5ffd5b506103896106e83660046131e5565b61170a565b3480156106f8575f5ffd5b50610389610707366004613183565b611748565b348015610717575f5ffd5b506104136107263660046131e5565b6117b3565b348015610736575f5ffd5b5061073f6117bd565b6040516103ac97969594939291906135e4565b34801561075d575f5ffd5b5061038961076c36600461352f565b61186b565b34801561077c575f5ffd5b506107c761078b3660046131e5565b6001600160a01b039081165f9081527f5c48f30a22a9811126b69b5adcaabfc5ae0a83b6493e1b31e09dc579923ad10360205260409020541690565b6040516001600160a01b0390911681526020016103ac565b3480156107ea575f5ffd5b506104136107f93660046131e5565b61194b565b348015610809575f5ffd5b506106c1611975565b34801561081d575f5ffd5b5061039f6119a0565b348015610831575f5ffd5b506104136108403660046131e5565b6119de565b348015610850575f5ffd5b5061038961085f3660046131e5565b611a08565b34801561086f575f5ffd5b5061041361087e3660046131e5565b611a3b565b34801561088e575f5ffd5b5061041361089d3660046134e5565b611a5e565b3480156108ad575f5ffd5b506103d46108bc366004613183565b611abb565b3480156108cc575f5ffd5b5061039f604051806040016040528060058152602001640352e302e360dc1b81525081565b3480156108fc575f5ffd5b5061038961090b3660046131e5565b611ac8565b34801561091b575f5ffd5b506107c7611b06565b34801561092f575f5ffd5b5061044061093e366004613183565b611b21565b34801561094e575f5ffd5b5061041361095d3660046131e5565b6001600160a01b03165f9081527f5c48f30a22a9811126b69b5adcaabfc5ae0a83b6493e1b31e09dc579923ad101602052604090205490565b3480156109a1575f5ffd5b506104136109b03660046131e5565b611ba3565b3480156109c0575f5ffd5b506103896109cf3660046131e5565b611bc6565b3480156109df575f5ffd5b506107c7611bf9565b3480156109f3575f5ffd5b50610a07610a02366004613653565b611c18565b6040516103ac91906136b3565b348015610a1f575f5ffd5b50610389610a2e3660046136c5565b611de7565b348015610a3e575f5ffd5b506103d4610a4d3660046131e5565b6001600160a01b03165f9081527f3b40995b576f8dd0a8521bba471c5346e53f6a25529b0903b82331eb1a2afe03602052604090205460ff1690565b348015610a94575f5ffd5b50610389611f3c565b348015610aa8575f5ffd5b50610413610ab736600461352f565b611f58565b348015610ac7575f5ffd5b50610389610ad63660046131e5565b611fa1565b348015610ae6575f5ffd5b50610413610af53660046131e5565b612026565b348015610b05575f5ffd5b5061038961203a565b348015610b19575f5ffd5b50610413610b283660046131e5565b612053565b624ba85f60e21b610b3d81612076565b6a295be96e64066972000000823510610b6957604051630e7fd4ad60e21b815260040160405180910390fd5b6b033b2e3c9fd0803ce80000008260600135101580610b8a57506060820135155b15610ba8576040516304d9bf5d60e21b815260040160405180910390fd5b6b033b2e3c9fd0803ce80000008260800135101580610bc957506080820135155b15610be757604051632a41299560e01b815260040160405180910390fd5b6b033b2e3c9fd0803ce80000008260a00135101580610c08575060a0820135155b15610c2657604051633cb8e73560e11b815260040160405180910390fd5b81606001358260a001351480610c43575081608001358260a00135145b15610c6157604051633cb8e73560e11b815260040160405180910390fd5b6001600160a01b0383165f8181527f3b40995b576f8dd0a8521bba471c5346e53f6a25529b0903b82331eb1a2afe0260209081526040918290208535808255868301356001830181905587850135600284018190556060808a0135600386018190556080808c01356004880181905560a0808e013560059099018990558a519b8c52988b019690965297890193909352870152938501939093529083019190915260c08201527fb80d92aa6c2285ae4a8f342a6066af0fa35893e1853656935ec70c4fa2937d8f9060e0015b60405180910390a1505050565b60605f5f516020613a955f395f51905f525b9050806003018054610d5d90613732565b80601f0160208091040260200160405190810160405280929190818152602001828054610d8990613732565b8015610dd45780601f10610dab57610100808354040283529160200191610dd4565b820191905f5260205f20905b815481529060010190602001808311610db757829003601f168201915b505050505091505090565b5f33610dec818585612136565b60019150505b92915050565b60408051606081018252600181526001600160a01b03848116602083019081528284018581529351632d761af360e01b81525f516020613a755f395f51905f52600482015292511515602484015251166044820152905160648201525f90819073__$e0035c555380e9b3e43fa1a7844ddedebd$__90632d761af3906084015b6040805180830381865af4158015610e92573d5f5f3e3d5ffd5b505050506040513d601f19601f82011682018060405250810190610eb6919061376a565b909590945092505050565b610ec9612148565b630450cfaf60e31b610eda81612076565b73__$6a35883131215d9fcf4883df36e87487c2$__632ebadfbe610efc61217a565b6040805180820182526001600160a01b0380891682526020820188815292516001600160e01b031960e087901b168152600481019490945290511660248301525160448201526064015b5f6040518083038186803b158015610f5c575f5ffd5b505af4158015610f6e573d5f5f3e3d5ffd5b50505050505050565b5f33610f8485828561219e565b610f8f858585612202565b60019150505b9392505050565b63298410e560e01b610fad81612076565b73__$6a35883131215d9fcf4883df36e87487c2$__63a18a8197610fcf61217a565b6040516001600160e01b031960e084901b16815260048101919091526001600160a01b03851660248201526044015b5f6040518083038186803b158015611014575f5ffd5b505af4158015611026573d5f5f3e3d5ffd5b505050505050565b60608073__$e0035c555380e9b3e43fa1a7844ddedebd$__634bfcc81c5f516020613a755f395f51905f526040805160208101825287815290516001600160e01b031960e085901b16815260048101929092525160248201526044015f60405180830381865af41580156110a4573d5f5f3e3d5ffd5b505050506040513d5f823e601f3d908101601f191682016040526110cb919081019061380b565b9094909350915050565b5f6110de61217a565b6001600160a01b039092165f90815260069290920160205250604090205460ff1690565b5f61110b61225f565b905090565b631ba9d8a560e11b61112181612076565b73__$6a35883131215d9fcf4883df36e87487c2$__63dd360ac9610fcf61217a565b7ff0c57e16840df040f15088dc2f81fe391c3923bec73e23a9662efc9c229c6a008054600160401b810460ff1615906001600160401b03165f811580156111875750825b90505f826001600160401b031660011480156111a25750303b155b9050811580156111b0575080155b156111ce5760405163f92ee8a960e01b815260040160405180910390fd5b845467ffffffffffffffff1916600117855583156111f857845460ff60401b1916600160401b1785555b6112088d8d8d8d8d8d8d8d612268565b6112106122a9565b831561125657845460ff60401b19168555604051600181527fc7f505b2f371ae2175ee4913f4499e1f2633a7b5936321eed1cdaeb6115181d29060200160405180910390a15b50505050505050505050505050565b634a5e42b160e01b61127681612076565b73__$6a35883131215d9fcf4883df36e87487c2$__63c709ad17610fcf61217a565b6112a06122b1565b6112a98261233f565b6112b38282612349565b5050565b5f73__$fa22a1b822962dd520c24c12f4c0509b9e$__631ae6b4d15f516020613af55f395f51905f525b6040516001600160e01b031960e084901b16815260048101919091526001600160a01b0385166024820152604401602060405180830381865af415801561132a573d5f5f3e3d5ffd5b505050506040513d601f19601f82011682018060405250810190610df29190613864565b5f611357612405565b505f516020613ad55f395f51905f5290565b6353d6fd5960e01b61137a81612076565b6001600160a01b0383165f8181527f3b40995b576f8dd0a8521bba471c5346e53f6a25529b0903b82331eb1a2afe036020908152604091829020805460ff19168615159081179091558251938452908301527ff6019ec0a78d156d249a1ec7579e2321f6ac7521d6e1d2eacf90ba4a184dcceb9101610d2d565b5f6113fd612148565b5f6114088787611b21565b90925090506114208761141b838561387b565b61244e565b73__$6a35883131215d9fcf4883df36e87487c2$__637be70bae61144261217a565b6040805160e080820183526001600160a01b038d81168352602083018d81528385018a8152606085018e81528d84166080870190815260a087018e815260c088018d81529851968b901b6001600160e01b0319168752600487019990995295518416602486015291516044850152516064840152516084830152915190911660a4820152915160c48301525160e4820152610104015f6040518083038186803b1580156114ed575f5ffd5b505af41580156114ff573d5f5f3e3d5ffd5b5050505061150d33876124a8565b5095945050505050565b635d799f8760e01b61152881612076565b73__$6a35883131215d9fcf4883df36e87487c2$__633687471f61154a61217a565b5f516020613af55f395f51905f526040516001600160e01b031960e085901b168152600481019290925260248201526001600160a01b03808716604483015285166064820152608401610f46565b635d841af560e01b6115a981612076565b815f516020613a755f395f51905f52600101556040518281527fc2045f7458ee2982ac24e8bc693c0924341b1d70475de942852d90e121fc77609060200160405180910390a15050565b6115fb612148565b636c665a5560e01b61160c81612076565b611616848461244e565b73__$6a35883131215d9fcf4883df36e87487c2$__63ebd0396d61163861217a565b604080516060810182526001600160a01b03808a1682526020820189815288821683850190815293516001600160e01b031960e088901b16815260048101959095529151811660248501529051604484015290511660648201526084015b5f6040518083038186803b1580156116ac575f5ffd5b505af41580156116be573d5f5f3e3d5ffd5b5050505050505050565b5f805f516020613a955f395f51905f525b6001600160a01b039093165f9081526020939093525050604090205490565b606061110b61170561217a565b6124dc565b63753842db60e01b61171b81612076565b73__$fa22a1b822962dd520c24c12f4c0509b9e$__63fdcc2aa45f516020613af55f395f51905f52610fcf565b6378250b6360e01b61175981612076565b60405163938e51cf60e01b81525f516020613af55f395f51905f5260048201526001600160a01b03841660248201526044810183905273__$fa22a1b822962dd520c24c12f4c0509b9e$__9063938e51cf90606401610f46565b5f610df2826124e8565b5f60608082808083815f516020613ab55f395f51905f5280549091501580156117e857506001810154155b6118315760405162461bcd60e51b81526020600482015260156024820152741152540dcc4c8e88155b9a5b9a5d1a585b1a5e9959605a1b60448201526064015b60405180910390fd5b611839612510565b61184161254e565b604080515f80825260208201909252600f60f81b9c939b5091995046985030975095509350915050565b638a7595ad60e01b61187c81612076565b5f5f516020613af55f395f51905f52604051632969be0760e11b8152600481018290526001600160a01b038616602482015290915073__$fa22a1b822962dd520c24c12f4c0509b9e$__906352d37c0e906044015f6040518083038186803b1580156118e6575f5ffd5b505af41580156118f8573d5f5f3e3d5ffd5b505060405163c431765760e01b8152600481018490526001600160a01b0380881660248301528616604482015273__$fa22a1b822962dd520c24c12f4c0509b9e$__925063c43176579150606401611696565b5f61195461217a565b6001600160a01b039092165f90815260039290920160205250604090205490565b606061110b7f5c48f30a22a9811126b69b5adcaabfc5ae0a83b6493e1b31e09dc579923ad1046124dc565b7f52c63247e1f47db19d5ce0460030c497f067ca4cebf71ba98eeadabe20bace0480546060915f516020613a955f395f51905f5291610d5d90613732565b5f6119e761217a565b6001600160a01b039092165f90815260029290920160205250604090205490565b639abacb4160e01b611a1981612076565b73__$6a35883131215d9fcf4883df36e87487c2$__6316488ca6610fcf61217a565b5f73__$6a35883131215d9fcf4883df36e87487c2$__6350ba58276112e161217a565b5f611a67612148565b5f611a728787610df8565b60408051838152602081018390529294509092507f71e71a8458267085d5ab16980fd5f114d2d37f232479c245d523ce8d23ca40ed910160405180910390a15095945050505050565b5f33610dec818585612202565b6356e2e73760e11b611ad981612076565b73__$fa22a1b822962dd520c24c12f4c0509b9e$__6352d37c0e5f516020613af55f395f51905f52610fcf565b5f611b0f61217a565b600701546001600160a01b0316919050565b604080516060810182525f8082526001600160a01b03858116602084019081528385018681529451632d761af360e01b81525f516020613a755f395f51905f5260048201529351151560248501525116604483015291516064820152819073__$e0035c555380e9b3e43fa1a7844ddedebd$__90632d761af390608401610e78565b5f73__$6a35883131215d9fcf4883df36e87487c2$__630f82ffd06112e161217a565b63c3c0529360e01b611bd781612076565b73__$6a35883131215d9fcf4883df36e87487c2$__63d8417d62610fcf61217a565b5f5f516020613af55f395f51905f525b546001600160a01b0316919050565b6060611c22612148565b6060611c2d8761102e565b815191935091505f906001600160401b03811115611c4d57611c4d613273565b604051908082528060200260200182016040528015611c76578160200160208202803683370190505b5090505f5b8351811015611ce757828181518110611c9657611c9661389a565b6020026020010151848281518110611cb057611cb061389a565b6020026020010151611cc2919061387b565b828281518110611cd457611cd461389a565b6020908102919091010152600101611c7b565b50611cf9611cf36116f8565b82612564565b73__$6a35883131215d9fcf4883df36e87487c2$__63e81d6561611d1b61217a565b6040518060c001604052808c81526020018781526020018b8b808060200260200160405190810160405280939291908181526020018383602002808284375f920191909152505050908252506001600160a01b038a16602082015260408082018a90526060909101879052516001600160e01b031960e085901b168152611da69291906004016138ae565b5f6040518083038186803b158015611dbc575f5ffd5b505af4158015611dce573d5f5f3e3d5ffd5b50505050611ddc33896124a8565b505095945050505050565b83421115611e0b5760405163313c898160e11b815260048101859052602401611828565b5f7f6e71edae12b1b97f4d1f60370fef10105fa2faae0126114a169c64845d6126c9888888611e758c6001600160a01b03165f9081527f5ab42ced628888259c08ac98db1eb0cf702fc1501344311d8b100cd1bfe4bb006020526040902080546001810190915590565b6040805160208101969096526001600160a01b0394851690860152929091166060840152608083015260a082015260c0810186905260e0016040516020818303038152906040528051906020012090505f611ecf8261263b565b90505f611ede82878787612667565b9050896001600160a01b0316816001600160a01b031614611f25576040516325c0072360e11b81526001600160a01b0380831660048301528b166024820152604401611828565b611f308a8a8a612136565b50505050505050505050565b63dbf6248960e01b611f4d81612076565b611f55612693565b50565b6001600160a01b039182165f9081527f52c63247e1f47db19d5ce0460030c497f067ca4cebf71ba98eeadabe20bace016020908152604080832093909416825291909152205490565b73__$fa22a1b822962dd520c24c12f4c0509b9e$__63201d48c05f516020613af55f395f51905f526040516001600160e01b031960e084901b16815260048101919091526001600160a01b03841660248201526044015f6040518083038186803b15801561200d575f5ffd5b505af415801561201f573d5f5f3e3d5ffd5b5050505050565b5f5f516020613af55f395f51905f526119e7565b63f93b6be560e01b61204b81612076565b611f556126f5565b5f73__$6a35883131215d9fcf4883df36e87487c2$__633c0541276112e161217a565b5f7fb413d65cb88f23816c329284a0d3eb15a99df7963ab7402ade4c5da22bff6b0054604051633657648360e21b81526001600160e01b0319841660048201523060248201523360448201526001600160a01b039091169063d95d920c90606401602060405180830381865afa1580156120f2573d5f5f3e3d5ffd5b505050506040513d601f19601f820116820180604052508101906121169190613931565b9050806112b357604051634ca8886760e01b815260040160405180910390fd5b612143838383600161273a565b505050565b5f516020613b155f395f51905f525460ff16156121785760405163d93c066560e01b815260040160405180910390fd5b565b7fe912a1b0cc7579bc5827e495c2ce52587bc3871751e3281fc5599b38c3bfc40090565b5f6121a98484611f58565b90505f198110156121fc57818110156121ee57604051637dc7a0d960e11b81526001600160a01b03841660048201526024810182905260448101839052606401611828565b6121fc84848484035f61273a565b50505050565b6001600160a01b03831661222b57604051634b637e8f60e11b81525f6004820152602401611828565b6001600160a01b0382166122545760405163ec442f0560e01b81525f6004820152602401611828565b61214383838361281d565b5f61110b612956565b6122706129c9565b61227a8888612a12565b61228388612a24565b61228c86612a4f565b61229585612a60565b61229e84612a99565b6116be838383612ab5565b6121786129c9565b306001600160a01b037f000000000000000000000000000000000000000000000000000000000000000016148061232157507f00000000000000000000000000000000000000000000000000000000000000006001600160a01b0316612315612b34565b6001600160a01b031614155b156121785760405163703e46dd60e11b815260040160405180910390fd5b5f6112b381612076565b816001600160a01b03166352d1902d6040518163ffffffff1660e01b8152600401602060405180830381865afa9250505080156123a3575060408051601f3d908101601f191682019092526123a091810190613864565b60015b6123cb57604051634c9c8ce360e01b81526001600160a01b0383166004820152602401611828565b5f516020613ad55f395f51905f5281146123fb57604051632a87526960e21b815260048101829052602401611828565b6121438383612b48565b306001600160a01b037f000000000000000000000000000000000000000000000000000000000000000016146121785760405163703e46dd60e11b815260040160405180910390fd5b604051630a78cab560e31b81525f516020613af55f395f51905f5260048201526001600160a01b03831660248201526044810182905273__$fa22a1b822962dd520c24c12f4c0509b9e$__906353c655a890606401610ffe565b6001600160a01b0382166124d157604051634b637e8f60e11b81525f6004820152602401611828565b6112b3825f8361281d565b60605f610f9583612b9d565b5f807f5ab42ced628888259c08ac98db1eb0cf702fc1501344311d8b100cd1bfe4bb006116d9565b7fa16a46d94261c7517cc8ff89f61c0ce93598e3c849801011dee649a6a557d10280546060915f516020613ab55f395f51905f5291610d5d90613732565b60605f5f516020613ab55f395f51905f52610d4c565b5f516020613af55f395f51905f525f5b83518110156121fc5773__$fa22a1b822962dd520c24c12f4c0509b9e$__6353c655a8838684815181106125aa576125aa61389a565b60200260200101518685815181106125c4576125c461389a565b60200260200101516040518463ffffffff1660e01b8152600401612604939291909283526001600160a01b03919091166020830152604082015260600190565b5f6040518083038186803b15801561261a575f5ffd5b505af415801561262c573d5f5f3e3d5ffd5b50505050806001019050612574565b5f610df261264761225f565b8360405161190160f01b8152600281019290925260228201526042902090565b5f5f5f5f61267788888888612bf6565b9250925092506126878282612cbe565b50909695505050505050565b61269b612148565b5f516020613b155f395f51905f52805460ff191660011781557f62e78cea01bee320cd4e420270b5ea74000d11b0c9f74754ebdbfc544b05a258335b6040516001600160a01b03909116815260200160405180910390a150565b6126fd612d76565b5f516020613b155f395f51905f52805460ff191681557f5db9ee0a495bf2e6ff9c91a7834c1ba4fdd244a5e8aa4e537bd38aeae4b073aa336126d7565b5f516020613a955f395f51905f526001600160a01b0385166127715760405163e602df0560e01b81525f6004820152602401611828565b6001600160a01b03841661279a57604051634a1406b160e11b81525f6004820152602401611828565b6001600160a01b038086165f9081526001830160209081526040808320938816835292905220839055811561201f57836001600160a01b0316856001600160a01b03167f8c5be1e5ebec7d5bd14f71427d1e84f3dd0314c0f7b2291e5b200ac8c7c3b9258560405161280e91815260200190565b60405180910390a35050505050565b5f516020613a955f395f51905f526001600160a01b0384166128575781816002015f82825461284c919061387b565b909155506128c79050565b6001600160a01b0384165f90815260208290526040902054828110156128a95760405163391434e360e21b81526001600160a01b03861660048201526024810182905260448101849052606401611828565b6001600160a01b0385165f9081526020839052604090209083900390555b6001600160a01b0383166128e5576002810180548390039055612903565b6001600160a01b0383165f9081526020829052604090208054830190555b826001600160a01b0316846001600160a01b03167fddf252ad1be2c89b69c2b068fc378daa952ba7f163c4a11628f55a4df523b3ef8460405161294891815260200190565b60405180910390a350505050565b5f7f8b73c3c69bb8fe3d512ecc4cf759cc79239f7b179b0ffacaa9a75d522b39400f612980612da5565b612988612e0d565b60408051602081019490945283019190915260608201524660808201523060a082015260c00160405160208183030381529060405280519060200120905090565b7ff0c57e16840df040f15088dc2f81fe391c3923bec73e23a9662efc9c229c6a0054600160401b900460ff1661217857604051631afcd79f60e31b815260040160405180910390fd5b612a1a6129c9565b6112b38282612e4f565b612a2c6129c9565b611f5581604051806040016040528060018152602001603160f81b815250612e9f565b612a576129c9565b611f5581612efe565b612a686129c9565b805f516020613af55f395f51905f525b80546001600160a01b0319166001600160a01b039290921691909117905550565b612aa16129c9565b805f516020613a755f395f51905f52612a78565b612abd6129c9565b5f612ac661217a565b9050825f5b81811015612b0d57612b04868683818110612ae857612ae861389a565b9050602002016020810190612afd91906131e5565b8490612f2d565b50600101612acb565b505060070180546001600160a01b0319166001600160a01b03929092169190911790555050565b5f5f516020613ad55f395f51905f52611c09565b612b5182612f41565b6040516001600160a01b038316907fbc7cd75a20ee27fd9adebab32041f755214dbc6bffa90cc0225b39da2e5c2d3b905f90a2805115612b95576121438282612f8a565b6112b3612ffc565b6060815f01805480602002602001604051908101604052809291908181526020018280548015612bea57602002820191905f5260205f20905b815481526020019060010190808311612bd6575b50505050509050919050565b5f80807f7fffffffffffffffffffffffffffffff5d576e7357a4501ddfe92f46681b20a0841115612c2f57505f91506003905082612cb4565b604080515f808252602082018084528a905260ff891692820192909252606081018790526080810186905260019060a0016020604051602081039080840390855afa158015612c80573d5f5f3e3d5ffd5b5050604051601f1901519150506001600160a01b038116612cab57505f925060019150829050612cb4565b92505f91508190505b9450945094915050565b5f826003811115612cd157612cd161394c565b03612cda575050565b6001826003811115612cee57612cee61394c565b03612d0c5760405163f645eedf60e01b815260040160405180910390fd5b6002826003811115612d2057612d2061394c565b03612d415760405163fce698f760e01b815260048101829052602401611828565b6003826003811115612d5557612d5561394c565b036112b3576040516335e2f38360e21b815260048101829052602401611828565b5f516020613b155f395f51905f525460ff1661217857604051638dfc202b60e01b815260040160405180910390fd5b5f5f516020613ab55f395f51905f5281612dbd612510565b805190915015612dd557805160209091012092915050565b81548015612de4579392505050565b7fc5d2460186f7233c927e7db2dcc703c0e500b653ca82273b7bfad8045d85a470935050505090565b5f5f516020613ab55f395f51905f5281612e2561254e565b805190915015612e3d57805160209091012092915050565b60018201548015612de4579392505050565b612e576129c9565b5f516020613a955f395f51905f527f52c63247e1f47db19d5ce0460030c497f067ca4cebf71ba98eeadabe20bace03612e9084826139a4565b50600481016121fc83826139a4565b612ea76129c9565b5f516020613ab55f395f51905f527fa16a46d94261c7517cc8ff89f61c0ce93598e3c849801011dee649a6a557d102612ee084826139a4565b5060038101612eef83826139a4565b505f8082556001909101555050565b612f066129c9565b807fb413d65cb88f23816c329284a0d3eb15a99df7963ab7402ade4c5da22bff6b00612a78565b5f610f95836001600160a01b03841661301b565b806001600160a01b03163b5f03612f7657604051634c9c8ce360e01b81526001600160a01b0382166004820152602401611828565b805f516020613ad55f395f51905f52612a78565b60605f5f846001600160a01b031684604051612fa69190613a5e565b5f60405180830381855af49150503d805f8114612fde576040519150601f19603f3d011682016040523d82523d5f602084013e612fe3565b606091505b5091509150612ff3858383613067565b95945050505050565b34156121785760405163b398979f60e01b815260040160405180910390fd5b5f81815260018301602052604081205461306057508154600181810184555f848152602080822090930184905584548482528286019093526040902091909155610df2565b505f610df2565b60608261307c57613077826130c3565b610f95565b815115801561309357506001600160a01b0384163b155b156130bc57604051639996b31560e01b81526001600160a01b0385166004820152602401611828565b5080610f95565b8051156130d35780518082602001fd5b60405163d6bda27560e01b815260040160405180910390fd5b80356001600160a01b0381168114613102575f5ffd5b919050565b5f5f82840360e0811215613119575f5ffd5b613122846130ec565b925060c0601f1982011215613135575f5ffd5b506020830190509250929050565b5f81518084528060208401602086015e5f602082860101526020601f19601f83011685010191505092915050565b602081525f610f956020830184613143565b5f5f60408385031215613194575f5ffd5b61319d836130ec565b946020939093013593505050565b5f5f5f606084860312156131bd575f5ffd5b6131c6846130ec565b92506131d4602085016130ec565b929592945050506040919091013590565b5f602082840312156131f5575f5ffd5b610f95826130ec565b5f6020828403121561320e575f5ffd5b5035919050565b5f8151808452602084019350602083015f5b82811015613245578151865260209586019590910190600101613227565b5093949350505050565b604081525f6132616040830185613215565b8281036020840152612ff38185613215565b634e487b7160e01b5f52604160045260245ffd5b604051601f8201601f191681016001600160401b03811182821017156132af576132af613273565b604052919050565b5f5f6001600160401b038411156132d0576132d0613273565b50601f8301601f19166020016132e581613287565b9150508281528383830111156132f9575f5ffd5b828260208301375f602084830101529392505050565b5f82601f83011261331e575f5ffd5b610f95838335602085016132b7565b5f5f83601f84011261333d575f5ffd5b5081356001600160401b03811115613353575f5ffd5b6020830191508360208260051b850101111561336d575f5ffd5b9250929050565b5f5f5f5f5f5f5f5f60e0898b03121561338b575f5ffd5b88356001600160401b038111156133a0575f5ffd5b6133ac8b828c0161330f565b98505060208901356001600160401b038111156133c7575f5ffd5b6133d38b828c0161330f565b9750506133e260408a016130ec565b95506133f060608a016130ec565b94506133fe60808a016130ec565b935060a08901356001600160401b03811115613418575f5ffd5b6134248b828c0161332d565b9094509250613437905060c08a016130ec565b90509295985092959890939650565b5f5f60408385031215613457575f5ffd5b613460836130ec565b915060208301356001600160401b0381111561347a575f5ffd5b8301601f8101851361348a575f5ffd5b613499858235602084016132b7565b9150509250929050565b8015158114611f55575f5ffd5b5f5f604083850312156134c1575f5ffd5b6134ca836130ec565b915060208301356134da816134a3565b809150509250929050565b5f5f5f5f5f60a086880312156134f9575f5ffd5b613502866130ec565b9450602086013593506040860135925061351e606087016130ec565b949793965091946080013592915050565b5f5f60408385031215613540575f5ffd5b613549836130ec565b9150613557602084016130ec565b90509250929050565b5f5f5f60608486031215613572575f5ffd5b61357b846130ec565b925060208401359150613590604085016130ec565b90509250925092565b602080825282518282018190525f918401906040840190835b818110156135d95783516001600160a01b03168352602093840193909201916001016135b2565b509095945050505050565b60ff60f81b8816815260e060208201525f61360260e0830189613143565b82810360408401526136148189613143565b606084018890526001600160a01b038716608085015260a0840186905283810360c085015290506136458185613215565b9a9950505050505050505050565b5f5f5f5f5f60808688031215613667575f5ffd5b8535945060208601356001600160401b03811115613683575f5ffd5b61368f8882890161332d565b90955093506136a29050604087016130ec565b949793965091946060013592915050565b602081525f610f956020830184613215565b5f5f5f5f5f5f5f60e0888a0312156136db575f5ffd5b6136e4886130ec565b96506136f2602089016130ec565b95506040880135945060608801359350608088013560ff81168114613715575f5ffd5b9699959850939692959460a0840135945060c09093013592915050565b600181811c9082168061374657607f821691505b60208210810361376457634e487b7160e01b5f52602260045260245ffd5b50919050565b5f5f6040838503121561377b575f5ffd5b505080516020909101519092909150565b5f82601f83011261379b575f5ffd5b81516001600160401b038111156137b4576137b4613273565b8060051b6137c460208201613287565b918252602081850181019290810190868411156137df575f5ffd5b6020860192505b838310156138015782518252602092830192909101906137e6565b9695505050505050565b5f5f6040838503121561381c575f5ffd5b82516001600160401b03811115613831575f5ffd5b61383d8582860161378c565b92505060208301516001600160401b03811115613858575f5ffd5b6134998582860161378c565b5f60208284031215613874575f5ffd5b5051919050565b80820180821115610df257634e487b7160e01b5f52601160045260245ffd5b634e487b7160e01b5f52603260045260245ffd5b82815260406020820152815160408201525f602083015160c060608401526138da610100840182613215565b90506040840151603f198483030160808501526138f78282613215565b91505060018060a01b0360608501511660a0840152608084015160c084015260a0840151603f198483030160e08501526138018282613215565b5f60208284031215613941575f5ffd5b8151610f95816134a3565b634e487b7160e01b5f52602160045260245ffd5b601f82111561214357805f5260205f20601f840160051c810160208510156139855750805b601f840160051c820191505b8181101561201f575f8155600101613991565b81516001600160401b038111156139bd576139bd613273565b6139d1816139cb8454613732565b84613960565b6020601f821160018114613a03575f83156139ec5750848201515b5f19600385901b1c1916600184901b17845561201f565b5f84815260208120601f198516915b82811015613a325787850151825560209485019460019092019101613a12565b5084821015613a4f57868401515f19600387901b60f8161c191681555b50505050600190811b01905550565b5f82518060208501845e5f92019182525091905056fe3b40995b576f8dd0a8521bba471c5346e53f6a25529b0903b82331eb1a2afe0052c63247e1f47db19d5ce0460030c497f067ca4cebf71ba98eeadabe20bace00a16a46d94261c7517cc8ff89f61c0ce93598e3c849801011dee649a6a557d100360894a13ba1a3210667c828492db98dca3e2076cc3735a920a3ca505d382bbc5c48f30a22a9811126b69b5adcaabfc5ae0a83b6493e1b31e09dc579923ad100cd5ed15c6e187e77e9aee88184c21f4f2182ab5827cb3b7e07fbedcd63f03300a26469706673582212204b83ca241af6540a947afed42fb989ddb273f67b17c1ff594500b3d4e27239ab64736f6c634300081c0033","linkReferences":{"contracts/vault/libraries/FractionalReserveLogic.sol":{"FractionalReserveLogic":[{"start":5043,"length":20},{"start":6166,"length":20},{"start":6282,"length":20},{"start":6572,"length":20},{"start":6688,"length":20},{"start":7124,"length":20},{"start":8348,"length":20},{"start":9599,"length":20},{"start":9848,"length":20}]},"contracts/vault/libraries/MinterLogic.sol":{"MinterLogic":[{"start":3923,"length":20},{"start":4396,"length":20},{"start":7290,"length":20}]},"contracts/vault/libraries/VaultLogic.sol":{"VaultLogic":[{"start":4053,"length":20},{"start":4264,"length":20},{"start":4636,"length":20},{"start":4977,"length":20},{"start":5403,"length":20},{"start":5667,"length":20},{"start":5905,"length":20},{"start":6932,"length":20},{"start":6967,"length":20},{"start":7327,"length":20},{"start":7378,"length":20},{"start":7668,"length":20},{"start":8527,"length":20}]}}},"methodIdentifiers":{"DOMAIN_SEPARATOR()":"3644e515","UPGRADE_INTERFACE_VERSION()":"ad3cb1cc","addAsset(address)":"298410e5","allowance(address,address)":"dd62ed3e","approve(address,uint256)":"095ea7b3","assets()":"71a97305","availableBalance(address)":"a0821be3","balanceOf(address)":"70a08231","borrow(address,uint256,address)":"6c665a55","burn(address,uint256,uint256,address,uint256)":"56127987","claimableInterest(address)":"4f24d20a","currentUtilizationIndex(address)":"feee1756","decimals()":"313ce567","divestAll(address)":"adc5ce6e","eip712Domain()":"84b0196e","fractionalReserveVault(address)":"8bee2a8e","fractionalReserveVaults()":"908ab68c","getBurnAmount(address,uint256)":"b7c4a6bf","getMintAmount(address,uint256)":"195d0e28","getRedeemAmount(uint256)":"2c3ee88c","initialize(string,string,address,address,address,address[],address)":"41d95126","insuranceFund()":"b7902303","interestReceiver()":"c77cf615","investAll(address)":"753842db","loaned(address)":"baf11db8","mint(address,uint256,uint256,address,uint256)":"a4450587","name()":"06fdde03","nonces(address)":"7ecebe00","pauseAsset(address)":"3753b14a","pauseProtocol()":"dbf62489","paused()":"5c975abb","paused(address)":"2e48152c","permit(address,address,uint256,uint256,uint8,bytes32,bytes32)":"d505accf","proxiableUUID()":"52d1902d","realizeInterest(address)":"df6e7cc8","redeem(uint256,uint256[],address,uint256)":"cf23a0c6","removeAsset(address)":"4a5e42b1","repay(address,uint256)":"22867d78","rescueERC20(address,address)":"5d799f87","reserve(address)":"e75179a4","setFeeData(address,(uint256,uint256,uint256,uint256,uint256,uint256))":"012ea17c","setFractionalReserveVault(address,address)":"8a7595ad","setInsuranceFund(address)":"c3c05293","setRedeemFee(uint256)":"5d841af5","setReserve(address,uint256)":"78250b63","setWhitelist(address,bool)":"53d6fd59","symbol()":"95d89b41","totalBorrows(address)":"8d730124","totalSupplies(address)":"9782e821","totalSupply()":"18160ddd","transfer(address,uint256)":"a9059cbb","transferFrom(address,address,uint256)":"23b872dd","unpauseAsset(address)":"9abacb41","unpauseProtocol()":"f93b6be5","upgradeToAndCall(address,bytes)":"4f1ef286","utilization(address)":"bf20d9dc","whitelisted(address)":"d936547e"},"id":87}