{"abi":[{"type":"function","name":"validateCloseLiquidation","inputs":[{"name":"health","type":"uint256","internalType":"uint256"}],"outputs":[],"stateMutability":"pure"},{"type":"function","name":"validateLiquidation","inputs":[{"name":"health","type":"uint256","internalType":"uint256"},{"name":"emergencyHealth","type":"uint256","internalType":"uint256"},{"name":"start","type":"uint256","internalType":"uint256"},{"name":"grace","type":"uint256","internalType":"uint256"},{"name":"expiry","type":"uint256","internalType":"uint256"}],"outputs":[],"stateMutability":"view"},{"type":"function","name":"validateOpenLiquidation","inputs":[{"name":"health","type":"uint256","internalType":"uint256"},{"name":"start","type":"uint256","internalType":"uint256"},{"name":"expiry","type":"uint256","internalType":"uint256"}],"outputs":[],"stateMutability":"view"},{"type":"error","name":"AssetNotListed","inputs":[]},{"type":"error","name":"CollateralCannotCoverNewBorrow","inputs":[]},{"type":"error","name":"DebtTokenNotSet","inputs":[]},{"type":"error","name":"GracePeriodNotOver","inputs":[]},{"type":"error","name":"HealthFactorLowerThanLiquidationThreshold","inputs":[{"name":"health","type":"uint256","internalType":"uint256"}]},{"type":"error","name":"HealthFactorNotBelowThreshold","inputs":[]},{"type":"error","name":"InterestReceiverNotSet","inputs":[]},{"type":"error","name":"LiquidationAlreadyOpened","inputs":[]},{"type":"error","name":"LiquidationExpired","inputs":[]},{"type":"error","name":"MinBorrowAmount","inputs":[]},{"type":"error","name":"ReserveAlreadyInitialized","inputs":[]},{"type":"error","name":"ReservePaused","inputs":[]},{"type":"error","name":"VariableDebtSupplyNotZero","inputs":[]},{"type":"error","name":"ZeroAddressNotValid","inputs":[]}],"bytecode":{"object":"0x610836610034600b8282823980515f1a607314602857634e487b7160e01b5f525f60045260245ffd5b305f52607381538281f3fe730000000000000000000000000000000000000000301460806040526004361061008e575f3560e01c806330fd91181161006357806330fd9118146100e05780635555c166146100925780638960442c146100f3578063d6eaf73914610106575f5ffd5b8062954d4a14610092578062b57e5f146100a75780632857f05a146100ba5780632ae16f1c146100cd575b5f5ffd5b6100a56100a03660046105a3565b610119565b005b6100a56100b53660046105cd565b610159565b6100a56100c836600461065a565b6101b3565b6100a56100db3660046105a3565b610349565b6100a56100ee3660046106e6565b6103e4565b6100a561010136600461071d565b61047c565b6100a56101143660046107ad565b610551565b6001600160a01b038181165f908152600284016020526040902060010154166101555760405163b77e1e0f60e01b815260040160405180910390fd5b5050565b6b033b2e3c9fd0803ce800000083106101855760405163930bb77160e01b815260040160405180910390fd5b61018f81836107c4565b42116101ae57604051639a101bdd60e01b815260040160405180910390fd5b505050565b6020808201516001600160a01b03165f90815260028401909152604090819020600801549082015110156101fa5760405163543ebf4360e01b815260040160405180910390fd5b60608101516001600160a01b0316158061021f575060208101516001600160a01b0316155b1561023d57604051633bf95ba760e01b815260040160405180910390fd5b6020818101516001600160a01b03165f908152600284019091526040902060030154600160a81b900460ff1615610287576040516334dfd7c760e21b815260040160405180910390fd5b80608001516101555780516020820151604051632cfa197f60e11b8152600481018590526001600160a01b039283166024820152911660448201525f9073__$cf4d437c3fd1f300db2a64a4be3188e19a$__906359f432fe90606401602060405180830381865af41580156102fe573d5f5f3e3d5ffd5b505050506040513d601f19601f8201168201806040525081019061032291906107e9565b905080826040015111156101ae5760405163911ceb8160e01b815260040160405180910390fd5b6001600160a01b038082165f908152600280850160209081526040928390209091015482516318160ddd60e01b815292519316926318160ddd9260048082019392918290030181865afa1580156103a2573d5f5f3e3d5ffd5b505050506040513d601f19601f820116820180604052508101906103c691906107e9565b156101555760405163dd04d59360e01b815260040160405180910390fd5b6b033b2e3c9fd0803ce800000085106104105760405163930bb77160e01b815260040160405180910390fd5b6b033b2e3c9fd0803ce800000084106104755761042d82846107c4565b421161044c5760405163d15f73b560e01b815260040160405180910390fd5b61045681846107c4565b42106104755760405163a07063cb60e01b815260040160405180910390fd5b5050505050565b80516001600160a01b0316158061049e575060208101516001600160a01b0316155b156104bc57604051633bf95ba760e01b815260040160405180910390fd5b60608101516001600160a01b03166104e75760405163058c0f1b60e31b815260040160405180910390fd5b60408101516001600160a01b031661051257604051636f3c234d60e11b815260040160405180910390fd5b80516001600160a01b039081165f90815260028401602052604090206001015416156101555760405163d71b1fd160e01b815260040160405180910390fd5b6b033b2e3c9fd0803ce80000008110156105855760405163cf1cd59560e01b81526004810182905260240160405180910390fd5b50565b80356001600160a01b038116811461059e575f5ffd5b919050565b5f5f604083850312156105b4575f5ffd5b823591506105c460208401610588565b90509250929050565b5f5f5f606084860312156105df575f5ffd5b505081359360208301359350604090920135919050565b60405160a0810167ffffffffffffffff8111828210171561062557634e487b7160e01b5f52604160045260245ffd5b60405290565b60405160c0810167ffffffffffffffff8111828210171561062557634e487b7160e01b5f52604160045260245ffd5b5f5f82840360c081121561066c575f5ffd5b8335925060a0601f1982011215610681575f5ffd5b5061068a6105f6565b61069660208501610588565b81526106a460408501610588565b6020820152606084013560408201526106bf60808501610588565b606082015260a084013580151581146106d6575f5ffd5b6080820152919491935090915050565b5f5f5f5f5f60a086880312156106fa575f5ffd5b505083359560208501359550604085013594606081013594506080013592509050565b5f5f82840360e081121561072f575f5ffd5b8335925060c0601f1982011215610744575f5ffd5b5061074d61062b565b61075960208501610588565b815261076760408501610588565b602082015261077860608501610588565b604082015261078960808501610588565b606082015260a084810135608083015260c090940135938101939093525092909150565b5f602082840312156107bd575f5ffd5b5035919050565b808201808211156107e357634e487b7160e01b5f52601160045260245ffd5b92915050565b5f602082840312156107f9575f5ffd5b505191905056fea2646970667358221220ae2644e816171ea93a2526d66e44146316393ab1388272b1c974b97052fe02a664736f6c634300081c0033","linkReferences":{"contracts/lendingPool/libraries/ViewLogic.sol":{"ViewLogic":[{"start":762,"length":20}]}}},"methodIdentifiers":{"validateAddAsset(ILender.LenderStorage storage,ILender.AddAssetParams)":"8960442c","validateBorrow(ILender.LenderStorage storage,ILender.BorrowParams)":"2857f05a","validateCloseLiquidation(uint256)":"d6eaf739","validateLiquidation(uint256,uint256,uint256,uint256,uint256)":"30fd9118","validateOpenLiquidation(uint256,uint256,uint256)":"00b57e5f","validatePauseAsset(ILender.LenderStorage storage,address)":"00954d4a","validateRemoveAsset(ILender.LenderStorage storage,address)":"2ae16f1c","validateSetMinBorrow(ILender.LenderStorage storage,address)":"5555c166"},"id":58}