{"abi":[{"type":"constructor","inputs":[],"stateMutability":"nonpayable"},{"type":"function","name":"UPGRADE_INTERFACE_VERSION","inputs":[],"outputs":[{"name":"","type":"string","internalType":"string"}],"stateMutability":"view"},{"type":"function","name":"initialize","inputs":[{"name":"_accessControl","type":"address","internalType":"address"}],"outputs":[],"stateMutability":"nonpayable"},{"type":"function","name":"proxiableUUID","inputs":[],"outputs":[{"name":"","type":"bytes32","internalType":"bytes32"}],"stateMutability":"view"},{"type":"function","name":"rate","inputs":[{"name":"_vault","type":"address","internalType":"address"},{"name":"_asset","type":"address","internalType":"address"}],"outputs":[{"name":"latestAnswer","type":"uint256","internalType":"uint256"}],"stateMutability":"nonpayable"},{"type":"function","name":"setLimits","inputs":[{"name":"_maxMultiplier","type":"uint256","internalType":"uint256"},{"name":"_minMultiplier","type":"uint256","internalType":"uint256"},{"name":"_rate","type":"uint256","internalType":"uint256"}],"outputs":[],"stateMutability":"nonpayable"},{"type":"function","name":"setSlopes","inputs":[{"name":"_asset","type":"address","internalType":"address"},{"name":"_slopes","type":"tuple","internalType":"struct IVaultAdapter.SlopeData","components":[{"name":"kink","type":"uint256","internalType":"uint256"},{"name":"slope0","type":"uint256","internalType":"uint256"},{"name":"slope1","type":"uint256","internalType":"uint256"}]}],"outputs":[],"stateMutability":"nonpayable"},{"type":"function","name":"upgradeToAndCall","inputs":[{"name":"newImplementation","type":"address","internalType":"address"},{"name":"data","type":"bytes","internalType":"bytes"}],"outputs":[],"stateMutability":"payable"},{"type":"event","name":"Initialized","inputs":[{"name":"version","type":"uint64","indexed":false,"internalType":"uint64"}],"anonymous":false},{"type":"event","name":"SetLimits","inputs":[{"name":"_maxMultiplier","type":"uint256","indexed":false,"internalType":"uint256"},{"name":"_minMultiplier","type":"uint256","indexed":false,"internalType":"uint256"},{"name":"_rate","type":"uint256","indexed":false,"internalType":"uint256"}],"anonymous":false},{"type":"event","name":"SetSlopes","inputs":[{"name":"_asset","type":"address","indexed":true,"internalType":"address"},{"name":"_slopes","type":"tuple","indexed":false,"internalType":"struct IVaultAdapter.SlopeData","components":[{"name":"kink","type":"uint256","internalType":"uint256"},{"name":"slope0","type":"uint256","internalType":"uint256"},{"name":"slope1","type":"uint256","internalType":"uint256"}]}],"anonymous":false},{"type":"event","name":"Upgraded","inputs":[{"name":"implementation","type":"address","indexed":true,"internalType":"address"}],"anonymous":false},{"type":"error","name":"AccessDenied","inputs":[]},{"type":"error","name":"AddressEmptyCode","inputs":[{"name":"target","type":"address","internalType":"address"}]},{"type":"error","name":"ERC1967InvalidImplementation","inputs":[{"name":"implementation","type":"address","internalType":"address"}]},{"type":"error","name":"ERC1967NonPayable","inputs":[]},{"type":"error","name":"FailedCall","inputs":[]},{"type":"error","name":"InvalidInitialization","inputs":[]},{"type":"error","name":"InvalidKink","inputs":[]},{"type":"error","name":"NotInitializing","inputs":[]},{"type":"error","name":"UUPSUnauthorizedCallContext","inputs":[]},{"type":"error","name":"UUPSUnsupportedProxiableUUID","inputs":[{"name":"slot","type":"bytes32","internalType":"bytes32"}]}],"bytecode":{"object":"0x60a060405230608052348015610013575f5ffd5b5061001c610021565b6100d3565b7ff0c57e16840df040f15088dc2f81fe391c3923bec73e23a9662efc9c229c6a00805468010000000000000000900460ff16156100715760405163f92ee8a960e01b815260040160405180910390fd5b80546001600160401b03908116146100d05780546001600160401b0319166001600160401b0390811782556040519081527fc7f505b2f371ae2175ee4913f4499e1f2633a7b5936321eed1cdaeb6115181d29060200160405180910390a15b50565b6080516111496100f95f395f81816107450152818161076e0152610b6701526111495ff3fe60806040526004361061006e575f3560e01c806352d1902d1161004c57806352d1902d146100d8578063ad3cb1cc146100ec578063c47ae61514610129578063c4d66de814610148575f5ffd5b8063189ae5f2146100725780634f1ef2861461009357806350e30042146100a6575b5f5ffd5b34801561007d575f5ffd5b5061009161008c366004610e0f565b610167565b005b6100916100a1366004610e98565b61024e565b3480156100b1575f5ffd5b506100c56100c0366004610f3d565b61026d565b6040519081526020015b60405180910390f35b3480156100e3575f5ffd5b506100c5610466565b3480156100f7575f5ffd5b5061011c604051806040016040528060058152602001640352e302e360dc1b81525081565b6040516100cf9190610f6e565b348015610134575f5ffd5b50610091610143366004610fa3565b610481565b348015610153575f5ffd5b5061009161016236600461101e565b610564565b630c4d72f960e11b6101788161067a565b7f2b1d5d801322d1007f654ac87d8072a5f5ca4203517edc869ef2aa54addad6028490557f2b1d5d801322d1007f654ac87d8072a5f5ca4203517edc869ef2aa54addad6038390557f2b1d5d801322d1007f654ac87d8072a5f5ca4203517edc869ef2aa54addad604829055604080518581526020810185905280820184905290517f2b1d5d801322d1007f654ac87d8072a5f5ca4203517edc869ef2aa54addad600917f54be2d1f02b10d49578219bd90397b54bb231c21c11498b195e48d3ba9eb7ee8919081900360600190a15050505050565b61025661073a565b61025f826107e0565b61026982826107ea565b5050565b6001600160a01b038281165f9081527f2b1d5d801322d1007f654ac87d8072a5f5ca4203517edc869ef2aa54addad6016020908152604080832093851683529290529081206002810154829081904211156103e557604051637f770bab60e11b81526001600160a01b0386811660048301525f919088169063feee175690602401602060405180830381865afa158015610309573d5f5f3e3d5ffd5b505050506040513d601f19601f8201168201806040525081019061032d9190611037565b905083600201544261033f9190611062565b925042831461036a57828460010154826103599190611062565b6103639190611075565b91506103d5565b604051632fc8367760e21b81526001600160a01b03878116600483015288169063bf20d9dc90602401602060405180830381865afa1580156103ae573d5f5f3e3d5ffd5b505050506040513d601f19601f820116820180604052508101906103d29190611037565b91505b6001840155426002840155610450565b604051632fc8367760e21b81526001600160a01b03868116600483015287169063bf20d9dc90602401602060405180830381865afa158015610429573d5f5f3e3d5ffd5b505050506040513d601f19601f8201168201806040525081019061044d9190611037565b90505b61045c868683856108b0565b9695505050505050565b5f61046f610b5c565b505f5160206110f45f395f51905f5290565b63c47ae61560e01b6104928161067a565b8151676765c793fa10079d601b1b1115806104ac57508151155b156104ca57604051637099641d60e11b815260040160405180910390fd5b6001600160a01b0383165f8181527f2b1d5d801322d1007f654ac87d8072a5f5ca4203517edc869ef2aa54addad6006020908152604091829020855180825582870180516001840155848801805160029094019390935584519182525192810192909252518183015290517f75cc2534da6471310d556e278b88bae01fdaa823503738af2742771967d817f19181900360600190a2505050565b7ff0c57e16840df040f15088dc2f81fe391c3923bec73e23a9662efc9c229c6a008054600160401b810460ff16159067ffffffffffffffff165f811580156105a95750825b90505f8267ffffffffffffffff1660011480156105c55750303b155b9050811580156105d3575080155b156105f15760405163f92ee8a960e01b815260040160405180910390fd5b845467ffffffffffffffff19166001178555831561061b57845460ff60401b1916600160401b1785555b61062486610ba5565b61062c610bb9565b831561067257845460ff60401b19168555604051600181527fc7f505b2f371ae2175ee4913f4499e1f2633a7b5936321eed1cdaeb6115181d29060200160405180910390a15b505050505050565b5f7fb413d65cb88f23816c329284a0d3eb15a99df7963ab7402ade4c5da22bff6b0054604051633657648360e21b81526001600160e01b0319841660048201523060248201523360448201526001600160a01b039091169063d95d920c90606401602060405180830381865afa1580156106f6573d5f5f3e3d5ffd5b505050506040513d601f19601f8201168201806040525081019061071a9190611094565b90508061026957604051634ca8886760e01b815260040160405180910390fd5b306001600160a01b037f00000000000000000000000000000000000000000000000000000000000000001614806107c057507f00000000000000000000000000000000000000000000000000000000000000006001600160a01b03166107b45f5160206110f45f395f51905f52546001600160a01b031690565b6001600160a01b031614155b156107de5760405163703e46dd60e11b815260040160405180910390fd5b565b5f6102698161067a565b816001600160a01b03166352d1902d6040518163ffffffff1660e01b8152600401602060405180830381865afa925050508015610844575060408051601f3d908101601f1916820190925261084191810190611037565b60015b61087157604051634c9c8ce360e01b81526001600160a01b03831660048201526024015b60405180910390fd5b5f5160206110f45f395f51905f5281146108a157604051632a87526960e21b815260048101829052602401610868565b6108ab8383610bc1565b505050565b6001600160a01b038481165f9081527f2b1d5d801322d1007f654ac87d8072a5f5ca4203517edc869ef2aa54addad6016020908152604080832093871683529281528282207f2b1d5d801322d1007f654ac87d8072a5f5ca4203517edc869ef2aa54addad600808352848420855160608101875281548082526001830154958201959095526002909101549581019590955292939091861115610a665780515f9061095b9088611062565b9050676765c793fa10079d601b1b8085600401548861097a91906110b3565b6109849190611075565b835161099b90676765c793fa10079d601b1b611062565b6109b084676765c793fa10079d601b1b6110b3565b6109ba9190611075565b6109c491906110b3565b6109d990676765c793fa10079d601b1b6110ca565b84546109e591906110b3565b6109ef9190611075565b80845560028501541015610a0557600284015483555b676765c793fa10079d601b1b835f0154676765c793fa10079d601b1b838560400151610a3191906110b3565b610a3b9190611075565b8460200151610a4a91906110ca565b610a5491906110b3565b610a5e9190611075565b945050610b51565b676765c793fa10079d601b1b836004015486610a8291906110b3565b610a8c9190611075565b8151610a988882611062565b610aad90676765c793fa10079d601b1b6110b3565b610ab79190611075565b610ac191906110b3565b610ad690676765c793fa10079d601b1b6110ca565b8254610aed90676765c793fa10079d601b1b6110b3565b610af79190611075565b80835560038401541115610b0d57600383015482555b815481516020830151676765c793fa10079d601b1b929190610b30908a906110b3565b610b3a9190611075565b610b4491906110b3565b610b4e9190611075565b93505b505050949350505050565b306001600160a01b037f000000000000000000000000000000000000000000000000000000000000000016146107de5760405163703e46dd60e11b815260040160405180910390fd5b610bad610c16565b610bb681610c5f565b50565b6107de610c16565b610bca82610cab565b6040516001600160a01b038316907fbc7cd75a20ee27fd9adebab32041f755214dbc6bffa90cc0225b39da2e5c2d3b905f90a2805115610c0e576108ab8282610cf4565b610269610d68565b7ff0c57e16840df040f15088dc2f81fe391c3923bec73e23a9662efc9c229c6a0054600160401b900460ff166107de57604051631afcd79f60e31b815260040160405180910390fd5b610c67610c16565b807fb413d65cb88f23816c329284a0d3eb15a99df7963ab7402ade4c5da22bff6b005b80546001600160a01b0319166001600160a01b039290921691909117905550565b806001600160a01b03163b5f03610ce057604051634c9c8ce360e01b81526001600160a01b0382166004820152602401610868565b805f5160206110f45f395f51905f52610c8a565b60605f5f846001600160a01b031684604051610d1091906110dd565b5f60405180830381855af49150503d805f8114610d48576040519150601f19603f3d011682016040523d82523d5f602084013e610d4d565b606091505b5091509150610d5d858383610d87565b925050505b92915050565b34156107de5760405163b398979f60e01b815260040160405180910390fd5b606082610d9c57610d9782610de6565b610ddf565b8151158015610db357506001600160a01b0384163b155b15610ddc57604051639996b31560e01b81526001600160a01b0385166004820152602401610868565b50805b9392505050565b805115610df65780518082602001fd5b60405163d6bda27560e01b815260040160405180910390fd5b5f5f5f60608486031215610e21575f5ffd5b505081359360208301359350604090920135919050565b80356001600160a01b0381168114610e4e575f5ffd5b919050565b634e487b7160e01b5f52604160045260245ffd5b604051601f8201601f1916810167ffffffffffffffff81118282101715610e9057610e90610e53565b604052919050565b5f5f60408385031215610ea9575f5ffd5b610eb283610e38565b9150602083013567ffffffffffffffff811115610ecd575f5ffd5b8301601f81018513610edd575f5ffd5b803567ffffffffffffffff811115610ef757610ef7610e53565b610f0a601f8201601f1916602001610e67565b818152866020838501011115610f1e575f5ffd5b816020840160208301375f602083830101528093505050509250929050565b5f5f60408385031215610f4e575f5ffd5b610f5783610e38565b9150610f6560208401610e38565b90509250929050565b602081525f82518060208401528060208501604085015e5f604082850101526040601f19601f83011684010191505092915050565b5f5f8284036080811215610fb5575f5ffd5b610fbe84610e38565b92506060601f1982011215610fd1575f5ffd5b506040516060810167ffffffffffffffff81118282101715610ff557610ff5610e53565b604090815260208581013583528582013590830152606090940135938101939093525092909150565b5f6020828403121561102e575f5ffd5b610ddf82610e38565b5f60208284031215611047575f5ffd5b5051919050565b634e487b7160e01b5f52601160045260245ffd5b81810381811115610d6257610d6261104e565b5f8261108f57634e487b7160e01b5f52601260045260245ffd5b500490565b5f602082840312156110a4575f5ffd5b81518015158114610ddf575f5ffd5b8082028115828204841417610d6257610d6261104e565b80820180821115610d6257610d6261104e565b5f82518060208501845e5f92019182525091905056fe360894a13ba1a3210667c828492db98dca3e2076cc3735a920a3ca505d382bbca264697066735822122015774d0793626f2929b0369cb5324248d1f8eb9b6372b05d486f476c7aa66d2064736f6c634300081c0033","linkReferences":{}},"methodIdentifiers":{"UPGRADE_INTERFACE_VERSION()":"ad3cb1cc","initialize(address)":"c4d66de8","proxiableUUID()":"52d1902d","rate(address,address)":"50e30042","setLimits(uint256,uint256,uint256)":"189ae5f2","setSlopes(address,(uint256,uint256,uint256))":"c47ae615","upgradeToAndCall(address,bytes)":"4f1ef286"},"id":74}