{"abi":[{"type":"constructor","inputs":[{"name":"latestAnswer_","type":"int256","internalType":"int256"}],"stateMutability":"nonpayable"},{"type":"function","name":"decimals","inputs":[],"outputs":[{"name":"","type":"uint8","internalType":"uint8"}],"stateMutability":"view"},{"type":"function","name":"latestAnswer","inputs":[],"outputs":[{"name":"","type":"int256","internalType":"int256"}],"stateMutability":"view"},{"type":"function","name":"latestRoundData","inputs":[],"outputs":[{"name":"roundId","type":"uint80","internalType":"uint80"},{"name":"answer","type":"int256","internalType":"int256"},{"name":"startedAt","type":"uint256","internalType":"uint256"},{"name":"updatedAt","type":"uint256","internalType":"uint256"},{"name":"answeredInRound","type":"uint80","internalType":"uint80"}],"stateMutability":"view"},{"type":"function","name":"setDecimals","inputs":[{"name":"decimals_","type":"uint8","internalType":"uint8"}],"outputs":[],"stateMutability":"nonpayable"},{"type":"function","name":"setLatestAnswer","inputs":[{"name":"answer","type":"int256","internalType":"int256"}],"outputs":[],"stateMutability":"nonpayable"},{"type":"function","name":"setMockPriceStaleness","inputs":[{"name":"staleness","type":"uint256","internalType":"uint256"}],"outputs":[],"stateMutability":"nonpayable"}],"bytecode":{"object":"0x6080604052348015600e575f5ffd5b50604051610241380380610241833981016040819052602b916044565b5f805460ff19166008178155600191909155600255605a565b5f602082840312156053575f5ffd5b5051919050565b6101da806100675f395ff3fe608060405234801561000f575f5ffd5b5060043610610060575f3560e01c806304ea97b014610064578063313ce5671461007957806350d25bcd146100925780637a1395aa146100a35780638e2fb0b2146100c6578063feaf968c146100d9575b5f5ffd5b610077610072366004610141565b600155565b005b5f5460405160ff90911681526020015b60405180910390f35b600154604051908152602001610089565b6100776100b1366004610158565b5f805460ff191660ff92909216919091179055565b6100776100d4366004610141565b600255565b6100e1610118565b6040805169ffffffffffffffffffff968716815260208101959095528401929092526060830152909116608082015260a001610089565b5f5f5f5f5f5f6001545f60025442610130919061017f565b929891975095509093505f92509050565b5f60208284031215610151575f5ffd5b5035919050565b5f60208284031215610168575f5ffd5b813560ff81168114610178575f5ffd5b9392505050565b8181038181111561019e57634e487b7160e01b5f52601160045260245ffd5b9291505056fea264697066735822122059a929d280bbb7af2e490724aab90aae642b73fc530a08a8cab04767ba1e782b64736f6c634300081c0033","linkReferences":{}},"methodIdentifiers":{"decimals()":"313ce567","latestAnswer()":"50d25bcd","latestRoundData()":"feaf968c","setDecimals(uint8)":"7a1395aa","setLatestAnswer(int256)":"04ea97b0","setMockPriceStaleness(uint256)":"8e2fb0b2"},"id":332}