{"abi":[{"type":"constructor","inputs":[],"stateMutability":"nonpayable"},{"type":"function","name":"UPGRADE_INTERFACE_VERSION","inputs":[],"outputs":[{"name":"","type":"string","internalType":"string"}],"stateMutability":"view"},{"type":"function","name":"coverage","inputs":[{"name":"_agent","type":"address","internalType":"address"}],"outputs":[{"name":"delegation","type":"uint256","internalType":"uint256"}],"stateMutability":"view"},{"type":"function","name":"coverageByVault","inputs":[{"name":"_network","type":"address","internalType":"address"},{"name":"_agent","type":"address","internalType":"address"},{"name":"_vault","type":"address","internalType":"address"},{"name":"_oracle","type":"address","internalType":"address"},{"name":"_timestamp","type":"uint48","internalType":"uint48"}],"outputs":[{"name":"collateralValue","type":"uint256","internalType":"uint256"},{"name":"collateral","type":"uint256","internalType":"uint256"}],"stateMutability":"view"},{"type":"function","name":"distributeRewards","inputs":[{"name":"_agent","type":"address","internalType":"address"},{"name":"_token","type":"address","internalType":"address"}],"outputs":[],"stateMutability":"nonpayable"},{"type":"function","name":"initialize","inputs":[{"name":"_accessControl","type":"address","internalType":"address"},{"name":"_network","type":"address","internalType":"address"},{"name":"_vaultRegistry","type":"address","internalType":"address"},{"name":"_oracle","type":"address","internalType":"address"},{"name":"_requiredEpochDuration","type":"uint48","internalType":"uint48"},{"name":"_feeAllowed","type":"uint256","internalType":"uint256"}],"outputs":[],"stateMutability":"nonpayable"},{"type":"function","name":"proxiableUUID","inputs":[],"outputs":[{"name":"","type":"bytes32","internalType":"bytes32"}],"stateMutability":"view"},{"type":"function","name":"registerAgent","inputs":[{"name":"_vault","type":"address","internalType":"address"},{"name":"_agent","type":"address","internalType":"address"}],"outputs":[],"stateMutability":"nonpayable"},{"type":"function","name":"registerVault","inputs":[{"name":"_vault","type":"address","internalType":"address"},{"name":"_stakerRewarder","type":"address","internalType":"address"}],"outputs":[],"stateMutability":"nonpayable"},{"type":"function","name":"setFeeAllowed","inputs":[{"name":"_feeAllowed","type":"uint256","internalType":"uint256"}],"outputs":[],"stateMutability":"nonpayable"},{"type":"function","name":"slash","inputs":[{"name":"_agent","type":"address","internalType":"address"},{"name":"_recipient","type":"address","internalType":"address"},{"name":"_slashShare","type":"uint256","internalType":"uint256"},{"name":"_timestamp","type":"uint48","internalType":"uint48"}],"outputs":[],"stateMutability":"nonpayable"},{"type":"function","name":"slashableCollateral","inputs":[{"name":"_agent","type":"address","internalType":"address"},{"name":"_timestamp","type":"uint48","internalType":"uint48"}],"outputs":[{"name":"_slashableCollateral","type":"uint256","internalType":"uint256"}],"stateMutability":"view"},{"type":"function","name":"slashableCollateralByVault","inputs":[{"name":"_network","type":"address","internalType":"address"},{"name":"_agent","type":"address","internalType":"address"},{"name":"_vault","type":"address","internalType":"address"},{"name":"_oracle","type":"address","internalType":"address"},{"name":"_timestamp","type":"uint48","internalType":"uint48"}],"outputs":[{"name":"collateralValue","type":"uint256","internalType":"uint256"},{"name":"collateral","type":"uint256","internalType":"uint256"}],"stateMutability":"view"},{"type":"function","name":"subnetwork","inputs":[{"name":"_agent","type":"address","internalType":"address"}],"outputs":[{"name":"id","type":"bytes32","internalType":"bytes32"}],"stateMutability":"view"},{"type":"function","name":"subnetworkIdentifier","inputs":[{"name":"_agent","type":"address","internalType":"address"}],"outputs":[{"name":"id","type":"uint96","internalType":"uint96"}],"stateMutability":"pure"},{"type":"function","name":"upgradeToAndCall","inputs":[{"name":"newImplementation","type":"address","internalType":"address"},{"name":"data","type":"bytes","internalType":"bytes"}],"outputs":[],"stateMutability":"payable"},{"type":"function","name":"vaults","inputs":[{"name":"_agent","type":"address","internalType":"address"}],"outputs":[{"name":"vaultAddress","type":"address","internalType":"address"}],"stateMutability":"view"},{"type":"event","name":"AgentRegistered","inputs":[{"name":"agent","type":"address","indexed":false,"internalType":"address"}],"anonymous":false},{"type":"event","name":"Initialized","inputs":[{"name":"version","type":"uint64","indexed":false,"internalType":"uint64"}],"anonymous":false},{"type":"event","name":"Slash","inputs":[{"name":"agent","type":"address","indexed":true,"internalType":"address"},{"name":"recipient","type":"address","indexed":false,"internalType":"address"},{"name":"amount","type":"uint256","indexed":false,"internalType":"uint256"}],"anonymous":false},{"type":"event","name":"Upgraded","inputs":[{"name":"implementation","type":"address","indexed":true,"internalType":"address"}],"anonymous":false},{"type":"event","name":"VaultRegistered","inputs":[{"name":"vault","type":"address","indexed":false,"internalType":"address"}],"anonymous":false},{"type":"error","name":"AccessDenied","inputs":[]},{"type":"error","name":"AddressEmptyCode","inputs":[{"name":"target","type":"address","internalType":"address"}]},{"type":"error","name":"ERC1967InvalidImplementation","inputs":[{"name":"implementation","type":"address","internalType":"address"}]},{"type":"error","name":"ERC1967NonPayable","inputs":[]},{"type":"error","name":"ExistingCoverage","inputs":[]},{"type":"error","name":"FailedCall","inputs":[]},{"type":"error","name":"InvalidAgent","inputs":[]},{"type":"error","name":"InvalidBurnerRouter","inputs":[]},{"type":"error","name":"InvalidDelegator","inputs":[]},{"type":"error","name":"InvalidEpochDuration","inputs":[{"name":"required","type":"uint48","internalType":"uint48"},{"name":"actual","type":"uint48","internalType":"uint48"}]},{"type":"error","name":"InvalidInitialization","inputs":[]},{"type":"error","name":"InvalidSlasher","inputs":[]},{"type":"error","name":"NoBurner","inputs":[]},{"type":"error","name":"NoSlashableCollateral","inputs":[]},{"type":"error","name":"NoSlasher","inputs":[]},{"type":"error","name":"NoStakerRewarder","inputs":[]},{"type":"error","name":"NotInitializing","inputs":[]},{"type":"error","name":"NotVault","inputs":[]},{"type":"error","name":"SafeERC20FailedOperation","inputs":[{"name":"token","type":"address","internalType":"address"}]},{"type":"error","name":"UUPSUnauthorizedCallContext","inputs":[]},{"type":"error","name":"UUPSUnsupportedProxiableUUID","inputs":[{"name":"slot","type":"bytes32","internalType":"bytes32"}]},{"type":"error","name":"VaultDoesNotExist","inputs":[]},{"type":"error","name":"VaultExists","inputs":[]},{"type":"error","name":"VaultNotInitialized","inputs":[]}],"bytecode":{"object":"0x60a060405230608052348015610013575f5ffd5b5061001c610021565b6100d3565b7ff0c57e16840df040f15088dc2f81fe391c3923bec73e23a9662efc9c229c6a00805468010000000000000000900460ff16156100715760405163f92ee8a960e01b815260040160405180910390fd5b80546001600160401b03908116146100d05780546001600160401b0319166001600160401b0390811782556040519081527fc7f505b2f371ae2175ee4913f4499e1f2633a7b5936321eed1cdaeb6115181d29060200160405180910390a15b50565b60805161261f6100f95f395f8181611ad201528181611afb0152611c3e015261261f5ff3fe6080604052600436106100ef575f3560e01c8063512d05c9116100875780638c01df1f116100575780638c01df1f14610297578063a622ee7c146102b6578063ad3cb1cc14610311578063c2f348da1461034e575f5ffd5b8063512d05c91461020957806352d1902d14610245578063677321da14610259578063814813c114610278575f5ffd5b8063366d1cf9116100c2578063366d1cf9146101845780633d11c00d146101b85780634cfb842b146101d75780634f1ef286146101f6575f5ffd5b806305c4fdf9146100f35780630f42c1c11461011457806332cfdfbf146101465780633302443014610165575b5f5ffd5b3480156100fe575f5ffd5b5061011261010d366004611fa5565b61036d565b005b34801561011f575f5ffd5b5061013361012e366004611fdc565b61048b565b6040519081526020015b60405180910390f35b348015610151575f5ffd5b5061011261016036600461200a565b6104dd565b348015610170575f5ffd5b5061013361017f366004611fdc565b610816565b34801561018f575f5ffd5b506101a361019e36600461205a565b610899565b6040805192835260208301919091520161013d565b3480156101c3575f5ffd5b506101126101d2366004611fa5565b6109fd565b3480156101e2575f5ffd5b506101126101f13660046120c7565b610b8c565b6101126102043660046120f2565b610bc2565b348015610214575f5ffd5b50610228610223366004611fdc565b610be1565b6040516bffffffffffffffffffffffff909116815260200161013d565b348015610250575f5ffd5b50610133610c1d565b348015610264575f5ffd5b50610112610273366004611fa5565b610c38565b348015610283575f5ffd5b506101336102923660046121b8565b610d6b565b3480156102a2575f5ffd5b506101a36102b136600461205a565b610dd8565b3480156102c1575f5ffd5b506102f96102d0366004611fdc565b6001600160a01b039081165f9081525f5160206125aa5f395f51905f5260205260409020541690565b6040516001600160a01b03909116815260200161013d565b34801561031c575f5ffd5b50610341604051806040016040528060058152602001640352e302e360dc1b81525081565b60405161013d9190612212565b348015610359575f5ffd5b50610112610368366004612224565b610f40565b6305c4fdf960e01b61037e81611118565b610387836111d8565b6001600160a01b0383165f9081527fb8e099bfced582503f4260023771d11f60bb84aadc54b7d0da79ce0abbf0e8046020526040902080545f51602061258a5f395f51905f529190600160a01b900460ff16156103f75760405163108e5c5f60e21b815260040160405180910390fd5b6001600160a01b03841661041e57604051633f9ae2fb60e11b815260040160405180910390fd5b80546001600160a81b0319166001600160a01b03851617600160a01b1781556040517f8e0930709528779f1112249aac8fcca15dbb9c595db31092c7bc7f954b5679339061047c9087906001600160a01b0391909116815260200190565b60405180910390a15050505050565b5f6104d75f51602061258a5f395f51905f52546001600160a01b03166104b084610be1565b6bffffffffffffffffffffffff1660609190911b6bffffffffffffffffffffffff19161790565b92915050565b6332cfdfbf60e01b6104ee81611118565b6001600160a01b038581165f9081525f5160206125aa5f395f51905f5260205260408120545f51602061258a5f395f51905f5280547fb8e099bfced582503f4260023771d11f60bb84aadc54b7d0da79ce0abbf0e802549194928316939261055f92918116918b9186911689610dd8565b91505f9050670de0b6b3a764000061057788846122ad565b61058191906122c4565b61058c9060016122e3565b9050818111156105995750805b826001600160a01b031663b13442716040518163ffffffff1660e01b8152600401602060405180830381865afa1580156105d5573d5f5f3e3d5ffd5b505050506040513d601f19601f820116820180604052508101906105f991906122f6565b6001600160a01b031663021a81566106108b61048b565b604080515f815260208101918290526001600160e01b031960e085901b1690915261064591908d9086908c9060248101612311565b6020604051808303815f875af1158015610661573d5f5f3e3d5ffd5b505050506040513d601f19601f820116820180604052508101906106859190612356565b50826001600160a01b03166327810b6e6040518163ffffffff1660e01b8152600401602060405180830381865afa1580156106c2573d5f5f3e3d5ffd5b505050506040513d601f19601f820116820180604052508101906106e691906122f6565b60405163528dc85f60e11b81523060048201526001600160a01b03919091169063a51b90be906024016020604051808303815f875af115801561072b573d5f5f3e3d5ffd5b505050506040513d601f19601f8201168201806040525081019061074f9190612356565b506107c58882856001600160a01b031663d8dfeb456040518163ffffffff1660e01b8152600401602060405180830381865afa158015610791573d5f5f3e3d5ffd5b505050506040513d601f19601f820116820180604052508101906107b591906122f6565b6001600160a01b031691906116e2565b604080516001600160a01b038a81168252602082018490528b16917f9995717781b7b3ba3dd9e553a2b5a2b7593ad9b71f5022a3691a089d5189bd19910160405180910390a2505050505050505050565b6001600160a01b038181165f9081525f5160206125aa5f395f51905f52602052604081205490915f51602061258a5f395f51905f5291168061086b5760405163bebdc75760e01b815260040160405180910390fd5b815460028301546001600160a01b0391821691164261088d8388868585610899565b50979650505050505050565b5f5f5f5f5f6108aa8a8a8a8a611746565b919450925090506001600160a01b0383166108cd575f5f945094505050506109f3565b876001600160a01b031663ce9b79306040518163ffffffff1660e01b8152600401602060405180830381865afa158015610909573d5f5f3e3d5ffd5b505050506040513d601f19601f8201168201806040525081019061092d91906122f6565b6001600160a01b031663e02f69376109448b61048b565b6040516001600160e01b031960e084901b16815260048101919091526001600160a01b038c16602482015265ffffffffffff89166044820152608060648201525f608482015260a401602060405180830381865afa1580156109a8573d5f5f3e3d5ffd5b505050506040513d601f19601f820116820180604052508101906109cc9190612356565b93506109d982600a612450565b6109e382866122ad565b6109ed91906122c4565b94505050505b9550959350505050565b633d11c00d60e01b610a0e81611118565b5f5f51602061258a5f395f51905f526040516370a0823160e01b81523060048201529091505f906001600160a01b038516906370a0823190602401602060405180830381865afa158015610a64573d5f5f3e3d5ffd5b505050506040513d601f19601f82011682018060405250810190610a889190612356565b6001600160a01b038087165f9081526005850160209081526040808320548416808452600488019092529091205492935091811690610aca9087168285611a32565b83546001600160a01b038083169163239723ed91168886610aec60014261245e565b60038a01546040805165ffffffffffff90931660208401528201526080606082018190525f60a08084018290529183019190915260c082015260e0016040516020818303038152906040526040518563ffffffff1660e01b8152600401610b569493929190612471565b5f604051808303815f87803b158015610b6d575f5ffd5b505af1158015610b7f573d5f5f3e3d5ffd5b5050505050505050505050565b634cfb842b60e01b610b9d81611118565b507fb8e099bfced582503f4260023771d11f60bb84aadc54b7d0da79ce0abbf0e80355565b610bca611ac7565b610bd382611b6d565b610bdd8282611b77565b5050565b6040805160609290921b6bffffffffffffffffffffffff1916602080840191909152815160148185030181526034909301909152815191012090565b5f610c26611c33565b505f5160206125ca5f395f51905f5290565b6333b990ed60e11b610c4981611118565b610c52836111d8565b5f51602061258a5f395f51905f526001600160a01b038316610c875760405163bebdc75760e01b815260040160405180910390fd5b6001600160a01b038381165f9081526005830160205260409020541615610cc1576040516302551c0360e21b815260040160405180910390fd5b6001600160a01b0384165f908152600482016020526040902054600160a01b900460ff16610d0257604051634d827f1760e01b815260040160405180910390fd5b6001600160a01b038381165f81815260058401602090815260409182902080546001600160a01b03191694891694909417909355519081527f82d0829d9d481e4cb9913897f9b9c903271c4db68c7b3324071d2a7e3b2c5ff0910160405180910390a150505050565b6001600160a01b038281165f9081525f5160206125aa5f395f51905f5260205260408120545f51602061258a5f395f51905f5280547fb8e099bfced582503f4260023771d11f60bb84aadc54b7d0da79ce0abbf0e802549394919392821692908216911661088d828885848a5b5f5f5f5f5f610de98a8a8a8a611746565b919450925090506001600160a01b038316610e0c575f5f945094505050506109f3565b5f886001600160a01b031663b13442716040518163ffffffff1660e01b8152600401602060405180830381865afa158015610e49573d5f5f3e3d5ffd5b505050506040513d601f19601f82011682018060405250810190610e6d91906122f6565b9050806001600160a01b031663aab3595f610e878c61048b565b6040516001600160e01b031960e084901b16815260048101919091526001600160a01b038d16602482015265ffffffffffff8a166044820152608060648201525f608482015260a401602060405180830381865afa158015610eeb573d5f5f3e3d5ffd5b505050506040513d601f19601f82011682018060405250810190610f0f9190612356565b9450610f1c83600a612450565b610f2683876122ad565b610f3091906122c4565b9550505050509550959350505050565b7ff0c57e16840df040f15088dc2f81fe391c3923bec73e23a9662efc9c229c6a008054600160401b810460ff16159067ffffffffffffffff165f81158015610f855750825b90505f8267ffffffffffffffff166001148015610fa15750303b155b905081158015610faf575080155b15610fcd5760405163f92ee8a960e01b815260040160405180910390fd5b845467ffffffffffffffff191660011785558315610ff757845460ff60401b1916600160401b1785555b6110008b611c7c565b5f51602061258a5f395f51905f5280546001600160a01b03199081166001600160a01b038d8116919091179092557fb8e099bfced582503f4260023771d11f60bb84aadc54b7d0da79ce0abbf0e80180549091168b83161790557fb8e099bfced582503f4260023771d11f60bb84aadc54b7d0da79ce0abbf0e8028054918a166001600160d01b031990921691909117600160a01b65ffffffffffff8a16021790557fb8e099bfced582503f4260023771d11f60bb84aadc54b7d0da79ce0abbf0e8038690558315610b7f57845460ff60401b19168555604051600181527fc7f505b2f371ae2175ee4913f4499e1f2633a7b5936321eed1cdaeb6115181d29060200160405180910390a15050505050505050505050565b5f7fb413d65cb88f23816c329284a0d3eb15a99df7963ab7402ade4c5da22bff6b0054604051633657648360e21b81526001600160e01b0319841660048201523060248201523360448201526001600160a01b039091169063d95d920c90606401602060405180830381865afa158015611194573d5f5f3e3d5ffd5b505050506040513d601f19601f820116820180604052508101906111b891906124a3565b905080610bdd57604051634ca8886760e01b815260040160405180910390fd5b5f5f51602061258a5f395f51905f5260018101546040516302910f8b60e31b81526001600160a01b0385811660048301529293509116906314887c5890602401602060405180830381865afa158015611233573d5f5f3e3d5ffd5b505050506040513d601f19601f8201168201806040525081019061125791906124a3565b611274576040516362df054560e01b815260040160405180910390fd5b816001600160a01b031663392e53cd6040518163ffffffff1660e01b8152600401602060405180830381865afa1580156112b0573d5f5f3e3d5ffd5b505050506040513d601f19601f820116820180604052508101906112d491906124a3565b6112f157604051639a09fd8760e01b815260040160405180910390fd5b5f826001600160a01b0316634ff0876a6040518163ffffffff1660e01b8152600401602060405180830381865afa15801561132e573d5f5f3e3d5ffd5b505050506040513d601f19601f8201168201806040525081019061135291906124c2565b600283015490915065ffffffffffff600160a01b909104811690821610156113b1576002820154604051633754999f60e11b8152600160a01b90910465ffffffffffff9081166004830152821660248201526044015b60405180910390fd5b5f836001600160a01b031663b13442716040518163ffffffff1660e01b8152600401602060405180830381865afa1580156113ee573d5f5f3e3d5ffd5b505050506040513d601f19601f8201168201806040525081019061141291906122f6565b90505f816001600160a01b031663bb24fe8a6040518163ffffffff1660e01b8152600401602060405180830381865afa158015611451573d5f5f3e3d5ffd5b505050506040513d601f19601f8201168201806040525081019061147591906124dd565b90506001600160a01b03821661149e57604051633c1f615d60e21b815260040160405180910390fd5b67ffffffffffffffff8116156114c757604051633f3e089160e21b815260040160405180910390fd5b5f856001600160a01b03166327810b6e6040518163ffffffff1660e01b8152600401602060405180830381865afa158015611504573d5f5f3e3d5ffd5b505050506040513d601f19601f8201168201806040525081019061152891906122f6565b90506001600160a01b0381166115515760405163d2420f5960e01b815260040160405180910390fd5b845460405163ae89186b60e01b81526001600160a01b0391821660048201525f9183169063ae89186b90602401602060405180830381865afa158015611599573d5f5f3e3d5ffd5b505050506040513d601f19601f820116820180604052508101906115bd91906122f6565b90506001600160a01b03811630146115e857604051632aa3aa3b60e01b815260040160405180910390fd5b5f876001600160a01b031663ce9b79306040518163ffffffff1660e01b8152600401602060405180830381865afa158015611625573d5f5f3e3d5ffd5b505050506040513d601f19601f8201168201806040525081019061164991906122f6565b90505f816001600160a01b031663bb24fe8a6040518163ffffffff1660e01b8152600401602060405180830381865afa158015611688573d5f5f3e3d5ffd5b505050506040513d601f19601f820116820180604052508101906116ac91906124dd565b905067ffffffffffffffff8116156116d75760405163b9f0f17160e01b815260040160405180910390fd5b505050505050505050565b6040516001600160a01b0383811660248301526044820183905261174191859182169063a9059cbb906064015b604051602081830303815290604052915060e01b6020820180516001600160e01b038381831617835250505050611c90565b505050565b5f5f5f846001600160a01b03166327810b6e6040518163ffffffff1660e01b8152600401602060405180830381865afa158015611785573d5f5f3e3d5ffd5b505050506040513d601f19601f820116820180604052508101906117a991906122f6565b604051630332128960e01b81526001600160a01b0389811660048301529194505f918516906303321289906024016040805180830381865afa1580156117f1573d5f5f3e3d5ffd5b505050506040513d601f19601f820116820180604052508101906118159190612504565b5090506001600160a01b0381161580159061183957506001600160a01b0381163014155b1561184d575f5f5f93509350935050611a28565b6040516301d82eb160e21b81526001600160a01b0389811660048301528881166024830152851690630760bac4906044016040805180830381865afa158015611898573d5f5f3e3d5ffd5b505050506040513d601f19601f820116820180604052508101906118bc9190612504565b5090506001600160a01b038116158015906118e057506001600160a01b0381163014155b156118f4575f5f5f93509350935050611a28565b5f866001600160a01b031663d8dfeb456040518163ffffffff1660e01b8152600401602060405180830381865afa158015611931573d5f5f3e3d5ffd5b505050506040513d601f19601f8201168201806040525081019061195591906122f6565b9050806001600160a01b031663313ce5676040518163ffffffff1660e01b8152600401602060405180830381865afa158015611993573d5f5f3e3d5ffd5b505050506040513d601f19601f820116820180604052508101906119b79190612531565b6040516341976e0960e01b81526001600160a01b038381166004830152919550908716906341976e09906024016040805180830381865afa1580156119fe573d5f5f3e3d5ffd5b505050506040513d601f19601f82011682018060405250810190611a229190612551565b50925050505b9450945094915050565b604080516001600160a01b038416602482015260448082018490528251808303909101815260649091019091526020810180516001600160e01b031663095ea7b360e01b179052611a838482611cfc565b611ac1576040516001600160a01b0384811660248301525f6044830152611ab791869182169063095ea7b39060640161170f565b611ac18482611c90565b50505050565b306001600160a01b037f0000000000000000000000000000000000000000000000000000000000000000161480611b4d57507f00000000000000000000000000000000000000000000000000000000000000006001600160a01b0316611b415f5160206125ca5f395f51905f52546001600160a01b031690565b6001600160a01b031614155b15611b6b5760405163703e46dd60e11b815260040160405180910390fd5b565b5f610bdd81611118565b816001600160a01b03166352d1902d6040518163ffffffff1660e01b8152600401602060405180830381865afa925050508015611bd1575060408051601f3d908101601f19168201909252611bce91810190612356565b60015b611bf957604051634c9c8ce360e01b81526001600160a01b03831660048201526024016113a8565b5f5160206125ca5f395f51905f528114611c2957604051632a87526960e21b8152600481018290526024016113a8565b6117418383611d45565b306001600160a01b037f00000000000000000000000000000000000000000000000000000000000000001614611b6b5760405163703e46dd60e11b815260040160405180910390fd5b611c84611d9a565b611c8d81611de3565b50565b5f5f60205f8451602086015f885af180611caf576040513d5f823e3d81fd5b50505f513d91508115611cc6578060011415611cd3565b6001600160a01b0384163b155b15611ac157604051635274afe760e01b81526001600160a01b03851660048201526024016113a8565b5f5f5f5f60205f8651602088015f8a5af192503d91505f519050828015611d3b57508115611d2d5780600114611d3b565b5f866001600160a01b03163b115b9695505050505050565b611d4e82611e2f565b6040516001600160a01b038316907fbc7cd75a20ee27fd9adebab32041f755214dbc6bffa90cc0225b39da2e5c2d3b905f90a2805115611d92576117418282611e78565b610bdd611eea565b7ff0c57e16840df040f15088dc2f81fe391c3923bec73e23a9662efc9c229c6a0054600160401b900460ff16611b6b57604051631afcd79f60e31b815260040160405180910390fd5b611deb611d9a565b807fb413d65cb88f23816c329284a0d3eb15a99df7963ab7402ade4c5da22bff6b005b80546001600160a01b0319166001600160a01b039290921691909117905550565b806001600160a01b03163b5f03611e6457604051634c9c8ce360e01b81526001600160a01b03821660048201526024016113a8565b805f5160206125ca5f395f51905f52611e0e565b60605f5f846001600160a01b031684604051611e949190612573565b5f60405180830381855af49150503d805f8114611ecc576040519150601f19603f3d011682016040523d82523d5f602084013e611ed1565b606091505b5091509150611ee1858383611f09565b95945050505050565b3415611b6b5760405163b398979f60e01b815260040160405180910390fd5b606082611f1e57611f1982611f68565b611f61565b8151158015611f3557506001600160a01b0384163b155b15611f5e57604051639996b31560e01b81526001600160a01b03851660048201526024016113a8565b50805b9392505050565b805115611f785780518082602001fd5b60405163d6bda27560e01b815260040160405180910390fd5b6001600160a01b0381168114611c8d575f5ffd5b5f5f60408385031215611fb6575f5ffd5b8235611fc181611f91565b91506020830135611fd181611f91565b809150509250929050565b5f60208284031215611fec575f5ffd5b8135611f6181611f91565b65ffffffffffff81168114611c8d575f5ffd5b5f5f5f5f6080858703121561201d575f5ffd5b843561202881611f91565b9350602085013561203881611f91565b925060408501359150606085013561204f81611ff7565b939692955090935050565b5f5f5f5f5f60a0868803121561206e575f5ffd5b853561207981611f91565b9450602086013561208981611f91565b9350604086013561209981611f91565b925060608601356120a981611f91565b915060808601356120b981611ff7565b809150509295509295909350565b5f602082840312156120d7575f5ffd5b5035919050565b634e487b7160e01b5f52604160045260245ffd5b5f5f60408385031215612103575f5ffd5b823561210e81611f91565b9150602083013567ffffffffffffffff811115612129575f5ffd5b8301601f81018513612139575f5ffd5b803567ffffffffffffffff811115612153576121536120de565b604051601f8201601f19908116603f0116810167ffffffffffffffff81118282101715612182576121826120de565b604052818152828201602001871015612199575f5ffd5b816020840160208301375f602083830101528093505050509250929050565b5f5f604083850312156121c9575f5ffd5b82356121d481611f91565b91506020830135611fd181611ff7565b5f81518084528060208401602086015e5f602082860101526020601f19601f83011685010191505092915050565b602081525f611f6160208301846121e4565b5f5f5f5f5f5f60c08789031215612239575f5ffd5b863561224481611f91565b9550602087013561225481611f91565b9450604087013561226481611f91565b9350606087013561227481611f91565b9250608087013561228481611ff7565b9598949750929591949360a090920135925050565b634e487b7160e01b5f52601160045260245ffd5b80820281158282048414176104d7576104d7612299565b5f826122de57634e487b7160e01b5f52601260045260245ffd5b500490565b808201808211156104d7576104d7612299565b5f60208284031215612306575f5ffd5b8151611f6181611f91565b85815260018060a01b038516602082015283604082015265ffffffffffff8316606082015260a060808201525f61234b60a08301846121e4565b979650505050505050565b5f60208284031215612366575f5ffd5b5051919050565b6001815b60018411156123a85780850481111561238c5761238c612299565b600184161561239a57908102905b60019390931c928002612371565b935093915050565b5f826123be575060016104d7565b816123ca57505f6104d7565b81600181146123e057600281146123ea57612406565b60019150506104d7565b60ff8411156123fb576123fb612299565b50506001821b6104d7565b5060208310610133831016604e8410600b8410161715612429575081810a6104d7565b6124355f19848461236d565b805f190482111561244857612448612299565b029392505050565b5f611f6160ff8416836123b0565b818103818111156104d7576104d7612299565b6001600160a01b03858116825284166020820152604081018390526080606082018190525f90611d3b908301846121e4565b5f602082840312156124b3575f5ffd5b81518015158114611f61575f5ffd5b5f602082840312156124d2575f5ffd5b8151611f6181611ff7565b5f602082840312156124ed575f5ffd5b815167ffffffffffffffff81168114611f61575f5ffd5b5f5f60408385031215612515575f5ffd5b825161252081611f91565b6020840151909250611fd181611ff7565b5f60208284031215612541575f5ffd5b815160ff81168114611f61575f5ffd5b5f5f60408385031215612562575f5ffd5b505080516020909101519092909150565b5f82518060208501845e5f92019182525091905056feb8e099bfced582503f4260023771d11f60bb84aadc54b7d0da79ce0abbf0e800b8e099bfced582503f4260023771d11f60bb84aadc54b7d0da79ce0abbf0e805360894a13ba1a3210667c828492db98dca3e2076cc3735a920a3ca505d382bbca26469706673582212200feca6379dab7fb8c7ed27860740682645919d2864630081688b18ea7dccedd864736f6c634300081c0033","linkReferences":{}},"methodIdentifiers":{"UPGRADE_INTERFACE_VERSION()":"ad3cb1cc","coverage(address)":"33024430","coverageByVault(address,address,address,address,uint48)":"366d1cf9","distributeRewards(address,address)":"3d11c00d","initialize(address,address,address,address,uint48,uint256)":"c2f348da","proxiableUUID()":"52d1902d","registerAgent(address,address)":"677321da","registerVault(address,address)":"05c4fdf9","setFeeAllowed(uint256)":"4cfb842b","slash(address,address,uint256,uint48)":"32cfdfbf","slashableCollateral(address,uint48)":"814813c1","slashableCollateralByVault(address,address,address,address,uint48)":"8c01df1f","subnetwork(address)":"0f42c1c1","subnetworkIdentifier(address)":"512d05c9","upgradeToAndCall(address,bytes)":"4f1ef286","vaults(address)":"a622ee7c"},"id":4}