{"abi":[{"type":"constructor","inputs":[],"stateMutability":"nonpayable"},{"type":"function","name":"UPGRADE_INTERFACE_VERSION","inputs":[],"outputs":[{"name":"","type":"string","internalType":"string"}],"stateMutability":"view"},{"type":"function","name":"addAgent","inputs":[{"name":"_agent","type":"address","internalType":"address"},{"name":"_network","type":"address","internalType":"address"},{"name":"_ltv","type":"uint256","internalType":"uint256"},{"name":"_liquidationThreshold","type":"uint256","internalType":"uint256"}],"outputs":[],"stateMutability":"nonpayable"},{"type":"function","name":"agents","inputs":[],"outputs":[{"name":"agentAddresses","type":"address[]","internalType":"address[]"}],"stateMutability":"view"},{"type":"function","name":"coverage","inputs":[{"name":"_agent","type":"address","internalType":"address"}],"outputs":[{"name":"delegation","type":"uint256","internalType":"uint256"}],"stateMutability":"view"},{"type":"function","name":"distributeRewards","inputs":[{"name":"_agent","type":"address","internalType":"address"},{"name":"_asset","type":"address","internalType":"address"}],"outputs":[],"stateMutability":"nonpayable"},{"type":"function","name":"epoch","inputs":[],"outputs":[{"name":"currentEpoch","type":"uint256","internalType":"uint256"}],"stateMutability":"view"},{"type":"function","name":"epochDuration","inputs":[],"outputs":[{"name":"duration","type":"uint256","internalType":"uint256"}],"stateMutability":"view"},{"type":"function","name":"initialize","inputs":[{"name":"_accessControl","type":"address","internalType":"address"},{"name":"_oracle","type":"address","internalType":"address"},{"name":"_epochDuration","type":"uint256","internalType":"uint256"}],"outputs":[],"stateMutability":"nonpayable"},{"type":"function","name":"liquidationThreshold","inputs":[{"name":"_agent","type":"address","internalType":"address"}],"outputs":[{"name":"lt","type":"uint256","internalType":"uint256"}],"stateMutability":"view"},{"type":"function","name":"ltv","inputs":[{"name":"_agent","type":"address","internalType":"address"}],"outputs":[{"name":"currentLtv","type":"uint256","internalType":"uint256"}],"stateMutability":"view"},{"type":"function","name":"ltvBuffer","inputs":[],"outputs":[{"name":"buffer","type":"uint256","internalType":"uint256"}],"stateMutability":"view"},{"type":"function","name":"modifyAgent","inputs":[{"name":"_agent","type":"address","internalType":"address"},{"name":"_ltv","type":"uint256","internalType":"uint256"},{"name":"_liquidationThreshold","type":"uint256","internalType":"uint256"}],"outputs":[],"stateMutability":"nonpayable"},{"type":"function","name":"networkExists","inputs":[{"name":"_network","type":"address","internalType":"address"}],"outputs":[{"name":"","type":"bool","internalType":"bool"}],"stateMutability":"view"},{"type":"function","name":"networks","inputs":[{"name":"_agent","type":"address","internalType":"address"}],"outputs":[{"name":"networkAddress","type":"address","internalType":"address"}],"stateMutability":"view"},{"type":"function","name":"proxiableUUID","inputs":[],"outputs":[{"name":"","type":"bytes32","internalType":"bytes32"}],"stateMutability":"view"},{"type":"function","name":"registerNetwork","inputs":[{"name":"_network","type":"address","internalType":"address"}],"outputs":[],"stateMutability":"nonpayable"},{"type":"function","name":"setLastBorrow","inputs":[{"name":"_agent","type":"address","internalType":"address"}],"outputs":[],"stateMutability":"nonpayable"},{"type":"function","name":"setLtvBuffer","inputs":[{"name":"_ltvBuffer","type":"uint256","internalType":"uint256"}],"outputs":[],"stateMutability":"nonpayable"},{"type":"function","name":"slash","inputs":[{"name":"_agent","type":"address","internalType":"address"},{"name":"_liquidator","type":"address","internalType":"address"},{"name":"_amount","type":"uint256","internalType":"uint256"}],"outputs":[],"stateMutability":"nonpayable"},{"type":"function","name":"slashTimestamp","inputs":[{"name":"_agent","type":"address","internalType":"address"}],"outputs":[{"name":"_slashTimestamp","type":"uint48","internalType":"uint48"}],"stateMutability":"view"},{"type":"function","name":"slashableCollateral","inputs":[{"name":"_agent","type":"address","internalType":"address"}],"outputs":[{"name":"_slashableCollateral","type":"uint256","internalType":"uint256"}],"stateMutability":"view"},{"type":"function","name":"upgradeToAndCall","inputs":[{"name":"newImplementation","type":"address","internalType":"address"},{"name":"data","type":"bytes","internalType":"bytes"}],"outputs":[],"stateMutability":"payable"},{"type":"event","name":"AddAgent","inputs":[{"name":"agent","type":"address","indexed":false,"internalType":"address"},{"name":"network","type":"address","indexed":false,"internalType":"address"},{"name":"ltv","type":"uint256","indexed":false,"internalType":"uint256"},{"name":"liquidationThreshold","type":"uint256","indexed":false,"internalType":"uint256"}],"anonymous":false},{"type":"event","name":"DistributeReward","inputs":[{"name":"agent","type":"address","indexed":false,"internalType":"address"},{"name":"asset","type":"address","indexed":false,"internalType":"address"},{"name":"amount","type":"uint256","indexed":false,"internalType":"uint256"}],"anonymous":false},{"type":"event","name":"Initialized","inputs":[{"name":"version","type":"uint64","indexed":false,"internalType":"uint64"}],"anonymous":false},{"type":"event","name":"ModifyAgent","inputs":[{"name":"agent","type":"address","indexed":false,"internalType":"address"},{"name":"ltv","type":"uint256","indexed":false,"internalType":"uint256"},{"name":"liquidationThreshold","type":"uint256","indexed":false,"internalType":"uint256"}],"anonymous":false},{"type":"event","name":"RegisterNetwork","inputs":[{"name":"network","type":"address","indexed":false,"internalType":"address"}],"anonymous":false},{"type":"event","name":"SetLtvBuffer","inputs":[{"name":"ltvBuffer","type":"uint256","indexed":false,"internalType":"uint256"}],"anonymous":false},{"type":"event","name":"SlashNetwork","inputs":[{"name":"network","type":"address","indexed":false,"internalType":"address"},{"name":"slashShare","type":"uint256","indexed":false,"internalType":"uint256"}],"anonymous":false},{"type":"event","name":"Upgraded","inputs":[{"name":"implementation","type":"address","indexed":true,"internalType":"address"}],"anonymous":false},{"type":"error","name":"AccessDenied","inputs":[]},{"type":"error","name":"AddressEmptyCode","inputs":[{"name":"target","type":"address","internalType":"address"}]},{"type":"error","name":"AgentDoesNotExist","inputs":[]},{"type":"error","name":"DuplicateAgent","inputs":[]},{"type":"error","name":"DuplicateNetwork","inputs":[]},{"type":"error","name":"ERC1967InvalidImplementation","inputs":[{"name":"implementation","type":"address","internalType":"address"}]},{"type":"error","name":"ERC1967NonPayable","inputs":[]},{"type":"error","name":"FailedCall","inputs":[]},{"type":"error","name":"InvalidInitialization","inputs":[]},{"type":"error","name":"InvalidLiquidationThreshold","inputs":[]},{"type":"error","name":"InvalidLtvBuffer","inputs":[]},{"type":"error","name":"InvalidNetwork","inputs":[]},{"type":"error","name":"LiquidationThresholdTooCloseToLtv","inputs":[]},{"type":"error","name":"NetworkAlreadyRegistered","inputs":[]},{"type":"error","name":"NetworkDoesntExist","inputs":[]},{"type":"error","name":"NoSlashableCollateral","inputs":[]},{"type":"error","name":"NotInitializing","inputs":[]},{"type":"error","name":"SafeERC20FailedOperation","inputs":[{"name":"token","type":"address","internalType":"address"}]},{"type":"error","name":"UUPSUnauthorizedCallContext","inputs":[]},{"type":"error","name":"UUPSUnsupportedProxiableUUID","inputs":[{"name":"slot","type":"bytes32","internalType":"bytes32"}]}],"bytecode":{"object":"0x60a060405230608052348015610013575f5ffd5b5061001c610021565b6100d3565b7ff0c57e16840df040f15088dc2f81fe391c3923bec73e23a9662efc9c229c6a00805468010000000000000000900460ff16156100715760405163f92ee8a960e01b815260040160405180910390fd5b80546001600160401b03908116146100d05780546001600160401b0319166001600160401b0390811782556040519081527fc7f505b2f371ae2175ee4913f4499e1f2633a7b5936321eed1cdaeb6115181d29060200160405180910390a15b50565b608051611a2f6100f95f395f81816111630152818161118c01526112d20152611a2f5ff3fe608060405260043610610131575f3560e01c80637473eea6116100a8578063b1732b251161006d578063b1732b2514610354578063b5e2efd214610373578063cbf82b6b146103aa578063e74f8239146103be578063ec913f6e146103dd578063f01391e3146103fc575f5ffd5b80637473eea61461028f5780637c27951c146102ae578063900cf0cf146102e45780639d4193d0146102f8578063ad3cb1cc14610317575f5ffd5b80633d11c00d116100f95780633d11c00d146101e55780633e316460146102045780634f1ef286146102335780634ff0876a1461024657806352d1902d1461025a578063585166611461026e575f5ffd5b806301fdc8711461013557806316405eba146101565780631794bb3c14610175578063184aa7231461019457806333024430146101b3575b5f5ffd5b348015610140575f5ffd5b5061015461014f36600461169d565b61041b565b005b348015610161575f5ffd5b506101546101703660046116b6565b61045b565b348015610180575f5ffd5b5061015461018f3660046116cd565b6104f3565b34801561019f575f5ffd5b506101546101ae36600461169d565b61064b565b3480156101be575f5ffd5b506101d26101cd36600461169d565b6106f9565b6040519081526020015b60405180910390f35b3480156101f0575f5ffd5b506101546101ff366004611707565b6107a4565b34801561020f575f5ffd5b5061022361021e36600461169d565b610912565b60405190151581526020016101dc565b61015461024136600461174c565b61092e565b348015610251575f5ffd5b506101d261094d565b348015610265575f5ffd5b506101d2610961565b348015610279575f5ffd5b5061028261097c565b6040516101dc9190611810565b34801561029a575f5ffd5b506101d26102a936600461169d565b610993565b3480156102b9575f5ffd5b506102cd6102c836600461169d565b6109c0565b60405165ffffffffffff90911681526020016101dc565b3480156102ef575f5ffd5b506101d2610a39565b348015610303575f5ffd5b5061015461031236600461185b565b610a5b565b348015610322575f5ffd5b50610347604051806040016040528060058152602001640352e302e360dc1b81525081565b6040516101dc919061188b565b34801561035f575f5ffd5b506101d261036e36600461169d565b610b72565b34801561037e575f5ffd5b5061039261038d36600461169d565b610b9f565b6040516001600160a01b0390911681526020016101dc565b3480156103b5575f5ffd5b506101d2610bcd565b3480156103c9575f5ffd5b506101546103d83660046116cd565b610bdf565b3480156103e8575f5ffd5b506101546103f73660046118c0565b610db4565b348015610407575f5ffd5b506101d261041636600461169d565b610f09565b6301fdc87160e01b61042c81610fb4565b5f610435611074565b6001600160a01b039093165f908152600290930160205250506040902042600390910155565b630b202f5d60e11b61046c81610fb4565b6b033b2e3c9fd0803ce800000082118061049157506a084595161401484a0000008211155b156104af57604051636c1780e160e01b815260040160405180910390fd5b816104b8611074565b600701556040518281527fe313d43304ec07415da130b976360c52d0958c4548501de596b641d45affdb069060200160405180910390a15050565b7ff0c57e16840df040f15088dc2f81fe391c3923bec73e23a9662efc9c229c6a008054600160401b810460ff16159067ffffffffffffffff165f811580156105385750825b90505f8267ffffffffffffffff1660011480156105545750303b155b905081158015610562575080155b156105805760405163f92ee8a960e01b815260040160405180910390fd5b845467ffffffffffffffff1916600117855583156105aa57845460ff60401b1916600160401b1785555b6105b388611098565b6105bb6110ac565b5f6105c4611074565b6005810180546001600160a01b0319166001600160a01b038b16179055600681018890556a295be96e6406697200000060079091015550831561064157845460ff60401b19168555604051600181527fc7f505b2f371ae2175ee4913f4499e1f2633a7b5936321eed1cdaeb6115181d29060200160405180910390a15b5050505050505050565b63184aa72360e01b61065c81610fb4565b5f610665611074565b90506001600160a01b03831661068e576040516386eab41b60e01b815260040160405180910390fd5b61069b60038201846110b6565b6106b857604051630daf367960e31b815260040160405180910390fd5b6040516001600160a01b03841681527f432e17991659e61329de143fa96def1d8c7628735b000eb23dc2405e255b5b049060200160405180910390a1505050565b5f5f610703611074565b90505f61070f84610f09565b6001600160a01b038581165f818152600286016020526040808220549051630330244360e41b815260048101939093529394509290911690633302443090602401602060405180830381865afa15801561076b573d5f5f3e3d5ffd5b505050506040513d601f19601f8201168201806040525081019061078f91906118ff565b905061079b82826110d1565b95945050505050565b5f6107ad611074565b6040516370a0823160e01b81523060048201529091505f906001600160a01b038416906370a0823190602401602060405180830381865afa1580156107f4573d5f5f3e3d5ffd5b505050506040513d601f19601f8201168201806040525081019061081891906118ff565b90505f610824856106f9565b9050805f03610834575050505050565b6001600160a01b038086165f90815260028501602052604090205481169061085f90861682856110e0565b604051633d11c00d60e01b81526001600160a01b0387811660048301528681166024830152821690633d11c00d906044015f604051808303815f87803b1580156108a7575f5ffd5b505af11580156108b9573d5f5f3e3d5ffd5b5050604080516001600160a01b03808b168252891660208201529081018690527f4fa9693cae526341d334e2862ca2413b2e503f1266255f9e0869fb36e6d89b17925060600190505b60405180910390a1505050505050565b5f6109288261091f611074565b60030190611137565b92915050565b610936611158565b61093f826111fc565b6109498282611206565b5050565b5f5f610957611074565b6006015492915050565b5f61096a6112c7565b505f5160206119da5f395f51905f5290565b606061098e610989611074565b611310565b905090565b5f61099c611074565b6001600160a01b039092165f90815260029290920160205250604090206001015490565b5f5f6109ca611074565b9050610a14816006015460016109de610a39565b6109e8919061192a565b6109f2919061193d565b6001600160a01b0385165f90815260028401602052604090206003015461131c565b9150428265ffffffffffff1603610a3357610a30600183611954565b91505b50919050565b5f5f610a43611074565b9050806006015442610a559190611972565b91505090565b6309d4193d60e41b610a6c81610fb4565b5f610a75611074565b90506b033b2e3c9fd0803ce8000000831115610aa35760405162f9474b60e61b815260040160405180910390fd5b8315801590610abf57506007810154610abc9085611991565b83105b15610add5760405163334e665960e01b815260040160405180910390fd5b610ae78186611137565b610b045760405163d3227c9b60e01b815260040160405180910390fd5b6001600160a01b0385165f81815260028381016020908152604092839020600181018990559091018690558151928352820186905281018490527f3c915d4a6d4b9b388df3ad6b3d54bff5e2464bbcd7277c92403755a5456660379060600160405180910390a15050505050565b5f610b7b611074565b6001600160a01b039092165f90815260029283016020526040902090910154919050565b5f610ba8611074565b6001600160a01b039283165f9081526002919091016020526040902054909116919050565b5f610bd6611074565b60070154905090565b63e74f823960e01b610bf081610fb4565b5f610bf9611074565b90505f610c05866109c0565b6001600160a01b038781165f81815260028601602052604080822054905163814813c160e01b8152600481019390935265ffffffffffff85166024840152939450929091169190829063814813c190604401602060405180830381865afa158015610c72573d5f5f3e3d5ffd5b505050506040513d601f19601f82011682018060405250810190610c9691906118ff565b9050805f03610cb857604051633270bd9560e21b815260040160405180910390fd5b5f81610ccc88670de0b6b3a764000061193d565b610cd69190611972565b9050670de0b6b3a7640000811115610cf35750670de0b6b3a76400005b6040516332cfdfbf60e01b81526001600160a01b038a8116600483015289811660248301526044820183905265ffffffffffff861660648301528416906332cfdfbf906084015f604051808303815f87803b158015610d50575f5ffd5b505af1158015610d62573d5f5f3e3d5ffd5b5050604080516001600160a01b0387168152602081018b90527f8b9aa548370653100f0db8fa686a6765f27dc2bea15c0d4f086a0c7b45789208935001905060405180910390a1505050505050505050565b6376489fb760e11b610dc581610fb4565b5f610dce611074565b90506b033b2e3c9fd0803ce8000000831115610dfc5760405162f9474b60e61b815260040160405180910390fd5b8315801590610e1857506007810154610e159085611991565b83105b15610e365760405163334e665960e01b815260040160405180910390fd5b610e436003820186611137565b610e6057604051630dd8700160e01b815260040160405180910390fd5b610e6a81876110b6565b610e8757604051635dc55b7960e11b815260040160405180910390fd5b6001600160a01b038681165f8181526002848101602090815260409283902080546001600160a01b031916958b169586178155600181018a90559091018790558151928352820192909252908101859052606081018490527ff09bbc524f2a69317c10cd96d69476f4fc87d19f290cba278613f4cca044d52490608001610902565b5f5f610f13611074565b90505f610f1f846109c0565b6001600160a01b038581165f8181526002860160205260409081902054905163814813c160e01b8152600481019290925265ffffffffffff8416602483015292935091169063814813c190604401602060405180830381865afa158015610f88573d5f5f3e3d5ffd5b505050506040513d601f19601f82011682018060405250810190610fac91906118ff565b949350505050565b5f7fb413d65cb88f23816c329284a0d3eb15a99df7963ab7402ade4c5da22bff6b0054604051633657648360e21b81526001600160e01b0319841660048201523060248201523360448201526001600160a01b039091169063d95d920c90606401602060405180830381865afa158015611030573d5f5f3e3d5ffd5b505050506040513d601f19601f8201168201806040525081019061105491906119a4565b90508061094957604051634ca8886760e01b815260040160405180910390fd5b7f54b6f5557fb44acf280f59f684357ef1d216e247bba38a36a74ec93b2377e20090565b6110a061132b565b6110a981611374565b50565b6110b461132b565b565b5f6110ca836001600160a01b0384166113c0565b9392505050565b5f8282188284100282186110ca565b604080516001600160a01b038416602482015260448082018490528251808303909101815260649091019091526020810180516001600160e01b031663a9059cbb60e01b17905261113290849061140c565b505050565b6001600160a01b0381165f90815260018301602052604081205415156110ca565b306001600160a01b037f00000000000000000000000000000000000000000000000000000000000000001614806111de57507f00000000000000000000000000000000000000000000000000000000000000006001600160a01b03166111d25f5160206119da5f395f51905f52546001600160a01b031690565b6001600160a01b031614155b156110b45760405163703e46dd60e11b815260040160405180910390fd5b5f61094981610fb4565b816001600160a01b03166352d1902d6040518163ffffffff1660e01b8152600401602060405180830381865afa925050508015611260575060408051601f3d908101601f1916820190925261125d918101906118ff565b60015b61128d57604051634c9c8ce360e01b81526001600160a01b03831660048201526024015b60405180910390fd5b5f5160206119da5f395f51905f5281146112bd57604051632a87526960e21b815260048101829052602401611284565b611132838361147e565b306001600160a01b037f000000000000000000000000000000000000000000000000000000000000000016146110b45760405163703e46dd60e11b815260040160405180910390fd5b60605f6110ca836114d3565b5f8282188284110282186110ca565b7ff0c57e16840df040f15088dc2f81fe391c3923bec73e23a9662efc9c229c6a0054600160401b900460ff166110b457604051631afcd79f60e31b815260040160405180910390fd5b61137c61132b565b807fb413d65cb88f23816c329284a0d3eb15a99df7963ab7402ade4c5da22bff6b005b80546001600160a01b0319166001600160a01b039290921691909117905550565b5f81815260018301602052604081205461140557508154600181810184555f848152602080822090930184905584548482528286019093526040902091909155610928565b505f610928565b5f5f60205f8451602086015f885af18061142b576040513d5f823e3d81fd5b50505f513d9150811561144257806001141561144f565b6001600160a01b0384163b155b1561147857604051635274afe760e01b81526001600160a01b0385166004820152602401611284565b50505050565b6114878261152c565b6040516001600160a01b038316907fbc7cd75a20ee27fd9adebab32041f755214dbc6bffa90cc0225b39da2e5c2d3b905f90a28051156114cb576111328282611575565b6109496115de565b6060815f0180548060200260200160405190810160405280929190818152602001828054801561152057602002820191905f5260205f20905b81548152602001906001019080831161150c575b50505050509050919050565b806001600160a01b03163b5f0361156157604051634c9c8ce360e01b81526001600160a01b0382166004820152602401611284565b805f5160206119da5f395f51905f5261139f565b60605f5f846001600160a01b03168460405161159191906119c3565b5f60405180830381855af49150503d805f81146115c9576040519150601f19603f3d011682016040523d82523d5f602084013e6115ce565b606091505b509150915061079b8583836115fd565b34156110b45760405163b398979f60e01b815260040160405180910390fd5b6060826116125761160d82611659565b6110ca565b815115801561162957506001600160a01b0384163b155b1561165257604051639996b31560e01b81526001600160a01b0385166004820152602401611284565b50806110ca565b8051156116695780518082602001fd5b60405163d6bda27560e01b815260040160405180910390fd5b80356001600160a01b0381168114611698575f5ffd5b919050565b5f602082840312156116ad575f5ffd5b6110ca82611682565b5f602082840312156116c6575f5ffd5b5035919050565b5f5f5f606084860312156116df575f5ffd5b6116e884611682565b92506116f660208501611682565b929592945050506040919091013590565b5f5f60408385031215611718575f5ffd5b61172183611682565b915061172f60208401611682565b90509250929050565b634e487b7160e01b5f52604160045260245ffd5b5f5f6040838503121561175d575f5ffd5b61176683611682565b9150602083013567ffffffffffffffff811115611781575f5ffd5b8301601f81018513611791575f5ffd5b803567ffffffffffffffff8111156117ab576117ab611738565b604051601f8201601f19908116603f0116810167ffffffffffffffff811182821017156117da576117da611738565b6040528181528282016020018710156117f1575f5ffd5b816020840160208301375f602083830101528093505050509250929050565b602080825282518282018190525f918401906040840190835b818110156118505783516001600160a01b0316835260209384019390920191600101611829565b509095945050505050565b5f5f5f6060848603121561186d575f5ffd5b61187684611682565b95602085013595506040909401359392505050565b602081525f82518060208401528060208501604085015e5f604082850101526040601f19601f83011684010191505092915050565b5f5f5f5f608085870312156118d3575f5ffd5b6118dc85611682565b93506118ea60208601611682565b93969395505050506040820135916060013590565b5f6020828403121561190f575f5ffd5b5051919050565b634e487b7160e01b5f52601160045260245ffd5b8181038181111561092857610928611916565b808202811582820484141761092857610928611916565b65ffffffffffff828116828216039081111561092857610928611916565b5f8261198c57634e487b7160e01b5f52601260045260245ffd5b500490565b8082018082111561092857610928611916565b5f602082840312156119b4575f5ffd5b815180151581146110ca575f5ffd5b5f82518060208501845e5f92019182525091905056fe360894a13ba1a3210667c828492db98dca3e2076cc3735a920a3ca505d382bbca2646970667358221220f4a11b0db7679fc14b1999699bf26beb7c414008cac827f17b1ee4cf7c980c3564736f6c634300081c0033","linkReferences":{}},"methodIdentifiers":{"UPGRADE_INTERFACE_VERSION()":"ad3cb1cc","addAgent(address,address,uint256,uint256)":"ec913f6e","agents()":"58516661","coverage(address)":"33024430","distributeRewards(address,address)":"3d11c00d","epoch()":"900cf0cf","epochDuration()":"4ff0876a","initialize(address,address,uint256)":"1794bb3c","liquidationThreshold(address)":"b1732b25","ltv(address)":"7473eea6","ltvBuffer()":"cbf82b6b","modifyAgent(address,uint256,uint256)":"9d4193d0","networkExists(address)":"3e316460","networks(address)":"b5e2efd2","proxiableUUID()":"52d1902d","registerNetwork(address)":"184aa723","setLastBorrow(address)":"01fdc871","setLtvBuffer(uint256)":"16405eba","slash(address,address,uint256)":"e74f8239","slashTimestamp(address)":"7c27951c","slashableCollateral(address)":"f01391e3","upgradeToAndCall(address,bytes)":"4f1ef286"},"id":2}