{"abi":[{"type":"constructor","inputs":[],"stateMutability":"nonpayable"},{"type":"function","name":"UPGRADE_INTERFACE_VERSION","inputs":[],"outputs":[{"name":"","type":"string","internalType":"string"}],"stateMutability":"view"},{"type":"function","name":"initialize","inputs":[{"name":"_accessControl","type":"address","internalType":"address"},{"name":"_networkRegistry","type":"address","internalType":"address"}],"outputs":[],"stateMutability":"nonpayable"},{"type":"function","name":"proxiableUUID","inputs":[],"outputs":[{"name":"","type":"bytes32","internalType":"bytes32"}],"stateMutability":"view"},{"type":"function","name":"registerMiddleware","inputs":[{"name":"_middleware","type":"address","internalType":"address"},{"name":"_middlewareService","type":"address","internalType":"address"}],"outputs":[],"stateMutability":"nonpayable"},{"type":"function","name":"registerVault","inputs":[{"name":"_vault","type":"address","internalType":"address"},{"name":"_agent","type":"address","internalType":"address"}],"outputs":[],"stateMutability":"nonpayable"},{"type":"function","name":"upgradeToAndCall","inputs":[{"name":"newImplementation","type":"address","internalType":"address"},{"name":"data","type":"bytes","internalType":"bytes"}],"outputs":[],"stateMutability":"payable"},{"type":"event","name":"Initialized","inputs":[{"name":"version","type":"uint64","indexed":false,"internalType":"uint64"}],"anonymous":false},{"type":"event","name":"Upgraded","inputs":[{"name":"implementation","type":"address","indexed":true,"internalType":"address"}],"anonymous":false},{"type":"error","name":"AccessDenied","inputs":[]},{"type":"error","name":"AddressEmptyCode","inputs":[{"name":"target","type":"address","internalType":"address"}]},{"type":"error","name":"ERC1967InvalidImplementation","inputs":[{"name":"implementation","type":"address","internalType":"address"}]},{"type":"error","name":"ERC1967NonPayable","inputs":[]},{"type":"error","name":"FailedCall","inputs":[]},{"type":"error","name":"InvalidInitialization","inputs":[]},{"type":"error","name":"NotInitializing","inputs":[]},{"type":"error","name":"UUPSUnauthorizedCallContext","inputs":[]},{"type":"error","name":"UUPSUnsupportedProxiableUUID","inputs":[{"name":"slot","type":"bytes32","internalType":"bytes32"}]}],"bytecode":{"object":"0x60a060405230608052348015610013575f5ffd5b5061001c610021565b6100d3565b7ff0c57e16840df040f15088dc2f81fe391c3923bec73e23a9662efc9c229c6a00805468010000000000000000900460ff16156100715760405163f92ee8a960e01b815260040160405180910390fd5b80546001600160401b03908116146100d05780546001600160401b0319166001600160401b0390811782556040519081527fc7f505b2f371ae2175ee4913f4499e1f2633a7b5936321eed1cdaeb6115181d29060200160405180910390a15b50565b608051610bf26100f95f395f81816105b0015281816105d901526107260152610bf25ff3fe608060405260043610610054575f3560e01c806305c4fdf914610058578063485cc955146100795780634f1ef2861461009857806352d1902d146100ab5780637d3afcc4146100d2578063ad3cb1cc146100f1575b5f5ffd5b348015610063575f5ffd5b506100776100723660046109c4565b61012e565b005b348015610084575f5ffd5b506100776100933660046109c4565b6102a2565b6100776100a6366004610a0f565b6103ff565b3480156100b6575f5ffd5b506100bf61041e565b6040519081526020015b60405180910390f35b3480156100dd575f5ffd5b506100776100ec3660046109c4565b610439565b3480156100fc575f5ffd5b50610121604051806040016040528060058152602001640352e302e360dc1b81525081565b6040516100c99190610ad5565b6305c4fdf960e01b61013f816104d1565b5f836001600160a01b031663ce9b79306040518163ffffffff1660e01b8152600401602060405180830381865afa15801561017c573d5f5f3e3d5ffd5b505050506040513d601f19601f820116820180604052508101906101a09190610b0a565b90506001600160a01b0381166323f752d57fec23e17a5ca56acc6967467b8c4a73cf6149bcd343f3f3cbe7c4e19c4d822b005460405163512d05c960e01b81526001600160a01b0387811660048301529091169063512d05c990602401602060405180830381865afa158015610218573d5f5f3e3d5ffd5b505050506040513d601f19601f8201168201806040525081019061023c9190610b25565b6040516001600160e01b031960e084901b1681526bffffffffffffffffffffffff90911660048201525f1960248201526044015f604051808303815f87803b158015610286575f5ffd5b505af1158015610298573d5f5f3e3d5ffd5b5050505050505050565b7ff0c57e16840df040f15088dc2f81fe391c3923bec73e23a9662efc9c229c6a008054600160401b810460ff16159067ffffffffffffffff165f811580156102e75750825b90505f8267ffffffffffffffff1660011480156103035750303b155b905081158015610311575080155b1561032f5760405163f92ee8a960e01b815260040160405180910390fd5b845467ffffffffffffffff19166001178555831561035957845460ff60401b1916600160401b1785555b61036287610591565b856001600160a01b03166387140b5b6040518163ffffffff1660e01b81526004015f604051808303815f87803b15801561039a575f5ffd5b505af11580156103ac573d5f5f3e3d5ffd5b5050505083156103f657845460ff60401b19168555604051600181527fc7f505b2f371ae2175ee4913f4499e1f2633a7b5936321eed1cdaeb6115181d29060200160405180910390a15b50505050505050565b6104076105a5565b6104108261064b565b61041a8282610655565b5050565b5f61042761071b565b505f516020610b9d5f395f51905f5290565b631f4ebf3160e21b61044a816104d1565b827fec23e17a5ca56acc6967467b8c4a73cf6149bcd343f3f3cbe7c4e19c4d822b0080546001600160a01b0319166001600160a01b0392831617905560405163b7d8e1a960e01b815284821660048201529083169063b7d8e1a9906024015f604051808303815f87803b1580156104bf575f5ffd5b505af11580156103f6573d5f5f3e3d5ffd5b5f7fb413d65cb88f23816c329284a0d3eb15a99df7963ab7402ade4c5da22bff6b0054604051633657648360e21b81526001600160e01b0319841660048201523060248201523360448201526001600160a01b039091169063d95d920c90606401602060405180830381865afa15801561054d573d5f5f3e3d5ffd5b505050506040513d601f19601f820116820180604052508101906105719190610b50565b90508061041a57604051634ca8886760e01b815260040160405180910390fd5b610599610764565b6105a2816107ad565b50565b306001600160a01b037f000000000000000000000000000000000000000000000000000000000000000016148061062b57507f00000000000000000000000000000000000000000000000000000000000000006001600160a01b031661061f5f516020610b9d5f395f51905f52546001600160a01b031690565b6001600160a01b031614155b156106495760405163703e46dd60e11b815260040160405180910390fd5b565b5f61041a816104d1565b816001600160a01b03166352d1902d6040518163ffffffff1660e01b8152600401602060405180830381865afa9250505080156106af575060408051601f3d908101601f191682019092526106ac91810190610b6f565b60015b6106dc57604051634c9c8ce360e01b81526001600160a01b03831660048201526024015b60405180910390fd5b5f516020610b9d5f395f51905f52811461070c57604051632a87526960e21b8152600481018290526024016106d3565b61071683836107f9565b505050565b306001600160a01b037f000000000000000000000000000000000000000000000000000000000000000016146106495760405163703e46dd60e11b815260040160405180910390fd5b7ff0c57e16840df040f15088dc2f81fe391c3923bec73e23a9662efc9c229c6a0054600160401b900460ff1661064957604051631afcd79f60e31b815260040160405180910390fd5b6107b5610764565b807fb413d65cb88f23816c329284a0d3eb15a99df7963ab7402ade4c5da22bff6b005b80546001600160a01b0319166001600160a01b039290921691909117905550565b6108028261084e565b6040516001600160a01b038316907fbc7cd75a20ee27fd9adebab32041f755214dbc6bffa90cc0225b39da2e5c2d3b905f90a2805115610846576107168282610897565b61041a610909565b806001600160a01b03163b5f0361088357604051634c9c8ce360e01b81526001600160a01b03821660048201526024016106d3565b805f516020610b9d5f395f51905f526107d8565b60605f5f846001600160a01b0316846040516108b39190610b86565b5f60405180830381855af49150503d805f81146108eb576040519150601f19603f3d011682016040523d82523d5f602084013e6108f0565b606091505b5091509150610900858383610928565b95945050505050565b34156106495760405163b398979f60e01b815260040160405180910390fd5b60608261093d5761093882610987565b610980565b815115801561095457506001600160a01b0384163b155b1561097d57604051639996b31560e01b81526001600160a01b03851660048201526024016106d3565b50805b9392505050565b8051156109975780518082602001fd5b60405163d6bda27560e01b815260040160405180910390fd5b6001600160a01b03811681146105a2575f5ffd5b5f5f604083850312156109d5575f5ffd5b82356109e0816109b0565b915060208301356109f0816109b0565b809150509250929050565b634e487b7160e01b5f52604160045260245ffd5b5f5f60408385031215610a20575f5ffd5b8235610a2b816109b0565b9150602083013567ffffffffffffffff811115610a46575f5ffd5b8301601f81018513610a56575f5ffd5b803567ffffffffffffffff811115610a7057610a706109fb565b604051601f8201601f19908116603f0116810167ffffffffffffffff81118282101715610a9f57610a9f6109fb565b604052818152828201602001871015610ab6575f5ffd5b816020840160208301375f602083830101528093505050509250929050565b602081525f82518060208401528060208501604085015e5f604082850101526040601f19601f83011684010191505092915050565b5f60208284031215610b1a575f5ffd5b8151610980816109b0565b5f60208284031215610b35575f5ffd5b81516bffffffffffffffffffffffff81168114610980575f5ffd5b5f60208284031215610b60575f5ffd5b81518015158114610980575f5ffd5b5f60208284031215610b7f575f5ffd5b5051919050565b5f82518060208501845e5f92019182525091905056fe360894a13ba1a3210667c828492db98dca3e2076cc3735a920a3ca505d382bbca264697066735822122061e6d6f56a4c25c8ee1a8b0964b12ce1461ae305704c08b75b55a6233bc054c164736f6c634300081c0033","linkReferences":{}},"methodIdentifiers":{"UPGRADE_INTERFACE_VERSION()":"ad3cb1cc","initialize(address,address)":"485cc955","proxiableUUID()":"52d1902d","registerMiddleware(address,address)":"7d3afcc4","registerVault(address,address)":"05c4fdf9","upgradeToAndCall(address,bytes)":"4f1ef286"},"id":3}