{"abi":[{"type":"constructor","inputs":[{"name":"_assets","type":"address[]","internalType":"address[]"}],"stateMutability":"nonpayable"},{"type":"function","name":"allAssets","inputs":[],"outputs":[{"name":"","type":"address[]","internalType":"address[]"}],"stateMutability":"view"},{"type":"function","name":"randomAsset","inputs":[{"name":"_assets","type":"address[]","internalType":"address[]"},{"name":"assetIndexSeed","type":"uint256","internalType":"uint256"}],"outputs":[{"name":"","type":"address","internalType":"address"}],"stateMutability":"pure"},{"type":"function","name":"randomAsset","inputs":[{"name":"assetIndexSeed","type":"uint256","internalType":"uint256"}],"outputs":[{"name":"","type":"address","internalType":"address"}],"stateMutability":"view"}],"bytecode":{"object":"0x608060405234801561000f575f5ffd5b5060405161086438038061086483398101604081905261002e91610137565b80515f036100775760405162461bcd60e51b8152602060048201526012602482015271139bc8185cdcd95d1cc81c1c9bdd9a59195960721b604482015260640160405180910390fd5b805161008a906009906020840190610091565b5050610201565b828054828255905f5260205f209081019282156100e4579160200282015b828111156100e457825182546001600160a01b0319166001600160a01b039091161782556020909201916001909101906100af565b506100f09291506100f4565b5090565b5b808211156100f0575f81556001016100f5565b634e487b7160e01b5f52604160045260245ffd5b80516001600160a01b0381168114610132575f5ffd5b919050565b5f60208284031215610147575f5ffd5b81516001600160401b0381111561015c575f5ffd5b8201601f8101841361016c575f5ffd5b80516001600160401b0381111561018557610185610108565b604051600582901b90603f8201601f191681016001600160401b03811182821017156101b3576101b3610108565b6040529182526020818401810192908101878411156101d0575f5ffd5b6020850194505b838510156101f6576101e88561011c565b8152602094850194016101d7565b509695505050505050565b6106568061020e5f395ff3fe608060405234801561000f575f5ffd5b506004361061003f575f3560e01c806376d708d714610043578063d9c268b614610061578063e90710ab1461008c575b5f5ffd5b61004b61009f565b6040516100589190610413565b60405180910390f35b61007461006f36600461048d565b6100ff565b6040516001600160a01b039091168152602001610058565b61007461009a366004610560565b610149565b606060098054806020026020016040519081016040528092919081815260200182805480156100f557602002820191905f5260205f20905b81546001600160a01b031681526001909101906020018083116100d7575b5050505050905090565b5f82515f0361010f57505f610143565b82610128835f60018751610123919061058b565b61019e565b815181106101385761013861059e565b602002602001015190505b92915050565b6009545f90810361015b57505f919050565b6009610174835f6001600980549050610123919061058b565b815481106101845761018461059e565b5f918252602090912001546001600160a01b031692915050565b5f6101aa8484846101e1565b90506101da6040518060400160405280600c81526020016b109bdd5b99081c995cdd5b1d60a21b8152508261039e565b9392505050565b5f8183111561025c5760405162461bcd60e51b815260206004820152603e60248201527f5374645574696c7320626f756e642875696e743235362c75696e743235362c7560448201527f696e74323536293a204d6178206973206c657373207468616e206d696e2e0000606482015260840160405180910390fd5b82841015801561026c5750818411155b156102785750826101da565b5f610283848461058b565b61028e9060016105b2565b9050600385111580156102a057508481115b156102b7576102af85856105b2565b9150506101da565b6102c360035f1961058b565b85101580156102db57506102d8855f1961058b565b81115b156102f5576102eb855f1961058b565b6102af908461058b565b82851115610348575f610308848761058b565b90505f61031583836105c5565b9050805f03610329578493505050506101da565b600161033582886105b2565b61033f919061058b565b93505050610396565b83851015610396575f61035b868661058b565b90505f61036883836105c5565b9050805f0361037c578593505050506101da565b610386818661058b565b6103919060016105b2565b935050505b509392505050565b6103e382826040516024016103b49291906105e4565b60408051601f198184030181529190526020810180516001600160e01b0316632d839cb360e21b1790526103e7565b5050565b6103f0816103f3565b50565b80516a636f6e736f6c652e6c6f67602083015f808483855afa5050505050565b602080825282518282018190525f918401906040840190835b818110156104535783516001600160a01b031683526020938401939092019160010161042c565b509095945050505050565b634e487b7160e01b5f52604160045260245ffd5b80356001600160a01b0381168114610488575f5ffd5b919050565b5f5f6040838503121561049e575f5ffd5b823567ffffffffffffffff8111156104b4575f5ffd5b8301601f810185136104c4575f5ffd5b803567ffffffffffffffff8111156104de576104de61045e565b8060051b604051601f19603f830116810181811067ffffffffffffffff8211171561050b5761050b61045e565b604052918252602081840181019290810188841115610528575f5ffd5b6020850194505b8385101561054e5761054085610472565b81526020948501940161052f565b50976020969096013596505050505050565b5f60208284031215610570575f5ffd5b5035919050565b634e487b7160e01b5f52601160045260245ffd5b8181038181111561014357610143610577565b634e487b7160e01b5f52603260045260245ffd5b8082018082111561014357610143610577565b5f826105df57634e487b7160e01b5f52601260045260245ffd5b500690565b604081525f83518060408401528060208601606085015e5f606082850101526060601f19601f830116840101915050826020830152939250505056fea26469706673582212207cfad374003f984b7afcda91733487cfe277b34a606c65599ea3310103506f2964736f6c634300081c0033","linkReferences":{}},"methodIdentifiers":{"allAssets()":"76d708d7","randomAsset(address[],uint256)":"d9c268b6","randomAsset(uint256)":"e90710ab"},"id":323}