{"abi":[{"type":"constructor","inputs":[{"name":"name_","type":"string","internalType":"string"},{"name":"symbol_","type":"string","internalType":"string"},{"name":"decimals_","type":"uint8","internalType":"uint8"}],"stateMutability":"nonpayable"},{"type":"function","name":"MAX_MINT","inputs":[],"outputs":[{"name":"","type":"uint256","internalType":"uint256"}],"stateMutability":"view"},{"type":"function","name":"MAX_TOTAL_SUPPLY","inputs":[],"outputs":[{"name":"","type":"uint256","internalType":"uint256"}],"stateMutability":"view"},{"type":"function","name":"allowance","inputs":[{"name":"owner","type":"address","internalType":"address"},{"name":"spender","type":"address","internalType":"address"}],"outputs":[{"name":"","type":"uint256","internalType":"uint256"}],"stateMutability":"view"},{"type":"function","name":"approve","inputs":[{"name":"spender","type":"address","internalType":"address"},{"name":"value","type":"uint256","internalType":"uint256"}],"outputs":[{"name":"","type":"bool","internalType":"bool"}],"stateMutability":"nonpayable"},{"type":"function","name":"balanceOf","inputs":[{"name":"account","type":"address","internalType":"address"}],"outputs":[{"name":"","type":"uint256","internalType":"uint256"}],"stateMutability":"view"},{"type":"function","name":"burn","inputs":[{"name":"from","type":"address","internalType":"address"},{"name":"amount","type":"uint256","internalType":"uint256"}],"outputs":[],"stateMutability":"nonpayable"},{"type":"function","name":"decimals","inputs":[],"outputs":[{"name":"","type":"uint8","internalType":"uint8"}],"stateMutability":"view"},{"type":"function","name":"mint","inputs":[{"name":"to","type":"address","internalType":"address"},{"name":"amount","type":"uint256","internalType":"uint256"}],"outputs":[],"stateMutability":"nonpayable"},{"type":"function","name":"mockDecimals","inputs":[{"name":"decimals_","type":"uint8","internalType":"uint8"}],"outputs":[],"stateMutability":"nonpayable"},{"type":"function","name":"mockMinimumTotalSupply","inputs":[{"name":"totalSupply_","type":"uint256","internalType":"uint256"}],"outputs":[],"stateMutability":"nonpayable"},{"type":"function","name":"name","inputs":[],"outputs":[{"name":"","type":"string","internalType":"string"}],"stateMutability":"view"},{"type":"function","name":"symbol","inputs":[],"outputs":[{"name":"","type":"string","internalType":"string"}],"stateMutability":"view"},{"type":"function","name":"totalSupply","inputs":[],"outputs":[{"name":"","type":"uint256","internalType":"uint256"}],"stateMutability":"view"},{"type":"function","name":"transfer","inputs":[{"name":"to","type":"address","internalType":"address"},{"name":"value","type":"uint256","internalType":"uint256"}],"outputs":[{"name":"","type":"bool","internalType":"bool"}],"stateMutability":"nonpayable"},{"type":"function","name":"transferFrom","inputs":[{"name":"from","type":"address","internalType":"address"},{"name":"to","type":"address","internalType":"address"},{"name":"value","type":"uint256","internalType":"uint256"}],"outputs":[{"name":"","type":"bool","internalType":"bool"}],"stateMutability":"nonpayable"},{"type":"event","name":"Approval","inputs":[{"name":"owner","type":"address","indexed":true,"internalType":"address"},{"name":"spender","type":"address","indexed":true,"internalType":"address"},{"name":"value","type":"uint256","indexed":false,"internalType":"uint256"}],"anonymous":false},{"type":"event","name":"Transfer","inputs":[{"name":"from","type":"address","indexed":true,"internalType":"address"},{"name":"to","type":"address","indexed":true,"internalType":"address"},{"name":"value","type":"uint256","indexed":false,"internalType":"uint256"}],"anonymous":false},{"type":"error","name":"ERC20InsufficientAllowance","inputs":[{"name":"spender","type":"address","internalType":"address"},{"name":"allowance","type":"uint256","internalType":"uint256"},{"name":"needed","type":"uint256","internalType":"uint256"}]},{"type":"error","name":"ERC20InsufficientBalance","inputs":[{"name":"sender","type":"address","internalType":"address"},{"name":"balance","type":"uint256","internalType":"uint256"},{"name":"needed","type":"uint256","internalType":"uint256"}]},{"type":"error","name":"ERC20InvalidApprover","inputs":[{"name":"approver","type":"address","internalType":"address"}]},{"type":"error","name":"ERC20InvalidReceiver","inputs":[{"name":"receiver","type":"address","internalType":"address"}]},{"type":"error","name":"ERC20InvalidSender","inputs":[{"name":"sender","type":"address","internalType":"address"}]},{"type":"error","name":"ERC20InvalidSpender","inputs":[{"name":"spender","type":"address","internalType":"address"}]}],"bytecode":{"object":"0x608060405234801561000f575f5ffd5b50604051610cca380380610cca83398101604081905261002e91610106565b8282600361003c8382610207565b5060046100498282610207565b50506005805460ff191660ff9390931692909217909155506102c1915050565b634e487b7160e01b5f52604160045260245ffd5b5f82601f83011261008c575f5ffd5b81516001600160401b038111156100a5576100a5610069565b604051601f8201601f19908116603f011681016001600160401b03811182821017156100d3576100d3610069565b6040528181528382016020018510156100ea575f5ffd5b8160208501602083015e5f918101602001919091529392505050565b5f5f5f60608486031215610118575f5ffd5b83516001600160401b0381111561012d575f5ffd5b6101398682870161007d565b602086015190945090506001600160401b03811115610156575f5ffd5b6101628682870161007d565b925050604084015160ff81168114610178575f5ffd5b809150509250925092565b600181811c9082168061019757607f821691505b6020821081036101b557634e487b7160e01b5f52602260045260245ffd5b50919050565b601f82111561020257805f5260205f20601f840160051c810160208510156101e05750805b601f840160051c820191505b818110156101ff575f81556001016101ec565b50505b505050565b81516001600160401b0381111561022057610220610069565b6102348161022e8454610183565b846101bb565b6020601f821160018114610266575f831561024f5750848201515b5f19600385901b1c1916600184901b1784556101ff565b5f84815260208120601f198516915b828110156102955787850151825560209485019460019092019101610275565b50848210156102b257868401515f19600387901b60f8161c191681555b50505050600190811b01905550565b6109fc806102ce5f395ff3fe608060405234801561000f575f5ffd5b50600436106100f0575f3560e01c806333039d3d116100935780639dc29fac116100635780639dc29fac146101f3578063a9059cbb14610206578063dd62ed3e14610219578063f0292a0314610197575f5ffd5b806333039d3d1461019757806340c10f19146101b057806370a08231146101c357806395d89b41146101eb575f5ffd5b806318160ddd116100ce57806318160ddd1461014a57806323a411371461015c57806323b872dd1461016f578063313ce56714610182575f5ffd5b806306fdde03146100f4578063095ea7b3146101125780630be284a214610135575b5f5ffd5b6100fc610251565b604051610109919061081a565b60405180910390f35b61012561012036600461086a565b6102e1565b6040519015158152602001610109565b610148610143366004610892565b6102fa565b005b6002545b604051908152602001610109565b61014861016a3660046108a9565b6103a2565b61012561017d3660046108d0565b61040c565b60055460405160ff9091168152602001610109565b61014e6e111b0ec57e6499a1f4b1014d3f6d5960321b81565b6101486101be36600461086a565b61042f565b61014e6101d136600461090a565b6001600160a01b03165f9081526020819052604090205490565b6100fc6104a9565b61014861020136600461086a565b6104b8565b61012561021436600461086a565b6104c2565b61014e610227366004610923565b6001600160a01b039182165f90815260016020908152604080832093909416825291909152205490565b60606003805461026090610954565b80601f016020809104026020016040519081016040528092919081815260200182805461028c90610954565b80156102d75780601f106102ae576101008083540402835291602001916102d7565b820191905f5260205f20905b8154815290600101906020018083116102ba57829003601f168201915b5050505050905090565b5f336102ee8185856104cf565b60019150505b92915050565b6e111b0ec57e6499a1f4b1014d3f6d5960321b8111156103795760405162461bcd60e51b815260206004820152602f60248201527f546f74616c20737570706c79206d757374206265206c657373207468616e204d60448201526e41585f544f54414c5f535550504c5960881b60648201526084015b60405180910390fd5b60025481111561039f5761039f3061039060025490565b61039a90846109a0565b6104e1565b50565b60328160ff1611156103f65760405162461bcd60e51b815260206004820152601d60248201527f446563696d616c73206d757374206265206c657373207468616e2035300000006044820152606401610370565b6005805460ff191660ff92909216919091179055565b5f33610419858285610515565b610424858585610591565b506001949350505050565b6e111b0ec57e6499a1f4b1014d3f6d5960321b81111561049b5760405162461bcd60e51b815260206004820152602160248201527f416d6f756e74206d757374206265206c657373207468616e204d41585f4d494e6044820152601560fa1b6064820152608401610370565b6104a582826104e1565b5050565b60606004805461026090610954565b6104a582826105ee565b5f336102ee818585610591565b6104dc8383836001610622565b505050565b6001600160a01b03821661050a5760405163ec442f0560e01b81525f6004820152602401610370565b6104a55f83836106f4565b6001600160a01b038381165f908152600160209081526040808320938616835292905220545f1981101561058b578181101561057d57604051637dc7a0d960e11b81526001600160a01b03841660048201526024810182905260448101839052606401610370565b61058b84848484035f610622565b50505050565b6001600160a01b0383166105ba57604051634b637e8f60e11b81525f6004820152602401610370565b6001600160a01b0382166105e35760405163ec442f0560e01b81525f6004820152602401610370565b6104dc8383836106f4565b6001600160a01b03821661061757604051634b637e8f60e11b81525f6004820152602401610370565b6104a5825f836106f4565b6001600160a01b03841661064b5760405163e602df0560e01b81525f6004820152602401610370565b6001600160a01b03831661067457604051634a1406b160e11b81525f6004820152602401610370565b6001600160a01b038085165f908152600160209081526040808320938716835292905220829055801561058b57826001600160a01b0316846001600160a01b03167f8c5be1e5ebec7d5bd14f71427d1e84f3dd0314c0f7b2291e5b200ac8c7c3b925846040516106e691815260200190565b60405180910390a350505050565b6001600160a01b03831661071e578060025f82825461071391906109b3565b9091555061078e9050565b6001600160a01b0383165f90815260208190526040902054818110156107705760405163391434e360e21b81526001600160a01b03851660048201526024810182905260448101839052606401610370565b6001600160a01b0384165f9081526020819052604090209082900390555b6001600160a01b0382166107aa576002805482900390556107c8565b6001600160a01b0382165f9081526020819052604090208054820190555b816001600160a01b0316836001600160a01b03167fddf252ad1be2c89b69c2b068fc378daa952ba7f163c4a11628f55a4df523b3ef8360405161080d91815260200190565b60405180910390a3505050565b602081525f82518060208401528060208501604085015e5f604082850101526040601f19601f83011684010191505092915050565b80356001600160a01b0381168114610865575f5ffd5b919050565b5f5f6040838503121561087b575f5ffd5b6108848361084f565b946020939093013593505050565b5f602082840312156108a2575f5ffd5b5035919050565b5f602082840312156108b9575f5ffd5b813560ff811681146108c9575f5ffd5b9392505050565b5f5f5f606084860312156108e2575f5ffd5b6108eb8461084f565b92506108f96020850161084f565b929592945050506040919091013590565b5f6020828403121561091a575f5ffd5b6108c98261084f565b5f5f60408385031215610934575f5ffd5b61093d8361084f565b915061094b6020840161084f565b90509250929050565b600181811c9082168061096857607f821691505b60208210810361098657634e487b7160e01b5f52602260045260245ffd5b50919050565b634e487b7160e01b5f52601160045260245ffd5b818103818111156102f4576102f461098c565b808201808211156102f4576102f461098c56fea26469706673582212206b05aa4faa9cfec1958fd46defe379652c642a6ae76e51d0313e5d727dd55ba464736f6c634300081c0033","linkReferences":{}},"methodIdentifiers":{"MAX_MINT()":"f0292a03","MAX_TOTAL_SUPPLY()":"33039d3d","allowance(address,address)":"dd62ed3e","approve(address,uint256)":"095ea7b3","balanceOf(address)":"70a08231","burn(address,uint256)":"9dc29fac","decimals()":"313ce567","mint(address,uint256)":"40c10f19","mockDecimals(uint8)":"23a41137","mockMinimumTotalSupply(uint256)":"0be284a2","name()":"06fdde03","symbol()":"95d89b41","totalSupply()":"18160ddd","transfer(address,uint256)":"a9059cbb","transferFrom(address,address,uint256)":"23b872dd"},"id":333}