{"abi":[{"type":"constructor","inputs":[{"name":"_asset","type":"address","internalType":"address"},{"name":"_interestRate","type":"uint256","internalType":"uint256"},{"name":"_name","type":"string","internalType":"string"},{"name":"_symbol","type":"string","internalType":"string"}],"stateMutability":"nonpayable"},{"type":"function","name":"__estimateMockErc4626Yield","inputs":[],"outputs":[{"name":"","type":"uint256","internalType":"uint256"}],"stateMutability":"view"},{"type":"function","name":"__interestRate","inputs":[],"outputs":[{"name":"","type":"uint256","internalType":"uint256"}],"stateMutability":"view"},{"type":"function","name":"__lastUpdate","inputs":[],"outputs":[{"name":"","type":"uint256","internalType":"uint256"}],"stateMutability":"view"},{"type":"function","name":"__mockYield","inputs":[],"outputs":[],"stateMutability":"nonpayable"},{"type":"function","name":"allowance","inputs":[{"name":"owner","type":"address","internalType":"address"},{"name":"spender","type":"address","internalType":"address"}],"outputs":[{"name":"","type":"uint256","internalType":"uint256"}],"stateMutability":"view"},{"type":"function","name":"approve","inputs":[{"name":"spender","type":"address","internalType":"address"},{"name":"value","type":"uint256","internalType":"uint256"}],"outputs":[{"name":"","type":"bool","internalType":"bool"}],"stateMutability":"nonpayable"},{"type":"function","name":"asset","inputs":[],"outputs":[{"name":"","type":"address","internalType":"address"}],"stateMutability":"view"},{"type":"function","name":"balanceOf","inputs":[{"name":"account","type":"address","internalType":"address"}],"outputs":[{"name":"","type":"uint256","internalType":"uint256"}],"stateMutability":"view"},{"type":"function","name":"convertToAssets","inputs":[{"name":"shares","type":"uint256","internalType":"uint256"}],"outputs":[{"name":"","type":"uint256","internalType":"uint256"}],"stateMutability":"view"},{"type":"function","name":"convertToShares","inputs":[{"name":"assets","type":"uint256","internalType":"uint256"}],"outputs":[{"name":"","type":"uint256","internalType":"uint256"}],"stateMutability":"view"},{"type":"function","name":"decimals","inputs":[],"outputs":[{"name":"","type":"uint8","internalType":"uint8"}],"stateMutability":"view"},{"type":"function","name":"deposit","inputs":[{"name":"assets","type":"uint256","internalType":"uint256"},{"name":"receiver","type":"address","internalType":"address"}],"outputs":[{"name":"","type":"uint256","internalType":"uint256"}],"stateMutability":"nonpayable"},{"type":"function","name":"interestRate","inputs":[],"outputs":[{"name":"","type":"uint256","internalType":"uint256"}],"stateMutability":"view"},{"type":"function","name":"lastUpdate","inputs":[],"outputs":[{"name":"","type":"uint256","internalType":"uint256"}],"stateMutability":"view"},{"type":"function","name":"maxDeposit","inputs":[{"name":"","type":"address","internalType":"address"}],"outputs":[{"name":"","type":"uint256","internalType":"uint256"}],"stateMutability":"view"},{"type":"function","name":"maxMint","inputs":[{"name":"","type":"address","internalType":"address"}],"outputs":[{"name":"","type":"uint256","internalType":"uint256"}],"stateMutability":"view"},{"type":"function","name":"maxRedeem","inputs":[{"name":"owner","type":"address","internalType":"address"}],"outputs":[{"name":"","type":"uint256","internalType":"uint256"}],"stateMutability":"view"},{"type":"function","name":"maxWithdraw","inputs":[{"name":"owner","type":"address","internalType":"address"}],"outputs":[{"name":"","type":"uint256","internalType":"uint256"}],"stateMutability":"view"},{"type":"function","name":"mint","inputs":[{"name":"shares","type":"uint256","internalType":"uint256"},{"name":"receiver","type":"address","internalType":"address"}],"outputs":[{"name":"","type":"uint256","internalType":"uint256"}],"stateMutability":"nonpayable"},{"type":"function","name":"name","inputs":[],"outputs":[{"name":"","type":"string","internalType":"string"}],"stateMutability":"view"},{"type":"function","name":"previewDeposit","inputs":[{"name":"assets","type":"uint256","internalType":"uint256"}],"outputs":[{"name":"","type":"uint256","internalType":"uint256"}],"stateMutability":"view"},{"type":"function","name":"previewMint","inputs":[{"name":"shares","type":"uint256","internalType":"uint256"}],"outputs":[{"name":"","type":"uint256","internalType":"uint256"}],"stateMutability":"view"},{"type":"function","name":"previewRedeem","inputs":[{"name":"shares","type":"uint256","internalType":"uint256"}],"outputs":[{"name":"","type":"uint256","internalType":"uint256"}],"stateMutability":"view"},{"type":"function","name":"previewWithdraw","inputs":[{"name":"assets","type":"uint256","internalType":"uint256"}],"outputs":[{"name":"","type":"uint256","internalType":"uint256"}],"stateMutability":"view"},{"type":"function","name":"redeem","inputs":[{"name":"shares","type":"uint256","internalType":"uint256"},{"name":"receiver","type":"address","internalType":"address"},{"name":"owner","type":"address","internalType":"address"}],"outputs":[{"name":"","type":"uint256","internalType":"uint256"}],"stateMutability":"nonpayable"},{"type":"function","name":"setInterestRate","inputs":[{"name":"_interestRate","type":"uint256","internalType":"uint256"}],"outputs":[],"stateMutability":"nonpayable"},{"type":"function","name":"symbol","inputs":[],"outputs":[{"name":"","type":"string","internalType":"string"}],"stateMutability":"view"},{"type":"function","name":"totalAssets","inputs":[],"outputs":[{"name":"","type":"uint256","internalType":"uint256"}],"stateMutability":"view"},{"type":"function","name":"totalSupply","inputs":[],"outputs":[{"name":"","type":"uint256","internalType":"uint256"}],"stateMutability":"view"},{"type":"function","name":"transfer","inputs":[{"name":"to","type":"address","internalType":"address"},{"name":"value","type":"uint256","internalType":"uint256"}],"outputs":[{"name":"","type":"bool","internalType":"bool"}],"stateMutability":"nonpayable"},{"type":"function","name":"transferFrom","inputs":[{"name":"from","type":"address","internalType":"address"},{"name":"to","type":"address","internalType":"address"},{"name":"value","type":"uint256","internalType":"uint256"}],"outputs":[{"name":"","type":"bool","internalType":"bool"}],"stateMutability":"nonpayable"},{"type":"function","name":"withdraw","inputs":[{"name":"assets","type":"uint256","internalType":"uint256"},{"name":"receiver","type":"address","internalType":"address"},{"name":"owner","type":"address","internalType":"address"}],"outputs":[{"name":"","type":"uint256","internalType":"uint256"}],"stateMutability":"nonpayable"},{"type":"event","name":"Approval","inputs":[{"name":"owner","type":"address","indexed":true,"internalType":"address"},{"name":"spender","type":"address","indexed":true,"internalType":"address"},{"name":"value","type":"uint256","indexed":false,"internalType":"uint256"}],"anonymous":false},{"type":"event","name":"Deposit","inputs":[{"name":"sender","type":"address","indexed":true,"internalType":"address"},{"name":"owner","type":"address","indexed":true,"internalType":"address"},{"name":"assets","type":"uint256","indexed":false,"internalType":"uint256"},{"name":"shares","type":"uint256","indexed":false,"internalType":"uint256"}],"anonymous":false},{"type":"event","name":"SlotFound","inputs":[{"name":"who","type":"address","indexed":false,"internalType":"address"},{"name":"fsig","type":"bytes4","indexed":false,"internalType":"bytes4"},{"name":"keysHash","type":"bytes32","indexed":false,"internalType":"bytes32"},{"name":"slot","type":"uint256","indexed":false,"internalType":"uint256"}],"anonymous":false},{"type":"event","name":"Transfer","inputs":[{"name":"from","type":"address","indexed":true,"internalType":"address"},{"name":"to","type":"address","indexed":true,"internalType":"address"},{"name":"value","type":"uint256","indexed":false,"internalType":"uint256"}],"anonymous":false},{"type":"event","name":"WARNING_UninitedSlot","inputs":[{"name":"who","type":"address","indexed":false,"internalType":"address"},{"name":"slot","type":"uint256","indexed":false,"internalType":"uint256"}],"anonymous":false},{"type":"event","name":"Withdraw","inputs":[{"name":"sender","type":"address","indexed":true,"internalType":"address"},{"name":"receiver","type":"address","indexed":true,"internalType":"address"},{"name":"owner","type":"address","indexed":true,"internalType":"address"},{"name":"assets","type":"uint256","indexed":false,"internalType":"uint256"},{"name":"shares","type":"uint256","indexed":false,"internalType":"uint256"}],"anonymous":false},{"type":"error","name":"ERC20InsufficientAllowance","inputs":[{"name":"spender","type":"address","internalType":"address"},{"name":"allowance","type":"uint256","internalType":"uint256"},{"name":"needed","type":"uint256","internalType":"uint256"}]},{"type":"error","name":"ERC20InsufficientBalance","inputs":[{"name":"sender","type":"address","internalType":"address"},{"name":"balance","type":"uint256","internalType":"uint256"},{"name":"needed","type":"uint256","internalType":"uint256"}]},{"type":"error","name":"ERC20InvalidApprover","inputs":[{"name":"approver","type":"address","internalType":"address"}]},{"type":"error","name":"ERC20InvalidReceiver","inputs":[{"name":"receiver","type":"address","internalType":"address"}]},{"type":"error","name":"ERC20InvalidSender","inputs":[{"name":"sender","type":"address","internalType":"address"}]},{"type":"error","name":"ERC20InvalidSpender","inputs":[{"name":"spender","type":"address","internalType":"address"}]},{"type":"error","name":"ERC4626ExceededMaxDeposit","inputs":[{"name":"receiver","type":"address","internalType":"address"},{"name":"assets","type":"uint256","internalType":"uint256"},{"name":"max","type":"uint256","internalType":"uint256"}]},{"type":"error","name":"ERC4626ExceededMaxMint","inputs":[{"name":"receiver","type":"address","internalType":"address"},{"name":"shares","type":"uint256","internalType":"uint256"},{"name":"max","type":"uint256","internalType":"uint256"}]},{"type":"error","name":"ERC4626ExceededMaxRedeem","inputs":[{"name":"owner","type":"address","internalType":"address"},{"name":"shares","type":"uint256","internalType":"uint256"},{"name":"max","type":"uint256","internalType":"uint256"}]},{"type":"error","name":"ERC4626ExceededMaxWithdraw","inputs":[{"name":"owner","type":"address","internalType":"address"},{"name":"assets","type":"uint256","internalType":"uint256"},{"name":"max","type":"uint256","internalType":"uint256"}]},{"type":"error","name":"SafeERC20FailedOperation","inputs":[{"name":"token","type":"address","internalType":"address"}]}],"bytecode":{"object":"0x60c060405234801561000f575f5ffd5b5060405161305e38038061305e83398101604081905261002e91610206565b838282600361003d8382610316565b50600461004a8282610316565b5050505f5f61005e8361009360201b60201c565b915091508161006e576012610070565b805b60ff1660a05250506001600160a01b03166080525050600e555042600f556103fd565b60408051600481526024810182526020810180516001600160e01b031663313ce56760e01b17905290515f918291829182916001600160a01b038716916100d9916103d0565b5f60405180830381855afa9150503d805f8114610111576040519150601f19603f3d011682016040523d82523d5f602084013e610116565b606091505b509150915081801561012a57506020815110155b1561015d575f8180602001905181019061014491906103e6565b905060ff811161015b576001969095509350505050565b505b505f9485945092505050565b634e487b7160e01b5f52604160045260245ffd5b5f82601f83011261018c575f5ffd5b81516001600160401b038111156101a5576101a5610169565b604051601f8201601f19908116603f011681016001600160401b03811182821017156101d3576101d3610169565b6040528181528382016020018510156101ea575f5ffd5b8160208501602083015e5f918101602001919091529392505050565b5f5f5f5f60808587031215610219575f5ffd5b84516001600160a01b038116811461022f575f5ffd5b6020860151604087015191955093506001600160401b03811115610251575f5ffd5b61025d8782880161017d565b606087015190935090506001600160401b0381111561027a575f5ffd5b6102868782880161017d565b91505092959194509250565b600181811c908216806102a657607f821691505b6020821081036102c457634e487b7160e01b5f52602260045260245ffd5b50919050565b601f82111561031157805f5260205f20601f840160051c810160208510156102ef5750805b601f840160051c820191505b8181101561030e575f81556001016102fb565b50505b505050565b81516001600160401b0381111561032f5761032f610169565b6103438161033d8454610292565b846102ca565b6020601f821160018114610375575f831561035e5750848201515b5f19600385901b1c1916600184901b17845561030e565b5f84815260208120601f198516915b828110156103a45787850151825560209485019460019092019101610384565b50848210156103c157868401515f19600387901b60f8161c191681555b50505050600190811b01905550565b5f82518060208501845e5f920191825250919050565b5f602082840312156103f6575f5ffd5b5051919050565b60805160a051612c166104485f395f6105bb01525f81816102a601528181610455015281816105f6015281816107760152818161080401528181610f99015261104b0152612c165ff3fe608060405234801561000f575f5ffd5b50600436106101e7575f3560e01c80638e0aaea711610109578063c63d75b61161009e578063d905777e1161006e578063d905777e146103eb578063dd62ed3e146103fe578063de9bd66414610436578063ef8b30f7146103bd575f5ffd5b8063c63d75b6146102d0578063c6e6f592146103bd578063ce96cb77146103d0578063d0339e21146103e3575f5ffd5b8063b3d7f6b9116100d9578063b3d7f6b91461037b578063b460af941461038e578063ba087652146103a1578063c0463711146103b4575f5ffd5b80638e0aaea71461034557806394bf804d1461034d57806395d89b4114610360578063a9059cbb14610368575f5ffd5b806338d52e0f1161017f5780636e553f651161014f5780636e553f65146102f957806370a082311461030c5780637c3a00fd14610334578063898599721461033d575f5ffd5b806338d52e0f14610299578063402d267d146102d05780634cdad5061461021b5780635f84f302146102e4575f5ffd5b80630a28a477116101ba5780630a28a4771461025157806318160ddd1461026457806323b872dd1461026c578063313ce5671461027f575f5ffd5b806301e1d114146101eb57806306fdde031461020657806307a2d13a1461021b578063095ea7b31461022e575b5f5ffd5b6101f361043e565b6040519081526020015b60405180910390f35b61020e6104cb565b6040516101fd9190612588565b6101f36102293660046125bd565b61055b565b61024161023c3660046125ea565b61056c565b60405190151581526020016101fd565b6101f361025f3660046125bd565b610583565b6002546101f3565b61024161027a366004612612565b61058f565b6102876105b4565b60405160ff90911681526020016101fd565b6040516001600160a01b037f00000000000000000000000000000000000000000000000000000000000000001681526020016101fd565b6101f36102de36600461264c565b505f1990565b6102f76102f23660046125bd565b600e55565b005b6101f3610307366004612665565b6105df565b6101f361031a36600461264c565b6001600160a01b03165f9081526020819052604090205490565b6101f3600e5481565b600f546101f3565b6101f36105f2565b6101f361035b366004612665565b6106c6565b61020e6106d9565b6102416103763660046125ea565b6106e8565b6101f36103893660046125bd565b6106f5565b6101f361039c36600461268f565b610701565b6101f36103af36600461268f565b61071d565b6101f3600f5481565b6101f36103cb3660046125bd565b610731565b6101f36103de36600461264c565b61073c565b6102f761075e565b6101f36103f936600461264c565b610838565b6101f361040c3660046126c8565b6001600160a01b039182165f90815260016020908152604080832093909416825291909152205490565b600e546101f3565b6040516370a0823160e01b81523060048201525f907f00000000000000000000000000000000000000000000000000000000000000006001600160a01b0316906370a0823190602401602060405180830381865afa1580156104a2573d5f5f3e3d5ffd5b505050506040513d601f19601f820116820180604052508101906104c691906126f0565b905090565b6060600380546104da90612707565b80601f016020809104026020016040519081016040528092919081815260200182805461050690612707565b80156105515780601f1061052857610100808354040283529160200191610551565b820191905f5260205f20905b81548152906001019060200180831161053457829003601f168201915b5050505050905090565b5f610566825f610855565b92915050565b5f3361057981858561088d565b5060019392505050565b5f61056682600161089f565b5f3361059c8582856108ce565b6105a7858585610940565b60019150505b9392505050565b5f6104c6817f0000000000000000000000000000000000000000000000000000000000000000612753565b5f6105e861075e565b6105ad838361099d565b5f807f00000000000000000000000000000000000000000000000000000000000000006040516370a0823160e01b81523060048201526001600160a01b0391909116906370a0823190602401602060405180830381865afa158015610659573d5f5f3e3d5ffd5b505050506040513d601f19601f8201168201806040525081019061067d91906126f0565b90505f600f544261068e919061276c565b90506a1a1601fc4ea7109e00000081600e54846106ab919061277f565b6106b5919061277f565b6106bf91906127aa565b9250505090565b5f6106cf61075e565b6105ad83836109b8565b6060600480546104da90612707565b5f33610579818585610940565b5f610566826001610855565b5f61070a61075e565b6107158484846109d3565b949350505050565b5f61072661075e565b610715848484610a29565b5f610566825f61089f565b6001600160a01b0381165f90815260208190526040812054610566905f610855565b5f6107676105f2565b905080156108355742600f555f7f00000000000000000000000000000000000000000000000000000000000000006040516370a0823160e01b81523060048201526001600160a01b0391909116906370a0823190602401602060405180830381865afa1580156107d9573d5f5f3e3d5ffd5b505050506040513d601f19601f820116820180604052508101906107fd91906126f0565b90506108337f00000000000000000000000000000000000000000000000000000000000000003061082e85856127bd565b610a76565b505b50565b6001600160a01b0381165f90815260208190526040812054610566565b5f6105ad61086161043e565b61086c9060016127bd565b6108775f600a6128ab565b60025461088491906127bd565b85919085610a82565b61089a8383836001610ac4565b505050565b5f6105ad6108ae82600a6128ab565b6002546108bb91906127bd565b6108c361043e565b6108849060016127bd565b6001600160a01b038381165f908152600160209081526040808320938616835292905220545f1981101561093a578181101561092c57828183604051637dc7a0d960e11b8152600401610923939291906128b9565b60405180910390fd5b61093a84848484035f610ac4565b50505050565b6001600160a01b03831661096957604051634b637e8f60e11b81525f6004820152602401610923565b6001600160a01b0382166109925760405163ec442f0560e01b81525f6004820152602401610923565b61089a838383610b96565b5f5f195f6109aa85610731565b905061071533858784610ca9565b5f5f195f6109c5856106f5565b905061071533858388610ca9565b5f5f6109de8361073c565b905080851115610a0757828582604051633fa733bb60e21b8152600401610923939291906128b9565b5f610a1186610583565b9050610a203386868985610cbd565b95945050505050565b5f5f610a3483610838565b905080851115610a5d57828582604051632e52afbb60e21b8152600401610923939291906128b9565b5f610a678661055b565b9050610a20338686848a610cbd565b61089a8383835f610cd9565b5f610aaf610a8f83610eb2565b8015610aaa57505f8480610aa557610aa5612796565b868809115b151590565b610aba868686610ede565b610a2091906127bd565b6001600160a01b038416610aed5760405163e602df0560e01b81525f6004820152602401610923565b6001600160a01b038316610b1657604051634a1406b160e11b81525f6004820152602401610923565b6001600160a01b038085165f908152600160209081526040808320938716835292905220829055801561093a57826001600160a01b0316846001600160a01b03167f8c5be1e5ebec7d5bd14f71427d1e84f3dd0314c0f7b2291e5b200ac8c7c3b92584604051610b8891815260200190565b60405180910390a350505050565b6001600160a01b038316610bc0578060025f828254610bb591906127bd565b90915550610c1d9050565b6001600160a01b0383165f9081526020819052604090205481811015610bff5783818360405163391434e360e21b8152600401610923939291906128b9565b6001600160a01b0384165f9081526020819052604090209082900390555b6001600160a01b038216610c3957600280548290039055610c57565b6001600160a01b0382165f9081526020819052604090208054820190555b816001600160a01b0316836001600160a01b03167fddf252ad1be2c89b69c2b068fc378daa952ba7f163c4a11628f55a4df523b3ef83604051610c9c91815260200190565b60405180910390a3505050565b610cb161075e565b61093a84848484610f94565b610cc561075e565b610cd28585858585611018565b5050505050565b604080516001600160a01b0385811660248084019190915283518084039091018152604490920183526020820180516001600160e01b03166370a0823160e01b17905291515f92871691610d2c916128f1565b5f60405180830381855afa9150503d805f8114610d64576040519150601f19603f3d011682016040523d82523d5f602084013e610d69565b606091505b509150505f81806020019051810190610d8291906126f0565b9050610db484610dae87610da86370a0823160e01b610da260068d6110d8565b906110fc565b90611118565b90611142565b8215610eaa5760408051600481526024810182526020810180516001600160e01b03166318160ddd60e01b17905290515f916001600160a01b03891691610dfb91906128f1565b5f60405180830381855afa9150503d805f8114610e33576040519150601f19603f3d011682016040523d82523d5f602084013e610e38565b606091505b509150505f81806020019051810190610e5191906126f0565b905082861015610e7657610e65868461276c565b610e6f908261276c565b9050610e8d565b610e80838761276c565b610e8a90826127bd565b90505b610ea781610dae6318160ddd60e01b610da260068d6110d8565b50505b505050505050565b5f6002826003811115610ec757610ec76128fc565b610ed19190612910565b60ff166001149050919050565b5f838302815f1985870982811083820303915050805f03610f1257838281610f0857610f08612796565b04925050506105ad565b808411610f2957610f29600385150260111861114c565b5f848688095f868103871696879004966002600389028118808a02820302808a02820302808a02820302808a02820302808a02820302808a02909103029181900381900460010186841190950394909402919094039290920491909117919091029150509392505050565b610fc07f000000000000000000000000000000000000000000000000000000000000000085308561115d565b610fca83826111c4565b826001600160a01b0316846001600160a01b03167fdcbc1c05240f31ff3ad067ef1ee35ce4997762752e3a095284754544f4c709d78484604051610b88929190918252602082015260400190565b826001600160a01b0316856001600160a01b03161461103c5761103c8386836108ce565b61104683826111f8565b6110717f0000000000000000000000000000000000000000000000000000000000000000858461122c565b826001600160a01b0316846001600160a01b0316866001600160a01b03167ffbde797d201c681b91056529119e0b02407c7bb96a4a2c75c01fc9667232c8db85856040516110c9929190918252602082015260400190565b60405180910390a45050505050565b6004820180546001600160a01b0319166001600160a01b0383161790555f826105ad565b60028201805463ffffffff191660e083901c1790555f826105ad565b6001808301805491820181555f908152602081206001600160a01b038416920191909155826105ad565b610833828261125d565b634e487b715f52806020526024601cfd5b6040516001600160a01b03848116602483015283811660448301526064820183905261093a9186918216906323b872dd906084015b604051602081830303815290604052915060e01b6020820180516001600160e01b03838183161783525050505061166a565b6001600160a01b0382166111ed5760405163ec442f0560e01b81525f6004820152602401610923565b6108335f8383610b96565b6001600160a01b03821661122157604051634b637e8f60e11b81525f6004820152602401610923565b610833825f83610b96565b6040516001600160a01b0383811660248301526044820183905261089a91859182169063a9059cbb90606401611192565b6004820154600283015460038401546001600160a01b039092169160e09190911b905f611289866116d6565b6001600160a01b0385165f908152602088815260408083206001600160e01b03198816845282528083209051939450926112c7918591879101612931565b60408051601f198184030181529181528151602092830120835290820192909252015f206003015460ff1661130257611300865f6117df565b505b6001600160a01b0384165f908152602087815260408083206001600160e01b0319871684528252808320905190918391611340918691889101612931565b6040516020818303038152906040528051906020012081526020019081526020015f2090505f8160020154826001015461137a91906127bd565b1115611460575f8160020154826001015461139591906127bd565b6113a19061010061276c565b6113ac906002612949565b60405163348051d760e11b815260048101829052909150818810905f516020612bc15f395f51905f5290636900a3ae906024015f60405180830381865afa1580156113f9573d5f5f3e3d5ffd5b505050506040513d5f823e601f3d908101601f191682016040526114209190810190612999565b6040516020016114309190612a2d565b6040516020818303038152906040529061145d5760405162461bcd60e51b81526004016109239190612588565b50505b8054604051630667f9d760e41b81526001600160a01b038716600482015260248101919091525f905f516020612bc15f395f51905f529063667f9d7090604401602060405180830381865afa1580156114bb573d5f5f3e3d5ffd5b505050506040513d601f19601f820116820180604052508101906114df91906126f0565b60018381015460028501549293505f92908101610100039190911b5f1901811b1983169089901b1783546040516370ca10bb60e01b81529192505f516020612bc15f395f51905f52916370ca10bb9161153f918b919086906004016128b9565b5f604051808303815f87803b158015611556575f5ffd5b505af1158015611568573d5f5f3e3d5ffd5b505050505f5f6115778b6117f2565b915091508115806115885750898114155b156116545784546040516370ca10bb60e01b81525f516020612bc15f395f51905f52916370ca10bb916115c1918d9189906004016128b9565b5f604051808303815f87803b1580156115d8575f5ffd5b505af11580156115ea573d5f5f3e3d5ffd5b505060405162461bcd60e51b815260206004820152603360248201527f73746453746f726167652066696e642853746453746f72616765293a204661696044820152723632b2103a37903bb934ba32903b30b63ab29760691b606482015260840191506109239050565b61165d8b6118b7565b5050505050505050505050565b5f5f60205f8451602086015f885af180611689576040513d5f823e3d81fd5b50505f513d915081156116a05780600114156116ad565b6001600160a01b0384163b155b1561093a57604051635274afe760e01b81526001600160a01b0385166004820152602401610923565b60608160070180546116e790612707565b90505f03611748576105668260010180548060200260200160405190810160405280929190818152602001828054801561173e57602002820191905f5260205f20905b81548152602001906001019080831161172a575b50505050506118c0565b81600701805461175790612707565b80601f016020809104026020016040519081016040528092919081815260200182805461178390612707565b80156117ce5780601f106117a5576101008083540402835291602001916117ce565b820191905f5260205f20905b8154815290600101906020018083116117b157829003601f168201915b50505050509050919050565b919050565b5f6117ea8383611959565b549392505050565b60028101545f908190819060e01b611809856116d6565b60405160200161181a929190612a97565b60408051601f198184030181529082905260048601549092505f9182916001600160a01b03169061184c9085906128f1565b5f60405180830381855afa9150503d805f8114611884576040519150601f19603f3d011682016040523d82523d5f602084013e611889565b606091505b50915091505f6118a982886003015460206118a4919061277f565b612090565b929792965091945050505050565b61083581612100565b60605f825160206118d1919061277f565b67ffffffffffffffff8111156118e9576118e9612954565b6040519080825280601f01601f191660200182016040528015611913576020820181803683370190505b5090505f5b8351811015611952575f84828151811061193457611934612ab2565b60209081029190910181015183820285019091015250600101611918565b5092915050565b6004820154600283015460038401545f926001600160a01b03169160e01b9083611982876116d6565b6001600160a01b0385165f908152602089815260408083206001600160e01b03198816845282528083209051939450926119c0918591879101612931565b60408051601f198184030181529181528151602092830120835290820192909252015f206003015460ff1615611a6a5785156119ff576119ff87612100565b6001600160a01b0384165f908152602088815260408083206001600160e01b03198716845282528083209051909291611a3c918591879101612931565b6040516020818303038152906040528051906020012081526020019081526020015f20945050505050610566565b7f885cb69240a935d632d79c317109709ecfa91a80626ff3989d68f67f5b1dd12d5f1c6001600160a01b031663266cf1096040518163ffffffff1660e01b81526004015f604051808303815f87803b158015611ac4575f5ffd5b505af1158015611ad6573d5f5f3e3d5ffd5b505050505f611ae4886117f2565b6040516365bc948160e01b81526001600160a01b03881660048201529092505f91505f516020612bc15f395f51905f52906365bc9481906024015f604051808303815f875af1158015611b39573d5f5f3e3d5ffd5b505050506040513d5f823e601f3d908101601f19168201604052611b609190810190612b46565b50905080515f03611bdb576040805162461bcd60e51b81526020600482015260248101919091527f73746453746f726167652066696e642853746453746f72616765293a204e6f2060448201527f73746f726167652075736520646574656374656420666f72207461726765742e6064820152608401610923565b80515b5f611be882612bab565b91508110611f46575f7f885cb69240a935d632d79c317109709ecfa91a80626ff3989d68f67f5b1dd12d5f1c6001600160a01b031663667f9d7089858581518110611c3557611c35612ab2565b60200260200101516040518363ffffffff1660e01b8152600401611c6e9291906001600160a01b03929092168252602082015260400190565b602060405180830381865afa158015611c89573d5f5f3e3d5ffd5b505050506040513d601f19601f82011682018060405250810190611cad91906126f0565b905080611d13577f080fc4a96620c4462e705b23f346413fe3796bb63c6f8d8591baec0e231577a588848481518110611ce857611ce8612ab2565b602090810291909101810151604080516001600160a01b039094168452918301520160405180910390a15b611d368b848481518110611d2957611d29612ab2565b6020026020010151612150565b611d405750611bde565b60068b01545f90819060ff1615611d8c575f611d758e878781518110611d6857611d68612ab2565b60200260200101516122ff565b9094509250905080611d8a5750505050611bde565b505b6001828201610100031b5f1901811b8316811c868114611daf5750505050611bde565b7f9c9555b1e3102e3cf48f427d79cb678f5d9bd1ed0ad574389461e255f95170ed8b8b8a8c604051602001611de5929190612931565b60405160208183030381529060405280519060200120898981518110611e0d57611e0d612ab2565b602090810291909101810151604080516001600160a01b0390961686526001600160e01b03199094169185019190915291830152606082015260800160405180910390a16040518060800160405280878781518110611e6e57611e6e612ab2565b60200260200101515f1c8152602001848152602001838152602001600115158152508e5f015f8d6001600160a01b03166001600160a01b031681526020019081526020015f205f8c6001600160e01b0319166001600160e01b03191681526020019081526020015f205f8a8c604051602001611eeb929190612931565b60408051808303601f1901815291815281516020928301208352828201939093529082015f20835181559083015160018201559082015160028201556060909101516003909101805460ff1916911515919091179055505050505b506001600160a01b0386165f90815260208a815260408083206001600160e01b03198916845282528083209051909291611f84918791899101612931565b60408051601f198184030181529181528151602092830120835290820192909252015f206003015460ff166120135760405162461bcd60e51b815260206004820152602f60248201527f73746453746f726167652066696e642853746453746f72616765293a20536c6f60448201526e3a143994903737ba103337bab7321760891b6064820152608401610923565b87156120225761202289612100565b6001600160a01b0386165f90815260208a815260408083206001600160e01b0319891684528252808320905190929161205f918791899101612931565b6040516020818303038152906040528051906020012081526020019081526020015f20965050505050505092915050565b5f5f5f60208551116120a35784516120a6565b60205b90505f5b818110156120f6576120bd81600861277f565b866120c883886127bd565b815181106120d8576120d8612ab2565b01602001516001600160f81b031916901c92909217916001016120aa565b5090949350505050565b6004810180546001600160a01b031916905560028101805463ffffffff1916905561212e600182015f612522565b5f6003820181905560068201805460ff1916905561083590600783019061253d565b600482810154604051630667f9d760e41b81526001600160a01b0390911691810191909152602481018290525f9081905f516020612bc15f395f51905f529063667f9d7090604401602060405180830381865afa1580156121b3573d5f5f3e3d5ffd5b505050506040513d601f19601f820116820180604052508101906121d791906126f0565b90505f5f6121e4866117f2565b90925090505f81156121f6575f6121f9565b5f195b6004808901546040516370ca10bb60e01b81529293505f516020612bc15f395f51905f52926370ca10bb9261223c926001600160a01b0316918b918791016128b9565b5f604051808303815f87803b158015612253575f5ffd5b505af1158015612265573d5f5f3e3d5ffd5b505050505f612273886117f2565b60048a8101546040516370ca10bb60e01b81529294505f516020612bc15f395f51905f5293506370ca10bb926122b9926001600160a01b03909216918c918b91016128b9565b5f604051808303815f87803b1580156122d0575f5ffd5b505af11580156122e2573d5f5f3e3d5ffd5b505050508380156122f35750808314155b98975050505050505050565b600482810154604051630667f9d760e41b81526001600160a01b0390911691810191909152602481018290525f908190819081905f516020612bc15f395f51905f529063667f9d7090604401602060405180830381865afa158015612366573d5f5f3e3d5ffd5b505050506040513d601f19601f8201168201806040525081019061238a91906126f0565b90505f5f61239a8888600161243a565b915091505f5f6123ab8a8a5f61243a565b60048c8101546040516370ca10bb60e01b81529395509193505f516020612bc15f395f51905f52926370ca10bb926123f3926001600160a01b03909116918e918b91016128b9565b5f604051808303815f87803b15801561240a575f5ffd5b505af115801561241c573d5f5f3e3d5ffd5b5050505083801561242a5750815b9a92995097509095505050505050565b5f80805b610100811015612512575f84612457576001821b612467565b6124628260ff61276c565b6001901b5b6004808901546040516370ca10bb60e01b81529293505f516020612bc15f395f51905f52926370ca10bb926124aa926001600160a01b0316918b918791016128b9565b5f604051808303815f87803b1580156124c1575f5ffd5b505af11580156124d3573d5f5f3e3d5ffd5b505050505f5f6124e2896117f2565b915091508180156124f257508015155b1561250757600184955095505050505061251a565b50505060010161243e565b505f5f915091505b935093915050565b5080545f8255905f5260205f20908101906108359190612570565b50805461254990612707565b5f825580601f10612558575050565b601f0160209004905f5260205f209081019061083591905b5b80821115612584575f8155600101612571565b5090565b602081525f82518060208401528060208501604085015e5f604082850101526040601f19601f83011684010191505092915050565b5f602082840312156125cd575f5ffd5b5035919050565b80356001600160a01b03811681146117da575f5ffd5b5f5f604083850312156125fb575f5ffd5b612604836125d4565b946020939093013593505050565b5f5f5f60608486031215612624575f5ffd5b61262d846125d4565b925061263b602085016125d4565b929592945050506040919091013590565b5f6020828403121561265c575f5ffd5b6105ad826125d4565b5f5f60408385031215612676575f5ffd5b82359150612686602084016125d4565b90509250929050565b5f5f5f606084860312156126a1575f5ffd5b833592506126b1602085016125d4565b91506126bf604085016125d4565b90509250925092565b5f5f604083850312156126d9575f5ffd5b6126e2836125d4565b9150612686602084016125d4565b5f60208284031215612700575f5ffd5b5051919050565b600181811c9082168061271b57607f821691505b60208210810361273957634e487b7160e01b5f52602260045260245ffd5b50919050565b634e487b7160e01b5f52601160045260245ffd5b60ff81811683821601908111156105665761056661273f565b818103818111156105665761056661273f565b80820281158282048414176105665761056661273f565b634e487b7160e01b5f52601260045260245ffd5b5f826127b8576127b8612796565b500490565b808201808211156105665761056661273f565b6001815b600184111561251a578085048111156127ef576127ef61273f565b60018416156127fd57908102905b60019390931c9280026127d4565b5f8261281957506001610566565b8161282557505f610566565b816001811461283b576002811461284557612861565b6001915050610566565b60ff8411156128565761285661273f565b50506001821b610566565b5060208310610133831016604e8410600b8410161715612884575081810a610566565b6128905f1984846127d0565b805f19048211156128a3576128a361273f565b029392505050565b5f6105ad60ff84168361280b565b6001600160a01b039390931683526020830191909152604082015260600190565b5f81518060208401855e5f93019283525090919050565b5f6105ad82846128da565b634e487b7160e01b5f52602160045260245ffd5b5f60ff83168061292257612922612796565b8060ff84160691505092915050565b5f61293c82856128da565b9283525050602001919050565b5f6105ad838361280b565b634e487b7160e01b5f52604160045260245ffd5b604051601f8201601f1916810167ffffffffffffffff8111828210171561299157612991612954565b604052919050565b5f602082840312156129a9575f5ffd5b815167ffffffffffffffff8111156129bf575f5ffd5b8201601f810184136129cf575f5ffd5b805167ffffffffffffffff8111156129e9576129e9612954565b6129fc601f8201601f1916602001612968565b818152856020838501011115612a10575f5ffd5b8160208401602083015e5f91810160200191909152949350505050565b7f73746453746f726167652066696e642853746453746f72616765293a2050616381527f6b656420736c6f742e2057652063616e2774206669742076616c756520677265602082015269030ba32b9103a3430b7160b51b60408201525f6105ad604a8301846128da565b6001600160e01b0319831681525f61071560048301846128da565b634e487b7160e01b5f52603260045260245ffd5b5f82601f830112612ad5575f5ffd5b815167ffffffffffffffff811115612aef57612aef612954565b8060051b612aff60208201612968565b91825260208185018101929081019086841115612b1a575f5ffd5b6020860192505b83831015612b3c578251825260209283019290910190612b21565b9695505050505050565b5f5f60408385031215612b57575f5ffd5b825167ffffffffffffffff811115612b6d575f5ffd5b612b7985828601612ac6565b925050602083015167ffffffffffffffff811115612b95575f5ffd5b612ba185828601612ac6565b9150509250929050565b5f81612bb957612bb961273f565b505f19019056fe0000000000000000000000007109709ecfa91a80626ff3989d68f67f5b1dd12da2646970667358221220b182886ac3dac428162f205be1a41a762095568d6c83881fbf67f7dc34189eb164736f6c634300081c0033","linkReferences":{}},"methodIdentifiers":{"__estimateMockErc4626Yield()":"8e0aaea7","__interestRate()":"de9bd664","__lastUpdate()":"89859972","__mockYield()":"d0339e21","allowance(address,address)":"dd62ed3e","approve(address,uint256)":"095ea7b3","asset()":"38d52e0f","balanceOf(address)":"70a08231","convertToAssets(uint256)":"07a2d13a","convertToShares(uint256)":"c6e6f592","decimals()":"313ce567","deposit(uint256,address)":"6e553f65","interestRate()":"7c3a00fd","lastUpdate()":"c0463711","maxDeposit(address)":"402d267d","maxMint(address)":"c63d75b6","maxRedeem(address)":"d905777e","maxWithdraw(address)":"ce96cb77","mint(uint256,address)":"94bf804d","name()":"06fdde03","previewDeposit(uint256)":"ef8b30f7","previewMint(uint256)":"b3d7f6b9","previewRedeem(uint256)":"4cdad506","previewWithdraw(uint256)":"0a28a477","redeem(uint256,address,address)":"ba087652","setInterestRate(uint256)":"5f84f302","symbol()":"95d89b41","totalAssets()":"01e1d114","totalSupply()":"18160ddd","transfer(address,uint256)":"a9059cbb","transferFrom(address,address,uint256)":"23b872dd","withdraw(uint256,address,address)":"b460af94"},"id":334}