{"abi":[{"type":"function","name":"addMockAgentCoverage","inputs":[{"name":"_agent","type":"address","internalType":"address"},{"name":"_vault","type":"address","internalType":"address"},{"name":"_coverage","type":"uint256","internalType":"uint256"}],"outputs":[],"stateMutability":"nonpayable"},{"type":"function","name":"coverage","inputs":[{"name":"_agent","type":"address","internalType":"address"}],"outputs":[{"name":"delegation","type":"uint256","internalType":"uint256"}],"stateMutability":"view"},{"type":"function","name":"coverageByVault","inputs":[{"name":"","type":"address","internalType":"address"},{"name":"_agent","type":"address","internalType":"address"},{"name":"_vault","type":"address","internalType":"address"},{"name":"","type":"address","internalType":"address"},{"name":"","type":"uint48","internalType":"uint48"}],"outputs":[{"name":"collateralValue","type":"uint256","internalType":"uint256"},{"name":"collateral","type":"uint256","internalType":"uint256"}],"stateMutability":"view"},{"type":"function","name":"distributeRewards","inputs":[{"name":"_agent","type":"address","internalType":"address"},{"name":"_token","type":"address","internalType":"address"}],"outputs":[],"stateMutability":"nonpayable"},{"type":"function","name":"initialize","inputs":[{"name":"_accessControl","type":"address","internalType":"address"},{"name":"_network","type":"address","internalType":"address"},{"name":"_vaultRegistry","type":"address","internalType":"address"},{"name":"_oracle","type":"address","internalType":"address"},{"name":"_requiredEpochDuration","type":"uint48","internalType":"uint48"},{"name":"_feeAllowed","type":"uint256","internalType":"uint256"}],"outputs":[],"stateMutability":"nonpayable"},{"type":"function","name":"mockCollateralByVault","inputs":[{"name":"","type":"address","internalType":"address"},{"name":"","type":"address","internalType":"address"}],"outputs":[{"name":"","type":"uint256","internalType":"uint256"}],"stateMutability":"view"},{"type":"function","name":"mockCoverage","inputs":[{"name":"","type":"address","internalType":"address"}],"outputs":[{"name":"","type":"uint256","internalType":"uint256"}],"stateMutability":"view"},{"type":"function","name":"mockSlashableCollateral","inputs":[{"name":"","type":"address","internalType":"address"}],"outputs":[{"name":"","type":"uint256","internalType":"uint256"}],"stateMutability":"view"},{"type":"function","name":"mockSlashableCollateralByVault","inputs":[{"name":"","type":"address","internalType":"address"},{"name":"","type":"address","internalType":"address"}],"outputs":[{"name":"","type":"uint256","internalType":"uint256"}],"stateMutability":"view"},{"type":"function","name":"registerAgent","inputs":[{"name":"_agent","type":"address","internalType":"address"},{"name":"_vault","type":"address","internalType":"address"}],"outputs":[],"stateMutability":"nonpayable"},{"type":"function","name":"registerVault","inputs":[{"name":"_vault","type":"address","internalType":"address"},{"name":"_stakerRewarder","type":"address","internalType":"address"}],"outputs":[],"stateMutability":"nonpayable"},{"type":"function","name":"setFeeAllowed","inputs":[{"name":"_feeAllowed","type":"uint256","internalType":"uint256"}],"outputs":[],"stateMutability":"nonpayable"},{"type":"function","name":"setMockCollateralByVault","inputs":[{"name":"_agent","type":"address","internalType":"address"},{"name":"_vault","type":"address","internalType":"address"},{"name":"_collateral","type":"uint256","internalType":"uint256"}],"outputs":[],"stateMutability":"nonpayable"},{"type":"function","name":"setMockCoverage","inputs":[{"name":"_agent","type":"address","internalType":"address"},{"name":"_coverage","type":"uint256","internalType":"uint256"}],"outputs":[],"stateMutability":"nonpayable"},{"type":"function","name":"setMockSlashableCollateral","inputs":[{"name":"_agent","type":"address","internalType":"address"},{"name":"_slashableCollateral","type":"uint256","internalType":"uint256"}],"outputs":[],"stateMutability":"nonpayable"},{"type":"function","name":"setMockSlashableCollateralByVault","inputs":[{"name":"_agent","type":"address","internalType":"address"},{"name":"_vault","type":"address","internalType":"address"},{"name":"_slashableCollateral","type":"uint256","internalType":"uint256"}],"outputs":[],"stateMutability":"nonpayable"},{"type":"function","name":"slash","inputs":[{"name":"_agent","type":"address","internalType":"address"},{"name":"_recipient","type":"address","internalType":"address"},{"name":"_slashShare","type":"uint256","internalType":"uint256"},{"name":"","type":"uint48","internalType":"uint48"}],"outputs":[],"stateMutability":"nonpayable"},{"type":"function","name":"slashableCollateral","inputs":[{"name":"_agent","type":"address","internalType":"address"},{"name":"","type":"uint48","internalType":"uint48"}],"outputs":[{"name":"_slashableCollateral","type":"uint256","internalType":"uint256"}],"stateMutability":"view"},{"type":"function","name":"slashableCollateralByVault","inputs":[{"name":"","type":"address","internalType":"address"},{"name":"_agent","type":"address","internalType":"address"},{"name":"_vault","type":"address","internalType":"address"},{"name":"","type":"address","internalType":"address"},{"name":"","type":"uint48","internalType":"uint48"}],"outputs":[{"name":"collateralValue","type":"uint256","internalType":"uint256"},{"name":"collateral","type":"uint256","internalType":"uint256"}],"stateMutability":"view"},{"type":"function","name":"subnetwork","inputs":[{"name":"_agent","type":"address","internalType":"address"}],"outputs":[{"name":"id","type":"bytes32","internalType":"bytes32"}],"stateMutability":"view"},{"type":"function","name":"subnetworkIdentifier","inputs":[{"name":"_agent","type":"address","internalType":"address"}],"outputs":[{"name":"id","type":"uint96","internalType":"uint96"}],"stateMutability":"pure"},{"type":"function","name":"vaults","inputs":[{"name":"_agent","type":"address","internalType":"address"}],"outputs":[{"name":"vault","type":"address","internalType":"address"}],"stateMutability":"view"},{"type":"event","name":"AgentRegistered","inputs":[{"name":"agent","type":"address","indexed":false,"internalType":"address"}],"anonymous":false},{"type":"event","name":"Slash","inputs":[{"name":"agent","type":"address","indexed":true,"internalType":"address"},{"name":"recipient","type":"address","indexed":false,"internalType":"address"},{"name":"amount","type":"uint256","indexed":false,"internalType":"uint256"}],"anonymous":false},{"type":"event","name":"VaultRegistered","inputs":[{"name":"vault","type":"address","indexed":false,"internalType":"address"}],"anonymous":false},{"type":"error","name":"ExistingCoverage","inputs":[]},{"type":"error","name":"InvalidAgent","inputs":[]},{"type":"error","name":"InvalidBurnerRouter","inputs":[]},{"type":"error","name":"InvalidDelegator","inputs":[]},{"type":"error","name":"InvalidEpochDuration","inputs":[{"name":"required","type":"uint48","internalType":"uint48"},{"name":"actual","type":"uint48","internalType":"uint48"}]},{"type":"error","name":"InvalidSlasher","inputs":[]},{"type":"error","name":"NoBurner","inputs":[]},{"type":"error","name":"NoSlashableCollateral","inputs":[]},{"type":"error","name":"NoSlasher","inputs":[]},{"type":"error","name":"NoStakerRewarder","inputs":[]},{"type":"error","name":"NotVault","inputs":[]},{"type":"error","name":"VaultDoesNotExist","inputs":[]},{"type":"error","name":"VaultExists","inputs":[]},{"type":"error","name":"VaultNotInitialized","inputs":[]}],"bytecode":{"object":"0x6080604052348015600e575f5ffd5b50610bcf8061001c5f395ff3fe608060405234801561000f575f5ffd5b506004361061013d575f3560e01c8063677321da116100b4578063a622ee7c11610079578063a622ee7c14610395578063c2f348da146103d8578063c61eafed146103ee578063d04dacee1461040d578063d2ee136714610436578063edfb891b14610460575f5ffd5b8063677321da146102d457806368af66a7146102e7578063814813c1146103065780638c01df1f1461032f578063913668ac1461036c575f5ffd5b8063392b50f911610105578063392b50f9146102095780633d11c00d146102425780634cfb842b14610254578063512d05c9146102675780635bb27387146102975780635eef81f8146102c1575f5ffd5b806305c4fdf9146101415780630f42c1c11461015657806332cfdfbf1461017c578063330244301461018f578063366d1cf9146101b7575b5f5ffd5b61015461014f36600461090c565b610499565b005b61016961016436600461093d565b610523565b6040519081526020015b60405180910390f35b61015461018a366004610972565b610569565b61016961019d36600461093d565b6001600160a01b03165f9081526006602052604090205490565b6101f46101c53660046109bc565b50506001600160a01b039182165f90815260086020908152604080832093909416825291909152205491829150565b60408051928352602083019190915201610173565b610154610217366004610a1d565b6001600160a01b039283165f9081526008602090815260408083209490951682529290925291902055565b61015461025036600461090c565b5050565b610154610262366004610a57565b600355565b61027a61027536600461093d565b610784565b6040516bffffffffffffffffffffffff9091168152602001610173565b6101696102a536600461090c565b600860209081525f928352604080842090915290825290205481565b6101546102cf366004610a1d565b6107c0565b6101546102e236600461090c565b610893565b6101696102f536600461093d565b60066020525f908152604090205481565b610169610314366004610a6e565b506001600160a01b03165f9081526007602052604090205490565b6101f461033d3660046109bc565b50506001600160a01b039182165f90815260096020908152604080832093909416825291909152205491829150565b61015461037a366004610a96565b6001600160a01b039091165f90815260066020526040902055565b6103c06103a336600461093d565b6001600160a01b039081165f908152600560205260409020541690565b6040516001600160a01b039091168152602001610173565b6101546103e6366004610abe565b505050505050565b6101696103fc36600461093d565b60076020525f908152604090205481565b61015461041b366004610a96565b6001600160a01b039091165f90815260076020526040902055565b61016961044436600461090c565b600960209081525f928352604080842090915290825290205481565b61015461046e366004610a1d565b6001600160a01b039283165f9081526009602090815260408083209490951682529290925291902055565b6040805180820182526001600160a01b038381168252600160208084019182528683165f818152600483528690209451855493511515600160a01b026001600160a81b03199094169416939093179190911790925591519182527f8e0930709528779f1112249aac8fcca15dbb9c595db31092c7bc7f954b56793391015b60405180910390a15050565b5f8054610563906001600160a01b031661053c84610784565b6bffffffffffffffffffffffff1660609190911b6bffffffffffffffffffffffff19161790565b92915050565b6001600160a01b0384165f90815260076020526040902054670de0b6b3a764000090610596908490610b3d565b6105a09190610b54565b6001600160a01b0385165f90815260076020526040812080549091906105c7908490610b73565b90915550506001600160a01b0384165f90815260066020526040902054670de0b6b3a7640000906105f9908490610b3d565b6106039190610b54565b6001600160a01b0385165f908152600660205260408120805490919061062a908490610b73565b90915550506001600160a01b038085165f9081526005602090815260408083205460088352818420941680845293909152902054670de0b6b3a764000090610673908590610b3d565b61067d9190610b54565b6001600160a01b038087165f908152600860209081526040808320938616835292905290812080549091906106b3908490610b73565b90915550506001600160a01b038086165f90815260096020908152604080832093851683529290522054670de0b6b3a7640000906106f2908590610b3d565b6106fc9190610b54565b6001600160a01b038087165f90815260096020908152604080832093861683529290529081208054909190610732908490610b73565b9091555050604080516001600160a01b038681168252602082018690528716917f9995717781b7b3ba3dd9e553a2b5a2b7593ad9b71f5022a3691a089d5189bd19910160405180910390a25050505050565b6040805160609290921b6bffffffffffffffffffffffff1916602080840191909152815160148185030181526034909301909152815191012090565b6001600160a01b0383165f90815260066020526040812080548392906107e7908490610b86565b90915550506001600160a01b0383165f9081526007602052604081208054839290610813908490610b86565b90915550506001600160a01b038084165f9081526008602090815260408083209386168352929052908120805483929061084e908490610b86565b90915550506001600160a01b038084165f90815260096020908152604080832093861683529290529081208054839290610889908490610b86565b9091555050505050565b6001600160a01b038281165f8181526005602090815260409182902080546001600160a01b03191694861694909417909355519081527f82d0829d9d481e4cb9913897f9b9c903271c4db68c7b3324071d2a7e3b2c5ff09101610517565b80356001600160a01b0381168114610907575f5ffd5b919050565b5f5f6040838503121561091d575f5ffd5b610926836108f1565b9150610934602084016108f1565b90509250929050565b5f6020828403121561094d575f5ffd5b610956826108f1565b9392505050565b803565ffffffffffff81168114610907575f5ffd5b5f5f5f5f60808587031215610985575f5ffd5b61098e856108f1565b935061099c602086016108f1565b9250604085013591506109b16060860161095d565b905092959194509250565b5f5f5f5f5f60a086880312156109d0575f5ffd5b6109d9866108f1565b94506109e7602087016108f1565b93506109f5604087016108f1565b9250610a03606087016108f1565b9150610a116080870161095d565b90509295509295909350565b5f5f5f60608486031215610a2f575f5ffd5b610a38846108f1565b9250610a46602085016108f1565b929592945050506040919091013590565b5f60208284031215610a67575f5ffd5b5035919050565b5f5f60408385031215610a7f575f5ffd5b610a88836108f1565b91506109346020840161095d565b5f5f60408385031215610aa7575f5ffd5b610ab0836108f1565b946020939093013593505050565b5f5f5f5f5f5f60c08789031215610ad3575f5ffd5b610adc876108f1565b9550610aea602088016108f1565b9450610af8604088016108f1565b9350610b06606088016108f1565b9250610b146080880161095d565b9598949750929591949360a090920135925050565b634e487b7160e01b5f52601160045260245ffd5b808202811582820484141761056357610563610b29565b5f82610b6e57634e487b7160e01b5f52601260045260245ffd5b500490565b8181038181111561056357610563610b29565b8082018082111561056357610563610b2956fea26469706673582212200e93df311490ea8876505e6e0e0d0ca66de0fcdba8ab242a673576ca46fdbb9764736f6c634300081c0033","linkReferences":{}},"methodIdentifiers":{"addMockAgentCoverage(address,address,uint256)":"5eef81f8","coverage(address)":"33024430","coverageByVault(address,address,address,address,uint48)":"366d1cf9","distributeRewards(address,address)":"3d11c00d","initialize(address,address,address,address,uint48,uint256)":"c2f348da","mockCollateralByVault(address,address)":"5bb27387","mockCoverage(address)":"68af66a7","mockSlashableCollateral(address)":"c61eafed","mockSlashableCollateralByVault(address,address)":"d2ee1367","registerAgent(address,address)":"677321da","registerVault(address,address)":"05c4fdf9","setFeeAllowed(uint256)":"4cfb842b","setMockCollateralByVault(address,address,uint256)":"392b50f9","setMockCoverage(address,uint256)":"913668ac","setMockSlashableCollateral(address,uint256)":"d04dacee","setMockSlashableCollateralByVault(address,address,uint256)":"edfb891b","slash(address,address,uint256,uint48)":"32cfdfbf","slashableCollateral(address,uint48)":"814813c1","slashableCollateralByVault(address,address,address,address,uint48)":"8c01df1f","subnetwork(address)":"0f42c1c1","subnetworkIdentifier(address)":"512d05c9","vaults(address)":"a622ee7c"},"id":335}