{"abi":[{"type":"constructor","inputs":[{"name":"_endpoint","type":"address","internalType":"address"}],"stateMutability":"nonpayable"},{"type":"function","name":"assertHeader","inputs":[{"name":"_packetHeader","type":"bytes","internalType":"bytes"},{"name":"_localEid","type":"uint32","internalType":"uint32"}],"outputs":[],"stateMutability":"pure"},{"type":"function","name":"commitVerification","inputs":[{"name":"_packetHeader","type":"bytes","internalType":"bytes"},{"name":"_payloadHash","type":"bytes32","internalType":"bytes32"}],"outputs":[],"stateMutability":"nonpayable"},{"type":"function","name":"getAppUlnConfig","inputs":[{"name":"_oapp","type":"address","internalType":"address"},{"name":"_remoteEid","type":"uint32","internalType":"uint32"}],"outputs":[{"name":"","type":"tuple","internalType":"struct UlnConfig","components":[{"name":"confirmations","type":"uint64","internalType":"uint64"},{"name":"requiredDVNCount","type":"uint8","internalType":"uint8"},{"name":"optionalDVNCount","type":"uint8","internalType":"uint8"},{"name":"optionalDVNThreshold","type":"uint8","internalType":"uint8"},{"name":"requiredDVNs","type":"address[]","internalType":"address[]"},{"name":"optionalDVNs","type":"address[]","internalType":"address[]"}]}],"stateMutability":"view"},{"type":"function","name":"getConfig","inputs":[{"name":"_eid","type":"uint32","internalType":"uint32"},{"name":"_oapp","type":"address","internalType":"address"},{"name":"_configType","type":"uint32","internalType":"uint32"}],"outputs":[{"name":"","type":"bytes","internalType":"bytes"}],"stateMutability":"view"},{"type":"function","name":"getUlnConfig","inputs":[{"name":"_oapp","type":"address","internalType":"address"},{"name":"_remoteEid","type":"uint32","internalType":"uint32"}],"outputs":[{"name":"rtnConfig","type":"tuple","internalType":"struct UlnConfig","components":[{"name":"confirmations","type":"uint64","internalType":"uint64"},{"name":"requiredDVNCount","type":"uint8","internalType":"uint8"},{"name":"optionalDVNCount","type":"uint8","internalType":"uint8"},{"name":"optionalDVNThreshold","type":"uint8","internalType":"uint8"},{"name":"requiredDVNs","type":"address[]","internalType":"address[]"},{"name":"optionalDVNs","type":"address[]","internalType":"address[]"}]}],"stateMutability":"view"},{"type":"function","name":"hashLookup","inputs":[{"name":"headerHash","type":"bytes32","internalType":"bytes32"},{"name":"payloadHash","type":"bytes32","internalType":"bytes32"},{"name":"dvn","type":"address","internalType":"address"}],"outputs":[{"name":"submitted","type":"bool","internalType":"bool"},{"name":"confirmations","type":"uint64","internalType":"uint64"}],"stateMutability":"view"},{"type":"function","name":"isSupportedEid","inputs":[{"name":"_eid","type":"uint32","internalType":"uint32"}],"outputs":[{"name":"","type":"bool","internalType":"bool"}],"stateMutability":"view"},{"type":"function","name":"messageLibType","inputs":[],"outputs":[{"name":"","type":"uint8","internalType":"enum MessageLibType"}],"stateMutability":"pure"},{"type":"function","name":"owner","inputs":[],"outputs":[{"name":"","type":"address","internalType":"address"}],"stateMutability":"view"},{"type":"function","name":"renounceOwnership","inputs":[],"outputs":[],"stateMutability":"nonpayable"},{"type":"function","name":"setConfig","inputs":[{"name":"_oapp","type":"address","internalType":"address"},{"name":"_params","type":"tuple[]","internalType":"struct SetConfigParam[]","components":[{"name":"eid","type":"uint32","internalType":"uint32"},{"name":"configType","type":"uint32","internalType":"uint32"},{"name":"config","type":"bytes","internalType":"bytes"}]}],"outputs":[],"stateMutability":"nonpayable"},{"type":"function","name":"setDefaultUlnConfigs","inputs":[{"name":"_params","type":"tuple[]","internalType":"struct SetDefaultUlnConfigParam[]","components":[{"name":"eid","type":"uint32","internalType":"uint32"},{"name":"config","type":"tuple","internalType":"struct UlnConfig","components":[{"name":"confirmations","type":"uint64","internalType":"uint64"},{"name":"requiredDVNCount","type":"uint8","internalType":"uint8"},{"name":"optionalDVNCount","type":"uint8","internalType":"uint8"},{"name":"optionalDVNThreshold","type":"uint8","internalType":"uint8"},{"name":"requiredDVNs","type":"address[]","internalType":"address[]"},{"name":"optionalDVNs","type":"address[]","internalType":"address[]"}]}]}],"outputs":[],"stateMutability":"nonpayable"},{"type":"function","name":"supportsInterface","inputs":[{"name":"_interfaceId","type":"bytes4","internalType":"bytes4"}],"outputs":[{"name":"","type":"bool","internalType":"bool"}],"stateMutability":"view"},{"type":"function","name":"transferOwnership","inputs":[{"name":"newOwner","type":"address","internalType":"address"}],"outputs":[],"stateMutability":"nonpayable"},{"type":"function","name":"verifiable","inputs":[{"name":"_config","type":"tuple","internalType":"struct UlnConfig","components":[{"name":"confirmations","type":"uint64","internalType":"uint64"},{"name":"requiredDVNCount","type":"uint8","internalType":"uint8"},{"name":"optionalDVNCount","type":"uint8","internalType":"uint8"},{"name":"optionalDVNThreshold","type":"uint8","internalType":"uint8"},{"name":"requiredDVNs","type":"address[]","internalType":"address[]"},{"name":"optionalDVNs","type":"address[]","internalType":"address[]"}]},{"name":"_headerHash","type":"bytes32","internalType":"bytes32"},{"name":"_payloadHash","type":"bytes32","internalType":"bytes32"}],"outputs":[{"name":"","type":"bool","internalType":"bool"}],"stateMutability":"view"},{"type":"function","name":"verify","inputs":[{"name":"_packetHeader","type":"bytes","internalType":"bytes"},{"name":"_payloadHash","type":"bytes32","internalType":"bytes32"},{"name":"_confirmations","type":"uint64","internalType":"uint64"}],"outputs":[],"stateMutability":"nonpayable"},{"type":"function","name":"version","inputs":[],"outputs":[{"name":"major","type":"uint64","internalType":"uint64"},{"name":"minor","type":"uint8","internalType":"uint8"},{"name":"endpointVersion","type":"uint8","internalType":"uint8"}],"stateMutability":"pure"},{"type":"event","name":"DefaultUlnConfigsSet","inputs":[{"name":"params","type":"tuple[]","indexed":false,"internalType":"struct SetDefaultUlnConfigParam[]","components":[{"name":"eid","type":"uint32","internalType":"uint32"},{"name":"config","type":"tuple","internalType":"struct UlnConfig","components":[{"name":"confirmations","type":"uint64","internalType":"uint64"},{"name":"requiredDVNCount","type":"uint8","internalType":"uint8"},{"name":"optionalDVNCount","type":"uint8","internalType":"uint8"},{"name":"optionalDVNThreshold","type":"uint8","internalType":"uint8"},{"name":"requiredDVNs","type":"address[]","internalType":"address[]"},{"name":"optionalDVNs","type":"address[]","internalType":"address[]"}]}]}],"anonymous":false},{"type":"event","name":"OwnershipTransferred","inputs":[{"name":"previousOwner","type":"address","indexed":true,"internalType":"address"},{"name":"newOwner","type":"address","indexed":true,"internalType":"address"}],"anonymous":false},{"type":"event","name":"PayloadVerified","inputs":[{"name":"dvn","type":"address","indexed":false,"internalType":"address"},{"name":"header","type":"bytes","indexed":false,"internalType":"bytes"},{"name":"confirmations","type":"uint256","indexed":false,"internalType":"uint256"},{"name":"proofHash","type":"bytes32","indexed":false,"internalType":"bytes32"}],"anonymous":false},{"type":"event","name":"UlnConfigSet","inputs":[{"name":"oapp","type":"address","indexed":false,"internalType":"address"},{"name":"eid","type":"uint32","indexed":false,"internalType":"uint32"},{"name":"config","type":"tuple","indexed":false,"internalType":"struct UlnConfig","components":[{"name":"confirmations","type":"uint64","internalType":"uint64"},{"name":"requiredDVNCount","type":"uint8","internalType":"uint8"},{"name":"optionalDVNCount","type":"uint8","internalType":"uint8"},{"name":"optionalDVNThreshold","type":"uint8","internalType":"uint8"},{"name":"requiredDVNs","type":"address[]","internalType":"address[]"},{"name":"optionalDVNs","type":"address[]","internalType":"address[]"}]}],"anonymous":false},{"type":"error","name":"LZ_MessageLib_OnlyEndpoint","inputs":[]},{"type":"error","name":"LZ_ULN_AtLeastOneDVN","inputs":[]},{"type":"error","name":"LZ_ULN_InvalidConfigType","inputs":[{"name":"configType","type":"uint32","internalType":"uint32"}]},{"type":"error","name":"LZ_ULN_InvalidConfirmations","inputs":[]},{"type":"error","name":"LZ_ULN_InvalidEid","inputs":[]},{"type":"error","name":"LZ_ULN_InvalidOptionalDVNCount","inputs":[]},{"type":"error","name":"LZ_ULN_InvalidOptionalDVNThreshold","inputs":[]},{"type":"error","name":"LZ_ULN_InvalidPacketHeader","inputs":[]},{"type":"error","name":"LZ_ULN_InvalidPacketVersion","inputs":[]},{"type":"error","name":"LZ_ULN_InvalidRequiredDVNCount","inputs":[]},{"type":"error","name":"LZ_ULN_Unsorted","inputs":[]},{"type":"error","name":"LZ_ULN_UnsupportedEid","inputs":[{"name":"eid","type":"uint32","internalType":"uint32"}]},{"type":"error","name":"LZ_ULN_Verifying","inputs":[]},{"type":"error","name":"OwnableInvalidOwner","inputs":[{"name":"owner","type":"address","internalType":"address"}]},{"type":"error","name":"OwnableUnauthorizedAccount","inputs":[{"name":"account","type":"address","internalType":"address"}]}],"bytecode":{"object":"0x60c060405234801561000f575f5ffd5b5060405161236f38038061236f83398101604081905261002e9161012d565b8080816001600160a01b031663416ecebf6040518163ffffffff1660e01b8152600401602060405180830381865afa15801561006c573d5f5f3e3d5ffd5b505050506040513d601f19601f82011682018060405250810190610090919061015a565b33806100b557604051631e4fbdf760e01b81525f600482015260240160405180910390fd5b6100be816100de565b506001600160a01b0390911660805263ffffffff1660a0525061017d9050565b5f80546001600160a01b038381166001600160a01b0319831681178455604051919092169283917f8be0079c531659141344cd1fd0a4f28419497f9722a3daafe3b4186f6b6457e09190a35050565b5f6020828403121561013d575f5ffd5b81516001600160a01b0381168114610153575f5ffd5b9392505050565b5f6020828403121561016a575f5ffd5b815163ffffffff81168114610153575f5ffd5b60805160a0516121ca6101a55f395f61031401525f818161040d015261047101526121ca5ff3fe608060405234801561000f575f5ffd5b5060043610610106575f3560e01c806343ea4fa91161009e5780638da5cb5b1161006e5780638da5cb5b1461025e5780639c33abf714610278578063c40ff83514610298578063e084d952146102ab578063f2fde38b146102be575f5ffd5b806343ea4fa91461021157806354fd4d50146102245780636750cd4c14610243578063715018a614610256575f5ffd5b806320efd722116100d957806320efd7221461016957806329460b0b1461017c57806339e3f9381461018f5780633c782a52146101af575f5ffd5b806301ffc9a71461010a5780630223536e146101325780630894edf1146101475780631881d94d1461015a575b5f5ffd5b61011d61011836600461169e565b6102d1565b60405190151581526020015b60405180910390f35b610145610140366004611724565b6102fb565b005b61014561015536600461177c565b61030d565b600160405161012991906117c3565b61014561017736600461183f565b61046f565b61014561018a36600461188d565b610590565b6101a261019d3660046118de565b610726565b60405161012991906119c2565b6101f26101bd3660046119d4565b600260209081525f938452604080852082529284528284209052825290205460ff81169061010090046001600160401b031682565b6040805192151583526001600160401b03909116602083015201610129565b6101a261021f3660046118de565b61085c565b60408051600381525f6020820152600291810191909152606001610129565b61011d610251366004611a06565b610b5f565b610145610b69565b5f546040516001600160a01b039091168152602001610129565b61028b610286366004611a1f565b610b7c565b6040516101299190611a56565b6101456102a6366004611a8b565b610be5565b61011d6102b9366004611c7b565b610bf5565b6101456102cc366004611cc4565b610c09565b5f6001600160e01b03198216630ab7be9f60e01b14806102f557506102f582610c46565b92915050565b61030784848484610c7a565b50505050565b61033883837f0000000000000000000000000000000000000000000000000000000000000000610d5e565b5f6103438484610de1565b90505f6103508585610df2565b90505f61035d838361085c565b9050610381818787604051610373929190611cdd565b604051809103902086610e14565b5f60405180606001604052808463ffffffff1681526020016103a38989610f5e565b81526020016103b28989610f76565b6001600160401b039081169091526040805163a825d74760e01b8152835163ffffffff166004820152602084015160248201529083015190911660448201526001600160a01b038681166064830152608482018890529192507f00000000000000000000000000000000000000000000000000000000000000009091169063a825d7479060a4015f604051808303815f87803b158015610450575f5ffd5b505af1158015610462573d5f5f3e3d5ffd5b5050505050505050505050565b7f00000000000000000000000000000000000000000000000000000000000000006001600160a01b031633146104b85760405163467409c360e01b815260040160405180910390fd5b5f5b8181101561030757368383838181106104d5576104d5611cec565b90506020028101906104e79190611d00565b90506104fe6104f96020830183611a06565b610f98565b60026105106040830160208401611a06565b63ffffffff16036105505761054b61052b6020830183611a06565b866105396040850185611d1e565b8101906105469190611d60565b610fc6565b610587565b6105606040820160208301611a06565b604051635d4be0fd60e11b815263ffffffff90911660048201526024015b60405180910390fd5b506001016104ba565b61059861101c565b5f5b818110156106e857368383838181106105b5576105b5611cec565b90506020028101906105c79190611d91565b905060ff6105d86020830183611da5565b6105e9906040810190602001611db9565b60ff160361060a576040516341d50bed60e11b815260040160405180910390fd5b60ff6106196020830183611da5565b61062a906060810190604001611db9565b60ff160361064b5760405163211089b360e11b815260040160405180910390fd5b6001600160401b036106606020830183611da5565b61066e906020810190611dd2565b6001600160401b0316036106955760405163281b33d760e11b815260040160405180910390fd5b6106b36106a56020830183611da5565b6106ae90611deb565b611048565b6106df5f6106c46020840184611a06565b6106d16020850185611da5565b6106da90611deb565b611080565b5060010161059a565b507faaf3aaa0c11056e86ac56eb653e25b005ca1a7d4dcd21ba24647f7ab63f3b560828260405161071a929190611e76565b60405180910390a15050565b61072e6115e3565b6001600160a01b0383165f90815260016020818152604080842063ffffffff87168552825292839020835160c08101855281546001600160401b038116825260ff600160401b8204811683860152600160481b8204811683880152600160501b90910416606082015292810180548551818502810185019096528086529394919360808601938301828280156107eb57602002820191905f5260205f20905b81546001600160a01b031681526001909101906020018083116107cd575b505050505081526020016002820180548060200260200160405190810160405280929190818152602001828054801561084b57602002820191905f5260205f20905b81546001600160a01b0316815260019091019060200180831161082d575b505050505081525050905092915050565b6108646115e3565b63ffffffff82165f8181527fa6eef7e35abe7026729641147f7915573c7e97b47efa546f5f6e3230263bcb49602090815260408083206001600160a01b03881684526001835281842094845293909152902080546001600160401b0316806108d85782546001600160401b031684526108f5565b6001600160401b03818116146108f5576001600160401b03811684525b8154600160401b900460ff1661098d578254600160401b900460ff1615610988578260010180548060200260200160405190810160405280929190818152602001828054801561096c57602002820191905f5260205f20905b81546001600160a01b0316815260019091019060200180831161094e575b505050505060808501528254600160401b900460ff1660208501525b610a12565b8154600160401b900460ff90811614610a1257816001018054806020026020016040519081016040528092919081815260200182805480156109f657602002820191905f5260205f20905b81546001600160a01b031681526001909101906020018083116109d8575b505050505060808501528154600160401b900460ff1660208501525b8154600160481b900460ff16610ab9578254600160481b900460ff1615610ab45782600201805480602002602001604051908101604052809291908181526020018280548015610a8957602002820191905f5260205f20905b81546001600160a01b03168152600190910190602001808311610a6b575b505050505060a0850152825460ff600160481b820481166040870152600160501b9091041660608501525b610b4d565b8154600160481b900460ff90811614610b4d5781600201805480602002602001604051908101604052809291908181526020018280548015610b2257602002820191905f5260205f20905b81546001600160a01b03168152600190910190602001808311610b04575b505050505060a0850152815460ff600160481b820481166040870152600160501b9091041660608501525b610b5684611048565b50505092915050565b5f6102f582611318565b610b7161101c565b610b7a5f611372565b565b606060011963ffffffff831601610bbd57610b97838561085c565b604051602001610ba791906119c2565b6040516020818303038152906040529050610bde565b604051635d4be0fd60e11b815263ffffffff8316600482015260240161057e565b9392505050565b610bf0838383610d5e565b505050565b5f610c018484846113c1565b949350505050565b610c1161101c565b6001600160a01b038116610c3a57604051631e4fbdf760e01b81525f600482015260240161057e565b610c4381611372565b50565b5f6001600160e01b031982166325fc096160e21b14806102f557506301ffc9a760e01b6001600160e01b03198316146102f5565b604080518082018252600181526001600160401b038316602082015290516002905f90610caa9088908890611cdd565b604080519182900390912082526020808301939093529081015f908120868252835281812033808352908452908290208451815495909401516001600160401b03166101000268ffffffffffffffff00199415159490941668ffffffffffffffffff19909516949094179290921790925590517f2cb0eed7538baeae4c6fde038c0fd0384d27de0dd55a228c65847bda6aa1ab5691610d50918790879086908890611fb0565b60405180910390a150505050565b60518214610d7f5760405163c9bf37b760e01b815260040160405180910390fd5b6001610d8b84846114c1565b60ff1614610dac57604051633a9ae7b960e01b815260040160405180910390fd5b8063ffffffff16610dbd84846114e2565b63ffffffff1614610bf05760405163216964bf60e11b815260040160405180910390fd5b5f610bde610def84846114f1565b90565b5f610e01600d60098486612008565b610e0a9161202f565b60e01c9392505050565b610e1f8383836113c1565b610e3c5760405163130c463560e21b815260040160405180910390fd5b602083015160ff1615610ece575f5b836020015160ff168160ff161015610ecc575f83815260026020908152604080832085845290915281206080860151805191929160ff8516908110610e9257610e92611cec565b6020908102919091018101516001600160a01b031682528101919091526040015f20805468ffffffffffffffffff19169055600101610e4b565b505b604083015160ff1615610bf0575f5b836040015160ff168160ff161015610307575f838152600260209081526040808320858452909152812060a0860151805191929160ff8516908110610f2457610f24611cec565b6020908102919091018101516001600160a01b031682528101919091526040015f20805468ffffffffffffffffff19169055600101610edd565b5f610f6d602d600d8486612008565b610bde91612067565b5f610f85600960018486612008565b610f8e91612084565b60c01c9392505050565b610fa181611318565b610c4357604051633c30434160e21b815263ffffffff8216600482015260240161057e565b610fd1828483611080565b610fdb828461085c565b507f82118522aa536ac0e96cc5c689407ae42b89d592aa133890a01f1509842f508182848360405161100f939291906120ba565b60405180910390a1505050565b5f546001600160a01b03163314610b7a5760405163118cdaa760e01b815233600482015260240161057e565b602081015160ff161580156110625750606081015160ff16155b15610c435760405163ce2c375160e01b815260040160405180910390fd5b602081015160ff908116148061109b5750602081015160ff16155b156110c957608081015151156110c4576040516341d50bed60e11b815260040160405180910390fd5b61112f565b806020015160ff16816080015151141580611104575060026110ed600160ff6120fd565b6110f79190612116565b60ff16816020015160ff16115b15611122576040516341d50bed60e11b815260040160405180910390fd5b61112f8160800151611500565b604081015160ff908116148061114a5750604081015160ff16155b1561119e5760a081015151156111735760405163211089b360e11b815260040160405180910390fd5b606081015160ff1615611199576040516338682fa960e01b815260040160405180910390fd5b611243565b806040015160ff168160a00151511415806111d9575060026111c2600160ff6120fd565b6111cc9190612116565b60ff16816040015160ff16115b156111f75760405163211089b360e11b815260040160405180910390fd5b606081015160ff1615806112185750806040015160ff16816060015160ff16115b15611236576040516338682fa960e01b815260040160405180910390fd5b6112438160a00151611500565b6001600160a01b0383165f90815260016020818152604080842063ffffffff8716855282529283902084518154868401519587015160608801516001600160401b0390931668ffffffffffffffffff1990921691909117600160401b60ff97881602176affff0000000000000000001916600160481b9187169190910260ff60501b191617600160501b9590911694909402939093178355608084015180518594936112f493908501920190611627565b5060a08201518051611310916002840191602090910190611627565b505050505050565b63ffffffff81165f9081527fa6eef7e35abe7026729641147f7915573c7e97b47efa546f5f6e3230263bcb49602052604081208054600160401b900460ff16151580610bde575054600160501b900460ff16151592915050565b5f80546001600160a01b038381166001600160a01b0319831681178455604051919092169283917f8be0079c531659141344cd1fd0a4f28419497f9722a3daafe3b4186f6b6457e09190a35050565b60208301515f9060ff161561143f575f5b846020015160ff168160ff1610156114285761141385608001518260ff168151811061140057611400611cec565b60200260200101518585885f0151611565565b611420575f915050610bde565b6001016113d2565b50836040015160ff165f0361143f57506001610bde565b60608401515f5b856040015160ff168160ff1610156114b6576114878660a001518260ff168151811061147457611474611cec565b60200260200101518686895f0151611565565b156114ae578161149681612143565b9250508160ff165f036114ae57600192505050610bde565b600101611446565b505f95945050505050565b5f6114cf6001828486612008565b6114d89161215e565b60f81c9392505050565b5f610e016031602d8486612008565b5f610f6d605160318486612008565b5f805b8251811015610bf0575f83828151811061151f5761151f611cec565b60200260200101519050826001600160a01b0316816001600160a01b03161161155b5760405163447516e160e01b815260040160405180910390fd5b9150600101611503565b5f83815260026020908152604080832085845282528083206001600160a01b0388168452825280832081518083019092525460ff81161580158084526101009092046001600160401b03169383019390935290916115d95750826001600160401b031681602001516001600160401b031610155b9695505050505050565b6040518060c001604052805f6001600160401b031681526020015f60ff1681526020015f60ff1681526020015f60ff16815260200160608152602001606081525090565b828054828255905f5260205f2090810192821561167a579160200282015b8281111561167a57825182546001600160a01b0319166001600160a01b03909116178255602090920191600190910190611645565b5061168692915061168a565b5090565b5b80821115611686575f815560010161168b565b5f602082840312156116ae575f5ffd5b81356001600160e01b031981168114610bde575f5ffd5b5f5f83601f8401126116d5575f5ffd5b5081356001600160401b038111156116eb575f5ffd5b602083019150836020828501011115611702575f5ffd5b9250929050565b80356001600160401b038116811461171f575f5ffd5b919050565b5f5f5f5f60608587031215611737575f5ffd5b84356001600160401b0381111561174c575f5ffd5b611758878288016116c5565b9095509350506020850135915061177160408601611709565b905092959194509250565b5f5f5f6040848603121561178e575f5ffd5b83356001600160401b038111156117a3575f5ffd5b6117af868287016116c5565b909790965060209590950135949350505050565b60208101600383106117e357634e487b7160e01b5f52602160045260245ffd5b91905290565b80356001600160a01b038116811461171f575f5ffd5b5f5f83601f84011261180f575f5ffd5b5081356001600160401b03811115611825575f5ffd5b6020830191508360208260051b8501011115611702575f5ffd5b5f5f5f60408486031215611851575f5ffd5b61185a846117e9565b925060208401356001600160401b03811115611874575f5ffd5b611880868287016117ff565b9497909650939450505050565b5f5f6020838503121561189e575f5ffd5b82356001600160401b038111156118b3575f5ffd5b6118bf858286016117ff565b90969095509350505050565b803563ffffffff8116811461171f575f5ffd5b5f5f604083850312156118ef575f5ffd5b6118f8836117e9565b9150611906602084016118cb565b90509250929050565b5f8151808452602084019350602083015f5b828110156119485781516001600160a01b0316865260209586019590910190600101611921565b5093949350505050565b6001600160401b03815116825260ff602082015116602083015260ff604082015116604083015260ff60608201511660608301525f608082015160c060808501526119a060c085018261190f565b905060a083015184820360a08601526119b9828261190f565b95945050505050565b602081525f610bde6020830184611952565b5f5f5f606084860312156119e6575f5ffd5b83359250602084013591506119fd604085016117e9565b90509250925092565b5f60208284031215611a16575f5ffd5b610bde826118cb565b5f5f5f60608486031215611a31575f5ffd5b611a3a846118cb565b9250611a48602085016117e9565b91506119fd604085016118cb565b602081525f82518060208401528060208501604085015e5f604082850101526040601f19601f83011684010191505092915050565b5f5f5f60408486031215611a9d575f5ffd5b83356001600160401b03811115611ab2575f5ffd5b611abe868287016116c5565b90945092506119fd9050602085016118cb565b634e487b7160e01b5f52604160045260245ffd5b60405160c081016001600160401b0381118282101715611b0757611b07611ad1565b60405290565b604051601f8201601f191681016001600160401b0381118282101715611b3557611b35611ad1565b604052919050565b803560ff8116811461171f575f5ffd5b5f82601f830112611b5c575f5ffd5b81356001600160401b03811115611b7557611b75611ad1565b8060051b611b8560208201611b0d565b91825260208185018101929081019086841115611ba0575f5ffd5b6020860192505b838310156115d957611bb8836117e9565b825260209283019290910190611ba7565b5f60c08284031215611bd9575f5ffd5b611be1611ae5565b9050611bec82611709565b8152611bfa60208301611b3d565b6020820152611c0b60408301611b3d565b6040820152611c1c60608301611b3d565b606082015260808201356001600160401b03811115611c39575f5ffd5b611c4584828501611b4d565b60808301525060a08201356001600160401b03811115611c63575f5ffd5b611c6f84828501611b4d565b60a08301525092915050565b5f5f5f60608486031215611c8d575f5ffd5b83356001600160401b03811115611ca2575f5ffd5b611cae86828701611bc9565b9660208601359650604090950135949350505050565b5f60208284031215611cd4575f5ffd5b610bde826117e9565b818382375f9101908152919050565b634e487b7160e01b5f52603260045260245ffd5b5f8235605e19833603018112611d14575f5ffd5b9190910192915050565b5f5f8335601e19843603018112611d33575f5ffd5b8301803591506001600160401b03821115611d4c575f5ffd5b602001915036819003821315611702575f5ffd5b5f60208284031215611d70575f5ffd5b81356001600160401b03811115611d85575f5ffd5b610c0184828501611bc9565b5f8235603e19833603018112611d14575f5ffd5b5f823560be19833603018112611d14575f5ffd5b5f60208284031215611dc9575f5ffd5b610bde82611b3d565b5f60208284031215611de2575f5ffd5b610bde82611709565b5f6102f53683611bc9565b5f5f8335601e19843603018112611e0b575f5ffd5b83016020810192503590506001600160401b03811115611e29575f5ffd5b8060051b3603821315611702575f5ffd5b8183526020830192505f815f5b84811015611948576001600160a01b03611e60836117e9565b1686526020958601959190910190600101611e47565b602080825281018290525f6040600584901b830181019083018583603e1936839003015b87821015611fa357868503603f190184528235818112611eb8575f5ffd5b890163ffffffff611ec8826118cb565b168652602081013560be19823603018112611ee1575f5ffd5b60406020880152016001600160401b03611efa82611709565b16604087015260ff611f0e60208301611b3d565b16606087015260ff611f2260408301611b3d565b16608087015260ff611f3660608301611b3d565b1660a0870152611f496080820182611df6565b60c080890152611f5e61010089018284611e3a565b915050611f6e60a0830183611df6565b888303603f190160e08a01529250611f87828483611e3a565b9750505050602083019250602084019350600182019150611e9a565b5092979650505050505050565b6001600160a01b03861681526080602082018190528101849052838560a08301375f60a085830101525f60a0601f19601f87011683010190506001600160401b03841660408301528260608301529695505050505050565b5f5f85851115612016575f5ffd5b83861115612022575f5ffd5b5050820193919092039150565b80356001600160e01b03198116906004841015612060576001600160e01b0319600485900360031b81901b82161691505b5092915050565b803560208310156102f5575f19602084900360031b1b1692915050565b80356001600160c01b03198116906008841015612060576001600160c01b031960089490940360031b84901b1690921692915050565b6001600160a01b038416815263ffffffff831660208201526060604082018190525f906119b990830184611952565b634e487b7160e01b5f52601160045260245ffd5b60ff82811682821603908111156102f5576102f56120e9565b5f60ff83168061213457634e487b7160e01b5f52601260045260245ffd5b8060ff84160491505092915050565b5f60ff821680612155576121556120e9565b5f190192915050565b80356001600160f81b03198116906001841015612060576001600160f81b031960019490940360031b84901b169092169291505056fea2646970667358221220000e34bee45e28729987c22f0a4fb03d41731f60cf9a632bcf9c7deb929bb3bf64736f6c634300081c0033","linkReferences":{}},"methodIdentifiers":{"assertHeader(bytes,uint32)":"c40ff835","commitVerification(bytes,bytes32)":"0894edf1","getAppUlnConfig(address,uint32)":"39e3f938","getConfig(uint32,address,uint32)":"9c33abf7","getUlnConfig(address,uint32)":"43ea4fa9","hashLookup(bytes32,bytes32,address)":"3c782a52","isSupportedEid(uint32)":"6750cd4c","messageLibType()":"1881d94d","owner()":"8da5cb5b","renounceOwnership()":"715018a6","setConfig(address,(uint32,uint32,bytes)[])":"20efd722","setDefaultUlnConfigs((uint32,(uint64,uint8,uint8,uint8,address[],address[]))[])":"29460b0b","supportsInterface(bytes4)":"01ffc9a7","transferOwnership(address)":"f2fde38b","verifiable((uint64,uint8,uint8,uint8,address[],address[]),bytes32,bytes32)":"e084d952","verify(bytes,bytes32,uint64)":"0223536e","version()":"54fd4d50"},"id":161}