{"abi":[{"type":"constructor","inputs":[{"name":"_asset","type":"address","internalType":"address"},{"name":"_cap","type":"address","internalType":"address"},{"name":"_stakedCap","type":"address","internalType":"address"},{"name":"_lzEndpoint","type":"address","internalType":"address"},{"name":"_dstEid","type":"uint32","internalType":"uint32"},{"name":"_maxCampaignLength","type":"uint256","internalType":"uint256"}],"stateMutability":"nonpayable"},{"type":"function","name":"DOMAIN_SEPARATOR","inputs":[],"outputs":[{"name":"","type":"bytes32","internalType":"bytes32"}],"stateMutability":"view"},{"type":"function","name":"allowance","inputs":[{"name":"owner","type":"address","internalType":"address"},{"name":"spender","type":"address","internalType":"address"}],"outputs":[{"name":"","type":"uint256","internalType":"uint256"}],"stateMutability":"view"},{"type":"function","name":"approve","inputs":[{"name":"spender","type":"address","internalType":"address"},{"name":"value","type":"uint256","internalType":"uint256"}],"outputs":[{"name":"","type":"bool","internalType":"bool"}],"stateMutability":"nonpayable"},{"type":"function","name":"asset","inputs":[],"outputs":[{"name":"","type":"address","internalType":"contract IERC20Metadata"}],"stateMutability":"view"},{"type":"function","name":"balanceOf","inputs":[{"name":"account","type":"address","internalType":"address"}],"outputs":[{"name":"","type":"uint256","internalType":"uint256"}],"stateMutability":"view"},{"type":"function","name":"cap","inputs":[],"outputs":[{"name":"","type":"address","internalType":"contract ICapToken"}],"stateMutability":"view"},{"type":"function","name":"decimals","inputs":[],"outputs":[{"name":"","type":"uint8","internalType":"uint8"}],"stateMutability":"view"},{"type":"function","name":"deposit","inputs":[{"name":"_amount","type":"uint256","internalType":"uint256"},{"name":"_minAmount","type":"uint256","internalType":"uint256"},{"name":"_destReceiver","type":"address","internalType":"address"},{"name":"_refundAddress","type":"address","internalType":"address"},{"name":"_deadline","type":"uint256","internalType":"uint256"}],"outputs":[{"name":"shares","type":"uint256","internalType":"uint256"}],"stateMutability":"payable"},{"type":"function","name":"eip712Domain","inputs":[],"outputs":[{"name":"fields","type":"bytes1","internalType":"bytes1"},{"name":"name","type":"string","internalType":"string"},{"name":"version","type":"string","internalType":"string"},{"name":"chainId","type":"uint256","internalType":"uint256"},{"name":"verifyingContract","type":"address","internalType":"address"},{"name":"salt","type":"bytes32","internalType":"bytes32"},{"name":"extensions","type":"uint256[]","internalType":"uint256[]"}],"stateMutability":"view"},{"type":"function","name":"enableTransfer","inputs":[],"outputs":[],"stateMutability":"nonpayable"},{"type":"function","name":"endpoint","inputs":[],"outputs":[{"name":"","type":"address","internalType":"contract ILayerZeroEndpointV2"}],"stateMutability":"view"},{"type":"function","name":"lzReceiveGas","inputs":[],"outputs":[{"name":"","type":"uint128","internalType":"uint128"}],"stateMutability":"view"},{"type":"function","name":"maxCampaignEnd","inputs":[],"outputs":[{"name":"","type":"uint256","internalType":"uint256"}],"stateMutability":"view"},{"type":"function","name":"name","inputs":[],"outputs":[{"name":"","type":"string","internalType":"string"}],"stateMutability":"view"},{"type":"function","name":"nonces","inputs":[{"name":"owner","type":"address","internalType":"address"}],"outputs":[{"name":"","type":"uint256","internalType":"uint256"}],"stateMutability":"view"},{"type":"function","name":"oAppVersion","inputs":[],"outputs":[{"name":"senderVersion","type":"uint64","internalType":"uint64"},{"name":"receiverVersion","type":"uint64","internalType":"uint64"}],"stateMutability":"view"},{"type":"function","name":"owner","inputs":[],"outputs":[{"name":"","type":"address","internalType":"address"}],"stateMutability":"view"},{"type":"function","name":"peers","inputs":[{"name":"eid","type":"uint32","internalType":"uint32"}],"outputs":[{"name":"peer","type":"bytes32","internalType":"bytes32"}],"stateMutability":"view"},{"type":"function","name":"permit","inputs":[{"name":"owner","type":"address","internalType":"address"},{"name":"spender","type":"address","internalType":"address"},{"name":"value","type":"uint256","internalType":"uint256"},{"name":"deadline","type":"uint256","internalType":"uint256"},{"name":"v","type":"uint8","internalType":"uint8"},{"name":"r","type":"bytes32","internalType":"bytes32"},{"name":"s","type":"bytes32","internalType":"bytes32"}],"outputs":[],"stateMutability":"nonpayable"},{"type":"function","name":"previewDeposit","inputs":[{"name":"_amount","type":"uint256","internalType":"uint256"}],"outputs":[{"name":"amountOut","type":"uint256","internalType":"uint256"}],"stateMutability":"view"},{"type":"function","name":"quote","inputs":[{"name":"_amountLD","type":"uint256","internalType":"uint256"},{"name":"_destReceiver","type":"address","internalType":"address"}],"outputs":[{"name":"fee","type":"tuple","internalType":"struct MessagingFee","components":[{"name":"nativeFee","type":"uint256","internalType":"uint256"},{"name":"lzTokenFee","type":"uint256","internalType":"uint256"}]}],"stateMutability":"view"},{"type":"function","name":"renounceOwnership","inputs":[],"outputs":[],"stateMutability":"nonpayable"},{"type":"function","name":"setDelegate","inputs":[{"name":"_delegate","type":"address","internalType":"address"}],"outputs":[],"stateMutability":"nonpayable"},{"type":"function","name":"setLzReceiveGas","inputs":[{"name":"_lzReceiveGas","type":"uint128","internalType":"uint128"}],"outputs":[],"stateMutability":"nonpayable"},{"type":"function","name":"setPeer","inputs":[{"name":"_eid","type":"uint32","internalType":"uint32"},{"name":"_peer","type":"bytes32","internalType":"bytes32"}],"outputs":[],"stateMutability":"nonpayable"},{"type":"function","name":"sharedDecimals","inputs":[],"outputs":[{"name":"","type":"uint8","internalType":"uint8"}],"stateMutability":"view"},{"type":"function","name":"stakedCap","inputs":[],"outputs":[{"name":"","type":"address","internalType":"contract IERC4626"}],"stateMutability":"view"},{"type":"function","name":"symbol","inputs":[],"outputs":[{"name":"","type":"string","internalType":"string"}],"stateMutability":"view"},{"type":"function","name":"totalSupply","inputs":[],"outputs":[{"name":"","type":"uint256","internalType":"uint256"}],"stateMutability":"view"},{"type":"function","name":"transfer","inputs":[{"name":"to","type":"address","internalType":"address"},{"name":"value","type":"uint256","internalType":"uint256"}],"outputs":[{"name":"","type":"bool","internalType":"bool"}],"stateMutability":"nonpayable"},{"type":"function","name":"transferEnabled","inputs":[],"outputs":[{"name":"enabled","type":"bool","internalType":"bool"}],"stateMutability":"view"},{"type":"function","name":"transferFrom","inputs":[{"name":"from","type":"address","internalType":"address"},{"name":"to","type":"address","internalType":"address"},{"name":"value","type":"uint256","internalType":"uint256"}],"outputs":[{"name":"","type":"bool","internalType":"bool"}],"stateMutability":"nonpayable"},{"type":"function","name":"transferOwnership","inputs":[{"name":"newOwner","type":"address","internalType":"address"}],"outputs":[],"stateMutability":"nonpayable"},{"type":"function","name":"withdraw","inputs":[{"name":"_amount","type":"uint256","internalType":"uint256"},{"name":"_receiver","type":"address","internalType":"address"}],"outputs":[],"stateMutability":"nonpayable"},{"type":"event","name":"Approval","inputs":[{"name":"owner","type":"address","indexed":true,"internalType":"address"},{"name":"spender","type":"address","indexed":true,"internalType":"address"},{"name":"value","type":"uint256","indexed":false,"internalType":"uint256"}],"anonymous":false},{"type":"event","name":"Deposit","inputs":[{"name":"user","type":"address","indexed":true,"internalType":"address"},{"name":"underlyingAmount","type":"uint256","indexed":false,"internalType":"uint256"},{"name":"shares","type":"uint256","indexed":false,"internalType":"uint256"}],"anonymous":false},{"type":"event","name":"EIP712DomainChanged","inputs":[],"anonymous":false},{"type":"event","name":"OwnershipTransferred","inputs":[{"name":"previousOwner","type":"address","indexed":true,"internalType":"address"},{"name":"newOwner","type":"address","indexed":true,"internalType":"address"}],"anonymous":false},{"type":"event","name":"PeerSet","inputs":[{"name":"eid","type":"uint32","indexed":false,"internalType":"uint32"},{"name":"peer","type":"bytes32","indexed":false,"internalType":"bytes32"}],"anonymous":false},{"type":"event","name":"Transfer","inputs":[{"name":"from","type":"address","indexed":true,"internalType":"address"},{"name":"to","type":"address","indexed":true,"internalType":"address"},{"name":"value","type":"uint256","indexed":false,"internalType":"uint256"}],"anonymous":false},{"type":"event","name":"TransferEnabled","inputs":[],"anonymous":false},{"type":"event","name":"Withdraw","inputs":[{"name":"user","type":"address","indexed":true,"internalType":"address"},{"name":"stakedCapAmount","type":"uint256","indexed":false,"internalType":"uint256"}],"anonymous":false},{"type":"error","name":"CampaignEnded","inputs":[]},{"type":"error","name":"ECDSAInvalidSignature","inputs":[]},{"type":"error","name":"ECDSAInvalidSignatureLength","inputs":[{"name":"length","type":"uint256","internalType":"uint256"}]},{"type":"error","name":"ECDSAInvalidSignatureS","inputs":[{"name":"s","type":"bytes32","internalType":"bytes32"}]},{"type":"error","name":"ERC20InsufficientAllowance","inputs":[{"name":"spender","type":"address","internalType":"address"},{"name":"allowance","type":"uint256","internalType":"uint256"},{"name":"needed","type":"uint256","internalType":"uint256"}]},{"type":"error","name":"ERC20InsufficientBalance","inputs":[{"name":"sender","type":"address","internalType":"address"},{"name":"balance","type":"uint256","internalType":"uint256"},{"name":"needed","type":"uint256","internalType":"uint256"}]},{"type":"error","name":"ERC20InvalidApprover","inputs":[{"name":"approver","type":"address","internalType":"address"}]},{"type":"error","name":"ERC20InvalidReceiver","inputs":[{"name":"receiver","type":"address","internalType":"address"}]},{"type":"error","name":"ERC20InvalidSender","inputs":[{"name":"sender","type":"address","internalType":"address"}]},{"type":"error","name":"ERC20InvalidSpender","inputs":[{"name":"spender","type":"address","internalType":"address"}]},{"type":"error","name":"ERC2612ExpiredSignature","inputs":[{"name":"deadline","type":"uint256","internalType":"uint256"}]},{"type":"error","name":"ERC2612InvalidSigner","inputs":[{"name":"signer","type":"address","internalType":"address"},{"name":"owner","type":"address","internalType":"address"}]},{"type":"error","name":"InvalidAccountNonce","inputs":[{"name":"account","type":"address","internalType":"address"},{"name":"currentNonce","type":"uint256","internalType":"uint256"}]},{"type":"error","name":"InvalidDelegate","inputs":[]},{"type":"error","name":"InvalidEndpointCall","inputs":[]},{"type":"error","name":"InvalidOptionType","inputs":[{"name":"optionType","type":"uint16","internalType":"uint16"}]},{"type":"error","name":"InvalidShortString","inputs":[]},{"type":"error","name":"LzTokenUnavailable","inputs":[]},{"type":"error","name":"NoPeer","inputs":[{"name":"eid","type":"uint32","internalType":"uint32"}]},{"type":"error","name":"NotEnoughNative","inputs":[{"name":"msgValue","type":"uint256","internalType":"uint256"}]},{"type":"error","name":"OnlyPeer","inputs":[{"name":"eid","type":"uint32","internalType":"uint32"},{"name":"sender","type":"bytes32","internalType":"bytes32"}]},{"type":"error","name":"OwnableInvalidOwner","inputs":[{"name":"owner","type":"address","internalType":"address"}]},{"type":"error","name":"OwnableUnauthorizedAccount","inputs":[{"name":"account","type":"address","internalType":"address"}]},{"type":"error","name":"SafeCastOverflowedUintDowncast","inputs":[{"name":"bits","type":"uint8","internalType":"uint8"},{"name":"value","type":"uint256","internalType":"uint256"}]},{"type":"error","name":"SafeERC20FailedOperation","inputs":[{"name":"token","type":"address","internalType":"address"}]},{"type":"error","name":"StringTooLong","inputs":[{"name":"str","type":"string","internalType":"string"}]},{"type":"error","name":"TransferNotEnabled","inputs":[]},{"type":"error","name":"ZeroAddress","inputs":[]},{"type":"error","name":"ZeroAmount","inputs":[]}],"bytecode":{"object":"0x610260604052600a80546001600160801b031916620186a0179055348015610025575f5ffd5b5060405161309738038061309783398101604081905261004491610603565b8282876001600160a01b031663313ce5676040518163ffffffff1660e01b8152600401602060405180830381865afa158015610082573d5f5f3e3d5ffd5b505050506040513d601f19601f820116820180604052508101906100a69190610678565b8233336040518060400160405280600c81526020016b109bdbdcdd19590818d554d160a21b81525080604051806040016040528060018152602001603160f81b8152506040518060400160405280600c81526020016b109bdbdcdd19590818d554d160a21b815250604051806040016040528060058152602001641898d554d160da1b815250816003908161013b9190610737565b5060046101488282610737565b50610158915083905060056103af565b610120526101678160066103af565b61014052815160208084019190912060e052815190820120610100524660a0526101f360e05161010051604080517f8b73c3c69bb8fe3d512ecc4cf759cc79239f7b179b0ffacaa9a75d522b39400f60208201529081019290925260608201524660808201523060a08201525f9060c00160405160208183030381529060405280519060200120905090565b60805250503060c052506001600160a01b03811661022b57604051631e4fbdf760e01b81525f60048201526024015b60405180910390fd5b610234816103e1565b506001600160a01b0380831661016052811661026357604051632d618d8160e21b815260040160405180910390fd5b6101605160405163ca5eb5e160e01b81526001600160a01b0383811660048301529091169063ca5eb5e1906024015f604051808303815f87803b1580156102a8575f5ffd5b505af11580156102ba573d5f5f3e3d5ffd5b5050505063ffffffff841661018052506102d79050600682610805565b6102e290600a610901565b6101a0525050506001600160a01b038087166101c08190528682166101e052908516610200526040805163313ce56760e01b8152905163313ce567916004808201926020929091908290030181865afa158015610341573d5f5f3e3d5ffd5b505050506040513d601f19601f820116820180604052508101906103659190610678565b60ff1661022052610376814261090f565b6102405261038f6001600160a01b038716865f19610432565b6103a46001600160a01b038616855f19610432565b50505050505061097a565b5f6020835110156103ca576103c3836104f6565b90506103db565b816103d58482610737565b5060ff90505b92915050565b600880546001600160a01b038381166001600160a01b0319831681179093556040519116919082907f8be0079c531659141344cd1fd0a4f28419497f9722a3daafe3b4186f6b6457e0905f90a35050565b604080516001600160a01b038416602482015260448082018490528251808303909101815260649091019091526020810180516001600160e01b0390811663095ea7b360e01b1790915261048a908590839061053316565b6104f057604080516001600160a01b03851660248201525f6044808301919091528251808303909101815260649091019091526020810180516001600160e01b0390811663095ea7b360e01b179091526104e691869161057c16565b6104f0848261057c565b50505050565b5f5f829050601f81511115610520578260405163305a27a960e01b81526004016102229190610922565b805161052b82610957565b179392505050565b5f5f5f5f60205f8651602088015f8a5af192503d91505f519050828015610572575081156105645780600114610572565b5f866001600160a01b03163b115b9695505050505050565b5f5f60205f8451602086015f885af18061059b576040513d5f823e3d81fd5b50505f513d915081156105b25780600114156105bf565b6001600160a01b0384163b155b156104f057604051635274afe760e01b81526001600160a01b0385166004820152602401610222565b80516001600160a01b03811681146105fe575f5ffd5b919050565b5f5f5f5f5f5f60c08789031215610618575f5ffd5b610621876105e8565b955061062f602088016105e8565b945061063d604088016105e8565b935061064b606088016105e8565b9250608087015163ffffffff81168114610663575f5ffd5b8092505060a087015190509295509295509295565b5f60208284031215610688575f5ffd5b815160ff81168114610698575f5ffd5b9392505050565b634e487b7160e01b5f52604160045260245ffd5b600181811c908216806106c757607f821691505b6020821081036106e557634e487b7160e01b5f52602260045260245ffd5b50919050565b601f82111561073257805f5260205f20601f840160051c810160208510156107105750805b601f840160051c820191505b8181101561072f575f815560010161071c565b50505b505050565b81516001600160401b038111156107505761075061069f565b6107648161075e84546106b3565b846106eb565b6020601f821160018114610796575f831561077f5750848201515b5f19600385901b1c1916600184901b17845561072f565b5f84815260208120601f198516915b828110156107c557878501518255602094850194600190920191016107a5565b50848210156107e257868401515f19600387901b60f8161c191681555b50505050600190811b01905550565b634e487b7160e01b5f52601160045260245ffd5b60ff82811682821603908111156103db576103db6107f1565b6001815b60018411156108595780850481111561083d5761083d6107f1565b600184161561084b57908102905b60019390931c928002610822565b935093915050565b5f8261086f575060016103db565b8161087b57505f6103db565b8160018114610891576002811461089b576108b7565b60019150506103db565b60ff8411156108ac576108ac6107f1565b50506001821b6103db565b5060208310610133831016604e8410600b84101617156108da575081810a6103db565b6108e65f19848461081e565b805f19048211156108f9576108f96107f1565b029392505050565b5f61069860ff841683610861565b808201808211156103db576103db6107f1565b602081525f82518060208401528060208501604085015e5f604082850101526040601f19601f83011684010191505092915050565b805160208083015191908110156106e5575f1960209190910360031b1b16919050565b60805160a05160c05160e05161010051610120516101405161016051610180516101a0516101c0516101e05161020051610220516102405161261a610a7d5f395f81816106bb0152610a2301525f61032601525f818161044d0152818161075a0152610fc501525f818161038801528181610d160152610f3c01525f81816103e70152818161083501528181610ce70152610ef501525f61182f01525f8181610994015261109401525f818161048001528181610b260152818161115f0152818161168201528181611ce70152611d9e01525f61152101525f6114f401525f61144c01525f61142401525f61137f01525f6113a901525f6113d3015261261a5ff3fe6080604052600436106101f0575f3560e01c806370a0823111610108578063bb0b6a531161009d578063ef8b30f71161006d578063ef8b30f714610640578063efe4c4c11461065f578063f1b50c1d14610696578063f2d37715146106aa578063f2fde38b146106dd575f5ffd5b8063bb0b6a5314610593578063ca5eb5e1146105be578063d505accf146105dd578063dd62ed3e146105fc575f5ffd5b8063857749b0116100d8578063857749b0146105305780638da5cb5b1461054357806395d89b4114610560578063a9059cbb14610574575f5ffd5b806370a08231146104a2578063715018a6146104d65780637ecebe00146104ea57806384b0196e14610509575f5ffd5b8063313ce5671161018957806338d52e0f1161015957806338d52e0f146103d65780634cd412d514610409578063572f2e9b1461041d578063574ac4501461043c5780635e280f111461046f575f5ffd5b8063313ce567146103185780633400288b14610358578063355274ea146103775780633644e515146103c2575f5ffd5b806313b0be33116101c457806313b0be331461028b57806317442b70146102c557806318160ddd146102e557806323b872dd146102f9575f5ffd5b8062f714ce146101f457806304350f6a1461021557806306fdde031461023b578063095ea7b31461025c575b5f5ffd5b3480156101ff575f5ffd5b5061021361020e366004611fe8565b6106fc565b005b610228610223366004612016565b6107ba565b6040519081526020015b60405180910390f35b348015610246575f5ffd5b5061024f6108c3565b6040516102329190612092565b348015610267575f5ffd5b5061027b6102763660046120a4565b610953565b6040519015158152602001610232565b348015610296575f5ffd5b506102aa6102a5366004611fe8565b61096c565b60408051825181526020928301519281019290925201610232565b3480156102d0575f5ffd5b5060408051600181525f602082015201610232565b3480156102f0575f5ffd5b50600254610228565b348015610304575f5ffd5b5061027b6103133660046120ce565b6109c4565b348015610323575f5ffd5b507f00000000000000000000000000000000000000000000000000000000000000005b60405160ff9091168152602001610232565b348015610363575f5ffd5b50610213610372366004612124565b6109e7565b348015610382575f5ffd5b506103aa7f000000000000000000000000000000000000000000000000000000000000000081565b6040516001600160a01b039091168152602001610232565b3480156103cd575f5ffd5b506102286109fd565b3480156103e1575f5ffd5b506103aa7f000000000000000000000000000000000000000000000000000000000000000081565b348015610414575f5ffd5b5061027b610a0b565b348015610428575f5ffd5b5061021361043736600461213e565b610a47565b348015610447575f5ffd5b506103aa7f000000000000000000000000000000000000000000000000000000000000000081565b34801561047a575f5ffd5b506103aa7f000000000000000000000000000000000000000000000000000000000000000081565b3480156104ad575f5ffd5b506102286104bc366004612164565b6001600160a01b03165f9081526020819052604090205490565b3480156104e1575f5ffd5b50610213610a71565b3480156104f5575f5ffd5b50610228610504366004612164565b610a84565b348015610514575f5ffd5b5061051d610aa1565b604051610232979695949392919061217f565b34801561053b575f5ffd5b506006610346565b34801561054e575f5ffd5b506008546001600160a01b03166103aa565b34801561056b575f5ffd5b5061024f610ae3565b34801561057f575f5ffd5b5061027b61058e3660046120a4565b610af2565b34801561059e575f5ffd5b506102286105ad366004612215565b60096020525f908152604090205481565b3480156105c9575f5ffd5b506102136105d8366004612164565b610aff565b3480156105e8575f5ffd5b506102136105f736600461222e565b610b80565b348015610607575f5ffd5b5061022861061636600461229f565b6001600160a01b039182165f90815260016020908152604080832093909416825291909152205490565b34801561064b575f5ffd5b5061022861065a3660046122cb565b610cbb565b34801561066a575f5ffd5b50600a5461067e906001600160801b031681565b6040516001600160801b039091168152602001610232565b3480156106a1575f5ffd5b50610213610d85565b3480156106b5575f5ffd5b506102287f000000000000000000000000000000000000000000000000000000000000000081565b3480156106e8575f5ffd5b506102136106f7366004612164565b610dca565b815f0361071c57604051631f2a200560e01b815260040160405180910390fd5b6001600160a01b0381166107435760405163d92e233d60e01b815260040160405180910390fd5b61074d3383610e07565b6107816001600160a01b037f0000000000000000000000000000000000000000000000000000000000000000168284610e3b565b60405182815233907f884edad9ce6fa2440d8a54cc123490eb96d2768479d49ff9c7366125a94243649060200160405180910390a25050565b5f855f036107db57604051631f2a200560e01b815260040160405180910390fd5b6001600160a01b0384166108025760405163d92e233d60e01b815260040160405180910390fd5b61080a610a0b565b156108285760405163154eb81560e21b815260040160405180910390fd5b61085d6001600160a01b037f000000000000000000000000000000000000000000000000000000000000000016333089610e9f565b610868868684610ede565b90506108743382611037565b61087f84878561106b565b604080518781526020810183905233917f90890809c654f11d6e72a28fa60149770a0d11ec6c92319d6ceb2bb0a4ea1a15910160405180910390a295945050505050565b6060600380546108d2906122e2565b80601f01602080910402602001604051908101604052809291908181526020018280546108fe906122e2565b80156109495780601f1061092057610100808354040283529160200191610949565b820191905f5260205f20905b81548152906001019060200180831161092c57829003601f168201915b5050505050905090565b5f336109608185856110c5565b60019150505b92915050565b604080518082019091525f80825260208201525f5f61098b85856110d2565b915091506109bb7f000000000000000000000000000000000000000000000000000000000000000083835f61114a565b95945050505050565b5f336109d185828561121f565b6109dc858585611295565b506001949350505050565b6109ef6112f2565b6109f9828261131f565b5050565b5f610a06611373565b905090565b600a545f90600160801b900460ff1680610a065750507f0000000000000000000000000000000000000000000000000000000000000000421190565b610a4f6112f2565b600a80546001600160801b0319166001600160801b0392909216919091179055565b610a796112f2565b610a825f61149c565b565b6001600160a01b0381165f90815260076020526040812054610966565b5f6060805f5f5f6060610ab26114ed565b610aba61151a565b604080515f80825260208201909252600f60f81b9b939a50919850469750309650945092509050565b6060600480546108d2906122e2565b5f33610960818585611295565b610b076112f2565b60405163ca5eb5e160e01b81526001600160a01b0382811660048301527f0000000000000000000000000000000000000000000000000000000000000000169063ca5eb5e1906024015f604051808303815f87803b158015610b67575f5ffd5b505af1158015610b79573d5f5f3e3d5ffd5b5050505050565b83421115610ba95760405163313c898160e11b8152600481018590526024015b60405180910390fd5b5f7f6e71edae12b1b97f4d1f60370fef10105fa2faae0126114a169c64845d6126c9888888610bf48c6001600160a01b03165f90815260076020526040902080546001810190915590565b6040805160208101969096526001600160a01b0394851690860152929091166060840152608083015260a082015260c0810186905260e0016040516020818303038152906040528051906020012090505f610c4e82611547565b90505f610c5d82878787611573565b9050896001600160a01b0316816001600160a01b031614610ca4576040516325c0072360e11b81526001600160a01b0380831660048301528b166024820152604401610ba0565b610caf8a8a8a6110c5565b50505050505050505050565b5f610cc4610a0b565b15610cd057505f919050565b60405163032ba1c560e31b81526001600160a01b037f000000000000000000000000000000000000000000000000000000000000000081166004830152602482018490527f0000000000000000000000000000000000000000000000000000000000000000169063195d0e28906044016040805180830381865afa158015610d5a573d5f5f3e3d5ffd5b505050506040513d601f19601f82011682018060405250810190610d7e919061231a565b5092915050565b610d8d6112f2565b600a805460ff60801b1916600160801b1790556040517f75fce015c314a132947a3e42f6ab79ab8e05397dabf35b4d742dea228bbadc2d905f90a1565b610dd26112f2565b6001600160a01b038116610dfb57604051631e4fbdf760e01b81525f6004820152602401610ba0565b610e048161149c565b50565b6001600160a01b038216610e3057604051634b637e8f60e11b81525f6004820152602401610ba0565b6109f9825f8361159f565b6040516001600160a01b03838116602483015260448201839052610e9a91859182169063a9059cbb906064015b604051602081830303815290604052915060e01b6020820180516001600160e01b0383818316178352505050506115e5565b505050565b6040516001600160a01b038481166024830152838116604483015260648201839052610ed89186918216906323b872dd90608401610e68565b50505050565b60405163a445058760e01b81526001600160a01b037f0000000000000000000000000000000000000000000000000000000000000000811660048301526024820185905260448201849052306064830152608482018390525f9182917f0000000000000000000000000000000000000000000000000000000000000000169063a44505879060a4016020604051808303815f875af1158015610f82573d5f5f3e3d5ffd5b505050506040513d601f19601f82011682018060405250810190610fa6919061233c565b604051636e553f6560e01b8152600481018290523060248201529091507f00000000000000000000000000000000000000000000000000000000000000006001600160a01b031690636e553f65906044016020604051808303815f875af1158015611013573d5f5f3e3d5ffd5b505050506040513d601f19601f820116820180604052508101906109bb919061233c565b6001600160a01b0382166110605760405163ec442f0560e01b81525f6004820152602401610ba0565b6109f95f838361159f565b604080518082019091523481525f602082018190528061108b85876110d2565b915091506110bc7f000000000000000000000000000000000000000000000000000000000000000083838688611651565b50505050505050565b610e9a8383836001611757565b6060806110ff6001600160a01b0384166110eb86611829565b60405180602001604052805f815250611854565b50600a54909250611141906001600160801b03165f61113a60408051600360f01b602082015281516002818303018152602290910190915290565b91906118ce565b90509250929050565b604080518082019091525f80825260208201527f00000000000000000000000000000000000000000000000000000000000000006001600160a01b031663ddc28c586040518060a001604052808863ffffffff1681526020016111ac89611933565b8152602001878152602001868152602001851515815250306040518363ffffffff1660e01b81526004016111e1929190612353565b6040805180830381865afa1580156111fb573d5f5f3e3d5ffd5b505050506040513d601f19601f820116820180604052508101906109bb9190612424565b6001600160a01b038381165f908152600160209081526040808320938616835292905220545f19811015610ed8578181101561128757604051637dc7a0d960e11b81526001600160a01b03841660048201526024810182905260448101839052606401610ba0565b610ed884848484035f611757565b6001600160a01b0383166112be57604051634b637e8f60e11b81525f6004820152602401610ba0565b6001600160a01b0382166112e75760405163ec442f0560e01b81525f6004820152602401610ba0565b610e9a83838361159f565b6008546001600160a01b03163314610a825760405163118cdaa760e01b8152336004820152602401610ba0565b63ffffffff82165f81815260096020908152604091829020849055815192835282018390527f238399d427b947898edb290f5ff0f9109849b1c3ba196a42e35f00c50a54b98b910160405180910390a15050565b5f306001600160a01b037f0000000000000000000000000000000000000000000000000000000000000000161480156113cb57507f000000000000000000000000000000000000000000000000000000000000000046145b156113f557507f000000000000000000000000000000000000000000000000000000000000000090565b610a06604080517f8b73c3c69bb8fe3d512ecc4cf759cc79239f7b179b0ffacaa9a75d522b39400f60208201527f0000000000000000000000000000000000000000000000000000000000000000918101919091527f000000000000000000000000000000000000000000000000000000000000000060608201524660808201523060a08201525f9060c00160405160208183030381529060405280519060200120905090565b600880546001600160a01b038381166001600160a01b0319831681179093556040519116919082907f8be0079c531659141344cd1fd0a4f28419497f9722a3daafe3b4186f6b6457e0905f90a35050565b6060610a067f0000000000000000000000000000000000000000000000000000000000000000600561196e565b6060610a067f0000000000000000000000000000000000000000000000000000000000000000600661196e565b5f610966611553611373565b8360405161190160f01b8152600281019290925260228201526042902090565b5f5f5f5f61158388888888611a17565b9250925092506115938282611adf565b50909695505050505050565b6115a7610a0b565b1580156115bc57506001600160a01b03831615155b156115da5760405163ec857f1960e01b815260040160405180910390fd5b610e9a838383611b97565b5f5f60205f8451602086015f885af180611604576040513d5f823e3d81fd5b50505f513d9150811561161b578060011415611628565b6001600160a01b0384163b155b15610ed857604051635274afe760e01b81526001600160a01b0385166004820152602401610ba0565b611659611f93565b5f611666845f0151611cbd565b602085015190915015611680576116808460200151611ce4565b7f00000000000000000000000000000000000000000000000000000000000000006001600160a01b0316632637a450826040518060a001604052808b63ffffffff1681526020016116d08c611933565b81526020018a81526020018981526020015f8960200151111515815250866040518463ffffffff1660e01b815260040161170b929190612353565b60806040518083038185885af1158015611727573d5f5f3e3d5ffd5b50505050506040513d601f19601f8201168201806040525081019061174c919061243e565b979650505050505050565b6001600160a01b0384166117805760405163e602df0560e01b81525f6004820152602401610ba0565b6001600160a01b0383166117a957604051634a1406b160e11b81525f6004820152602401610ba0565b6001600160a01b038085165f9081526001602090815260408083209387168352929052208290558015610ed857826001600160a01b0316846001600160a01b03167f8c5be1e5ebec7d5bd14f71427d1e84f3dd0314c0f7b2291e5b200ac8c7c3b9258460405161181b91815260200190565b60405180910390a350505050565b5f6109667f0000000000000000000000000000000000000000000000000000000000000000836124d2565b805160609015158061189d57848460405160200161188992919091825260c01b6001600160c01b031916602082015260280190565b6040516020818303038152906040526118c4565b848433856040516020016118b49493929190612508565b6040516020818303038152906040525b9150935093915050565b60608360036118dd825f611dc3565b61ffff1614611910576118f0815f611dc3565b604051633a51740d60e01b815261ffff9091166004820152602401610ba0565b5f61191b8585611e1f565b905061192986600183611e98565b9695505050505050565b63ffffffff81165f90815260096020526040812054806109665760405163f6ff4fb760e01b815263ffffffff84166004820152602401610ba0565b606060ff83146119885761198183611f01565b9050610966565b818054611994906122e2565b80601f01602080910402602001604051908101604052809291908181526020018280546119c0906122e2565b8015611a0b5780601f106119e257610100808354040283529160200191611a0b565b820191905f5260205f20905b8154815290600101906020018083116119ee57829003601f168201915b50505050509050610966565b5f80807f7fffffffffffffffffffffffffffffff5d576e7357a4501ddfe92f46681b20a0841115611a5057505f91506003905082611ad5565b604080515f808252602082018084528a905260ff891692820192909252606081018790526080810186905260019060a0016020604051602081039080840390855afa158015611aa1573d5f5f3e3d5ffd5b5050604051601f1901519150506001600160a01b038116611acc57505f925060019150829050611ad5565b92505f91508190505b9450945094915050565b5f826003811115611af257611af2612535565b03611afb575050565b6001826003811115611b0f57611b0f612535565b03611b2d5760405163f645eedf60e01b815260040160405180910390fd5b6002826003811115611b4157611b41612535565b03611b625760405163fce698f760e01b815260048101829052602401610ba0565b6003826003811115611b7657611b76612535565b036109f9576040516335e2f38360e21b815260048101829052602401610ba0565b6001600160a01b038316611bc1578060025f828254611bb69190612549565b90915550611c319050565b6001600160a01b0383165f9081526020819052604090205481811015611c135760405163391434e360e21b81526001600160a01b03851660048201526024810182905260448101839052606401610ba0565b6001600160a01b0384165f9081526020819052604090209082900390555b6001600160a01b038216611c4d57600280548290039055611c6b565b6001600160a01b0382165f9081526020819052604090208054820190555b816001600160a01b0316836001600160a01b03167fddf252ad1be2c89b69c2b068fc378daa952ba7f163c4a11628f55a4df523b3ef83604051611cb091815260200190565b60405180910390a3505050565b5f813414611ce0576040516304fb820960e51b8152346004820152602401610ba0565b5090565b5f7f00000000000000000000000000000000000000000000000000000000000000006001600160a01b031663e4fe1d946040518163ffffffff1660e01b8152600401602060405180830381865afa158015611d41573d5f5f3e3d5ffd5b505050506040513d601f19601f82011682018060405250810190611d65919061255c565b90506001600160a01b038116611d8e576040516329b99a9560e11b815260040160405180910390fd5b6109f96001600160a01b038216337f000000000000000000000000000000000000000000000000000000000000000085610e9f565b5f611dcf826002612549565b83511015611e165760405162461bcd60e51b8152602060048201526014602482015273746f55696e7431365f6f75744f66426f756e647360601b6044820152606401610ba0565b50016002015190565b60606001600160801b03821615611e6757604080516001600160801b0319608086811b8216602084015285901b16603082015201604051602081830303815290604052611e91565b6040516001600160801b0319608085901b1660208201526030016040516020818303038152906040525b9392505050565b6060836003611ea7825f611dc3565b61ffff1614611eba576118f0815f611dc3565b846001611ec78551611f3e565b611ed2906001612577565b8686604051602001611ee8959493929190612591565b6040516020818303038152906040529150509392505050565b60605f611f0d83611f6c565b6040805160208082528183019092529192505f91906020820181803683375050509182525060208101929092525090565b5f61ffff821115611ce0576040516306dfcc6560e41b81526010600482015260248101839052604401610ba0565b5f60ff8216601f81111561096657604051632cd44ac360e21b815260040160405180910390fd5b60405180606001604052805f81526020015f67ffffffffffffffff168152602001611fcf60405180604001604052805f81526020015f81525090565b905290565b6001600160a01b0381168114610e04575f5ffd5b5f5f60408385031215611ff9575f5ffd5b82359150602083013561200b81611fd4565b809150509250929050565b5f5f5f5f5f60a0868803121561202a575f5ffd5b8535945060208601359350604086013561204381611fd4565b9250606086013561205381611fd4565b949793965091946080013592915050565b5f81518084528060208401602086015e5f602082860101526020601f19601f83011685010191505092915050565b602081525f611e916020830184612064565b5f5f604083850312156120b5575f5ffd5b82356120c081611fd4565b946020939093013593505050565b5f5f5f606084860312156120e0575f5ffd5b83356120eb81611fd4565b925060208401356120fb81611fd4565b929592945050506040919091013590565b803563ffffffff8116811461211f575f5ffd5b919050565b5f5f60408385031215612135575f5ffd5b6120c08361210c565b5f6020828403121561214e575f5ffd5b81356001600160801b0381168114611e91575f5ffd5b5f60208284031215612174575f5ffd5b8135611e9181611fd4565b60ff60f81b8816815260e060208201525f61219d60e0830189612064565b82810360408401526121af8189612064565b606084018890526001600160a01b038716608085015260a0840186905283810360c0850152845180825260208087019350909101905f5b818110156122045783518352602093840193909201916001016121e6565b50909b9a5050505050505050505050565b5f60208284031215612225575f5ffd5b611e918261210c565b5f5f5f5f5f5f5f60e0888a031215612244575f5ffd5b873561224f81611fd4565b9650602088013561225f81611fd4565b95506040880135945060608801359350608088013560ff81168114612282575f5ffd5b9699959850939692959460a0840135945060c09093013592915050565b5f5f604083850312156122b0575f5ffd5b82356122bb81611fd4565b9150602083013561200b81611fd4565b5f602082840312156122db575f5ffd5b5035919050565b600181811c908216806122f657607f821691505b60208210810361231457634e487b7160e01b5f52602260045260245ffd5b50919050565b5f5f6040838503121561232b575f5ffd5b505080516020909101519092909150565b5f6020828403121561234c575f5ffd5b5051919050565b6040815263ffffffff8351166040820152602083015160608201525f604084015160a0608084015261238860e0840182612064565b90506060850151603f198483030160a08501526123a58282612064565b60809690960151151560c08501525050506001600160a01b039190911660209091015290565b5f604082840312156123db575f5ffd5b6040805190810167ffffffffffffffff8111828210171561240a57634e487b7160e01b5f52604160045260245ffd5b604052825181526020928301519281019290925250919050565b5f60408284031215612434575f5ffd5b611e9183836123cb565b5f608082840312801561244f575f5ffd5b506040516060810167ffffffffffffffff8111828210171561247f57634e487b7160e01b5f52604160045260245ffd5b60405282518152602083015167ffffffffffffffff811681146124a0575f5ffd5b60208201526124b284604085016123cb565b60408201529392505050565b634e487b7160e01b5f52601160045260245ffd5b5f826124ec57634e487b7160e01b5f52601260045260245ffd5b500490565b5f81518060208401855e5f93019283525090919050565b84815267ffffffffffffffff60c01b8460c01b1660208201528260288201525f61192960488301846124f1565b634e487b7160e01b5f52602160045260245ffd5b80820180821115610966576109666124be565b5f6020828403121561256c575f5ffd5b8151611e9181611fd4565b61ffff8181168382160190811115610966576109666124be565b5f61259c82886124f1565b6001600160f81b031960f888811b821683526001600160f01b031960f089901b16600184015286901b1660038201526125d860048201856124f1565b9897505050505050505056fea26469706673582212207645cf8d74cdca2ff0eb062723c4138d4f77c729d82a9f91abb1e123637b6e6164736f6c634300081c0033","linkReferences":{}},"methodIdentifiers":{"DOMAIN_SEPARATOR()":"3644e515","allowance(address,address)":"dd62ed3e","approve(address,uint256)":"095ea7b3","asset()":"38d52e0f","balanceOf(address)":"70a08231","cap()":"355274ea","decimals()":"313ce567","deposit(uint256,uint256,address,address,uint256)":"04350f6a","eip712Domain()":"84b0196e","enableTransfer()":"f1b50c1d","endpoint()":"5e280f11","lzReceiveGas()":"efe4c4c1","maxCampaignEnd()":"f2d37715","name()":"06fdde03","nonces(address)":"7ecebe00","oAppVersion()":"17442b70","owner()":"8da5cb5b","peers(uint32)":"bb0b6a53","permit(address,address,uint256,uint256,uint8,bytes32,bytes32)":"d505accf","previewDeposit(uint256)":"ef8b30f7","quote(uint256,address)":"13b0be33","renounceOwnership()":"715018a6","setDelegate(address)":"ca5eb5e1","setLzReceiveGas(uint128)":"572f2e9b","setPeer(uint32,bytes32)":"3400288b","sharedDecimals()":"857749b0","stakedCap()":"574ac450","symbol()":"95d89b41","totalSupply()":"18160ddd","transfer(address,uint256)":"a9059cbb","transferEnabled()":"4cd412d5","transferFrom(address,address,uint256)":"23b872dd","transferOwnership(address)":"f2fde38b","withdraw(uint256,address)":"00f714ce"},"id":93}