{"abi":[{"type":"constructor","inputs":[],"stateMutability":"nonpayable"},{"type":"function","name":"UPGRADE_INTERFACE_VERSION","inputs":[],"outputs":[{"name":"","type":"string","internalType":"string"}],"stateMutability":"view"},{"type":"function","name":"accruedRestakerInterest","inputs":[{"name":"_agent","type":"address","internalType":"address"},{"name":"_asset","type":"address","internalType":"address"}],"outputs":[{"name":"accruedInterest","type":"uint256","internalType":"uint256"}],"stateMutability":"view"},{"type":"function","name":"addAsset","inputs":[{"name":"_params","type":"tuple","internalType":"struct ILender.AddAssetParams","components":[{"name":"asset","type":"address","internalType":"address"},{"name":"vault","type":"address","internalType":"address"},{"name":"debtToken","type":"address","internalType":"address"},{"name":"interestReceiver","type":"address","internalType":"address"},{"name":"bonusCap","type":"uint256","internalType":"uint256"},{"name":"minBorrow","type":"uint256","internalType":"uint256"}]}],"outputs":[],"stateMutability":"nonpayable"},{"type":"function","name":"agent","inputs":[{"name":"_agent","type":"address","internalType":"address"}],"outputs":[{"name":"totalDelegation","type":"uint256","internalType":"uint256"},{"name":"totalSlashableCollateral","type":"uint256","internalType":"uint256"},{"name":"totalDebt","type":"uint256","internalType":"uint256"},{"name":"ltv","type":"uint256","internalType":"uint256"},{"name":"liquidationThreshold","type":"uint256","internalType":"uint256"},{"name":"health","type":"uint256","internalType":"uint256"}],"stateMutability":"view"},{"type":"function","name":"bonus","inputs":[{"name":"_agent","type":"address","internalType":"address"}],"outputs":[{"name":"maxBonus","type":"uint256","internalType":"uint256"}],"stateMutability":"view"},{"type":"function","name":"bonusCap","inputs":[],"outputs":[{"name":"cap","type":"uint256","internalType":"uint256"}],"stateMutability":"view"},{"type":"function","name":"borrow","inputs":[{"name":"_asset","type":"address","internalType":"address"},{"name":"_amount","type":"uint256","internalType":"uint256"},{"name":"_receiver","type":"address","internalType":"address"}],"outputs":[{"name":"borrowed","type":"uint256","internalType":"uint256"}],"stateMutability":"nonpayable"},{"type":"function","name":"closeLiquidation","inputs":[{"name":"_agent","type":"address","internalType":"address"}],"outputs":[],"stateMutability":"nonpayable"},{"type":"function","name":"debt","inputs":[{"name":"_agent","type":"address","internalType":"address"},{"name":"_asset","type":"address","internalType":"address"}],"outputs":[{"name":"totalDebt","type":"uint256","internalType":"uint256"}],"stateMutability":"view"},{"type":"function","name":"emergencyLiquidationThreshold","inputs":[],"outputs":[{"name":"threshold","type":"uint256","internalType":"uint256"}],"stateMutability":"view"},{"type":"function","name":"expiry","inputs":[],"outputs":[{"name":"expiryPeriod","type":"uint256","internalType":"uint256"}],"stateMutability":"view"},{"type":"function","name":"grace","inputs":[],"outputs":[{"name":"gracePeriod","type":"uint256","internalType":"uint256"}],"stateMutability":"view"},{"type":"function","name":"initialize","inputs":[{"name":"_accessControl","type":"address","internalType":"address"},{"name":"_delegation","type":"address","internalType":"address"},{"name":"_oracle","type":"address","internalType":"address"},{"name":"_targetHealth","type":"uint256","internalType":"uint256"},{"name":"_grace","type":"uint256","internalType":"uint256"},{"name":"_expiry","type":"uint256","internalType":"uint256"},{"name":"_bonusCap","type":"uint256","internalType":"uint256"},{"name":"_emergencyLiquidationThreshold","type":"uint256","internalType":"uint256"}],"outputs":[],"stateMutability":"nonpayable"},{"type":"function","name":"liquidate","inputs":[{"name":"_agent","type":"address","internalType":"address"},{"name":"_asset","type":"address","internalType":"address"},{"name":"_amount","type":"uint256","internalType":"uint256"}],"outputs":[{"name":"liquidatedValue","type":"uint256","internalType":"uint256"}],"stateMutability":"nonpayable"},{"type":"function","name":"liquidationStart","inputs":[{"name":"_agent","type":"address","internalType":"address"}],"outputs":[{"name":"startTime","type":"uint256","internalType":"uint256"}],"stateMutability":"view"},{"type":"function","name":"maxBorrowable","inputs":[{"name":"_agent","type":"address","internalType":"address"},{"name":"_asset","type":"address","internalType":"address"}],"outputs":[{"name":"maxBorrowableAmount","type":"uint256","internalType":"uint256"}],"stateMutability":"view"},{"type":"function","name":"maxLiquidatable","inputs":[{"name":"_agent","type":"address","internalType":"address"},{"name":"_asset","type":"address","internalType":"address"}],"outputs":[{"name":"maxLiquidatableAmount","type":"uint256","internalType":"uint256"}],"stateMutability":"view"},{"type":"function","name":"maxRealization","inputs":[{"name":"_asset","type":"address","internalType":"address"}],"outputs":[{"name":"_maxRealization","type":"uint256","internalType":"uint256"}],"stateMutability":"view"},{"type":"function","name":"maxRestakerRealization","inputs":[{"name":"_agent","type":"address","internalType":"address"},{"name":"_asset","type":"address","internalType":"address"}],"outputs":[{"name":"newRealizedInterest","type":"uint256","internalType":"uint256"},{"name":"newUnrealizedInterest","type":"uint256","internalType":"uint256"}],"stateMutability":"view"},{"type":"function","name":"openLiquidation","inputs":[{"name":"_agent","type":"address","internalType":"address"}],"outputs":[],"stateMutability":"nonpayable"},{"type":"function","name":"pauseAsset","inputs":[{"name":"_asset","type":"address","internalType":"address"},{"name":"_pause","type":"bool","internalType":"bool"}],"outputs":[],"stateMutability":"nonpayable"},{"type":"function","name":"proxiableUUID","inputs":[],"outputs":[{"name":"","type":"bytes32","internalType":"bytes32"}],"stateMutability":"view"},{"type":"function","name":"realizeInterest","inputs":[{"name":"_asset","type":"address","internalType":"address"}],"outputs":[{"name":"actualRealized","type":"uint256","internalType":"uint256"}],"stateMutability":"nonpayable"},{"type":"function","name":"realizeRestakerInterest","inputs":[{"name":"_agent","type":"address","internalType":"address"},{"name":"_asset","type":"address","internalType":"address"}],"outputs":[{"name":"actualRealized","type":"uint256","internalType":"uint256"}],"stateMutability":"nonpayable"},{"type":"function","name":"removeAsset","inputs":[{"name":"_asset","type":"address","internalType":"address"}],"outputs":[],"stateMutability":"nonpayable"},{"type":"function","name":"repay","inputs":[{"name":"_asset","type":"address","internalType":"address"},{"name":"_amount","type":"uint256","internalType":"uint256"},{"name":"_agent","type":"address","internalType":"address"}],"outputs":[{"name":"repaid","type":"uint256","internalType":"uint256"}],"stateMutability":"nonpayable"},{"type":"function","name":"reservesCount","inputs":[],"outputs":[{"name":"count","type":"uint256","internalType":"uint256"}],"stateMutability":"view"},{"type":"function","name":"reservesData","inputs":[{"name":"_asset","type":"address","internalType":"address"}],"outputs":[{"name":"id","type":"uint256","internalType":"uint256"},{"name":"vault","type":"address","internalType":"address"},{"name":"debtToken","type":"address","internalType":"address"},{"name":"interestReceiver","type":"address","internalType":"address"},{"name":"decimals","type":"uint8","internalType":"uint8"},{"name":"paused","type":"bool","internalType":"bool"},{"name":"minBorrow","type":"uint256","internalType":"uint256"}],"stateMutability":"view"},{"type":"function","name":"setBonusCap","inputs":[{"name":"_bonusCap","type":"uint256","internalType":"uint256"}],"outputs":[],"stateMutability":"nonpayable"},{"type":"function","name":"setExpiry","inputs":[{"name":"_expiry","type":"uint256","internalType":"uint256"}],"outputs":[],"stateMutability":"nonpayable"},{"type":"function","name":"setGrace","inputs":[{"name":"_grace","type":"uint256","internalType":"uint256"}],"outputs":[],"stateMutability":"nonpayable"},{"type":"function","name":"setMinBorrow","inputs":[{"name":"_asset","type":"address","internalType":"address"},{"name":"_minBorrow","type":"uint256","internalType":"uint256"}],"outputs":[],"stateMutability":"nonpayable"},{"type":"function","name":"targetHealth","inputs":[],"outputs":[{"name":"target","type":"uint256","internalType":"uint256"}],"stateMutability":"view"},{"type":"function","name":"unrealizedInterest","inputs":[{"name":"_agent","type":"address","internalType":"address"},{"name":"_asset","type":"address","internalType":"address"}],"outputs":[{"name":"_unrealizedInterest","type":"uint256","internalType":"uint256"}],"stateMutability":"view"},{"type":"function","name":"upgradeToAndCall","inputs":[{"name":"newImplementation","type":"address","internalType":"address"},{"name":"data","type":"bytes","internalType":"bytes"}],"outputs":[],"stateMutability":"payable"},{"type":"event","name":"Initialized","inputs":[{"name":"version","type":"uint64","indexed":false,"internalType":"uint64"}],"anonymous":false},{"type":"event","name":"Upgraded","inputs":[{"name":"implementation","type":"address","indexed":true,"internalType":"address"}],"anonymous":false},{"type":"error","name":"AccessDenied","inputs":[]},{"type":"error","name":"AddressEmptyCode","inputs":[{"name":"target","type":"address","internalType":"address"}]},{"type":"error","name":"ERC1967InvalidImplementation","inputs":[{"name":"implementation","type":"address","internalType":"address"}]},{"type":"error","name":"ERC1967NonPayable","inputs":[]},{"type":"error","name":"ExpiryLessThanGrace","inputs":[]},{"type":"error","name":"FailedCall","inputs":[]},{"type":"error","name":"GraceGreaterThanExpiry","inputs":[]},{"type":"error","name":"InvalidBonusCap","inputs":[]},{"type":"error","name":"InvalidInitialization","inputs":[]},{"type":"error","name":"InvalidReserveIndex","inputs":[]},{"type":"error","name":"InvalidTargetHealth","inputs":[]},{"type":"error","name":"NotInitializing","inputs":[]},{"type":"error","name":"UUPSUnauthorizedCallContext","inputs":[]},{"type":"error","name":"UUPSUnsupportedProxiableUUID","inputs":[{"name":"slot","type":"bytes32","internalType":"bytes32"}]},{"type":"error","name":"ZeroAddressNotValid","inputs":[]}],"bytecode":{"object":"0x60a060405230608052348015610013575f5ffd5b5061001c610021565b6100d3565b7ff0c57e16840df040f15088dc2f81fe391c3923bec73e23a9662efc9c229c6a00805468010000000000000000900460ff16156100715760405163f92ee8a960e01b815260040160405180910390fd5b80546001600160401b03908116146100d05780546001600160401b0319166001600160401b0390811782556040519081527fc7f505b2f371ae2175ee4913f4499e1f2633a7b5936321eed1cdaeb6115181d29060200160405180910390a15b50565b608051612aa06100f95f395f81816115cf015281816115f801526117400152612aa05ff3fe6080604052600436106101fc575f3560e01c80636511a06811610113578063d449300d1161009d578063df8fa4301161006d578063df8fa4301461061b578063e184c9be1461063a578063e325fb4b1461064e578063e66e33aa14610662578063f0a0539514610681575f5ffd5b8063d449300d1461059f578063d8cb4aa3146105be578063d9f97d00146105dd578063df6e7cc8146105fc575f5ffd5b8063968faa95116100e3578063968faa95146104dc578063a555d689146104fb578063ad3cb1cc1461050f578063afabb4e01461054c578063b095cd1e1461056b575f5ffd5b80636511a068146104335780636c665a551461045257806387e3d3391461047157806392e423b514610490575f5ffd5b806326c01303116101945780634f1ef286116101645780634f1ef286146103ba57806352d1902d146103cd57806354b768bb146103e157806359c97273146103f55780635ceae9c414610414575f5ffd5b806326c01303146103495780633a00bc4414610368578063440364df146103875780634a5e42b11461039b575f5ffd5b80630a8d01da116101cf5780630a8d01da146102ca578063102512d5146102f75780631ee3b4c8146103165780631eefddb114610335575f5ffd5b806301cceb3814610200578063050d6c6414610221578063061efb4f1461024057806308cf6fec1461025f575b5f5ffd5b34801561020b575f5ffd5b5061021f61021a366004612426565b6106a0565b005b34801561022c575f5ffd5b5061021f61023b36600461243d565b6106ec565b34801561024b575f5ffd5b5061021f61025a366004612426565b6107ba565b34801561026a575f5ffd5b5061027e610279366004612471565b610807565b604080519788526001600160a01b0396871660208901529486169487019490945293909116606085015260ff16608084015290151560a083015260c082015260e0015b60405180910390f35b3480156102d5575f5ffd5b506102e96102e436600461248a565b610879565b6040519081526020016102c1565b348015610302575f5ffd5b5061021f6103113660046124bb565b610918565b348015610321575f5ffd5b506102e961033036600461248a565b6109d9565b348015610340575f5ffd5b506102e9610a18565b348015610354575f5ffd5b506102e96103633660046124e3565b610a2a565b348015610373575f5ffd5b5061021f61038236600461252a565b610b1a565b348015610392575f5ffd5b506102e9610baf565b3480156103a6575f5ffd5b5061021f6103b5366004612471565b610bc1565b61021f6103c8366004612573565b610c79565b3480156103d8575f5ffd5b506102e9610c98565b3480156103ec575f5ffd5b506102e9610cb3565b348015610400575f5ffd5b506102e961040f366004612471565b610cc9565b34801561041f575f5ffd5b506102e961042e366004612637565b610ce1565b34801561043e575f5ffd5b506102e961044d366004612471565b610d8a565b34801561045d575f5ffd5b506102e961046c366004612637565b610db4565b34801561047c575f5ffd5b5061021f61048b366004612426565b610e5c565b34801561049b575f5ffd5b506104af6104aa366004612471565b610ea9565b604080519687526020870195909552938501929092526060840152608083015260a082015260c0016102c1565b3480156104e7575f5ffd5b506102e96104f636600461248a565b610f52565b348015610506575f5ffd5b506102e9610fb0565b34801561051a575f5ffd5b5061053f604051806040016040528060058152602001640352e302e360dc1b81525081565b6040516102c19190612670565b348015610557575f5ffd5b5061021f610566366004612471565b610fc2565b348015610576575f5ffd5b5061058a61058536600461248a565b611041565b604080519283526020830191909152016102c1565b3480156105aa575f5ffd5b506102e96105b936600461248a565b611060565b3480156105c9575f5ffd5b506102e96105d8366004612471565b6110be565b3480156105e8575f5ffd5b506102e96105f736600461248a565b6110f7565b348015610607575f5ffd5b506102e9610616366004612471565b611155565b348015610626575f5ffd5b5061021f6106353660046126a5565b6111e5565b348015610645575f5ffd5b506102e961143c565b348015610659575f5ffd5b506102e961144e565b34801561066d575f5ffd5b5061021f61067c366004612471565b611460565b34801561068c575f5ffd5b506102e961069b36600461248a565b611482565b62399d6760e31b6106b0816114e0565b6106b86115a0565b6008015482116106db5760405163fb25f5d760e01b815260040160405180910390fd5b816106e46115a0565b600901555050565b6301435b1960e21b6106fd816114e0565b5f6107066115a0565b60405163be85f10960e01b815290915073__$0eac86dda2336cc7de9da2b0f4e01d0cca$__9063be85f109906107429084908790600401612711565b602060405180830381865af415801561075d573d5f5f3e3d5ffd5b505050506040513d601f19601f820116820180604052508101906107819190612799565b6107b5576004810180545f9061079a9061ffff166127c8565b91906101000a81548161ffff021916908361ffff1602179055505b505050565b63061efb4f60e01b6107cb816114e0565b676765c793fa10079d601b1b8211156107f65760405162985b3f60e21b815260040160405180910390fd5b816107ff6115a0565b600a01555050565b5f5f5f5f5f5f5f5f6108176115a0565b6001600160a01b03998a165f90815260029182016020526040902080546001820154928201546003830154600890930154919d938d169c9081169b508216995060ff600160a01b830481169950600160a81b9092049091169650945092505050565b5f73__$90f1596953067a736675c465381a77d94c$__636d4323a861089c6115a0565b6040516001600160e01b031960e084901b16815260048101919091526001600160a01b03808716602483015285166044820152606401602060405180830381865af41580156108ed573d5f5f3e3d5ffd5b505050506040513d601f19601f8201168201806040525081019061091191906127e8565b9392505050565b63102512d560e01b610929816114e0565b6001600160a01b03831661095057604051633bf95ba760e01b815260040160405180910390fd5b73__$0eac86dda2336cc7de9da2b0f4e01d0cca$__63e9dd3d196109726115a0565b6040516001600160e01b031960e084901b16815260048101919091526001600160a01b0386166024820152604481018590526064015b5f6040518083038186803b1580156109be575f5ffd5b505af41580156109d0573d5f5f3e3d5ffd5b50505050505050565b5f5f6109e36115a0565b6001600160a01b039384165f908152600291909101602090815260408083209690951682526006909501909452505090205490565b5f610a216115a0565b60080154905090565b5f6001600160a01b0384161580610a4857506001600160a01b038316155b15610a6657604051633bf95ba760e01b815260040160405180910390fd5b73__$de775690ba40045382432c866271eb7b49$__63bf92cd8e610a886115a0565b604080516080810182526001600160a01b03808a1682528816602082015280820187905233606082015290516001600160e01b031960e085901b168152610ad39291906004016127ff565b602060405180830381865af4158015610aee573d5f5f3e3d5ffd5b505050506040513d601f19601f82011682018060405250810190610b1291906127e8565b949350505050565b630e802f1160e21b610b2b816114e0565b6001600160a01b038316610b5257604051633bf95ba760e01b815260040160405180910390fd5b73__$0eac86dda2336cc7de9da2b0f4e01d0cca$__635a9ae0b8610b746115a0565b6040516001600160e01b031960e084901b16815260048101919091526001600160a01b038616602482015284151560448201526064016109a8565b5f610bb86115a0565b60070154905090565b634a5e42b160e01b610bd2816114e0565b6001600160a01b038216610bf957604051633bf95ba760e01b815260040160405180910390fd5b73__$0eac86dda2336cc7de9da2b0f4e01d0cca$__636dc28711610c1b6115a0565b6040516001600160e01b031960e084901b16815260048101919091526001600160a01b03851660248201526044015f6040518083038186803b158015610c5f575f5ffd5b505af4158015610c71573d5f5f3e3d5ffd5b505050505050565b610c816115c4565b610c8a8261166a565b610c948282611674565b5050565b5f610ca1611735565b505f516020612a4b5f395f51905f5290565b5f610cbc6115a0565b6004015461ffff16919050565b5f610cdb610cd56115a0565b8361177e565b92915050565b5f6001600160a01b0382161580610cff57506001600160a01b038416155b15610d1d57604051633bf95ba760e01b815260040160405180910390fd5b73__$90f1596953067a736675c465381a77d94c$__63e1481c1d610d3f6115a0565b604080516080810182526001600160a01b0380881682528916602082015280820188905233606082015290516001600160e01b031960e085901b168152610ad39291906004016127ff565b5f610d936115a0565b6001600160a01b039092165f90815260069290920160205250604090205490565b5f73__$90f1596953067a736675c465381a77d94c$__63c8293757610dd76115a0565b6040805160a0810182523381526001600160a01b03898116602083019081528284018a8152898316606085019081525f198c1460808601908152955160e089901b6001600160e01b03191681526004810197909752935183166024870152905182166044860152516064850152905116608483015251151560a482015260c401610ad3565b6387e3d33960e01b610e6d816114e0565b610e756115a0565b600901548210610e98576040516309cdb20560e01b815260040160405180910390fd5b81610ea16115a0565b600801555050565b5f5f5f5f5f5f73__$cf4d437c3fd1f300db2a64a4be3188e19a$__632a43ad13610ed16115a0565b6040516001600160e01b031960e084901b16815260048101919091526001600160a01b038a16602482015260440160c060405180830381865af4158015610f1a573d5f5f3e3d5ffd5b505050506040513d601f19601f82011682018060405250810190610f3e9190612842565b949c939b5091995097509550909350915050565b5f6001600160a01b0383161580610f7057506001600160a01b038216155b15610f8e57604051633bf95ba760e01b815260040160405180910390fd5b73__$cf4d437c3fd1f300db2a64a4be3188e19a$__635afe082361089c6115a0565b5f610fb96115a0565b600b0154905090565b73__$de775690ba40045382432c866271eb7b49$__63976aa090610fe46115a0565b6040516001600160e01b031960e084901b16815260048101919091526001600160a01b03841660248201526044015f6040518083038186803b158015611028575f5ffd5b505af415801561103a573d5f5f3e3d5ffd5b5050505050565b5f5f61105561104e6115a0565b85856118da565b909590945092505050565b5f6001600160a01b038316158061107e57506001600160a01b038216155b1561109c57604051633bf95ba760e01b815260040160405180910390fd5b73__$cf4d437c3fd1f300db2a64a4be3188e19a$__6341104a5e61089c6115a0565b5f6001600160a01b0382166110e657604051633bf95ba760e01b815260040160405180910390fd5b610cdb6110f16115a0565b83611a37565b5f6001600160a01b038316158061111557506001600160a01b038216155b1561113357604051633bf95ba760e01b815260040160405180910390fd5b73__$cf4d437c3fd1f300db2a64a4be3188e19a$__637eb5c5bc61089c6115a0565b5f73__$90f1596953067a736675c465381a77d94c$__63f0cc455b6111786115a0565b6040516001600160e01b031960e084901b16815260048101919091526001600160a01b0385166024820152604401602060405180830381865af41580156111c1573d5f5f3e3d5ffd5b505050506040513d601f19601f82011682018060405250810190610cdb91906127e8565b7ff0c57e16840df040f15088dc2f81fe391c3923bec73e23a9662efc9c229c6a008054600160401b810460ff16159067ffffffffffffffff165f8115801561122a5750825b90505f8267ffffffffffffffff1660011480156112465750303b155b905081158015611254575080155b156112725760405163f92ee8a960e01b815260040160405180910390fd5b845467ffffffffffffffff19166001178555831561129c57845460ff60401b1916600160401b1785555b6112a58d611b79565b6112ad611b8d565b6001600160a01b038c1615806112ca57506001600160a01b038b16155b156112e857604051633bf95ba760e01b815260040160405180910390fd5b676765c793fa10079d601b1b8a101561131457604051639ca1aa9560e01b815260040160405180910390fd5b878910611334576040516309cdb20560e01b815260040160405180910390fd5b676765c793fa10079d601b1b87111561135f5760405162985b3f60e21b815260040160405180910390fd5b5f6113686115a0565b90508c815f015f6101000a8154816001600160a01b0302191690836001600160a01b031602179055508b816001015f6101000a8154816001600160a01b0302191690836001600160a01b031602179055508a81600701819055508981600801819055508881600901819055508781600a01819055508681600b018190555050831561142d57845460ff60401b19168555604051600181527fc7f505b2f371ae2175ee4913f4499e1f2633a7b5936321eed1cdaeb6115181d29060200160405180910390a15b50505050505050505050505050565b5f6114456115a0565b60090154905090565b5f6114576115a0565b600a0154905090565b73__$de775690ba40045382432c866271eb7b49$__63736c147e610fe46115a0565b5f6001600160a01b03831615806114a057506001600160a01b038216155b156114be57604051633bf95ba760e01b815260040160405180910390fd5b73__$cf4d437c3fd1f300db2a64a4be3188e19a$__6359f432fe61089c6115a0565b5f7fb413d65cb88f23816c329284a0d3eb15a99df7963ab7402ade4c5da22bff6b0054604051633657648360e21b81526001600160e01b0319841660048201523060248201523360448201526001600160a01b039091169063d95d920c90606401602060405180830381865afa15801561155c573d5f5f3e3d5ffd5b505050506040513d601f19601f820116820180604052508101906115809190612799565b905080610c9457604051634ca8886760e01b815260040160405180910390fd5b7fd6af1ec8a1789f5ada2b972bd1569f7c83af2e268be17cd65efe8474ebf0880090565b306001600160a01b037f000000000000000000000000000000000000000000000000000000000000000016148061164a57507f00000000000000000000000000000000000000000000000000000000000000006001600160a01b031661163e5f516020612a4b5f395f51905f52546001600160a01b031690565b6001600160a01b031614155b156116685760405163703e46dd60e11b815260040160405180910390fd5b565b5f610c94816114e0565b816001600160a01b03166352d1902d6040518163ffffffff1660e01b8152600401602060405180830381865afa9250505080156116ce575060408051601f3d908101601f191682019092526116cb918101906127e8565b60015b6116fb57604051634c9c8ce360e01b81526001600160a01b03831660048201526024015b60405180910390fd5b5f516020612a4b5f395f51905f52811461172b57604051632a87526960e21b8152600481018290526024016116f2565b6107b58383611b95565b306001600160a01b037f000000000000000000000000000000000000000000000000000000000000000016146116685760405163703e46dd60e11b815260040160405180910390fd5b6001600160a01b038082165f9081526002808501602090815260408084209283015481516318160ddd60e01b8152915194959394869491909116926318160ddd92600480820193918290030181865afa1580156117dd573d5f5f3e3d5ffd5b505050506040513d601f19601f8201168201806040525081019061180191906127e8565b600183015460405163a0821be360e01b81526001600160a01b0387811660048301529293505f929091169063a0821be390602401602060405180830381865afa158015611850573d5f5f3e3d5ffd5b505050506040513d601f19601f8201168201806040525081019061187491906127e8565b600484015460058501549192509061188c8183612888565b8411156118ab578061189e838661289b565b6118a8919061289b565b95505b858310156118b7578295505b6003850154600160a81b900460ff16156118cf575f95505b505050505092915050565b6001600160a01b038181165f8181526002860160205260408082209051635afe082360e01b8152600481018890529386166024850152604484019290925291829190829073__$cf4d437c3fd1f300db2a64a4be3188e19a$__90635afe082390606401602060405180830381865af4158015611958573d5f5f3e3d5ffd5b505050506040513d601f19601f8201168201806040525081019061197c91906127e8565b600183015460405163a0821be360e01b81526001600160a01b0388811660048301529293505f929091169063a0821be390602401602060405180830381865afa1580156119cb573d5f5f3e3d5ffd5b505050506040513d601f19601f820116820180604052508101906119ef91906127e8565b90508194508260030160159054906101000a900460ff1615611a14575f949350611a2c565b80851115611a2c57611a26818661289b565b93508094505b505050935093915050565b5f5f5f611a448585611bea565b505050925050915080821115611b7157676765c793fa10079d601b1b8186600b015484611a7191906128ae565b611a7b91906128d9565b1015611a8d5784600a01549250611b36565b60088501546001600160a01b0385165f908152600687016020526040902054611ab69190612888565b421115611b365760088501546001600160a01b0385165f9081526006870160205260408120549091611ae791612888565b611af1904261289b565b90505f86600801548760090154611b08919061289b565b905080821115611b16578091505b808288600a0154611b2791906128ae565b611b3191906128d9565b945050505b5f81611b42818561289b565b611b5790676765c793fa10079d601b1b6128ae565b611b6191906128d9565b905080841115611b6f578093505b505b505092915050565b611b81611da7565b611b8a81611df0565b50565b611668611da7565b611b9e82611e3c565b6040516001600160a01b038316907fbc7cd75a20ee27fd9adebab32041f755214dbc6bffa90cc0225b39da2e5c2d3b905f90a2805115611be2576107b58282611e85565b610c94611ef7565b8154604051630330244360e41b81526001600160a01b0383811660048301525f928392839283928392839290911690633302443090602401602060405180830381865afa158015611c3d573d5f5f3e3d5ffd5b505050506040513d601f19601f82011682018060405250810190611c6191906127e8565b885460405163f01391e360e01b81526001600160a01b038a8116600483015292985091169063f01391e390602401602060405180830381865afa158015611caa573d5f5f3e3d5ffd5b505050506040513d601f19601f82011682018060405250810190611cce91906127e8565b885460405163b1732b2560e01b81526001600160a01b038a8116600483015292975091169063b1732b2590602401602060405180830381865afa158015611d17573d5f5f3e3d5ffd5b505050506040513d601f19601f82011682018060405250810190611d3b91906127e8565b9150611d478888611f16565b93508515611d745785611d6585676765c793fa10079d601b1b6128ae565b611d6f91906128d9565b611d76565b5f5b92508315611d985783611d8983886128ae565b611d9391906128d9565b611d9b565b5f195b90509295509295509295565b7ff0c57e16840df040f15088dc2f81fe391c3923bec73e23a9662efc9c229c6a0054600160401b900460ff1661166857604051631afcd79f60e31b815260040160405180910390fd5b611df8611da7565b807fb413d65cb88f23816c329284a0d3eb15a99df7963ab7402ade4c5da22bff6b005b80546001600160a01b0319166001600160a01b039290921691909117905550565b806001600160a01b03163b5f03611e7157604051634c9c8ce360e01b81526001600160a01b03821660048201526024016116f2565b805f516020612a4b5f395f51905f52611e1b565b60605f5f846001600160a01b031684604051611ea191906128ec565b5f60405180830381855af49150503d805f8114611ed9576040519150601f19603f3d011682016040523d82523d5f602084013e611ede565b606091505b5091509150611eee8583836120d9565b95945050505050565b34156116685760405163b398979f60e01b815260040160405180910390fd5b5f5f5b600484015461ffff168110156120d2576001600160a01b0383165f908152600585016020908152604091829020825191820190925290548152611f5c908261212e565b156120ca575f81815260038501602052604080822054600187015491516341976e0960e01b81526001600160a01b0391821660048201819052939291909116906341976e09906024016040805180830381865afa158015611fbf573d5f5f3e3d5ffd5b505050506040513d601f19601f82011682018060405250810190611fe39190612902565b509050805f03611ff45750506120ca565b6001600160a01b0382165f908152600287016020526040902060038101546120ba90839061202d90600160a01b900460ff16600a612a07565b600161203a8b8b89612160565b60028601546040516370a0823160e01b81526001600160a01b038d81166004830152909116906370a0823190602401602060405180830381865afa158015612084573d5f5f3e3d5ffd5b505050506040513d601f19601f820116820180604052508101906120a891906127e8565b6120b29190612888565b9291906122c8565b6120c49086612888565b94505050505b600101611f19565b5092915050565b6060826120ee576120e98261230a565b610911565b815115801561210557506001600160a01b0384163b155b156120d257604051639996b31560e01b81526001600160a01b03851660048201526024016116f2565b5f6101008210612151576040516385e98beb60e01b815260040160405180910390fd5b509051600191821b1c16151590565b6001600160a01b038181165f908152600285810160205260408083209182015490516370a0823160e01b8152868516600482015292939192849291909116906370a0823190602401602060405180830381865afa1580156121c3573d5f5f3e3d5ffd5b505050506040513d601f19601f820116820180604052508101906121e791906127e8565b600187015460405163131b636160e31b81526001600160a01b0388811660048301529293505f92909116906398db1b0890602401602060405180830381865afa158015612236573d5f5f3e3d5ffd5b505050506040513d601f19601f8201168201806040525081019061225a91906127e8565b6001600160a01b0387165f90815260078501602052604081205491925090612282904261289b565b905061229d6301e13380676765c793fa10079d601b1b6128ae565b816122a884866128ae565b6122b291906128ae565b6122bc91906128d9565b98975050505050505050565b5f6122f56122d583612333565b80156122f057505f84806122eb576122eb6128c5565b868809115b151590565b61230086868661235f565b611eee9190612888565b80511561231a5780518082602001fd5b60405163d6bda27560e01b815260040160405180910390fd5b5f600282600381111561234857612348612a15565b6123529190612a29565b60ff166001149050919050565b5f838302815f1985870982811083820303915050805f0361239357838281612389576123896128c5565b0492505050610911565b8084116123aa576123aa6003851502601118612415565b5f848688095f868103871696879004966002600389028118808a02820302808a02820302808a02820302808a02820302808a02820302808a02909103029181900381900460010186841190950394909402919094039290920491909117919091029150509392505050565b634e487b715f52806020526024601cfd5b5f60208284031215612436575f5ffd5b5035919050565b5f60c082840312801561244e575f5ffd5b509092915050565b80356001600160a01b038116811461246c575f5ffd5b919050565b5f60208284031215612481575f5ffd5b61091182612456565b5f5f6040838503121561249b575f5ffd5b6124a483612456565b91506124b260208401612456565b90509250929050565b5f5f604083850312156124cc575f5ffd5b6124d583612456565b946020939093013593505050565b5f5f5f606084860312156124f5575f5ffd5b6124fe84612456565b925061250c60208501612456565b929592945050506040919091013590565b8015158114611b8a575f5ffd5b5f5f6040838503121561253b575f5ffd5b61254483612456565b915060208301356125548161251d565b809150509250929050565b634e487b7160e01b5f52604160045260245ffd5b5f5f60408385031215612584575f5ffd5b61258d83612456565b9150602083013567ffffffffffffffff8111156125a8575f5ffd5b8301601f810185136125b8575f5ffd5b803567ffffffffffffffff8111156125d2576125d261255f565b604051601f8201601f19908116603f0116810167ffffffffffffffff811182821017156126015761260161255f565b604052818152828201602001871015612618575f5ffd5b816020840160208301375f602083830101528093505050509250929050565b5f5f5f60608486031215612649575f5ffd5b61265284612456565b92506020840135915061266760408501612456565b90509250925092565b602081525f82518060208401528060208501604085015e5f604082850101526040601f19601f83011684010191505092915050565b5f5f5f5f5f5f5f5f610100898b0312156126bd575f5ffd5b6126c689612456565b97506126d460208a01612456565b96506126e260408a01612456565b979a96995096976060810135975060808101359660a0820135965060c0820135955060e0909101359350915050565b82815260e081016001600160a01b0361272984612456565b16602083015260018060a01b0361274260208501612456565b16604083015260018060a01b0361275b60408501612456565b16606083015260018060a01b0361277460608501612456565b1660808381019190915283013560a0808401919091529092013560c090910152919050565b5f602082840312156127a9575f5ffd5b81516109118161251d565b634e487b7160e01b5f52601160045260245ffd5b5f61ffff821661ffff81036127df576127df6127b4565b60010192915050565b5f602082840312156127f8575f5ffd5b5051919050565b91825280516001600160a01b0390811660208085019190915282015181166040808501919091528201516060808501919091529091015116608082015260a00190565b5f5f5f5f5f5f60c08789031215612857575f5ffd5b50508451602086015160408701516060880151608089015160a090990151939a929950909790965094509092509050565b80820180821115610cdb57610cdb6127b4565b81810381811115610cdb57610cdb6127b4565b8082028115828204841417610cdb57610cdb6127b4565b634e487b7160e01b5f52601260045260245ffd5b5f826128e7576128e76128c5565b500490565b5f82518060208501845e5f920191825250919050565b5f5f60408385031215612913575f5ffd5b505080516020909101519092909150565b6001815b600184111561295f57808504811115612943576129436127b4565b600184161561295157908102905b60019390931c928002612928565b935093915050565b5f8261297557506001610cdb565b8161298157505f610cdb565b816001811461299757600281146129a1576129bd565b6001915050610cdb565b60ff8411156129b2576129b26127b4565b50506001821b610cdb565b5060208310610133831016604e8410600b84101617156129e0575081810a610cdb565b6129ec5f198484612924565b805f19048211156129ff576129ff6127b4565b029392505050565b5f61091160ff841683612967565b634e487b7160e01b5f52602160045260245ffd5b5f60ff831680612a3b57612a3b6128c5565b8060ff8416069150509291505056fe360894a13ba1a3210667c828492db98dca3e2076cc3735a920a3ca505d382bbca2646970667358221220654ca6b9bd1b364a1a5e550eee6f025f94109d047eec24c0a6bef62d18718bb264736f6c634300081c0033","linkReferences":{"contracts/lendingPool/libraries/BorrowLogic.sol":{"BorrowLogic":[{"start":2421,"length":20},{"start":3608,"length":20},{"start":3760,"length":20},{"start":4689,"length":20}]},"contracts/lendingPool/libraries/LiquidationLogic.sol":{"LiquidationLogic":[{"start":2913,"length":20},{"start":4285,"length":20},{"start":5467,"length":20}]},"contracts/lendingPool/libraries/ReserveLogic.sol":{"ReserveLogic":[{"start":2065,"length":20},{"start":2635,"length":20},{"start":3149,"length":20},{"start":3316,"length":20}]},"contracts/lendingPool/libraries/ViewLogic.sol":{"ViewLogic":[{"start":4010,"length":20},{"start":4233,"length":20},{"start":4503,"length":20},{"start":4654,"length":20},{"start":5561,"length":20},{"start":6681,"length":20}]}}},"methodIdentifiers":{"UPGRADE_INTERFACE_VERSION()":"ad3cb1cc","accruedRestakerInterest(address,address)":"968faa95","addAsset((address,address,address,address,uint256,uint256))":"050d6c64","agent(address)":"92e423b5","bonus(address)":"d8cb4aa3","bonusCap()":"e325fb4b","borrow(address,uint256,address)":"6c665a55","closeLiquidation(address)":"afabb4e0","debt(address,address)":"d449300d","emergencyLiquidationThreshold()":"a555d689","expiry()":"e184c9be","grace()":"1eefddb1","initialize(address,address,address,uint256,uint256,uint256,uint256,uint256)":"df8fa430","liquidate(address,address,uint256)":"26c01303","liquidationStart(address)":"6511a068","maxBorrowable(address,address)":"f0a05395","maxLiquidatable(address,address)":"d9f97d00","maxRealization(address)":"59c97273","maxRestakerRealization(address,address)":"b095cd1e","openLiquidation(address)":"e66e33aa","pauseAsset(address,bool)":"3a00bc44","proxiableUUID()":"52d1902d","realizeInterest(address)":"df6e7cc8","realizeRestakerInterest(address,address)":"0a8d01da","removeAsset(address)":"4a5e42b1","repay(address,uint256,address)":"5ceae9c4","reservesCount()":"54b768bb","reservesData(address)":"08cf6fec","setBonusCap(uint256)":"061efb4f","setExpiry(uint256)":"01cceb38","setGrace(uint256)":"87e3d339","setMinBorrow(address,uint256)":"102512d5","targetHealth()":"440364df","unrealizedInterest(address,address)":"1ee3b4c8","upgradeToAndCall(address,bytes)":"4f1ef286"},"id":54}