{"abi":[{"type":"constructor","inputs":[],"stateMutability":"nonpayable"},{"type":"function","name":"UPGRADE_INTERFACE_VERSION","inputs":[],"outputs":[{"name":"","type":"string","internalType":"string"}],"stateMutability":"view"},{"type":"function","name":"benchmarkRate","inputs":[{"name":"_asset","type":"address","internalType":"address"}],"outputs":[{"name":"rate","type":"uint256","internalType":"uint256"}],"stateMutability":"view"},{"type":"function","name":"getPrice","inputs":[{"name":"_asset","type":"address","internalType":"address"}],"outputs":[{"name":"price","type":"uint256","internalType":"uint256"},{"name":"lastUpdated","type":"uint256","internalType":"uint256"}],"stateMutability":"view"},{"type":"function","name":"initialize","inputs":[{"name":"_accessControl","type":"address","internalType":"address"}],"outputs":[],"stateMutability":"nonpayable"},{"type":"function","name":"marketOracleData","inputs":[{"name":"_asset","type":"address","internalType":"address"}],"outputs":[{"name":"data","type":"tuple","internalType":"struct IOracleTypes.OracleData","components":[{"name":"adapter","type":"address","internalType":"address"},{"name":"payload","type":"bytes","internalType":"bytes"}]}],"stateMutability":"view"},{"type":"function","name":"marketRate","inputs":[{"name":"_asset","type":"address","internalType":"address"}],"outputs":[{"name":"rate","type":"uint256","internalType":"uint256"}],"stateMutability":"nonpayable"},{"type":"function","name":"priceBackupOracleData","inputs":[{"name":"_asset","type":"address","internalType":"address"}],"outputs":[{"name":"data","type":"tuple","internalType":"struct IOracleTypes.OracleData","components":[{"name":"adapter","type":"address","internalType":"address"},{"name":"payload","type":"bytes","internalType":"bytes"}]}],"stateMutability":"view"},{"type":"function","name":"priceOracleData","inputs":[{"name":"_asset","type":"address","internalType":"address"}],"outputs":[{"name":"data","type":"tuple","internalType":"struct IOracleTypes.OracleData","components":[{"name":"adapter","type":"address","internalType":"address"},{"name":"payload","type":"bytes","internalType":"bytes"}]}],"stateMutability":"view"},{"type":"function","name":"proxiableUUID","inputs":[],"outputs":[{"name":"","type":"bytes32","internalType":"bytes32"}],"stateMutability":"view"},{"type":"function","name":"restakerRate","inputs":[{"name":"_agent","type":"address","internalType":"address"}],"outputs":[{"name":"rate","type":"uint256","internalType":"uint256"}],"stateMutability":"view"},{"type":"function","name":"setBenchmarkRate","inputs":[{"name":"_asset","type":"address","internalType":"address"},{"name":"_rate","type":"uint256","internalType":"uint256"}],"outputs":[],"stateMutability":"nonpayable"},{"type":"function","name":"setMarketOracleData","inputs":[{"name":"_asset","type":"address","internalType":"address"},{"name":"_oracleData","type":"tuple","internalType":"struct IOracleTypes.OracleData","components":[{"name":"adapter","type":"address","internalType":"address"},{"name":"payload","type":"bytes","internalType":"bytes"}]}],"outputs":[],"stateMutability":"nonpayable"},{"type":"function","name":"setPriceBackupOracleData","inputs":[{"name":"_asset","type":"address","internalType":"address"},{"name":"_oracleData","type":"tuple","internalType":"struct IOracleTypes.OracleData","components":[{"name":"adapter","type":"address","internalType":"address"},{"name":"payload","type":"bytes","internalType":"bytes"}]}],"outputs":[],"stateMutability":"nonpayable"},{"type":"function","name":"setPriceOracleData","inputs":[{"name":"_asset","type":"address","internalType":"address"},{"name":"_oracleData","type":"tuple","internalType":"struct IOracleTypes.OracleData","components":[{"name":"adapter","type":"address","internalType":"address"},{"name":"payload","type":"bytes","internalType":"bytes"}]}],"outputs":[],"stateMutability":"nonpayable"},{"type":"function","name":"setRestakerRate","inputs":[{"name":"_agent","type":"address","internalType":"address"},{"name":"_rate","type":"uint256","internalType":"uint256"}],"outputs":[],"stateMutability":"nonpayable"},{"type":"function","name":"setStaleness","inputs":[{"name":"_asset","type":"address","internalType":"address"},{"name":"_staleness","type":"uint256","internalType":"uint256"}],"outputs":[],"stateMutability":"nonpayable"},{"type":"function","name":"setUtilizationOracleData","inputs":[{"name":"_asset","type":"address","internalType":"address"},{"name":"_oracleData","type":"tuple","internalType":"struct IOracleTypes.OracleData","components":[{"name":"adapter","type":"address","internalType":"address"},{"name":"payload","type":"bytes","internalType":"bytes"}]}],"outputs":[],"stateMutability":"nonpayable"},{"type":"function","name":"staleness","inputs":[{"name":"_asset","type":"address","internalType":"address"}],"outputs":[{"name":"assetStaleness","type":"uint256","internalType":"uint256"}],"stateMutability":"view"},{"type":"function","name":"upgradeToAndCall","inputs":[{"name":"newImplementation","type":"address","internalType":"address"},{"name":"data","type":"bytes","internalType":"bytes"}],"outputs":[],"stateMutability":"payable"},{"type":"function","name":"utilizationOracleData","inputs":[{"name":"_asset","type":"address","internalType":"address"}],"outputs":[{"name":"data","type":"tuple","internalType":"struct IOracleTypes.OracleData","components":[{"name":"adapter","type":"address","internalType":"address"},{"name":"payload","type":"bytes","internalType":"bytes"}]}],"stateMutability":"view"},{"type":"function","name":"utilizationRate","inputs":[{"name":"_asset","type":"address","internalType":"address"}],"outputs":[{"name":"rate","type":"uint256","internalType":"uint256"}],"stateMutability":"nonpayable"},{"type":"event","name":"Initialized","inputs":[{"name":"version","type":"uint64","indexed":false,"internalType":"uint64"}],"anonymous":false},{"type":"event","name":"SetBenchmarkRate","inputs":[{"name":"asset","type":"address","indexed":false,"internalType":"address"},{"name":"rate","type":"uint256","indexed":false,"internalType":"uint256"}],"anonymous":false},{"type":"event","name":"SetMarketOracleData","inputs":[{"name":"asset","type":"address","indexed":false,"internalType":"address"},{"name":"data","type":"tuple","indexed":false,"internalType":"struct IOracleTypes.OracleData","components":[{"name":"adapter","type":"address","internalType":"address"},{"name":"payload","type":"bytes","internalType":"bytes"}]}],"anonymous":false},{"type":"event","name":"SetPriceBackupOracleData","inputs":[{"name":"asset","type":"address","indexed":false,"internalType":"address"},{"name":"data","type":"tuple","indexed":false,"internalType":"struct IOracleTypes.OracleData","components":[{"name":"adapter","type":"address","internalType":"address"},{"name":"payload","type":"bytes","internalType":"bytes"}]}],"anonymous":false},{"type":"event","name":"SetPriceOracleData","inputs":[{"name":"asset","type":"address","indexed":false,"internalType":"address"},{"name":"data","type":"tuple","indexed":false,"internalType":"struct IOracleTypes.OracleData","components":[{"name":"adapter","type":"address","internalType":"address"},{"name":"payload","type":"bytes","internalType":"bytes"}]}],"anonymous":false},{"type":"event","name":"SetRestakerRate","inputs":[{"name":"agent","type":"address","indexed":false,"internalType":"address"},{"name":"rate","type":"uint256","indexed":false,"internalType":"uint256"}],"anonymous":false},{"type":"event","name":"SetStaleness","inputs":[{"name":"asset","type":"address","indexed":false,"internalType":"address"},{"name":"staleness","type":"uint256","indexed":false,"internalType":"uint256"}],"anonymous":false},{"type":"event","name":"SetUtilizationOracleData","inputs":[{"name":"asset","type":"address","indexed":false,"internalType":"address"},{"name":"data","type":"tuple","indexed":false,"internalType":"struct IOracleTypes.OracleData","components":[{"name":"adapter","type":"address","internalType":"address"},{"name":"payload","type":"bytes","internalType":"bytes"}]}],"anonymous":false},{"type":"event","name":"Upgraded","inputs":[{"name":"implementation","type":"address","indexed":true,"internalType":"address"}],"anonymous":false},{"type":"error","name":"AccessDenied","inputs":[]},{"type":"error","name":"AddressEmptyCode","inputs":[{"name":"target","type":"address","internalType":"address"}]},{"type":"error","name":"ERC1967InvalidImplementation","inputs":[{"name":"implementation","type":"address","internalType":"address"}]},{"type":"error","name":"ERC1967NonPayable","inputs":[]},{"type":"error","name":"FailedCall","inputs":[]},{"type":"error","name":"InvalidInitialization","inputs":[]},{"type":"error","name":"NotInitializing","inputs":[]},{"type":"error","name":"PriceError","inputs":[{"name":"asset","type":"address","internalType":"address"}]},{"type":"error","name":"UUPSUnauthorizedCallContext","inputs":[]},{"type":"error","name":"UUPSUnsupportedProxiableUUID","inputs":[{"name":"slot","type":"bytes32","internalType":"bytes32"}]}],"bytecode":{"object":"0x60a060405230608052348015610013575f5ffd5b5061001c610021565b6100d3565b7ff0c57e16840df040f15088dc2f81fe391c3923bec73e23a9662efc9c229c6a00805468010000000000000000900460ff16156100715760405163f92ee8a960e01b815260040160405180910390fd5b80546001600160401b03908116146100d05780546001600160401b0319166001600160401b0390811782556040519081527fc7f505b2f371ae2175ee4913f4499e1f2633a7b5936321eed1cdaeb6115181d29060200160405180910390a15b50565b6080516119d36100f95f395f81816110640152818161108d01526111d501526119d35ff3fe608060405260043610610126575f3560e01c806358d7849a116100a8578063bb97b3451161006d578063bb97b34514610371578063be71e1d514610390578063c4d66de8146103af578063d3f9e410146103ce578063d5ee6120146103ed578063f73220131461040c575f5ffd5b806358d7849a1461028457806367b98d9e146102a357806398db1b08146102c2578063a6cdf98c14610315578063ad3cb1cc14610334575f5ffd5b80632daff25c116100ee5780632daff25c146101eb57806341976e091461020a5780634b6be49f1461023e5780634f1ef2861461025d57806352d1902d14610270575f5ffd5b8063039354551461012a5780630fc1d6461461014b578063194fb033146101805780631c7cfb821461019f578063207b27df146101be575b5f5ffd5b348015610135575f5ffd5b50610149610144366004611489565b61042b565b005b348015610156575f5ffd5b5061016a6101653660046114dc565b6104bf565b6040516101779190611525565b60405180910390f35b34801561018b575f5ffd5b5061016a61019a3660046114dc565b6105a6565b3480156101aa575f5ffd5b506101496101b9366004611489565b61060a565b3480156101c9575f5ffd5b506101dd6101d83660046114dc565b610691565b604051908152602001610177565b3480156101f6575f5ffd5b506101dd6102053660046114dc565b61077c565b348015610215575f5ffd5b506102296102243660046114dc565b6107c9565b60408051928352602083019190915201610177565b348015610249575f5ffd5b50610149610258366004611489565b6109eb565b61014961026b36600461156d565b610a5f565b34801561027b575f5ffd5b506101dd610a7e565b34801561028f575f5ffd5b506101dd61029e3660046114dc565b610a99565b3480156102ae575f5ffd5b506101496102bd366004611633565b610aca565b3480156102cd575f5ffd5b506101dd6102dc3660046114dc565b6001600160a01b03165f9081527fc2fe5bdef19b00667b17c16a6e885c9ed219a037de5cdf872528698fdc749f03602052604090205490565b348015610320575f5ffd5b5061014961032f366004611633565b610b4a565b34801561033f575f5ffd5b50610364604051806040016040528060058152602001640352e302e360dc1b81525081565b604051610177919061165d565b34801561037c575f5ffd5b506101dd61038b3660046114dc565b610bca565b34801561039b575f5ffd5b5061016a6103aa3660046114dc565b610bde565b3480156103ba575f5ffd5b506101496103c93660046114dc565b610c05565b3480156103d9575f5ffd5b5061016a6103e83660046114dc565b610d2b565b3480156103f8575f5ffd5b50610149610407366004611489565b610d52565b348015610417575f5ffd5b50610149610426366004611633565b610dc6565b630393545560e01b61043c81610e46565b6001600160a01b0383165f9081527f02a142d837c166bd77dc34adb0a38ff11e81f2f3e8008e975ef32f5fb877ac0160205260409020829061047e82826116f2565b9050507fb9f1c48980155a14dc1c207b9e440203c37c3a1bb20f832838b70eac5c9c43f883836040516104b292919061180e565b60405180910390a1505050565b604080518082019091525f8152606060208201525f51602061195e5f395f51905f525b6001600160a01b038084165f9081526020928352604090819020815180830190925280549092168152600182018054919384019161051f9061166f565b80601f016020809104026020016040519081016040528092919081815260200182805461054b9061166f565b80156105965780601f1061056d57610100808354040283529160200191610596565b820191905f5260205f20905b81548152906001019060200180831161057957829003601f168201915b5050505050815250509050919050565b604080518082019091525f8152606060208201525f51602061193e5f395f51905f525b6001600160a01b038084165f908152600192830160209081526040918290208251808401909352805490931682529282018054919384019161051f9061166f565b630e3e7dc160e11b61061b81610e46565b6001600160a01b0383165f9081527fc2fe5bdef19b00667b17c16a6e885c9ed219a037de5cdf872528698fdc749f0160205260409020829061065d82826116f2565b9050507f6be00cee2fc0b9cdcba80e576e6585b5adcac98eb4135d6fe89d3e9397acc41183836040516104b292919061180e565b5f805f51602061195e5f395f51905f526001600160a01b038085165f90815260019283016020908152604091829020825180840190935280549093168252928201805491938401916106e29061166f565b80601f016020809104026020016040519081016040528092919081815260200182805461070e9061166f565b80156107595780601f1061073057610100808354040283529160200191610759565b820191905f5260205f20905b81548152906001019060200180831161073c57829003601f168201915b5050505050815250509050610775815f01518260200151610f06565b9392505050565b5f805f51602061195e5f395f51905f526001600160a01b038085165f908152602092835260409081902081518083019092528054909216815260018201805491938401916106e29061166f565b6001600160a01b038181165f9081525f51602061193e5f395f51905f52602081815260408084208151808301909252805490951681526001850180549495869586949192918401919061081b9061166f565b80601f01602080910402602001604051908101604052809291908181526020018280546108479061166f565b80156108925780601f1061086957610100808354040283529160200191610892565b820191905f5260205f20905b81548152906001019060200180831161087557829003601f168201915b50505050508152505090506108ae815f01518260200151610f89565b90945092508315806108c557506108c58584611010565b156109e4576001600160a01b038086165f9081526001808501602090815260409283902083518085019094528054909416835290830180549293929184019161090d9061166f565b80601f01602080910402602001604051908101604052809291908181526020018280546109399061166f565b80156109845780601f1061095b57610100808354040283529160200191610984565b820191905f5260205f20905b81548152906001019060200180831161096757829003601f168201915b50505050508152505090506109a0815f01518260200151610f89565b90945092508315806109b757506109b78584611010565b156109e45760405162e52a7d60e41b81526001600160a01b03861660048201526024015b60405180910390fd5b5050915091565b634b6be49f60e01b6109fc81610e46565b6001600160a01b0383165f9081525f51602061193e5f395f51905f52602052604090208290610a2b82826116f2565b9050507f6d6ccdab8041f42dcce71e6839f1ea348a85de2a7fb8f428c99f239e71486f1c83836040516104b292919061180e565b610a67611059565b610a70826110ff565b610a7a8282611109565b5050565b5f610a876111ca565b505f51602061197e5f395f51905f5290565b5f5f51602061195e5f395f51905f525b6001600160a01b039092165f90815260029290920160205250604090205490565b6333dcc6cf60e11b610adb81610e46565b6001600160a01b0383165f8181527fc2fe5bdef19b00667b17c16a6e885c9ed219a037de5cdf872528698fdc749f026020908152604091829020859055815192835282018490527f12a60b7cad601aa55a1fcbf599f7653b58ccce6bb4852233a69b0d8514edd18a91016104b2565b6329b37e6360e21b610b5b81610e46565b6001600160a01b0383165f8181527fc2fe5bdef19b00667b17c16a6e885c9ed219a037de5cdf872528698fdc749f036020908152604091829020859055815192835282018490527f8da93f57ed4776ff2503a3d6e4554ae11bbba5cab631d85076bd1a21ce2ede2c91016104b2565b5f5f51602061193e5f395f51905f52610aa9565b604080518082019091525f8152606060208201525f51602061193e5f395f51905f526104e2565b7ff0c57e16840df040f15088dc2f81fe391c3923bec73e23a9662efc9c229c6a008054600160401b810460ff16159067ffffffffffffffff165f81158015610c4a5750825b90505f8267ffffffffffffffff166001148015610c665750303b155b905081158015610c74575080155b15610c925760405163f92ee8a960e01b815260040160405180910390fd5b845467ffffffffffffffff191660011785558315610cbc57845460ff60401b1916600160401b1785555b610cc586611213565b610ccd611227565b610cd5611227565b610cdd611227565b8315610d2357845460ff60401b19168555604051600181527fc7f505b2f371ae2175ee4913f4499e1f2633a7b5936321eed1cdaeb6115181d29060200160405180910390a15b505050505050565b604080518082019091525f8152606060208201525f51602061195e5f395f51905f526105c9565b6306af730960e51b610d6381610e46565b6001600160a01b0383165f9081525f51602061195e5f395f51905f52602052604090208290610d9282826116f2565b9050507ff05e3eea2d52982c8d0344cd4f5d14ab80db8c0aba20b6f27aa0ce8a9bf8e7a983836040516104b292919061180e565b63f732201360e01b610dd781610e46565b6001600160a01b0383165f8181527f02a142d837c166bd77dc34adb0a38ff11e81f2f3e8008e975ef32f5fb877ac026020908152604091829020859055815192835282018490527f9b33df9caff02548ea99af0d5dbfc9c404cf30ba4166e9b720c1a21c70ee2cd091016104b2565b5f7fb413d65cb88f23816c329284a0d3eb15a99df7963ab7402ade4c5da22bff6b0054604051633657648360e21b81526001600160e01b0319841660048201523060248201523360448201526001600160a01b039091169063d95d920c90606401602060405180830381865afa158015610ec2573d5f5f3e3d5ffd5b505050506040513d601f19601f82011682018060405250810190610ee691906118b0565b905080610a7a57604051634ca8886760e01b815260040160405180910390fd5b5f5f5f846001600160a01b031684604051610f2191906118cf565b5f604051808303815f865af19150503d805f8114610f5a576040519150601f19603f3d011682016040523d82523d5f602084013e610f5f565b606091505b50915091508115610f815780806020019051810190610f7e91906118e5565b92505b505092915050565b5f5f5f5f856001600160a01b031685604051610fa591906118cf565b5f60405180830381855afa9150503d805f8114610fdd576040519150601f19603f3d011682016040523d82523d5f602084013e610fe2565b606091505b50915091508115611007578080602001905181019061100191906118fc565b90945092505b50509250929050565b6001600160a01b0382165f9081527f02a142d837c166bd77dc34adb0a38ff11e81f2f3e8008e975ef32f5fb877ac026020526040812054611051834261191e565b119392505050565b306001600160a01b037f00000000000000000000000000000000000000000000000000000000000000001614806110df57507f00000000000000000000000000000000000000000000000000000000000000006001600160a01b03166110d35f51602061197e5f395f51905f52546001600160a01b031690565b6001600160a01b031614155b156110fd5760405163703e46dd60e11b815260040160405180910390fd5b565b5f610a7a81610e46565b816001600160a01b03166352d1902d6040518163ffffffff1660e01b8152600401602060405180830381865afa925050508015611163575060408051601f3d908101601f19168201909252611160918101906118e5565b60015b61118b57604051634c9c8ce360e01b81526001600160a01b03831660048201526024016109db565b5f51602061197e5f395f51905f5281146111bb57604051632a87526960e21b8152600481018290526024016109db565b6111c5838361122f565b505050565b306001600160a01b037f000000000000000000000000000000000000000000000000000000000000000016146110fd5760405163703e46dd60e11b815260040160405180910390fd5b61121b611284565b611224816112cd565b50565b6110fd611284565b61123882611319565b6040516001600160a01b038316907fbc7cd75a20ee27fd9adebab32041f755214dbc6bffa90cc0225b39da2e5c2d3b905f90a280511561127c576111c58282611362565b610a7a6113d1565b7ff0c57e16840df040f15088dc2f81fe391c3923bec73e23a9662efc9c229c6a0054600160401b900460ff166110fd57604051631afcd79f60e31b815260040160405180910390fd5b6112d5611284565b807fb413d65cb88f23816c329284a0d3eb15a99df7963ab7402ade4c5da22bff6b005b80546001600160a01b0319166001600160a01b039290921691909117905550565b806001600160a01b03163b5f0361134e57604051634c9c8ce360e01b81526001600160a01b03821660048201526024016109db565b805f51602061197e5f395f51905f526112f8565b60605f5f846001600160a01b03168460405161137e91906118cf565b5f60405180830381855af49150503d805f81146113b6576040519150601f19603f3d011682016040523d82523d5f602084013e6113bb565b606091505b5091509150610f7e8583836113f0565b92915050565b34156110fd5760405163b398979f60e01b815260040160405180910390fd5b606082611405576114008261144c565b610775565b815115801561141c57506001600160a01b0384163b155b1561144557604051639996b31560e01b81526001600160a01b03851660048201526024016109db565b5092915050565b80511561145c5780518082602001fd5b60405163d6bda27560e01b815260040160405180910390fd5b6001600160a01b0381168114611224575f5ffd5b5f5f6040838503121561149a575f5ffd5b82356114a581611475565b9150602083013567ffffffffffffffff8111156114c0575f5ffd5b8301604081860312156114d1575f5ffd5b809150509250929050565b5f602082840312156114ec575f5ffd5b813561077581611475565b5f81518084528060208401602086015e5f602082860101526020601f19601f83011685010191505092915050565b602080825282516001600160a01b0316828201528201516040808301525f9061155160608401826114f7565b949350505050565b634e487b7160e01b5f52604160045260245ffd5b5f5f6040838503121561157e575f5ffd5b823561158981611475565b9150602083013567ffffffffffffffff8111156115a4575f5ffd5b8301601f810185136115b4575f5ffd5b803567ffffffffffffffff8111156115ce576115ce611559565b604051601f8201601f19908116603f0116810167ffffffffffffffff811182821017156115fd576115fd611559565b604052818152828201602001871015611614575f5ffd5b816020840160208301375f602083830101528093505050509250929050565b5f5f60408385031215611644575f5ffd5b823561164f81611475565b946020939093013593505050565b602081525f61077560208301846114f7565b600181811c9082168061168357607f821691505b6020821081036116a157634e487b7160e01b5f52602260045260245ffd5b50919050565b601f8211156111c557805f5260205f20601f840160051c810160208510156116cc5750805b601f840160051c820191505b818110156116eb575f81556001016116d8565b5050505050565b81356116fd81611475565b81546001600160a01b0319166001600160a01b039190911617815560018101602083013536849003601e19018112611733575f5ffd5b8301803567ffffffffffffffff8111801561174c575f5ffd5b81360360208401131561175d575f5ffd5b5f9050506117758161176f855461166f565b856116a7565b5f601f8211600181146117a9575f83156117925750838201602001355b5f19600385901b1c1916600184901b178555611805565b5f85815260208120601f198516915b828110156117da576020858801810135835594850194600190920191016117b8565b50848210156117f9575f1960f88660031b161c19602085880101351681555b505060018360011b0185555b50505050505050565b6001600160a01b0383168152604060208201525f823561182d81611475565b6001600160a01b03166040830152602083013536849003601e19018112611852575f5ffd5b830160208101903567ffffffffffffffff81111561186e575f5ffd5b80360382131561187c575f5ffd5b60406060850152806080850152808260a08601375f60a0828601015260a0601f19601f830116850101925050509392505050565b5f602082840312156118c0575f5ffd5b81518015158114610775575f5ffd5b5f82518060208501845e5f920191825250919050565b5f602082840312156118f5575f5ffd5b5051919050565b5f5f6040838503121561190d575f5ffd5b505080516020909101519092909150565b818103818111156113cb57634e487b7160e01b5f52601160045260245ffdfe02a142d837c166bd77dc34adb0a38ff11e81f2f3e8008e975ef32f5fb877ac00c2fe5bdef19b00667b17c16a6e885c9ed219a037de5cdf872528698fdc749f00360894a13ba1a3210667c828492db98dca3e2076cc3735a920a3ca505d382bbca2646970667358221220ddb413004587a354f8d4e66ebfec0aaed834cc15e1a5d036351864650d8f291364736f6c634300081c0033","linkReferences":{}},"methodIdentifiers":{"UPGRADE_INTERFACE_VERSION()":"ad3cb1cc","benchmarkRate(address)":"58d7849a","getPrice(address)":"41976e09","initialize(address)":"c4d66de8","marketOracleData(address)":"0fc1d646","marketRate(address)":"2daff25c","priceBackupOracleData(address)":"194fb033","priceOracleData(address)":"be71e1d5","proxiableUUID()":"52d1902d","restakerRate(address)":"98db1b08","setBenchmarkRate(address,uint256)":"67b98d9e","setMarketOracleData(address,(address,bytes))":"d5ee6120","setPriceBackupOracleData(address,(address,bytes))":"03935455","setPriceOracleData(address,(address,bytes))":"4b6be49f","setRestakerRate(address,uint256)":"a6cdf98c","setStaleness(address,uint256)":"f7322013","setUtilizationOracleData(address,(address,bytes))":"1c7cfb82","staleness(address)":"bb97b345","upgradeToAndCall(address,bytes)":"4f1ef286","utilizationOracleData(address)":"d3f9e410","utilizationRate(address)":"207b27df"},"id":67}