{"abi":[{"type":"constructor","inputs":[],"stateMutability":"nonpayable"},{"type":"function","name":"UPGRADE_INTERFACE_VERSION","inputs":[],"outputs":[{"name":"","type":"string","internalType":"string"}],"stateMutability":"view"},{"type":"function","name":"distribute","inputs":[],"outputs":[],"stateMutability":"nonpayable"},{"type":"function","name":"initialize","inputs":[{"name":"_accessControl","type":"address","internalType":"address"},{"name":"_capToken","type":"address","internalType":"address"},{"name":"_stakedCapToken","type":"address","internalType":"address"}],"outputs":[],"stateMutability":"nonpayable"},{"type":"function","name":"proxiableUUID","inputs":[],"outputs":[{"name":"","type":"bytes32","internalType":"bytes32"}],"stateMutability":"view"},{"type":"function","name":"setProtocolFeePercentage","inputs":[{"name":"_protocolFeePercentage","type":"uint256","internalType":"uint256"}],"outputs":[],"stateMutability":"nonpayable"},{"type":"function","name":"setProtocolFeeReceiver","inputs":[{"name":"_protocolFeeReceiver","type":"address","internalType":"address"}],"outputs":[],"stateMutability":"nonpayable"},{"type":"function","name":"upgradeToAndCall","inputs":[{"name":"newImplementation","type":"address","internalType":"address"},{"name":"data","type":"bytes","internalType":"bytes"}],"outputs":[],"stateMutability":"payable"},{"type":"event","name":"FeesDistributed","inputs":[{"name":"amount","type":"uint256","indexed":false,"internalType":"uint256"}],"anonymous":false},{"type":"event","name":"Initialized","inputs":[{"name":"version","type":"uint64","indexed":false,"internalType":"uint64"}],"anonymous":false},{"type":"event","name":"ProtocolFeeClaimed","inputs":[{"name":"amount","type":"uint256","indexed":false,"internalType":"uint256"}],"anonymous":false},{"type":"event","name":"ProtocolFeePercentageSet","inputs":[{"name":"protocolFeePercentage","type":"uint256","indexed":false,"internalType":"uint256"}],"anonymous":false},{"type":"event","name":"ProtocolFeeReceiverSet","inputs":[{"name":"protocolFeeReceiver","type":"address","indexed":false,"internalType":"address"}],"anonymous":false},{"type":"event","name":"Upgraded","inputs":[{"name":"implementation","type":"address","indexed":true,"internalType":"address"}],"anonymous":false},{"type":"error","name":"AccessDenied","inputs":[]},{"type":"error","name":"AddressEmptyCode","inputs":[{"name":"target","type":"address","internalType":"address"}]},{"type":"error","name":"ERC1967InvalidImplementation","inputs":[{"name":"implementation","type":"address","internalType":"address"}]},{"type":"error","name":"ERC1967NonPayable","inputs":[]},{"type":"error","name":"FailedCall","inputs":[]},{"type":"error","name":"InvalidInitialization","inputs":[]},{"type":"error","name":"InvalidProtocolFeePercentage","inputs":[]},{"type":"error","name":"NoProtocolFeeReceiverSet","inputs":[]},{"type":"error","name":"NotInitializing","inputs":[]},{"type":"error","name":"SafeERC20FailedOperation","inputs":[{"name":"token","type":"address","internalType":"address"}]},{"type":"error","name":"UUPSUnauthorizedCallContext","inputs":[]},{"type":"error","name":"UUPSUnsupportedProxiableUUID","inputs":[{"name":"slot","type":"bytes32","internalType":"bytes32"}]},{"type":"error","name":"ZeroAddressNotValid","inputs":[]}],"bytecode":{"object":"0x60a060405230608052348015610013575f5ffd5b5061001c610021565b6100d3565b7ff0c57e16840df040f15088dc2f81fe391c3923bec73e23a9662efc9c229c6a00805468010000000000000000900460ff16156100715760405163f92ee8a960e01b815260040160405180910390fd5b80546001600160401b03908116146100d05780546001600160401b0319166001600160401b0390811782556040519081527fc7f505b2f371ae2175ee4913f4499e1f2633a7b5936321eed1cdaeb6115181d29060200160405180910390a15b50565b60805161109e6100f95f395f818161080b015281816108340152610981015261109e5ff3fe60806040526004361061006e575f3560e01c8063ad3cb1cc1161004c578063ad3cb1cc146100cd578063c0c53b8b1461010a578063d8a5e93614610129578063e4fc6b6d14610148575f5ffd5b806346877b1a146100725780634f1ef2861461009357806352d1902d146100a6575b5f5ffd5b34801561007d575f5ffd5b5061009161008c366004610e02565b61015c565b005b6100916100a1366004610e2f565b6101fb565b3480156100b1575f5ffd5b506100ba61021a565b6040519081526020015b60405180910390f35b3480156100d8575f5ffd5b506100fd604051806040016040528060058152602001640352e302e360dc1b81525081565b6040516100c49190610ef3565b348015610115575f5ffd5b50610091610124366004610f28565b610235565b348015610134575f5ffd5b50610091610143366004610f68565b6103e3565b348015610153575f5ffd5b50610091610491565b632343bd8d60e11b61016d81610740565b5f5160206110495f395f51905f526001600160a01b0383166101a257604051633bf95ba760e01b815260040160405180910390fd5b6002810180546001600160a01b0319166001600160a01b0385169081179091556040519081527f1a2b7633469609bf03c8dec2e21d406058762579808418889ea62828c177f5a6906020015b60405180910390a1505050565b610203610800565b61020c826108a6565b61021682826108b0565b5050565b5f610223610976565b505f5160206110295f395f51905f5290565b7ff0c57e16840df040f15088dc2f81fe391c3923bec73e23a9662efc9c229c6a008054600160401b810460ff16159067ffffffffffffffff165f8115801561027a5750825b90505f8267ffffffffffffffff1660011480156102965750303b155b9050811580156102a4575080155b156102c25760405163f92ee8a960e01b815260040160405180910390fd5b845467ffffffffffffffff1916600117855583156102ec57845460ff60401b1916600160401b1785555b6102f5886109bf565b6102fd6109d0565b6001600160a01b038716158061031a57506001600160a01b038616155b1561033857604051633bf95ba760e01b815260040160405180910390fd5b5f5160206110495f395f51905f5280546001600160a01b038981166001600160a01b0319928316179092557f22a89b069b09957a754cd7ed12b4d4d4fefa3dc957ead0f6120654eb51bf390180549289169290911691909117905583156103d957845460ff60401b19168555604051600181527fc7f505b2f371ae2175ee4913f4499e1f2633a7b5936321eed1cdaeb6115181d29060200160405180910390a15b5050505050505050565b636c52f49b60e11b6103f481610740565b5f5160206110495f395f51905f526b033b2e3c9fd0803ce800000083111561042f57604051635bfcf71560e01b815260040160405180910390fd5b60028101546001600160a01b031661045a57604051632304443360e01b815260040160405180910390fd5b600381018390556040518381527fc1de37701d1b74e31e87de1905069b0561a556b6e7a913d7e58de8a9aa55ed8c906020016101ee565b5f5f5160206110495f395f51905f5280546040516370a0823160e01b81523060048201529192505f916001600160a01b03909116906370a0823190602401602060405180830381865afa1580156104ea573d5f5f3e3d5ffd5b505050506040513d601f19601f8201168201806040525081019061050e9190610f7f565b111561073d57600381015415610526576105266109d8565b80546040516370a0823160e01b81523060048201525f916001600160a01b0316906370a0823190602401602060405180830381865afa15801561056b573d5f5f3e3d5ffd5b505050506040513d601f19601f8201168201806040525081019061058f9190610f7f565b600183015483549192506105b0916001600160a01b03908116911683610ad5565b600182015460408051630455444360e01b8152905142926001600160a01b03169163045544439160048083019260209291908290030181865afa1580156105f9573d5f5f3e3d5ffd5b505050506040513d601f19601f8201168201806040525081019061061d9190610f7f565b836001015f9054906101000a90046001600160a01b03166001600160a01b031663efe476076040518163ffffffff1660e01b8152600401602060405180830381865afa15801561066f573d5f5f3e3d5ffd5b505050506040513d601f19601f820116820180604052508101906106939190610f7f565b61069d9190610faa565b101561070857816001015f9054906101000a90046001600160a01b03166001600160a01b031663899f58986040518163ffffffff1660e01b81526004015f604051808303815f87803b1580156106f1575f5ffd5b505af1158015610703573d5f5f3e3d5ffd5b505050505b6040518181527f8959421a1320789a49eeec01a4750caf8a30733c3db14f000d84484df89300f99060200160405180910390a1505b50565b5f7fb413d65cb88f23816c329284a0d3eb15a99df7963ab7402ade4c5da22bff6b0054604051633657648360e21b81526001600160e01b0319841660048201523060248201523360448201526001600160a01b039091169063d95d920c90606401602060405180830381865afa1580156107bc573d5f5f3e3d5ffd5b505050506040513d601f19601f820116820180604052508101906107e09190610fbd565b90508061021657604051634ca8886760e01b815260040160405180910390fd5b306001600160a01b037f000000000000000000000000000000000000000000000000000000000000000016148061088657507f00000000000000000000000000000000000000000000000000000000000000006001600160a01b031661087a5f5160206110295f395f51905f52546001600160a01b031690565b6001600160a01b031614155b156108a45760405163703e46dd60e11b815260040160405180910390fd5b565b5f61021681610740565b816001600160a01b03166352d1902d6040518163ffffffff1660e01b8152600401602060405180830381865afa92505050801561090a575060408051601f3d908101601f1916820190925261090791810190610f7f565b60015b61093757604051634c9c8ce360e01b81526001600160a01b03831660048201526024015b60405180910390fd5b5f5160206110295f395f51905f52811461096757604051632a87526960e21b81526004810182905260240161092e565b6109718383610b27565b505050565b306001600160a01b037f000000000000000000000000000000000000000000000000000000000000000016146108a45760405163703e46dd60e11b815260040160405180910390fd5b6109c7610b7c565b61073d81610bc5565b6108a4610b7c565b5f5f5160206110495f395f51905f5280546040516370a0823160e01b81523060048201529192505f916001600160a01b03909116906370a0823190602401602060405180830381865afa158015610a31573d5f5f3e3d5ffd5b505050506040513d601f19601f82011682018060405250810190610a559190610f7f565b90505f6b033b2e3c9fd0803ce8000000836003015483610a759190610fdc565b610a7f9190610ff3565b90508015610aa55760028301548354610aa5916001600160a01b03918216911683610ad5565b6040518181527f290f9b2319cd913b88ec901c309a1f96b61e2793b19ad125395d98fdf5dacec9906020016101ee565b604080516001600160a01b038416602482015260448082018490528251808303909101815260649091019091526020810180516001600160e01b031663a9059cbb60e01b179052610971908490610c11565b610b3082610c83565b6040516001600160a01b038316907fbc7cd75a20ee27fd9adebab32041f755214dbc6bffa90cc0225b39da2e5c2d3b905f90a2805115610b74576109718282610ccc565b610216610d40565b7ff0c57e16840df040f15088dc2f81fe391c3923bec73e23a9662efc9c229c6a0054600160401b900460ff166108a457604051631afcd79f60e31b815260040160405180910390fd5b610bcd610b7c565b807fb413d65cb88f23816c329284a0d3eb15a99df7963ab7402ade4c5da22bff6b005b80546001600160a01b0319166001600160a01b039290921691909117905550565b5f5f60205f8451602086015f885af180610c30576040513d5f823e3d81fd5b50505f513d91508115610c47578060011415610c54565b6001600160a01b0384163b155b15610c7d57604051635274afe760e01b81526001600160a01b038516600482015260240161092e565b50505050565b806001600160a01b03163b5f03610cb857604051634c9c8ce360e01b81526001600160a01b038216600482015260240161092e565b805f5160206110295f395f51905f52610bf0565b60605f5f846001600160a01b031684604051610ce89190611012565b5f60405180830381855af49150503d805f8114610d20576040519150601f19603f3d011682016040523d82523d5f602084013e610d25565b606091505b5091509150610d35858383610d5f565b925050505b92915050565b34156108a45760405163b398979f60e01b815260040160405180910390fd5b606082610d7457610d6f82610dbe565b610db7565b8151158015610d8b57506001600160a01b0384163b155b15610db457604051639996b31560e01b81526001600160a01b038516600482015260240161092e565b50805b9392505050565b805115610dce5780518082602001fd5b60405163d6bda27560e01b815260040160405180910390fd5b80356001600160a01b0381168114610dfd575f5ffd5b919050565b5f60208284031215610e12575f5ffd5b610db782610de7565b634e487b7160e01b5f52604160045260245ffd5b5f5f60408385031215610e40575f5ffd5b610e4983610de7565b9150602083013567ffffffffffffffff811115610e64575f5ffd5b8301601f81018513610e74575f5ffd5b803567ffffffffffffffff811115610e8e57610e8e610e1b565b604051601f8201601f19908116603f0116810167ffffffffffffffff81118282101715610ebd57610ebd610e1b565b604052818152828201602001871015610ed4575f5ffd5b816020840160208301375f602083830101528093505050509250929050565b602081525f82518060208401528060208501604085015e5f604082850101526040601f19601f83011684010191505092915050565b5f5f5f60608486031215610f3a575f5ffd5b610f4384610de7565b9250610f5160208501610de7565b9150610f5f60408501610de7565b90509250925092565b5f60208284031215610f78575f5ffd5b5035919050565b5f60208284031215610f8f575f5ffd5b5051919050565b634e487b7160e01b5f52601160045260245ffd5b80820180821115610d3a57610d3a610f96565b5f60208284031215610fcd575f5ffd5b81518015158114610db7575f5ffd5b8082028115828204841417610d3a57610d3a610f96565b5f8261100d57634e487b7160e01b5f52601260045260245ffd5b500490565b5f82518060208501845e5f92019182525091905056fe360894a13ba1a3210667c828492db98dca3e2076cc3735a920a3ca505d382bbc22a89b069b09957a754cd7ed12b4d4d4fefa3dc957ead0f6120654eb51bf3900a2646970667358221220f5607869f919d344a9ef6163cc75c2bbc75833343403f3d2178068a914c6e40364736f6c634300081c0033","linkReferences":{}},"methodIdentifiers":{"UPGRADE_INTERFACE_VERSION()":"ad3cb1cc","distribute()":"e4fc6b6d","initialize(address,address,address)":"c0c53b8b","proxiableUUID()":"52d1902d","setProtocolFeePercentage(uint256)":"d8a5e936","setProtocolFeeReceiver(address)":"46877b1a","upgradeToAndCall(address,bytes)":"4f1ef286"},"id":24}