{"abi":[{"type":"constructor","inputs":[],"stateMutability":"nonpayable"},{"type":"function","name":"UPGRADE_INTERFACE_VERSION","inputs":[],"outputs":[{"name":"","type":"string","internalType":"string"}],"stateMutability":"view"},{"type":"function","name":"allowance","inputs":[{"name":"","type":"address","internalType":"address"},{"name":"","type":"address","internalType":"address"}],"outputs":[{"name":"","type":"uint256","internalType":"uint256"}],"stateMutability":"pure"},{"type":"function","name":"approve","inputs":[{"name":"","type":"address","internalType":"address"},{"name":"","type":"uint256","internalType":"uint256"}],"outputs":[{"name":"","type":"bool","internalType":"bool"}],"stateMutability":"pure"},{"type":"function","name":"balanceOf","inputs":[{"name":"_agent","type":"address","internalType":"address"}],"outputs":[{"name":"","type":"uint256","internalType":"uint256"}],"stateMutability":"view"},{"type":"function","name":"burn","inputs":[{"name":"from","type":"address","internalType":"address"},{"name":"amount","type":"uint256","internalType":"uint256"}],"outputs":[],"stateMutability":"nonpayable"},{"type":"function","name":"decimals","inputs":[],"outputs":[{"name":"","type":"uint8","internalType":"uint8"}],"stateMutability":"view"},{"type":"function","name":"index","inputs":[],"outputs":[{"name":"currentIndex","type":"uint256","internalType":"uint256"}],"stateMutability":"view"},{"type":"function","name":"initialize","inputs":[{"name":"_accessControl","type":"address","internalType":"address"},{"name":"_asset","type":"address","internalType":"address"},{"name":"_oracle","type":"address","internalType":"address"}],"outputs":[],"stateMutability":"nonpayable"},{"type":"function","name":"mint","inputs":[{"name":"to","type":"address","internalType":"address"},{"name":"amount","type":"uint256","internalType":"uint256"}],"outputs":[],"stateMutability":"nonpayable"},{"type":"function","name":"name","inputs":[],"outputs":[{"name":"","type":"string","internalType":"string"}],"stateMutability":"view"},{"type":"function","name":"proxiableUUID","inputs":[],"outputs":[{"name":"","type":"bytes32","internalType":"bytes32"}],"stateMutability":"view"},{"type":"function","name":"symbol","inputs":[],"outputs":[{"name":"","type":"string","internalType":"string"}],"stateMutability":"view"},{"type":"function","name":"totalSupply","inputs":[],"outputs":[{"name":"","type":"uint256","internalType":"uint256"}],"stateMutability":"view"},{"type":"function","name":"transfer","inputs":[{"name":"","type":"address","internalType":"address"},{"name":"","type":"uint256","internalType":"uint256"}],"outputs":[{"name":"","type":"bool","internalType":"bool"}],"stateMutability":"pure"},{"type":"function","name":"transferFrom","inputs":[{"name":"","type":"address","internalType":"address"},{"name":"","type":"address","internalType":"address"},{"name":"","type":"uint256","internalType":"uint256"}],"outputs":[{"name":"","type":"bool","internalType":"bool"}],"stateMutability":"pure"},{"type":"function","name":"upgradeToAndCall","inputs":[{"name":"newImplementation","type":"address","internalType":"address"},{"name":"data","type":"bytes","internalType":"bytes"}],"outputs":[],"stateMutability":"payable"},{"type":"event","name":"Approval","inputs":[{"name":"owner","type":"address","indexed":true,"internalType":"address"},{"name":"spender","type":"address","indexed":true,"internalType":"address"},{"name":"value","type":"uint256","indexed":false,"internalType":"uint256"}],"anonymous":false},{"type":"event","name":"Initialized","inputs":[{"name":"version","type":"uint64","indexed":false,"internalType":"uint64"}],"anonymous":false},{"type":"event","name":"Transfer","inputs":[{"name":"from","type":"address","indexed":true,"internalType":"address"},{"name":"to","type":"address","indexed":true,"internalType":"address"},{"name":"value","type":"uint256","indexed":false,"internalType":"uint256"}],"anonymous":false},{"type":"event","name":"Upgraded","inputs":[{"name":"implementation","type":"address","indexed":true,"internalType":"address"}],"anonymous":false},{"type":"error","name":"AccessDenied","inputs":[]},{"type":"error","name":"AddressEmptyCode","inputs":[{"name":"target","type":"address","internalType":"address"}]},{"type":"error","name":"ERC1967InvalidImplementation","inputs":[{"name":"implementation","type":"address","internalType":"address"}]},{"type":"error","name":"ERC1967NonPayable","inputs":[]},{"type":"error","name":"FailedCall","inputs":[]},{"type":"error","name":"InvalidBurnAmount","inputs":[]},{"type":"error","name":"InvalidInitialization","inputs":[]},{"type":"error","name":"InvalidMintAmount","inputs":[]},{"type":"error","name":"NotInitializing","inputs":[]},{"type":"error","name":"OperationNotSupported","inputs":[]},{"type":"error","name":"UUPSUnauthorizedCallContext","inputs":[]},{"type":"error","name":"UUPSUnsupportedProxiableUUID","inputs":[{"name":"slot","type":"bytes32","internalType":"bytes32"}]}],"bytecode":{"object":"0x60a060405230608052348015610013575f5ffd5b5061001c610021565b6100d3565b7ff0c57e16840df040f15088dc2f81fe391c3923bec73e23a9662efc9c229c6a00805468010000000000000000900460ff16156100715760405163f92ee8a960e01b815260040160405180910390fd5b80546001600160401b03908116146100d05780546001600160401b0319166001600160401b0390811782556040519081527fc7f505b2f371ae2175ee4913f4499e1f2633a7b5936321eed1cdaeb6115181d29060200160405180910390a15b50565b608051611ac86100f95f395f8181610b1601528181610b3f0152610c870152611ac85ff3fe6080604052600436106100ef575f3560e01c806352d1902d11610087578063a9059cbb11610057578063a9059cbb1461011d578063ad3cb1cc14610276578063c0c53b8b146102a6578063dd62ed3e146102c5575f5ffd5b806352d1902d1461021057806370a082311461022457806395d89b41146102435780639dc29fac14610257575f5ffd5b80632986c0e5116100c25780632986c0e514610188578063313ce5671461019c57806340c10f19146101dc5780634f1ef286146101fd575f5ffd5b806306fdde03146100f3578063095ea7b31461011d57806318160ddd1461014c57806323b872dd1461016e575b5f5ffd5b3480156100fe575f5ffd5b506101076102df565b604051610114919061151f565b60405180910390f35b348015610128575f5ffd5b5061013c61013736600461156f565b61037b565b6040519015158152602001610114565b348015610157575f5ffd5b50610160610395565b604051908152602001610114565b348015610179575f5ffd5b5061013c610137366004611597565b348015610193575f5ffd5b506101606103ab565b3480156101a7575f5ffd5b507fb6fbed03401708c99484f1851d78d51d50311db3f9957176b94dc0ef6e099a025460405160ff9091168152602001610114565b3480156101e7575f5ffd5b506101fb6101f636600461156f565b610427565b005b6101fb61020b36600461163d565b610461565b34801561021b575f5ffd5b50610160610480565b34801561022f575f5ffd5b5061016061023e3660046116c8565b61049b565b34801561024e575f5ffd5b506101076104b3565b348015610262575f5ffd5b506101fb61027136600461156f565b6104d1565b348015610281575f5ffd5b50610107604051806040016040528060058152602001640352e302e360dc1b81525081565b3480156102b1575f5ffd5b506101fb6102c03660046116e1565b610506565b3480156102d0575f5ffd5b50610160610137366004611721565b60605f516020611a335f395f51905f5280546102fa90611752565b80601f016020809104026020016040519081016040528092919081815260200182805461032690611752565b80156103715780601f1061034857610100808354040283529160200191610371565b820191905f5260205f20905b81548152906001019060200180831161035457829003601f168201915b5050505050905090565b5f6040516329a270f560e01b815260040160405180910390fd5b5f6103a66103a16103ab565b610841565b905090565b7ff23a45dc65f14b1e5fe39f1163c383ff2dcba1153a83755b36cb0d5d51f3c602547ff23a45dc65f14b1e5fe39f1163c383ff2dcba1153a83755b36cb0d5d51f3c603545f516020611a735f395f51905f529042146104235761042061041982600401548360030154610874565b8390610887565b91505b5090565b61042f6108c9565b6340c10f1960e01b6104408161092a565b61045c83835f516020611a735f395f51905f52600201546109ea565b505050565b610469610b0b565b61047282610bb1565b61047c8282610bbb565b5050565b5f610489610c7c565b505f516020611a535f395f51905f5290565b5f6104ad826104a86103ab565b610cc5565b92915050565b60605f516020611a335f395f51905f5260010180546102fa90611752565b6104d96108c9565b632770a7eb60e21b6104ea8161092a565b61045c83835f516020611a735f395f51905f5260020154610cd3565b7ff0c57e16840df040f15088dc2f81fe391c3923bec73e23a9662efc9c229c6a008054600160401b810460ff16159067ffffffffffffffff165f8115801561054b5750825b90505f8267ffffffffffffffff1660011480156105675750303b155b905081158015610575575080155b156105935760405163f92ee8a960e01b815260040160405180910390fd5b845467ffffffffffffffff1916600117855583156105bd57845460ff60401b1916600160401b1785555b5f516020611a735f395f51905f5280546001600160a01b03199081166001600160a01b038a811691821784556b033b2e3c9fd0803ce80000007ff23a45dc65f14b1e5fe39f1163c383ff2dcba1153a83755b36cb0d5d51f3c60255427ff23a45dc65f14b1e5fe39f1163c383ff2dcba1153a83755b36cb0d5d51f3c603557ff23a45dc65f14b1e5fe39f1163c383ff2dcba1153a83755b36cb0d5d51f3c6018054909316908a1617909155604080516306fdde0360e01b815290515f92916306fdde0391600480830192869291908290030181865afa1580156106a2573d5f5f3e3d5ffd5b505050506040513d5f823e601f3d908101601f191682016040526106c9919081019061178a565b6040516020016106d99190611816565b60405160208183030381529060405290505f896001600160a01b03166395d89b416040518163ffffffff1660e01b81526004015f60405180830381865afa158015610726573d5f5f3e3d5ffd5b505050506040513d5f823e601f3d908101601f1916820160405261074d919081019061178a565b60405160200161075d919061182f565b60405160208183030381529060405290505f8a6001600160a01b031663313ce5676040518163ffffffff1660e01b8152600401602060405180830381865afa1580156107ab573d5f5f3e3d5ffd5b505050506040513d601f19601f820116820180604052508101906107cf9190611847565b90506107dc838383610e53565b6107e58c610e66565b6107ed610e7a565b50505050831561083757845460ff60401b19168555604051600181527fc7f505b2f371ae2175ee4913f4499e1f2633a7b5936321eed1cdaeb6115181d29060200160405180910390a15b5050505050505050565b5f6104ad8261086e7fb6fbed03401708c99484f1851d78d51d50311db3f9957176b94dc0ef6e099a045490565b90610887565b5f610880838342610e82565b9392505050565b5f81156b019d971e4fe8401e7400000019839004841115176108a7575f5ffd5b506b033b2e3c9fd0803ce800000091026b019d971e4fe8401e74000000010490565b5f516020611a735f395f51905f525f6109007fb6fbed03401708c99484f1851d78d51d50311db3f9957176b94dc0ef6e099a045490565b11156109145761090e6103ab565b60028201555b426003820155610922610fa0565b600490910155565b5f7fb413d65cb88f23816c329284a0d3eb15a99df7963ab7402ade4c5da22bff6b0054604051633657648360e21b81526001600160e01b0319841660048201523060248201523360448201526001600160a01b039091169063d95d920c90606401602060405180830381865afa1580156109a6573d5f5f3e3d5ffd5b505050506040513d601f19601f820116820180604052508101906109ca9190611867565b90508061047c57604051634ca8886760e01b815260040160405180910390fd5b7f3e9197df6de91125667a616e29706be52c05ace5482bc6659579e06a73af75005f610a16848461112e565b9050805f03610a385760405163199f5a0360e31b815260040160405180910390fd5b5f610a428661116b565b6001600160a01b0387165f90815260028501602052604081205491925090610a6b908390610887565b610a758387610887565b610a7f919061189a565b6001600160a01b0388165f90815260028601602052604090208690559050610aa787846111a4565b5f610ab282886118ad565b9050876001600160a01b03165f6001600160a01b03167fddf252ad1be2c89b69c2b068fc378daa952ba7f163c4a11628f55a4df523b3ef83604051610af991815260200190565b60405180910390a35050505050505050565b306001600160a01b037f0000000000000000000000000000000000000000000000000000000000000000161480610b9157507f00000000000000000000000000000000000000000000000000000000000000006001600160a01b0316610b855f516020611a535f395f51905f52546001600160a01b031690565b6001600160a01b031614155b15610baf5760405163703e46dd60e11b815260040160405180910390fd5b565b5f61047c8161092a565b816001600160a01b03166352d1902d6040518163ffffffff1660e01b8152600401602060405180830381865afa925050508015610c15575060408051601f3d908101601f19168201909252610c12918101906118c0565b60015b610c4257604051634c9c8ce360e01b81526001600160a01b03831660048201526024015b60405180910390fd5b5f516020611a535f395f51905f528114610c7257604051632a87526960e21b815260048101829052602401610c39565b61045c838361121d565b306001600160a01b037f00000000000000000000000000000000000000000000000000000000000000001614610baf5760405163703e46dd60e11b815260040160405180910390fd5b5f6108808261086e8561116b565b7f3e9197df6de91125667a616e29706be52c05ace5482bc6659579e06a73af75005f610cff848461112e565b9050805f03610d21576040516302075cc160e41b815260040160405180910390fd5b5f610d2b8661116b565b6001600160a01b0387165f90815260028501602052604081205491925090610d54908390610887565b610d5e8387610887565b610d68919061189a565b6001600160a01b0388165f90815260028601602052604090208690559050610d908784611272565b85811115610df8575f610da3878361189a565b9050876001600160a01b03165f6001600160a01b03167fddf252ad1be2c89b69c2b068fc378daa952ba7f163c4a11628f55a4df523b3ef83604051610dea91815260200190565b60405180910390a350610e4a565b5f610e03828861189a565b90505f6001600160a01b0316886001600160a01b03167fddf252ad1be2c89b69c2b068fc378daa952ba7f163c4a11628f55a4df523b3ef83604051610af991815260200190565b50505050505050565b610e5b6112e1565b61045c83838361132a565b610e6e6112e1565b610e7781611374565b50565b610baf6112e1565b5f80610e8e848461189a565b9050805f03610eac576b033b2e3c9fd0803ce8000000915050610880565b5f1981015f808060028511610ec1575f610ec6565b600285035b925066038882915c4000610eda8a80610887565b81610ee757610ee76118d7565b0491506301e13380610ef9838b610887565b81610f0657610f066118d7565b0490505f82610f1586886118eb565b610f1f91906118eb565b6002900490505f8285610f32888a6118eb565b610f3c91906118eb565b610f4691906118eb565b60069004905080826301e13380610f5d8a8f6118eb565b610f679190611902565b610f7d906b033b2e3c9fd0803ce80000006118ad565b610f8791906118ad565b610f9191906118ad565b9b9a5050505050505050505050565b5f805f516020611a735f395f51905f5260018101548154604051630b6bfc9760e21b81526001600160a01b03918216600482015292935016905f908290632daff25c906024016020604051808303815f875af1158015611002573d5f5f3e3d5ffd5b505050506040513d601f19601f8201168201806040525081019061102691906118c0565b8354604051632c6bc24d60e11b81526001600160a01b0391821660048201529192505f91908416906358d7849a90602401602060405180830381865afa158015611072573d5f5f3e3d5ffd5b505050506040513d601f19601f8201168201806040525081019061109691906118c0565b845460405163207b27df60e01b81526001600160a01b0391821660048201529192505f919085169063207b27df906024016020604051808303815f875af11580156110e3573d5f5f3e3d5ffd5b505050506040513d601f19601f8201168201806040525081019061110791906118c0565b90508183116111165781611118565b825b955061112481876118ad565b9550505050505090565b5f81156b033b2e3c9fd0803ce800000060028404190484111715611150575f5ffd5b506b033b2e3c9fd0803ce80000009190910260028204010490565b6001600160a01b03165f9081527fb6fbed03401708c99484f1851d78d51d50311db3f9957176b94dc0ef6e099a03602052604090205490565b6001600160a01b0382165f9081527fb6fbed03401708c99484f1851d78d51d50311db3f9957176b94dc0ef6e099a036020526040812080545f516020611a335f395f51905f52928492916111f99084906118ad565b9250508190555081816004015f82825461121391906118ad565b9091555050505050565b611226826113c0565b6040516001600160a01b038316907fbc7cd75a20ee27fd9adebab32041f755214dbc6bffa90cc0225b39da2e5c2d3b905f90a280511561126a5761045c8282611409565b61047c61147b565b6001600160a01b0382165f9081527fb6fbed03401708c99484f1851d78d51d50311db3f9957176b94dc0ef6e099a036020526040812080545f516020611a335f395f51905f52928492916112c790849061189a565b9250508190555081816004015f828254611213919061189a565b7ff0c57e16840df040f15088dc2f81fe391c3923bec73e23a9662efc9c229c6a0054600160401b900460ff16610baf57604051631afcd79f60e31b815260040160405180910390fd5b6113326112e1565b5f516020611a335f395f51905f528061134b858261196c565b506001810161135a848261196c565b50600201805460ff191660ff929092169190911790555050565b61137c6112e1565b807fb413d65cb88f23816c329284a0d3eb15a99df7963ab7402ade4c5da22bff6b005b80546001600160a01b0319166001600160a01b039290921691909117905550565b806001600160a01b03163b5f036113f557604051634c9c8ce360e01b81526001600160a01b0382166004820152602401610c39565b805f516020611a535f395f51905f5261139f565b60605f5f846001600160a01b0316846040516114259190611a27565b5f60405180830381855af49150503d805f811461145d576040519150601f19603f3d011682016040523d82523d5f602084013e611462565b606091505b509150915061147285838361149a565b95945050505050565b3415610baf5760405163b398979f60e01b815260040160405180910390fd5b6060826114af576114aa826114f6565b610880565b81511580156114c657506001600160a01b0384163b155b156114ef57604051639996b31560e01b81526001600160a01b0385166004820152602401610c39565b5080610880565b8051156115065780518082602001fd5b60405163d6bda27560e01b815260040160405180910390fd5b602081525f82518060208401528060208501604085015e5f604082850101526040601f19601f83011684010191505092915050565b80356001600160a01b038116811461156a575f5ffd5b919050565b5f5f60408385031215611580575f5ffd5b61158983611554565b946020939093013593505050565b5f5f5f606084860312156115a9575f5ffd5b6115b284611554565b92506115c060208501611554565b929592945050506040919091013590565b634e487b7160e01b5f52604160045260245ffd5b604051601f8201601f1916810167ffffffffffffffff8111828210171561160e5761160e6115d1565b604052919050565b5f67ffffffffffffffff82111561162f5761162f6115d1565b50601f01601f191660200190565b5f5f6040838503121561164e575f5ffd5b61165783611554565b9150602083013567ffffffffffffffff811115611672575f5ffd5b8301601f81018513611682575f5ffd5b803561169561169082611616565b6115e5565b8181528660208385010111156116a9575f5ffd5b816020840160208301375f602083830101528093505050509250929050565b5f602082840312156116d8575f5ffd5b61088082611554565b5f5f5f606084860312156116f3575f5ffd5b6116fc84611554565b925061170a60208501611554565b915061171860408501611554565b90509250925092565b5f5f60408385031215611732575f5ffd5b61173b83611554565b915061174960208401611554565b90509250929050565b600181811c9082168061176657607f821691505b60208210810361178457634e487b7160e01b5f52602260045260245ffd5b50919050565b5f6020828403121561179a575f5ffd5b815167ffffffffffffffff8111156117b0575f5ffd5b8201601f810184136117c0575f5ffd5b80516117ce61169082611616565b8181528560208385010111156117e2575f5ffd5b8160208401602083015e5f91810160200191909152949350505050565b5f81518060208401855e5f93019283525090919050565b6402232b13a160dd1b81525f61088060058301846117ff565b631919589d60e21b81525f61088060048301846117ff565b5f60208284031215611857575f5ffd5b815160ff81168114610880575f5ffd5b5f60208284031215611877575f5ffd5b81518015158114610880575f5ffd5b634e487b7160e01b5f52601160045260245ffd5b818103818111156104ad576104ad611886565b808201808211156104ad576104ad611886565b5f602082840312156118d0575f5ffd5b5051919050565b634e487b7160e01b5f52601260045260245ffd5b80820281158282048414176104ad576104ad611886565b5f8261191c57634e487b7160e01b5f52601260045260245ffd5b500490565b601f82111561045c57805f5260205f20601f840160051c810160208510156119465750805b601f840160051c820191505b81811015611965575f8155600101611952565b5050505050565b815167ffffffffffffffff811115611986576119866115d1565b61199a816119948454611752565b84611921565b6020601f8211600181146119cc575f83156119b55750848201515b5f19600385901b1c1916600184901b178455611965565b5f84815260208120601f198516915b828110156119fb57878501518255602094850194600190920191016119db565b5084821015611a1857868401515f19600387901b60f8161c191681555b50505050600190811b01905550565b5f61088082846117ff56feb6fbed03401708c99484f1851d78d51d50311db3f9957176b94dc0ef6e099a00360894a13ba1a3210667c828492db98dca3e2076cc3735a920a3ca505d382bbcf23a45dc65f14b1e5fe39f1163c383ff2dcba1153a83755b36cb0d5d51f3c600a2646970667358221220a896a924e269fb1125fbe557b5ce779268eec8995192655734cf68ae5cb87dbb64736f6c634300081c0033","linkReferences":{}},"methodIdentifiers":{"UPGRADE_INTERFACE_VERSION()":"ad3cb1cc","allowance(address,address)":"dd62ed3e","approve(address,uint256)":"095ea7b3","balanceOf(address)":"70a08231","burn(address,uint256)":"9dc29fac","decimals()":"313ce567","index()":"2986c0e5","initialize(address,address,address)":"c0c53b8b","mint(address,uint256)":"40c10f19","name()":"06fdde03","proxiableUUID()":"52d1902d","symbol()":"95d89b41","totalSupply()":"18160ddd","transfer(address,uint256)":"a9059cbb","transferFrom(address,address,uint256)":"23b872dd","upgradeToAndCall(address,bytes)":"4f1ef286"},"id":64}