{"abi":[{"type":"constructor","inputs":[{"name":"_eid","type":"uint32","internalType":"uint32"},{"name":"_owner","type":"address","internalType":"address"}],"stateMutability":"nonpayable"},{"type":"function","name":"EMPTY_PAYLOAD_HASH","inputs":[],"outputs":[{"name":"","type":"bytes32","internalType":"bytes32"}],"stateMutability":"view"},{"type":"function","name":"NIL_PAYLOAD_HASH","inputs":[],"outputs":[{"name":"","type":"bytes32","internalType":"bytes32"}],"stateMutability":"view"},{"type":"function","name":"blockedLibrary","inputs":[],"outputs":[{"name":"","type":"address","internalType":"address"}],"stateMutability":"view"},{"type":"function","name":"burn","inputs":[{"name":"_oapp","type":"address","internalType":"address"},{"name":"_srcEid","type":"uint32","internalType":"uint32"},{"name":"_sender","type":"bytes32","internalType":"bytes32"},{"name":"_nonce","type":"uint64","internalType":"uint64"},{"name":"_payloadHash","type":"bytes32","internalType":"bytes32"}],"outputs":[],"stateMutability":"nonpayable"},{"type":"function","name":"clear","inputs":[{"name":"_oapp","type":"address","internalType":"address"},{"name":"_origin","type":"tuple","internalType":"struct Origin","components":[{"name":"srcEid","type":"uint32","internalType":"uint32"},{"name":"sender","type":"bytes32","internalType":"bytes32"},{"name":"nonce","type":"uint64","internalType":"uint64"}]},{"name":"_guid","type":"bytes32","internalType":"bytes32"},{"name":"_message","type":"bytes","internalType":"bytes"}],"outputs":[],"stateMutability":"nonpayable"},{"type":"function","name":"composeQueue","inputs":[{"name":"from","type":"address","internalType":"address"},{"name":"to","type":"address","internalType":"address"},{"name":"guid","type":"bytes32","internalType":"bytes32"},{"name":"index","type":"uint16","internalType":"uint16"}],"outputs":[{"name":"messageHash","type":"bytes32","internalType":"bytes32"}],"stateMutability":"view"},{"type":"function","name":"defaultReceiveLibrary","inputs":[{"name":"srcEid","type":"uint32","internalType":"uint32"}],"outputs":[{"name":"lib","type":"address","internalType":"address"}],"stateMutability":"view"},{"type":"function","name":"defaultReceiveLibraryTimeout","inputs":[{"name":"srcEid","type":"uint32","internalType":"uint32"}],"outputs":[{"name":"lib","type":"address","internalType":"address"},{"name":"expiry","type":"uint256","internalType":"uint256"}],"stateMutability":"view"},{"type":"function","name":"defaultSendLibrary","inputs":[{"name":"dstEid","type":"uint32","internalType":"uint32"}],"outputs":[{"name":"lib","type":"address","internalType":"address"}],"stateMutability":"view"},{"type":"function","name":"delegates","inputs":[{"name":"oapp","type":"address","internalType":"address"}],"outputs":[{"name":"delegate","type":"address","internalType":"address"}],"stateMutability":"view"},{"type":"function","name":"eid","inputs":[],"outputs":[{"name":"","type":"uint32","internalType":"uint32"}],"stateMutability":"view"},{"type":"function","name":"getConfig","inputs":[{"name":"_oapp","type":"address","internalType":"address"},{"name":"_lib","type":"address","internalType":"address"},{"name":"_eid","type":"uint32","internalType":"uint32"},{"name":"_configType","type":"uint32","internalType":"uint32"}],"outputs":[{"name":"config","type":"bytes","internalType":"bytes"}],"stateMutability":"view"},{"type":"function","name":"getReceiveLibrary","inputs":[{"name":"_receiver","type":"address","internalType":"address"},{"name":"_srcEid","type":"uint32","internalType":"uint32"}],"outputs":[{"name":"lib","type":"address","internalType":"address"},{"name":"isDefault","type":"bool","internalType":"bool"}],"stateMutability":"view"},{"type":"function","name":"getRegisteredLibraries","inputs":[],"outputs":[{"name":"","type":"address[]","internalType":"address[]"}],"stateMutability":"view"},{"type":"function","name":"getSendContext","inputs":[],"outputs":[{"name":"","type":"uint32","internalType":"uint32"},{"name":"","type":"address","internalType":"address"}],"stateMutability":"view"},{"type":"function","name":"getSendLibrary","inputs":[{"name":"_sender","type":"address","internalType":"address"},{"name":"_dstEid","type":"uint32","internalType":"uint32"}],"outputs":[{"name":"lib","type":"address","internalType":"address"}],"stateMutability":"view"},{"type":"function","name":"inboundNonce","inputs":[{"name":"_receiver","type":"address","internalType":"address"},{"name":"_srcEid","type":"uint32","internalType":"uint32"},{"name":"_sender","type":"bytes32","internalType":"bytes32"}],"outputs":[{"name":"","type":"uint64","internalType":"uint64"}],"stateMutability":"view"},{"type":"function","name":"inboundPayloadHash","inputs":[{"name":"receiver","type":"address","internalType":"address"},{"name":"srcEid","type":"uint32","internalType":"uint32"},{"name":"sender","type":"bytes32","internalType":"bytes32"},{"name":"inboundNonce","type":"uint64","internalType":"uint64"}],"outputs":[{"name":"payloadHash","type":"bytes32","internalType":"bytes32"}],"stateMutability":"view"},{"type":"function","name":"initializable","inputs":[{"name":"_origin","type":"tuple","internalType":"struct Origin","components":[{"name":"srcEid","type":"uint32","internalType":"uint32"},{"name":"sender","type":"bytes32","internalType":"bytes32"},{"name":"nonce","type":"uint64","internalType":"uint64"}]},{"name":"_receiver","type":"address","internalType":"address"}],"outputs":[{"name":"","type":"bool","internalType":"bool"}],"stateMutability":"view"},{"type":"function","name":"isDefaultSendLibrary","inputs":[{"name":"_sender","type":"address","internalType":"address"},{"name":"_dstEid","type":"uint32","internalType":"uint32"}],"outputs":[{"name":"","type":"bool","internalType":"bool"}],"stateMutability":"view"},{"type":"function","name":"isRegisteredLibrary","inputs":[{"name":"lib","type":"address","internalType":"address"}],"outputs":[{"name":"","type":"bool","internalType":"bool"}],"stateMutability":"view"},{"type":"function","name":"isSendingMessage","inputs":[],"outputs":[{"name":"","type":"bool","internalType":"bool"}],"stateMutability":"view"},{"type":"function","name":"isSupportedEid","inputs":[{"name":"_eid","type":"uint32","internalType":"uint32"}],"outputs":[{"name":"","type":"bool","internalType":"bool"}],"stateMutability":"view"},{"type":"function","name":"isValidReceiveLibrary","inputs":[{"name":"_receiver","type":"address","internalType":"address"},{"name":"_srcEid","type":"uint32","internalType":"uint32"},{"name":"_actualReceiveLib","type":"address","internalType":"address"}],"outputs":[{"name":"","type":"bool","internalType":"bool"}],"stateMutability":"view"},{"type":"function","name":"lazyInboundNonce","inputs":[{"name":"receiver","type":"address","internalType":"address"},{"name":"srcEid","type":"uint32","internalType":"uint32"},{"name":"sender","type":"bytes32","internalType":"bytes32"}],"outputs":[{"name":"nonce","type":"uint64","internalType":"uint64"}],"stateMutability":"view"},{"type":"function","name":"lzCompose","inputs":[{"name":"_from","type":"address","internalType":"address"},{"name":"_to","type":"address","internalType":"address"},{"name":"_guid","type":"bytes32","internalType":"bytes32"},{"name":"_index","type":"uint16","internalType":"uint16"},{"name":"_message","type":"bytes","internalType":"bytes"},{"name":"_extraData","type":"bytes","internalType":"bytes"}],"outputs":[],"stateMutability":"payable"},{"type":"function","name":"lzComposeAlert","inputs":[{"name":"_from","type":"address","internalType":"address"},{"name":"_to","type":"address","internalType":"address"},{"name":"_guid","type":"bytes32","internalType":"bytes32"},{"name":"_index","type":"uint16","internalType":"uint16"},{"name":"_gas","type":"uint256","internalType":"uint256"},{"name":"_value","type":"uint256","internalType":"uint256"},{"name":"_message","type":"bytes","internalType":"bytes"},{"name":"_extraData","type":"bytes","internalType":"bytes"},{"name":"_reason","type":"bytes","internalType":"bytes"}],"outputs":[],"stateMutability":"nonpayable"},{"type":"function","name":"lzReceive","inputs":[{"name":"_origin","type":"tuple","internalType":"struct Origin","components":[{"name":"srcEid","type":"uint32","internalType":"uint32"},{"name":"sender","type":"bytes32","internalType":"bytes32"},{"name":"nonce","type":"uint64","internalType":"uint64"}]},{"name":"_receiver","type":"address","internalType":"address"},{"name":"_guid","type":"bytes32","internalType":"bytes32"},{"name":"_message","type":"bytes","internalType":"bytes"},{"name":"_extraData","type":"bytes","internalType":"bytes"}],"outputs":[],"stateMutability":"payable"},{"type":"function","name":"lzReceiveAlert","inputs":[{"name":"_origin","type":"tuple","internalType":"struct Origin","components":[{"name":"srcEid","type":"uint32","internalType":"uint32"},{"name":"sender","type":"bytes32","internalType":"bytes32"},{"name":"nonce","type":"uint64","internalType":"uint64"}]},{"name":"_receiver","type":"address","internalType":"address"},{"name":"_guid","type":"bytes32","internalType":"bytes32"},{"name":"_gas","type":"uint256","internalType":"uint256"},{"name":"_value","type":"uint256","internalType":"uint256"},{"name":"_message","type":"bytes","internalType":"bytes"},{"name":"_extraData","type":"bytes","internalType":"bytes"},{"name":"_reason","type":"bytes","internalType":"bytes"}],"outputs":[],"stateMutability":"nonpayable"},{"type":"function","name":"lzToken","inputs":[],"outputs":[{"name":"","type":"address","internalType":"address"}],"stateMutability":"view"},{"type":"function","name":"nativeToken","inputs":[],"outputs":[{"name":"","type":"address","internalType":"address"}],"stateMutability":"view"},{"type":"function","name":"nextGuid","inputs":[{"name":"_sender","type":"address","internalType":"address"},{"name":"_dstEid","type":"uint32","internalType":"uint32"},{"name":"_receiver","type":"bytes32","internalType":"bytes32"}],"outputs":[{"name":"","type":"bytes32","internalType":"bytes32"}],"stateMutability":"view"},{"type":"function","name":"nilify","inputs":[{"name":"_oapp","type":"address","internalType":"address"},{"name":"_srcEid","type":"uint32","internalType":"uint32"},{"name":"_sender","type":"bytes32","internalType":"bytes32"},{"name":"_nonce","type":"uint64","internalType":"uint64"},{"name":"_payloadHash","type":"bytes32","internalType":"bytes32"}],"outputs":[],"stateMutability":"nonpayable"},{"type":"function","name":"outboundNonce","inputs":[{"name":"sender","type":"address","internalType":"address"},{"name":"dstEid","type":"uint32","internalType":"uint32"},{"name":"receiver","type":"bytes32","internalType":"bytes32"}],"outputs":[{"name":"nonce","type":"uint64","internalType":"uint64"}],"stateMutability":"view"},{"type":"function","name":"owner","inputs":[],"outputs":[{"name":"","type":"address","internalType":"address"}],"stateMutability":"view"},{"type":"function","name":"quote","inputs":[{"name":"_params","type":"tuple","internalType":"struct MessagingParams","components":[{"name":"dstEid","type":"uint32","internalType":"uint32"},{"name":"receiver","type":"bytes32","internalType":"bytes32"},{"name":"message","type":"bytes","internalType":"bytes"},{"name":"options","type":"bytes","internalType":"bytes"},{"name":"payInLzToken","type":"bool","internalType":"bool"}]},{"name":"_sender","type":"address","internalType":"address"}],"outputs":[{"name":"","type":"tuple","internalType":"struct MessagingFee","components":[{"name":"nativeFee","type":"uint256","internalType":"uint256"},{"name":"lzTokenFee","type":"uint256","internalType":"uint256"}]}],"stateMutability":"view"},{"type":"function","name":"receiveLibraryTimeout","inputs":[{"name":"receiver","type":"address","internalType":"address"},{"name":"srcEid","type":"uint32","internalType":"uint32"}],"outputs":[{"name":"lib","type":"address","internalType":"address"},{"name":"expiry","type":"uint256","internalType":"uint256"}],"stateMutability":"view"},{"type":"function","name":"recoverToken","inputs":[{"name":"_token","type":"address","internalType":"address"},{"name":"_to","type":"address","internalType":"address"},{"name":"_amount","type":"uint256","internalType":"uint256"}],"outputs":[],"stateMutability":"nonpayable"},{"type":"function","name":"registerLibrary","inputs":[{"name":"_lib","type":"address","internalType":"address"}],"outputs":[],"stateMutability":"nonpayable"},{"type":"function","name":"renounceOwnership","inputs":[],"outputs":[],"stateMutability":"nonpayable"},{"type":"function","name":"send","inputs":[{"name":"_params","type":"tuple","internalType":"struct MessagingParams","components":[{"name":"dstEid","type":"uint32","internalType":"uint32"},{"name":"receiver","type":"bytes32","internalType":"bytes32"},{"name":"message","type":"bytes","internalType":"bytes"},{"name":"options","type":"bytes","internalType":"bytes"},{"name":"payInLzToken","type":"bool","internalType":"bool"}]},{"name":"_refundAddress","type":"address","internalType":"address"}],"outputs":[{"name":"","type":"tuple","internalType":"struct MessagingReceipt","components":[{"name":"guid","type":"bytes32","internalType":"bytes32"},{"name":"nonce","type":"uint64","internalType":"uint64"},{"name":"fee","type":"tuple","internalType":"struct MessagingFee","components":[{"name":"nativeFee","type":"uint256","internalType":"uint256"},{"name":"lzTokenFee","type":"uint256","internalType":"uint256"}]}]}],"stateMutability":"payable"},{"type":"function","name":"sendCompose","inputs":[{"name":"_to","type":"address","internalType":"address"},{"name":"_guid","type":"bytes32","internalType":"bytes32"},{"name":"_index","type":"uint16","internalType":"uint16"},{"name":"_message","type":"bytes","internalType":"bytes"}],"outputs":[],"stateMutability":"nonpayable"},{"type":"function","name":"setConfig","inputs":[{"name":"_oapp","type":"address","internalType":"address"},{"name":"_lib","type":"address","internalType":"address"},{"name":"_params","type":"tuple[]","internalType":"struct SetConfigParam[]","components":[{"name":"eid","type":"uint32","internalType":"uint32"},{"name":"configType","type":"uint32","internalType":"uint32"},{"name":"config","type":"bytes","internalType":"bytes"}]}],"outputs":[],"stateMutability":"nonpayable"},{"type":"function","name":"setDefaultReceiveLibrary","inputs":[{"name":"_eid","type":"uint32","internalType":"uint32"},{"name":"_newLib","type":"address","internalType":"address"},{"name":"_gracePeriod","type":"uint256","internalType":"uint256"}],"outputs":[],"stateMutability":"nonpayable"},{"type":"function","name":"setDefaultReceiveLibraryTimeout","inputs":[{"name":"_eid","type":"uint32","internalType":"uint32"},{"name":"_lib","type":"address","internalType":"address"},{"name":"_expiry","type":"uint256","internalType":"uint256"}],"outputs":[],"stateMutability":"nonpayable"},{"type":"function","name":"setDefaultSendLibrary","inputs":[{"name":"_eid","type":"uint32","internalType":"uint32"},{"name":"_newLib","type":"address","internalType":"address"}],"outputs":[],"stateMutability":"nonpayable"},{"type":"function","name":"setDelegate","inputs":[{"name":"_delegate","type":"address","internalType":"address"}],"outputs":[],"stateMutability":"nonpayable"},{"type":"function","name":"setLzToken","inputs":[{"name":"_lzToken","type":"address","internalType":"address"}],"outputs":[],"stateMutability":"nonpayable"},{"type":"function","name":"setReceiveLibrary","inputs":[{"name":"_oapp","type":"address","internalType":"address"},{"name":"_eid","type":"uint32","internalType":"uint32"},{"name":"_newLib","type":"address","internalType":"address"},{"name":"_gracePeriod","type":"uint256","internalType":"uint256"}],"outputs":[],"stateMutability":"nonpayable"},{"type":"function","name":"setReceiveLibraryTimeout","inputs":[{"name":"_oapp","type":"address","internalType":"address"},{"name":"_eid","type":"uint32","internalType":"uint32"},{"name":"_lib","type":"address","internalType":"address"},{"name":"_expiry","type":"uint256","internalType":"uint256"}],"outputs":[],"stateMutability":"nonpayable"},{"type":"function","name":"setSendLibrary","inputs":[{"name":"_oapp","type":"address","internalType":"address"},{"name":"_eid","type":"uint32","internalType":"uint32"},{"name":"_newLib","type":"address","internalType":"address"}],"outputs":[],"stateMutability":"nonpayable"},{"type":"function","name":"skip","inputs":[{"name":"_oapp","type":"address","internalType":"address"},{"name":"_srcEid","type":"uint32","internalType":"uint32"},{"name":"_sender","type":"bytes32","internalType":"bytes32"},{"name":"_nonce","type":"uint64","internalType":"uint64"}],"outputs":[],"stateMutability":"nonpayable"},{"type":"function","name":"transferOwnership","inputs":[{"name":"newOwner","type":"address","internalType":"address"}],"outputs":[],"stateMutability":"nonpayable"},{"type":"function","name":"verifiable","inputs":[{"name":"_origin","type":"tuple","internalType":"struct Origin","components":[{"name":"srcEid","type":"uint32","internalType":"uint32"},{"name":"sender","type":"bytes32","internalType":"bytes32"},{"name":"nonce","type":"uint64","internalType":"uint64"}]},{"name":"_receiver","type":"address","internalType":"address"}],"outputs":[{"name":"","type":"bool","internalType":"bool"}],"stateMutability":"view"},{"type":"function","name":"verify","inputs":[{"name":"_origin","type":"tuple","internalType":"struct Origin","components":[{"name":"srcEid","type":"uint32","internalType":"uint32"},{"name":"sender","type":"bytes32","internalType":"bytes32"},{"name":"nonce","type":"uint64","internalType":"uint64"}]},{"name":"_receiver","type":"address","internalType":"address"},{"name":"_payloadHash","type":"bytes32","internalType":"bytes32"}],"outputs":[],"stateMutability":"nonpayable"},{"type":"event","name":"ComposeDelivered","inputs":[{"name":"from","type":"address","indexed":false,"internalType":"address"},{"name":"to","type":"address","indexed":false,"internalType":"address"},{"name":"guid","type":"bytes32","indexed":false,"internalType":"bytes32"},{"name":"index","type":"uint16","indexed":false,"internalType":"uint16"}],"anonymous":false},{"type":"event","name":"ComposeSent","inputs":[{"name":"from","type":"address","indexed":false,"internalType":"address"},{"name":"to","type":"address","indexed":false,"internalType":"address"},{"name":"guid","type":"bytes32","indexed":false,"internalType":"bytes32"},{"name":"index","type":"uint16","indexed":false,"internalType":"uint16"},{"name":"message","type":"bytes","indexed":false,"internalType":"bytes"}],"anonymous":false},{"type":"event","name":"DefaultReceiveLibrarySet","inputs":[{"name":"eid","type":"uint32","indexed":false,"internalType":"uint32"},{"name":"newLib","type":"address","indexed":false,"internalType":"address"}],"anonymous":false},{"type":"event","name":"DefaultReceiveLibraryTimeoutSet","inputs":[{"name":"eid","type":"uint32","indexed":false,"internalType":"uint32"},{"name":"oldLib","type":"address","indexed":false,"internalType":"address"},{"name":"expiry","type":"uint256","indexed":false,"internalType":"uint256"}],"anonymous":false},{"type":"event","name":"DefaultSendLibrarySet","inputs":[{"name":"eid","type":"uint32","indexed":false,"internalType":"uint32"},{"name":"newLib","type":"address","indexed":false,"internalType":"address"}],"anonymous":false},{"type":"event","name":"DelegateSet","inputs":[{"name":"sender","type":"address","indexed":false,"internalType":"address"},{"name":"delegate","type":"address","indexed":false,"internalType":"address"}],"anonymous":false},{"type":"event","name":"InboundNonceSkipped","inputs":[{"name":"srcEid","type":"uint32","indexed":false,"internalType":"uint32"},{"name":"sender","type":"bytes32","indexed":false,"internalType":"bytes32"},{"name":"receiver","type":"address","indexed":false,"internalType":"address"},{"name":"nonce","type":"uint64","indexed":false,"internalType":"uint64"}],"anonymous":false},{"type":"event","name":"LibraryRegistered","inputs":[{"name":"newLib","type":"address","indexed":false,"internalType":"address"}],"anonymous":false},{"type":"event","name":"LzComposeAlert","inputs":[{"name":"from","type":"address","indexed":true,"internalType":"address"},{"name":"to","type":"address","indexed":true,"internalType":"address"},{"name":"executor","type":"address","indexed":true,"internalType":"address"},{"name":"guid","type":"bytes32","indexed":false,"internalType":"bytes32"},{"name":"index","type":"uint16","indexed":false,"internalType":"uint16"},{"name":"gas","type":"uint256","indexed":false,"internalType":"uint256"},{"name":"value","type":"uint256","indexed":false,"internalType":"uint256"},{"name":"message","type":"bytes","indexed":false,"internalType":"bytes"},{"name":"extraData","type":"bytes","indexed":false,"internalType":"bytes"},{"name":"reason","type":"bytes","indexed":false,"internalType":"bytes"}],"anonymous":false},{"type":"event","name":"LzReceiveAlert","inputs":[{"name":"receiver","type":"address","indexed":true,"internalType":"address"},{"name":"executor","type":"address","indexed":true,"internalType":"address"},{"name":"origin","type":"tuple","indexed":false,"internalType":"struct Origin","components":[{"name":"srcEid","type":"uint32","internalType":"uint32"},{"name":"sender","type":"bytes32","internalType":"bytes32"},{"name":"nonce","type":"uint64","internalType":"uint64"}]},{"name":"guid","type":"bytes32","indexed":false,"internalType":"bytes32"},{"name":"gas","type":"uint256","indexed":false,"internalType":"uint256"},{"name":"value","type":"uint256","indexed":false,"internalType":"uint256"},{"name":"message","type":"bytes","indexed":false,"internalType":"bytes"},{"name":"extraData","type":"bytes","indexed":false,"internalType":"bytes"},{"name":"reason","type":"bytes","indexed":false,"internalType":"bytes"}],"anonymous":false},{"type":"event","name":"LzTokenSet","inputs":[{"name":"token","type":"address","indexed":false,"internalType":"address"}],"anonymous":false},{"type":"event","name":"OwnershipTransferred","inputs":[{"name":"previousOwner","type":"address","indexed":true,"internalType":"address"},{"name":"newOwner","type":"address","indexed":true,"internalType":"address"}],"anonymous":false},{"type":"event","name":"PacketBurnt","inputs":[{"name":"srcEid","type":"uint32","indexed":false,"internalType":"uint32"},{"name":"sender","type":"bytes32","indexed":false,"internalType":"bytes32"},{"name":"receiver","type":"address","indexed":false,"internalType":"address"},{"name":"nonce","type":"uint64","indexed":false,"internalType":"uint64"},{"name":"payloadHash","type":"bytes32","indexed":false,"internalType":"bytes32"}],"anonymous":false},{"type":"event","name":"PacketDelivered","inputs":[{"name":"origin","type":"tuple","indexed":false,"internalType":"struct Origin","components":[{"name":"srcEid","type":"uint32","internalType":"uint32"},{"name":"sender","type":"bytes32","internalType":"bytes32"},{"name":"nonce","type":"uint64","internalType":"uint64"}]},{"name":"receiver","type":"address","indexed":false,"internalType":"address"}],"anonymous":false},{"type":"event","name":"PacketNilified","inputs":[{"name":"srcEid","type":"uint32","indexed":false,"internalType":"uint32"},{"name":"sender","type":"bytes32","indexed":false,"internalType":"bytes32"},{"name":"receiver","type":"address","indexed":false,"internalType":"address"},{"name":"nonce","type":"uint64","indexed":false,"internalType":"uint64"},{"name":"payloadHash","type":"bytes32","indexed":false,"internalType":"bytes32"}],"anonymous":false},{"type":"event","name":"PacketSent","inputs":[{"name":"encodedPayload","type":"bytes","indexed":false,"internalType":"bytes"},{"name":"options","type":"bytes","indexed":false,"internalType":"bytes"},{"name":"sendLibrary","type":"address","indexed":false,"internalType":"address"}],"anonymous":false},{"type":"event","name":"PacketVerified","inputs":[{"name":"origin","type":"tuple","indexed":false,"internalType":"struct Origin","components":[{"name":"srcEid","type":"uint32","internalType":"uint32"},{"name":"sender","type":"bytes32","internalType":"bytes32"},{"name":"nonce","type":"uint64","internalType":"uint64"}]},{"name":"receiver","type":"address","indexed":false,"internalType":"address"},{"name":"payloadHash","type":"bytes32","indexed":false,"internalType":"bytes32"}],"anonymous":false},{"type":"event","name":"ReceiveLibrarySet","inputs":[{"name":"receiver","type":"address","indexed":false,"internalType":"address"},{"name":"eid","type":"uint32","indexed":false,"internalType":"uint32"},{"name":"newLib","type":"address","indexed":false,"internalType":"address"}],"anonymous":false},{"type":"event","name":"ReceiveLibraryTimeoutSet","inputs":[{"name":"receiver","type":"address","indexed":false,"internalType":"address"},{"name":"eid","type":"uint32","indexed":false,"internalType":"uint32"},{"name":"oldLib","type":"address","indexed":false,"internalType":"address"},{"name":"timeout","type":"uint256","indexed":false,"internalType":"uint256"}],"anonymous":false},{"type":"event","name":"SendLibrarySet","inputs":[{"name":"sender","type":"address","indexed":false,"internalType":"address"},{"name":"eid","type":"uint32","indexed":false,"internalType":"uint32"},{"name":"newLib","type":"address","indexed":false,"internalType":"address"}],"anonymous":false},{"type":"error","name":"LZ_AlreadyRegistered","inputs":[]},{"type":"error","name":"LZ_ComposeExists","inputs":[]},{"type":"error","name":"LZ_ComposeNotFound","inputs":[{"name":"expected","type":"bytes32","internalType":"bytes32"},{"name":"actual","type":"bytes32","internalType":"bytes32"}]},{"type":"error","name":"LZ_DefaultReceiveLibUnavailable","inputs":[]},{"type":"error","name":"LZ_DefaultSendLibUnavailable","inputs":[]},{"type":"error","name":"LZ_InsufficientFee","inputs":[{"name":"requiredNative","type":"uint256","internalType":"uint256"},{"name":"suppliedNative","type":"uint256","internalType":"uint256"},{"name":"requiredLzToken","type":"uint256","internalType":"uint256"},{"name":"suppliedLzToken","type":"uint256","internalType":"uint256"}]},{"type":"error","name":"LZ_InvalidExpiry","inputs":[]},{"type":"error","name":"LZ_InvalidNonce","inputs":[{"name":"nonce","type":"uint64","internalType":"uint64"}]},{"type":"error","name":"LZ_InvalidPayloadHash","inputs":[]},{"type":"error","name":"LZ_InvalidReceiveLibrary","inputs":[]},{"type":"error","name":"LZ_LzTokenUnavailable","inputs":[]},{"type":"error","name":"LZ_OnlyNonDefaultLib","inputs":[]},{"type":"error","name":"LZ_OnlyReceiveLib","inputs":[]},{"type":"error","name":"LZ_OnlyRegisteredLib","inputs":[]},{"type":"error","name":"LZ_OnlyRegisteredOrDefaultLib","inputs":[]},{"type":"error","name":"LZ_OnlySendLib","inputs":[]},{"type":"error","name":"LZ_PathNotInitializable","inputs":[]},{"type":"error","name":"LZ_PathNotVerifiable","inputs":[]},{"type":"error","name":"LZ_PayloadHashNotFound","inputs":[{"name":"expected","type":"bytes32","internalType":"bytes32"},{"name":"actual","type":"bytes32","internalType":"bytes32"}]},{"type":"error","name":"LZ_SameValue","inputs":[]},{"type":"error","name":"LZ_SendReentrancy","inputs":[]},{"type":"error","name":"LZ_Unauthorized","inputs":[]},{"type":"error","name":"LZ_UnsupportedEid","inputs":[]},{"type":"error","name":"LZ_UnsupportedInterface","inputs":[]},{"type":"error","name":"LZ_ZeroLzTokenFee","inputs":[]},{"type":"error","name":"OwnableInvalidOwner","inputs":[{"name":"owner","type":"address","internalType":"address"}]},{"type":"error","name":"OwnableUnauthorizedAccount","inputs":[{"name":"account","type":"address","internalType":"address"}]},{"type":"error","name":"SafeERC20FailedOperation","inputs":[{"name":"token","type":"address","internalType":"address"}]},{"type":"error","name":"Transfer_NativeFailed","inputs":[{"name":"_to","type":"address","internalType":"address"},{"name":"_value","type":"uint256","internalType":"uint256"}]},{"type":"error","name":"Transfer_ToAddressIsZero","inputs":[]}],"bytecode":{"object":"0x60c06040526001600d55348015610014575f5ffd5b506040516152d33803806152d3833981016040819052610033916102aa565b81816001600160a01b03811661006357604051631e4fbdf760e01b81525f60048201526024015b60405180910390fd5b61006c816100ba565b5063ffffffff166080526040516100829061029d565b604051809103905ff08015801561009b573d5f5f3e3d5ffd5b506001600160a01b031660a08190526100b390610109565b505061031b565b5f80546001600160a01b038381166001600160a01b0319831681178455604051919092169283917f8be0079c531659141344cd1fd0a4f28419497f9722a3daafe3b4186f6b6457e09190a35050565b61011161026f565b6040516301ffc9a760e01b81526325fc096160e21b60048201526001600160a01b038216906301ffc9a790602401602060405180830381865afa15801561015a573d5f5f3e3d5ffd5b505050506040513d601f19601f8201168201806040525081019061017e91906102f5565b61019b5760405163eb64f35d60e01b815260040160405180910390fd5b6001600160a01b0381165f9081526005602052604090205460ff16156101d45760405163457517f360e11b815260040160405180910390fd5b6001600160a01b0381165f818152600560209081526040808320805460ff191660019081179091556004805491820181559093527f8a35acfbc15ff81a39ae7d344fd709f28e8600b4aa8c65c6b64bfe7fe36bd19b90920180546001600160a01b0319168417905590519182527f6b374d56679ca9463f27c85c6311e2bb7fde69bf201d3da39d53f10bd9d78af5910160405180910390a150565b5f546001600160a01b0316331461029b5760405163118cdaa760e01b815233600482015260240161005a565b565b6101d4806150ff83390190565b5f5f604083850312156102bb575f5ffd5b825163ffffffff811681146102ce575f5ffd5b60208401519092506001600160a01b03811681146102ea575f5ffd5b809150509250929050565b5f60208284031215610305575f5ffd5b81518015158114610314575f5ffd5b9392505050565b60805160a051614da061035f5f395f61075601525f8181610515015281816126d901528181612eb101528181612f170152818161347701526134dd0152614da05ff3fe608060405260043610610341575f3560e01c80639132e5c3116101bd578063c9fc7bcd116100f2578063ddc28c5811610092578063e8964e811161006d578063e8964e8114610b42578063ef667aa114610b61578063f2fde38b14610baa578063f64be4c714610bc9575f5ffd5b8063ddc28c5814610ae5578063e1758bd814610b11578063e4fe1d9414610b23575f5ffd5b8063d4b4ec8f116100cd578063d4b4ec8f14610a2f578063d70b890214610a4e578063dc706a6214610a6d578063dc93c8a214610a9b575f5ffd5b8063c9fc7bcd146109b8578063ca5eb5e1146109fd578063cb5026b914610a1c575f5ffd5b8063a7229fd91161015d578063aafea31211610138578063aafea3121461093c578063b96a277f1461095b578063c28e0eed1461097a578063c9a54a9914610999575f5ffd5b8063a7229fd9146108df578063a825d747146108fe578063aafe5e071461091d575f5ffd5b80639c6d7340116101985780639c6d73401461083d5780639d7f977514610882578063a0dd43fc146108a1578063a718531b146108c0575f5ffd5b80639132e5c3146107ea57806391d20fa11461080b5780639535ff301461081e575f5ffd5b80635b17bb70116102935780636f50a8031161023357806379624ca91161020e57806379624ca9146107785780637cb5901214610790578063861e1ca5146107af5780638da5cb5b146107ce575f5ffd5b80636f50a803146106fd578063715018a6146107315780637331809114610745575f5ffd5b80636a14d7151161026e5780636a14d715146106435780636bf73fa3146106625780636dbd9f90146106815780636e83f5bb146106a0575f5ffd5b80635b17bb70146105985780636750cd4c146105f5578063697fe6b614610624575f5ffd5b80632baf0be7116102fe578063402f8468116102d9578063402f8468146104a757806340f80683146104e5578063416ecebf14610504578063587cde1e1461054c575f5ffd5b80632baf0be7146104215780632e80fbf31461044357806335d330b014610462575f5ffd5b80630c0c389e1461034557806314f651a91461035a578063183c834f146103975780632637a450146103b65780632a56c1b0146103d65780632b3197b9146103f5575b5f5ffd5b610358610353366004613d04565b610bfd565b005b348015610365575f5ffd5b5061036e610cf7565b6040805163ffffffff90931683526001600160a01b039091166020830152015b60405180910390f35b3480156103a2575f5ffd5b506103586103b1366004613daf565b610d27565b6103c96103c4366004613df7565b610fc4565b60405161038e9190613e45565b3480156103e1575f5ffd5b506103586103f0366004613e86565b6110e7565b348015610400575f5ffd5b5061041461040f366004613ef0565b611186565b60405161038e9190613f6f565b34801561042c575f5ffd5b506104355f1981565b60405190815260200161038e565b34801561044e575f5ffd5b5061035861045d366004613f97565b61124c565b34801561046d575f5ffd5b5061043561047c366004613ff9565b600c60209081525f948552604080862082529385528385208152918452828420909152825290205481565b3480156104b2575f5ffd5b506104c66104c1366004614038565b6113b7565b604080516001600160a01b03909316835290151560208301520161038e565b3480156104f0575f5ffd5b506103586104ff366004613f97565b611433565b34801561050f575f5ffd5b506105377f000000000000000000000000000000000000000000000000000000000000000081565b60405163ffffffff909116815260200161038e565b348015610557575f5ffd5b50610580610566366004614060565b600f6020525f90815260409020546001600160a01b031681565b6040516001600160a01b03909116815260200161038e565b3480156105a3575f5ffd5b506105dd6105b2366004614079565b600160209081525f93845260408085208252928452828420905282529020546001600160401b031681565b6040516001600160401b03909116815260200161038e565b348015610600575f5ffd5b5061061461060f3660046140b3565b611596565b604051901515815260200161038e565b34801561062f575f5ffd5b5061035861063e3660046140cc565b6115e4565b34801561064e575f5ffd5b5061035861065d366004613daf565b611659565b34801561066d575f5ffd5b5061035861067c3660046141bd565b611a2c565b34801561068c575f5ffd5b5061035861069b36600461429b565b611a96565b3480156106ab575f5ffd5b506106de6106ba3660046140b3565b600b6020525f9081526040902080546001909101546001600160a01b039091169082565b604080516001600160a01b03909316835260208301919091520161038e565b348015610708575f5ffd5b506105806107173660046140b3565b600a6020525f90815260409020546001600160a01b031681565b34801561073c575f5ffd5b50610358611b32565b348015610750575f5ffd5b506105807f000000000000000000000000000000000000000000000000000000000000000081565b348015610783575f5ffd5b50600d5460011415610614565b34801561079b575f5ffd5b506103586107aa366004614326565b611b45565b3480156107ba575f5ffd5b506106146107c9366004614372565b611c2f565b3480156107d9575f5ffd5b505f546001600160a01b0316610580565b3480156107f5575f5ffd5b506107fe611c99565b60405161038e919061439b565b6103586108193660046143e6565b611cf9565b348015610829575f5ffd5b5061035861083836600461448d565b611e83565b348015610848575f5ffd5b506105dd610857366004614079565b600360209081525f93845260408085208252928452828420905282529020546001600160401b031681565b34801561088d575f5ffd5b5061061461089c36600461448d565b6120e0565b3480156108ac575f5ffd5b506105dd6108bb366004614079565b6121b4565b3480156108cb575f5ffd5b506103586108da3660046144cd565b612213565b3480156108ea575f5ffd5b506103586108f93660046144f6565b612529565b348015610909575f5ffd5b50610358610918366004614511565b612541565b348015610928575f5ffd5b50610435610937366004614079565b61268a565b348015610947575f5ffd5b5061035861095636600461454c565b612709565b348015610966575f5ffd5b50610580610975366004614038565b61292b565b348015610985575f5ffd5b50610358610994366004614060565b612998565b3480156109a4575f5ffd5b506106146109b3366004614372565b6129f5565b3480156109c3575f5ffd5b506104356109d2366004614566565b600260209081525f948552604080862082529385528385208152918452828420909152825290205481565b348015610a08575f5ffd5b50610358610a17366004614060565b612a58565b348015610a27575f5ffd5b506104355f81565b348015610a3a575f5ffd5b50610358610a493660046144cd565b612ab7565b348015610a59575f5ffd5b50610358610a68366004614566565b612cec565b348015610a78575f5ffd5b50610614610a87366004614060565b60056020525f908152604090205460ff1681565b348015610aa6575f5ffd5b50610614610ab5366004614038565b6001600160a01b039182165f90815260066020908152604080832063ffffffff9490941683529290522054161590565b348015610af0575f5ffd5b50610b04610aff366004613df7565b612dda565b60405161038e91906145a5565b348015610b1c575f5ffd5b505f610580565b348015610b2e575f5ffd5b50600e54610580906001600160a01b031681565b348015610b4d575f5ffd5b50610358610b5c366004614060565b61303d565b348015610b6c575f5ffd5b506106de610b7b366004614038565b600860209081525f9283526040808420909152908252902080546001909101546001600160a01b039091169082565b348015610bb5575f5ffd5b50610358610bc4366004614060565b61319d565b348015610bd4575f5ffd5b50610580610be33660046140b3565b60096020525f90815260409020546001600160a01b031681565b610c4c86610c0e60208a018a6140b3565b60208a0135610c2360608c0160408d016145bc565b898989604051602001610c38939291906145d5565b6040516020818303038152906040526131da565b506040516313137d6560e01b81526001600160a01b038716906313137d65903490610c87908b908a908a908a9033908b908b9060040161464f565b5f604051808303818588803b158015610c9e575f5ffd5b505af1158015610cb0573d5f5f3e3d5ffd5b50505050507f3cd5e48f9730b129dc7550f0fcea9c767b7be37837cd10e55eb35f734f4bca048787604051610ce69291906146a5565b60405180910390a150505050505050565b5f5f610d06600d546001141590565b610d11575f5f610d1f565b610d1f600d5460a081901c91565b915091509091565b6001600160a01b0382165f90815260056020526040902054829060ff16610d6157604051631bc58ef360e11b815260040160405180910390fd5b826001600160a01b03811615610e01575f816001600160a01b0316631881d94d6040518163ffffffff1660e01b8152600401602060405180830381865afa158015610dae573d5f5f3e3d5ffd5b505050506040513d601f19601f82011682018060405250810190610dd291906146df565b6002811115610de357610de36146cb565b03610e01576040516342756b1b60e11b815260040160405180910390fd5b83856001600160a01b03821615610e9b576040516319d4335360e21b815263ffffffff821660048201526001600160a01b03831690636750cd4c90602401602060405180830381865afa158015610e5a573d5f5f3e3d5ffd5b505050506040513d601f19601f82011682018060405250810190610e7e919061470a565b610e9b57604051630e476aa960e21b815260040160405180910390fd5b610ea488613391565b5f610eaf89896113b7565b9150508015610ed157604051633c075f7560e01b815260040160405180910390fd5b855f03610f17576001600160a01b0389165f90815260086020908152604080832063ffffffff8c168452909152812080546001600160a01b031916815560010155610f7c565b438611610f37576040516302efcf9160e11b815260040160405180910390fd5b6001600160a01b038981165f90815260086020908152604080832063ffffffff8d168452909152902080546001600160a01b0319169189169190911781556001018690555b7f4e0a5bbfa0c11a64effb1ada324b5437a17272e1aed9320398715ef71bb2092889898989604051610fb19493929190614725565b60405180910390a1505050505050505050565b610fcc613c5b565b610fd960208401846140b3565b336001600d5414610ffd5760405163ee120b0960e01b815260040160405180910390fd5b63ffffffff60a01b60a083811b919091166001600160a01b03831617600d5561102b90860160808701614755565b80156110405750600e546001600160a01b0316155b1561105e57604051632d7b695560e11b815260040160405180910390fd5b5f5f61106a33886133e1565b915091505f6110763490565b90505f61109161108c60a08b0160808c01614755565b613681565b90506110a284604001518383613719565b600e546040850151602001516110c4916001600160a01b03169083868c613767565b6040840151516110d69083858b613794565b50506001600d555095945050505050565b6110f085613391565b5f838383604051602001611106939291906145d5565b60408051601f1981840301815291905290506111448661112960208801886140b3565b602088013561113e60608a0160408b016145bc565b856131da565b507f3cd5e48f9730b129dc7550f0fcea9c767b7be37837cd10e55eb35f734f4bca0485876040516111769291906146a5565b60405180910390a1505050505050565b6001600160a01b0383165f90815260056020526040902054606090849060ff166111c357604051631bc58ef360e11b815260040160405180910390fd5b604051639c33abf760e01b815263ffffffff80861660048301526001600160a01b0388811660248401529085166044830152861690639c33abf7906064015f60405180830381865afa15801561121b573d5f5f3e3d5ffd5b505050506040513d5f823e601f3d908101601f19168201604052611242919081019061480d565b9695505050505050565b61125585613391565b6001600160a01b0385165f90815260026020908152604080832063ffffffff88168452825280832086845282528083206001600160401b03861684529091529020548181146112c657604051637182306f60e01b815260048101829052602481018390526044015b60405180910390fd5b6001600160a01b0386165f90815260016020908152604080832063ffffffff8916845282528083208784529091529020546001600160401b0390811690841611801590611311575080155b1561133a57604051630c09b63560e41b81526001600160401b03841660048201526024016112bd565b6001600160a01b0386165f90815260026020908152604080832063ffffffff89168452825280832087845282528083206001600160401b0387168452909152908190205f199055517faf0450c392c4f702515a457a362328c8aa21916048ca6d0419e248b30cb552929061117690879087908a908890889061483e565b6001600160a01b038083165f90815260076020908152604080832063ffffffff86168452909152812054909116908161142c5763ffffffff83165f908152600a60205260409020546001600160a01b031691508161142857604051633c74268360e11b815260040160405180910390fd5b5060015b9250929050565b61143c85613391565b6001600160a01b0385165f90815260026020908152604080832063ffffffff88168452825280832086845282528083206001600160401b03861684529091529020548181146114a857604051637182306f60e01b815260048101829052602481018390526044016112bd565b8015806114f157506001600160a01b0386165f90815260016020908152604080832063ffffffff8916845282528083208784529091529020546001600160401b03908116908416115b1561151a57604051630c09b63560e41b81526001600160401b03841660048201526024016112bd565b6001600160a01b0386165f90815260026020908152604080832063ffffffff89168452825280832087845282528083206001600160401b038716845290915280822091909155517f7f68a37a6e69a0de35024a234558f9efe4b33b58657753d21eaaa82d51c3510e9061117690879087908a908890889061483e565b63ffffffff81165f908152600960205260408120546001600160a01b0316158015906115de575063ffffffff82165f908152600a60205260409020546001600160a01b031615155b92915050565b336001600160a01b03168b6001600160a01b03168d6001600160a01b03167f8a0b1dce321c5c5fb42349bce46d18087c04140de520917661fb923e44a904b98d8d8d8d8d8d8d8d8d8d6040516116439a9998979695949392919061487b565b60405180910390a4505050505050505050505050565b6001600160a01b0382165f90815260056020526040902054829060ff1615801561168b57506001600160a01b03811615155b156116a95760405163a4ff2ec360e01b815260040160405180910390fd5b826001600160a01b03811615611749575f816001600160a01b0316631881d94d6040518163ffffffff1660e01b8152600401602060405180830381865afa1580156116f6573d5f5f3e3d5ffd5b505050506040513d601f19601f8201168201806040525081019061171a91906146df565b600281111561172b5761172b6146cb565b03611749576040516342756b1b60e11b815260040160405180910390fd5b83856001600160a01b038216156117e3576040516319d4335360e21b815263ffffffff821660048201526001600160a01b03831690636750cd4c90602401602060405180830381865afa1580156117a2573d5f5f3e3d5ffd5b505050506040513d601f19601f820116820180604052508101906117c6919061470a565b6117e357604051630e476aa960e21b815260040160405180910390fd5b6117ec88613391565b6001600160a01b038089165f90815260076020908152604080832063ffffffff8c1684529091529020548116908716810361183a5760405163d0ecb66b60e01b815260040160405180910390fd5b6001600160a01b038981165f81815260076020908152604080832063ffffffff8e168085529083529281902080546001600160a01b031916958d1695861790558051938452908301919091528101919091527fcd6f92f5ac6185a5acfa02c92090746cec64d777269cbcd0ed031e396657a1c29060600160405180910390a185156119b1576001600160a01b03811615806118dc57506001600160a01b038716155b156118fa57604051633c075f7560e01b815260040160405180910390fd5b5f6040518060400160405280836001600160a01b03168152602001884361192191906148f7565b90526001600160a01b038b81165f90815260086020908152604080832063ffffffff8f168452825291829020845181546001600160a01b03191694169390931783558301516001909201829055519192507f4e0a5bbfa0c11a64effb1ada324b5437a17272e1aed9320398715ef71bb20928916119a3918d918d918791614725565b60405180910390a150611a21565b6001600160a01b0389165f90815260086020908152604080832063ffffffff8c16845290915280822080546001600160a01b0319168155600101829055517f4e0a5bbfa0c11a64effb1ada324b5437a17272e1aed9320398715ef71bb2092891610fb1918c918c91869190614725565b505050505050505050565b336001600160a01b03168a6001600160a01b03167f7edfa10fe10193301ad8a8bea7e968c7bcabcc64981f368e3aeada40ce26ae2c8d8c8c8c8c8c8c8c8c8c604051611a819a9998979695949392919061490a565b60405180910390a35050505050505050505050565b6001600160a01b0383165f90815260056020526040902054839060ff16611ad057604051631bc58ef360e11b815260040160405180910390fd5b611ad985613391565b604051631077eb9160e11b81526001600160a01b038516906320efd72290611b0990889087908790600401614967565b5f604051808303815f87803b158015611b20575f5ffd5b505af1158015611a21573d5f5f3e3d5ffd5b611b3a6137be565b611b435f6137ea565b565b335f908152600c602090815260408083206001600160a01b03891684528252808320878452825280832061ffff8716845290915290205415611b9a57604051630542086560e21b815260040160405180910390fd5b8181604051611baa929190614a5f565b60408051918290038220335f818152600c60209081528482206001600160a01b038c16835281528482208a8352815284822061ffff8a168352905292909220557f3d52ff888d033fd3dd1d8057da59e850c91d91a72c41dfa445b247dfedeb6dc191611c20919088908890889088908890614a6e565b60405180910390a15050505050565b6001600160a01b0381165f9081526001602090815260408220611c9291859185918590611c5e908501856140b3565b63ffffffff16815260208082019290925260409081015f9081208984013582529092529020546001600160401b0316613839565b9392505050565b60606004805480602002602001604051908101604052809291908181526020018280548015611cef57602002820191905f5260205f20905b81546001600160a01b03168152600190910190602001808311611cd1575b5050505050905090565b6001600160a01b038089165f908152600c60209081526040808320938b168352928152828220898352815282822061ffff891683529052818120549151611d439087908790614a5f565b60405180910390209050808214611d77576040516335ca595f60e01b815260048101839052602481018290526044016112bd565b6001600160a01b03808b165f908152600c60209081526040808320938d168084529382528083208c8452825280832061ffff8c168452909152908190206001905551630685081360e51b815263d0a10260903490611de5908e908d908c908c9033908d908d90600401614ab7565b5f604051808303818588803b158015611dfc575f5ffd5b505af1158015611e0e573d5f5f3e3d5ffd5b50505050507e36c98efcf9e6641dfbc9051f66f405253e8e0c2ab4a24dccda15595b7378c88a8a8a8a604051611e6f94939291906001600160a01b039485168152929093166020830152604082015261ffff91909116606082015260800190565b60405180910390a150505050505050505050565b6001600160a01b0381165f90815260056020526040902054819060ff16158015611eb557506001600160a01b03811615155b15611ed35760405163a4ff2ec360e01b815260040160405180910390fd5b816001600160a01b03811615611f74576001816001600160a01b0316631881d94d6040518163ffffffff1660e01b8152600401602060405180830381865afa158015611f21573d5f5f3e3d5ffd5b505050506040513d601f19601f82011682018060405250810190611f4591906146df565b6002811115611f5657611f566146cb565b03611f7457604051633d00f6f160e11b815260040160405180910390fd5b82846001600160a01b0382161561200e576040516319d4335360e21b815263ffffffff821660048201526001600160a01b03831690636750cd4c90602401602060405180830381865afa158015611fcd573d5f5f3e3d5ffd5b505050506040513d601f19601f82011682018060405250810190611ff1919061470a565b61200e57604051630e476aa960e21b815260040160405180910390fd5b61201787613391565b6001600160a01b038781165f90815260066020908152604080832063ffffffff8b1684529091529020548187169116036120645760405163d0ecb66b60e01b815260040160405180910390fd5b6001600160a01b038781165f81815260066020908152604080832063ffffffff8c168085529083529281902080546001600160a01b031916958b1695861790558051938452908301919091528101919091527f4cff966ebee29a156dcb34cf72c1d06231fb1777f6bdf6e8089819232f002b1c90606001610ce6565b5f5f5f6120ed86866113b7565b91509150816001600160a01b0316846001600160a01b03160361211557600192505050611c92565b5f81612148576001600160a01b0387165f90815260086020908152604080832063ffffffff8a168452909152902061215d565b63ffffffff86165f908152600b602052604090205b6040805180820190915281546001600160a01b03908116808352600190930154602083015290925086161480156121975750438160200151115b156121a85760019350505050611c92565b505f9695505050505050565b6001600160a01b0383165f90815260016020908152604080832063ffffffff8616845282528083208484529091528120546001600160401b03165b6121fe858585846001016138ba565b1561220b576001016121ef565b949350505050565b61221b6137be565b6001600160a01b0382165f90815260056020526040902054829060ff1661225557604051631bc58ef360e11b815260040160405180910390fd5b826001600160a01b038116156122f5575f816001600160a01b0316631881d94d6040518163ffffffff1660e01b8152600401602060405180830381865afa1580156122a2573d5f5f3e3d5ffd5b505050506040513d601f19601f820116820180604052508101906122c691906146df565b60028111156122d7576122d76146cb565b036122f5576040516342756b1b60e11b815260040160405180910390fd5b83856001600160a01b0382161561238f576040516319d4335360e21b815263ffffffff821660048201526001600160a01b03831690636750cd4c90602401602060405180830381865afa15801561234e573d5f5f3e3d5ffd5b505050506040513d601f19601f82011682018060405250810190612372919061470a565b61238f57604051630e476aa960e21b815260040160405180910390fd5b63ffffffff87165f908152600a60205260409020546001600160a01b0390811690871681036123d15760405163d0ecb66b60e01b815260040160405180910390fd5b63ffffffff88165f818152600a602090815260409182902080546001600160a01b0319166001600160a01b038c169081179091558251938452908301527fc16891855cffb4a5ac51ac11864a3f3c96ba816cc45fe686c987ae36277de5ec910160405180910390a185156124bd5763ffffffff88165f908152600b6020526040902080546001600160a01b0319166001600160a01b03831617815561247687436148f7565b600182018190556040517f55b28633cdb29709386f555dfc54418592ad475ce7a65a78ac5928af60ffb8f8916124af918c918691614b00565b60405180910390a15061251f565b63ffffffff88165f908152600b602052604080822080546001600160a01b0319168155600101829055517f55b28633cdb29709386f555dfc54418592ad475ce7a65a78ac5928af60ffb8f891612516918b918591614b00565b60405180910390a15b5050505050505050565b6125316137be565b61253c838383613906565b505050565b6125588261255260208601866140b3565b336120e0565b612575576040516313e9bb2b60e21b815260040160405180910390fd5b6001600160a01b0382165f908152600160209081526040822090829061259d908701876140b3565b63ffffffff16815260208082019290925260409081015f9081208784013582529092529020546001600160401b031690506125d9848483613839565b6125f65760405163751cb20f60e01b815260040160405180910390fd5b612601848483613929565b61261d5760405162bbf0e560e11b815260040160405180910390fd5b6126498361262e60208701876140b3565b60208701356126436060890160408a016145bc565b866139df565b7f0d87345f3d1c929caba93e1c3821b54ff3512e12b66aa3cfe54b6bcbc17e59b484848460405161267c93929190614b27565b60405180910390a150505050565b6001600160a01b0383165f90815260036020908152604080832063ffffffff86168452825280832084845290915281205481906126d1906001600160401b03166001614b4f565b9050612700817f0000000000000000000000000000000000000000000000000000000000000000878787613a44565b95945050505050565b6127116137be565b6001600160a01b0381165f90815260056020526040902054819060ff1661274b57604051631bc58ef360e11b815260040160405180910390fd5b816001600160a01b038116156127ec576001816001600160a01b0316631881d94d6040518163ffffffff1660e01b8152600401602060405180830381865afa158015612799573d5f5f3e3d5ffd5b505050506040513d601f19601f820116820180604052508101906127bd91906146df565b60028111156127ce576127ce6146cb565b036127ec57604051633d00f6f160e11b815260040160405180910390fd5b82846001600160a01b03821615612886576040516319d4335360e21b815263ffffffff821660048201526001600160a01b03831690636750cd4c90602401602060405180830381865afa158015612845573d5f5f3e3d5ffd5b505050506040513d601f19601f82011682018060405250810190612869919061470a565b61288657604051630e476aa960e21b815260040160405180910390fd5b63ffffffff86165f908152600960205260409020546001600160a01b038087169116036128c65760405163d0ecb66b60e01b815260040160405180910390fd5b63ffffffff86165f8181526009602090815260409182902080546001600160a01b0319166001600160a01b038a169081179091558251938452908301527f16aa0f528038ab41019e95bae5b418a50ba8532c5800e3b7ea2f517d3fa625f59101611176565b6001600160a01b038083165f90815260066020908152604080832063ffffffff8616845290915290205416806115de575063ffffffff81165f908152600960205260409020546001600160a01b0316806115de57604051636c1ccdb560e01b815260040160405180910390fd5b6129a06137be565b600e80546001600160a01b0319166001600160a01b0383169081179091556040519081527fd476ec5ec1ac11cec3714d41e7ea49419471aceb9bd0dff1becfc3e363a62396906020015b60405180910390a150565b6001600160a01b0381165f9081526001602090815260408220611c9291859185918590612a24908501856140b3565b63ffffffff16815260208082019290925260409081015f9081208984013582529092529020546001600160401b0316613929565b335f818152600f602090815260409182902080546001600160a01b0319166001600160a01b0386169081179091558251938452908301527f6ee10e9ed4d6ce9742703a498707862f4b00f1396a87195eb93267b3d798398191016129ea565b6001600160a01b0382165f90815260056020526040902054829060ff16612af157604051631bc58ef360e11b815260040160405180910390fd5b826001600160a01b03811615612b91575f816001600160a01b0316631881d94d6040518163ffffffff1660e01b8152600401602060405180830381865afa158015612b3e573d5f5f3e3d5ffd5b505050506040513d601f19601f82011682018060405250810190612b6291906146df565b6002811115612b7357612b736146cb565b03612b91576040516342756b1b60e11b815260040160405180910390fd5b83856001600160a01b03821615612c2b576040516319d4335360e21b815263ffffffff821660048201526001600160a01b03831690636750cd4c90602401602060405180830381865afa158015612bea573d5f5f3e3d5ffd5b505050506040513d601f19601f82011682018060405250810190612c0e919061470a565b612c2b57604051630e476aa960e21b815260040160405180910390fd5b612c336137be565b845f03612c655763ffffffff87165f908152600b6020526040812080546001600160a01b031916815560010155612cb9565b438511612c85576040516302efcf9160e11b815260040160405180910390fd5b63ffffffff87165f908152600b6020526040902080546001600160a01b0319166001600160a01b0388161781556001018590555b7f55b28633cdb29709386f555dfc54418592ad475ce7a65a78ac5928af60ffb8f8878787604051610ce693929190614b00565b612cf584613391565b612d008484846121b4565b612d0b906001614b4f565b6001600160401b0316816001600160401b031614612d4757604051630c09b63560e41b81526001600160401b03821660048201526024016112bd565b6001600160a01b0384165f81815260016020908152604080832063ffffffff8816808552908352818420878552835292819020805467ffffffffffffffff19166001600160401b038716908117909155815193845291830186905282019290925260608101919091527f28f40053783033ef755556a0c3315379141f51a33aed8334174ffbadd90bde489060800161267c565b604080518082019091525f8082526020820152612dfd60a0840160808501614755565b8015612e125750600e546001600160a01b0316155b15612e3057604051632d7b695560e11b815260040160405180910390fd5b6001600160a01b0382165f9081526003602090815260408220908290612e58908701876140b3565b63ffffffff16815260208082019290925260409081015f908120878401358252909252902054612e92906001600160401b03166001614b4f565b90505f6040518060e00160405280836001600160401b031681526020017f000000000000000000000000000000000000000000000000000000000000000063ffffffff168152602001856001600160a01b03168152602001865f016020810190612efc91906140b3565b63ffffffff16815260200186602001358152602001612f53847f0000000000000000000000000000000000000000000000000000000000000000888a5f016020810190612f4991906140b3565b8b60200135613a44565b8152602001612f656040880188614b6e565b8080601f0160208091040260200160405190810160405280939291908181526020018383808284375f92018290525093909452509293509150612fb190508561097560208901896140b3565b90506001600160a01b03811663d80e9bd983612fd060608a018a614b6e565b612fe060a08c0160808d01614755565b6040518563ffffffff1660e01b8152600401612fff9493929190614bb0565b6040805180830381865afa158015613019573d5f5f3e3d5ffd5b505050506040513d601f19601f820116820180604052508101906112429190614ca1565b6130456137be565b6040516301ffc9a760e01b81526325fc096160e21b60048201526001600160a01b038216906301ffc9a790602401602060405180830381865afa15801561308e573d5f5f3e3d5ffd5b505050506040513d601f19601f820116820180604052508101906130b2919061470a565b6130cf5760405163eb64f35d60e01b815260040160405180910390fd5b6001600160a01b0381165f9081526005602052604090205460ff16156131085760405163457517f360e11b815260040160405180910390fd5b6001600160a01b0381165f818152600560209081526040808320805460ff191660019081179091556004805491820181559093527f8a35acfbc15ff81a39ae7d344fd709f28e8600b4aa8c65c6b64bfe7fe36bd19b90920180546001600160a01b0319168417905590519182527f6b374d56679ca9463f27c85c6311e2bb7fde69bf201d3da39d53f10bd9d78af591016129ea565b6131a56137be565b6001600160a01b0381166131ce57604051631e4fbdf760e01b81525f60048201526024016112bd565b6131d7816137ea565b50565b6001600160a01b0385165f90815260016020908152604080832063ffffffff8816845282528083208684529091528120546001600160401b039081169084168110156132c657600181015b846001600160401b0316816001600160401b03161161327a5761324a888888846138ba565b61327257604051630c09b63560e41b81526001600160401b03821660048201526024016112bd565b600101613225565b506001600160a01b0387165f90815260016020908152604080832063ffffffff8a16845282528083208884529091529020805467ffffffffffffffff19166001600160401b0386161790555b82516020808501919091206001600160a01b0389165f90815260028352604080822063ffffffff8b168352845280822089835284528082206001600160401b0389168352909352919091205490925080831461333f57604051637182306f60e01b815260048101829052602481018490526044016112bd565b50506001600160a01b039095165f90815260026020908152604080832063ffffffff90971683529581528582209482529384528481206001600160401b03909316815291909252918220919091555090565b336001600160a01b038216148015906133c357506001600160a01b038181165f908152600f6020526040902054163314155b156131d75760405163c4c5259360e01b815260040160405180910390fd5b6133e9613c5b565b5f80613458856133fc60208701876140b3565b6001600160a01b03919091165f90815260036020908152604080832063ffffffff949094168352928152828220818901358352905220805467ffffffffffffffff19811660016001600160401b03928316019182161790915590565b90505f6040518060e00160405280836001600160401b031681526020017f000000000000000000000000000000000000000000000000000000000000000063ffffffff168152602001876001600160a01b03168152602001865f0160208101906134c291906140b3565b63ffffffff1681526020018660200135815260200161350f847f00000000000000000000000000000000000000000000000000000000000000008a8a5f016020810190612f4991906140b3565b81526020016135216040880188614b6e565b8080601f0160208091040260200160405190810160405280939291908181526020018383808284375f9201829052509390945250929350915061356d90508761097560208901896140b3565b90505f806001600160a01b038316634389e58f8561358e60608c018c614b6e565b61359e60a08e0160808f01614755565b6040518563ffffffff1660e01b81526004016135bd9493929190614bb0565b5f604051808303815f875af11580156135d8573d5f5f3e3d5ffd5b505050506040513d5f823e601f3d908101601f191682016040526135ff9190810190614cbb565b90925090507f1ab700d4ced0c005b164c0f789fd09fcbb0156d4c2041b8a3bfbcd961cd1567f8161363360608b018b614b6e565b866040516136449493929190614d06565b60405180910390a1506040805160608101825260a09094015184526001600160401b03909416602084015292820192909252925090509250929050565b5f811561371457600e546040516370a0823160e01b81523060048201526001600160a01b03909116906370a0823190602401602060405180830381865afa1580156136ce573d5f5f3e3d5ffd5b505050506040513d601f19601f820116820180604052508101906136f29190614d45565b9050805f0361371457604051631775123760e01b815260040160405180910390fd5b919050565b825182108061372b5750808360200151115b1561253c5782516020840151604051634f3ec0d360e01b81526004810192909252602482018490526044820152606481018290526084016112bd565b831561377857613778858386613abc565b8284101561378d5761378d8582868603613abc565b5050505050565b83156137a4576137a48285613af7565b828410156137b8576137b881858503613af7565b50505050565b5f546001600160a01b03163314611b435760405163118cdaa760e01b81523360048201526024016112bd565b5f80546001600160a01b038381166001600160a01b0319831681178455604051919092169283917f8be0079c531659141344cd1fd0a4f28419497f9722a3daafe3b4186f6b6457e09190a35050565b5f5f826001600160401b0316118061220b5750604051600162842fc360e01b031981526001600160a01b0384169063ff7bd03d9061387b908790600401614d5c565b602060405180830381865afa158015613896573d5f5f3e3d5ffd5b505050506040513d601f19601f8201168201806040525081019061220b919061470a565b6001600160a01b0384165f90815260026020908152604080832063ffffffff87168452825280832085845282528083206001600160401b03851684529091529020541515949350505050565b6001600160a01b03831661391e5761253c8282613af7565b61253c838383613abc565b5f6001600160401b03821661394460608601604087016145bc565b6001600160401b0316118061220b57506001600160a01b0383165f908152600260209081526040822090829061397c908801886140b3565b63ffffffff1663ffffffff1681526020019081526020015f205f866020013581526020019081526020015f205f8660400160208101906139bc91906145bc565b6001600160401b0316815260208101919091526040015f20541415949350505050565b806139fd576040516304df7fdb60e11b815260040160405180910390fd5b6001600160a01b039094165f90815260026020908152604080832063ffffffff90961683529481528482209382529283528381206001600160401b03909216815291522055565b5f85856001600160a01b03861660405160c09390931b6001600160c01b031916602084015260e091821b6001600160e01b03199081166028850152602c8401919091529085901b16604c8201526050810183905260700160405160208183030381529060405280519060200120905095945050505050565b6001600160a01b038216613ae3576040516306b7a93160e41b815260040160405180910390fd5b61253c6001600160a01b0384168383613ba0565b6001600160a01b038216613b1e576040516306b7a93160e41b815260040160405180910390fd5b5f826001600160a01b0316826040515f6040518083038185875af1925050503d805f8114613b67576040519150601f19603f3d011682016040523d82523d5f602084013e613b6c565b606091505b505090508061253c57604051631196f20d60e21b81526001600160a01b0384166004820152602481018390526044016112bd565b604080516001600160a01b03841660248201526044808201849052825180830390910181526064909101909152602080820180516001600160e01b031663a9059cbb60e01b178152825161253c93879390925f9283929183919082885af180613c0e576040513d5f823e3d81fd5b50505f513d91508115613c25578060011415613c32565b6001600160a01b0384163b155b156137b857604051635274afe760e01b81526001600160a01b03851660048201526024016112bd565b60405180606001604052805f81526020015f6001600160401b03168152602001613c9660405180604001604052805f81526020015f81525090565b905290565b5f60608284031215613cab575f5ffd5b50919050565b80356001600160a01b0381168114613714575f5ffd5b5f5f83601f840112613cd7575f5ffd5b5081356001600160401b03811115613ced575f5ffd5b60208301915083602082850101111561142c575f5ffd5b5f5f5f5f5f5f5f60e0888a031215613d1a575f5ffd5b613d248989613c9b565b9650613d3260608901613cb1565b95506080880135945060a08801356001600160401b03811115613d53575f5ffd5b613d5f8a828b01613cc7565b90955093505060c08801356001600160401b03811115613d7d575f5ffd5b613d898a828b01613cc7565b989b979a50959850939692959293505050565b803563ffffffff81168114613714575f5ffd5b5f5f5f5f60808587031215613dc2575f5ffd5b613dcb85613cb1565b9350613dd960208601613d9c565b9250613de760408601613cb1565b9396929550929360600135925050565b5f5f60408385031215613e08575f5ffd5b82356001600160401b03811115613e1d575f5ffd5b830160a08186031215613e2e575f5ffd5b9150613e3c60208401613cb1565b90509250929050565b5f608082019050825182526001600160401b0360208401511660208301526040830151613e7f604084018280518252602090810151910152565b5092915050565b5f5f5f5f5f60c08688031215613e9a575f5ffd5b613ea386613cb1565b9450613eb28760208801613c9b565b93506080860135925060a08601356001600160401b03811115613ed3575f5ffd5b613edf88828901613cc7565b969995985093965092949392505050565b5f5f5f5f60808587031215613f03575f5ffd5b613f0c85613cb1565b9350613f1a60208601613cb1565b9250613f2860408601613d9c565b9150613f3660608601613d9c565b905092959194509250565b5f81518084528060208401602086015e5f602082860101526020601f19601f83011685010191505092915050565b602081525f611c926020830184613f41565b80356001600160401b0381168114613714575f5ffd5b5f5f5f5f5f60a08688031215613fab575f5ffd5b613fb486613cb1565b9450613fc260208701613d9c565b935060408601359250613fd760608701613f81565b949793965091946080013592915050565b803561ffff81168114613714575f5ffd5b5f5f5f5f6080858703121561400c575f5ffd5b61401585613cb1565b935061402360208601613cb1565b925060408501359150613f3660608601613fe8565b5f5f60408385031215614049575f5ffd5b61405283613cb1565b9150613e3c60208401613d9c565b5f60208284031215614070575f5ffd5b611c9282613cb1565b5f5f5f6060848603121561408b575f5ffd5b61409484613cb1565b92506140a260208501613d9c565b929592945050506040919091013590565b5f602082840312156140c3575f5ffd5b611c9282613d9c565b5f5f5f5f5f5f5f5f5f5f5f5f6101208d8f0312156140e8575f5ffd5b6140f18d613cb1565b9b506140ff60208e01613cb1565b9a5060408d0135995061411460608e01613fe8565b985060808d0135975060a08d013596506001600160401b0360c08e0135111561413b575f5ffd5b61414b8e60c08f01358f01613cc7565b90965094506001600160401b0360e08e01351115614167575f5ffd5b6141778e60e08f01358f01613cc7565b90945092506001600160401b036101008e01351115614194575f5ffd5b6141a58e6101008f01358f01613cc7565b81935080925050509295989b509295989b509295989b565b5f5f5f5f5f5f5f5f5f5f5f6101408c8e0312156141d8575f5ffd5b6141e28d8d613c9b565b9a506141f060608d01613cb1565b995060808c0135985060a08c0135975060c08c0135965060e08c01356001600160401b0381111561421f575f5ffd5b61422b8e828f01613cc7565b9097509550506101008c01356001600160401b0381111561424a575f5ffd5b6142568e828f01613cc7565b9095509350506101208c01356001600160401b03811115614275575f5ffd5b6142818e828f01613cc7565b915080935050809150509295989b509295989b9093969950565b5f5f5f5f606085870312156142ae575f5ffd5b6142b785613cb1565b93506142c560208601613cb1565b925060408501356001600160401b038111156142df575f5ffd5b8501601f810187136142ef575f5ffd5b80356001600160401b03811115614304575f5ffd5b8760208260051b8401011115614318575f5ffd5b949793965060200194505050565b5f5f5f5f5f6080868803121561433a575f5ffd5b61434386613cb1565b94506020860135935061435860408701613fe8565b925060608601356001600160401b03811115613ed3575f5ffd5b5f5f60808385031215614383575f5ffd5b61438d8484613c9b565b9150613e3c60608401613cb1565b602080825282518282018190525f918401906040840190835b818110156143db5783516001600160a01b03168352602093840193909201916001016143b4565b509095945050505050565b5f5f5f5f5f5f5f5f60c0898b0312156143fd575f5ffd5b61440689613cb1565b975061441460208a01613cb1565b96506040890135955061442960608a01613fe8565b945060808901356001600160401b03811115614443575f5ffd5b61444f8b828c01613cc7565b90955093505060a08901356001600160401b0381111561446d575f5ffd5b6144798b828c01613cc7565b999c989b5096995094979396929594505050565b5f5f5f6060848603121561449f575f5ffd5b6144a884613cb1565b92506144b660208501613d9c565b91506144c460408501613cb1565b90509250925092565b5f5f5f606084860312156144df575f5ffd5b6144e884613d9c565b92506140a260208501613cb1565b5f5f5f60608486031215614508575f5ffd5b6144e884613cb1565b5f5f5f60a08486031215614523575f5ffd5b61452d8585613c9b565b925061453b60608501613cb1565b929592945050506080919091013590565b5f5f6040838503121561455d575f5ffd5b613e2e83613d9c565b5f5f5f5f60808587031215614579575f5ffd5b61458285613cb1565b935061459060208601613d9c565b925060408501359150613f3660608601613f81565b8151815260208083015190820152604081016115de565b5f602082840312156145cc575f5ffd5b611c9282613f81565b838152818360208301375f910160200190815292915050565b63ffffffff6145fc82613d9c565b168252602081810135908301526001600160401b0361461d60408301613f81565b1660408301525050565b81835281816020850137505f828201602090810191909152601f909101601f19169091010190565b61465981896145ee565b86606082015260e060808201525f61467560e083018789614627565b6001600160a01b03861660a084015282810360c0840152614697818587614627565b9a9950505050505050505050565b608081016146b382856145ee565b6001600160a01b039290921660609190910152919050565b634e487b7160e01b5f52602160045260245ffd5b5f602082840312156146ef575f5ffd5b815160038110611c92575f5ffd5b80151581146131d7575f5ffd5b5f6020828403121561471a575f5ffd5b8151611c92816146fd565b6001600160a01b03948516815263ffffffff93909316602084015292166040820152606081019190915260800190565b5f60208284031215614765575f5ffd5b8135611c92816146fd565b634e487b7160e01b5f52604160045260245ffd5b5f82601f830112614793575f5ffd5b81516001600160401b038111156147ac576147ac614770565b604051601f8201601f19908116603f011681016001600160401b03811182821017156147da576147da614770565b6040528181528382016020018510156147f1575f5ffd5b8160208501602083015e5f918101602001919091529392505050565b5f6020828403121561481d575f5ffd5b81516001600160401b03811115614832575f5ffd5b61220b84828501614784565b63ffffffff95909516855260208501939093526001600160a01b039190911660408401526001600160401b03166060830152608082015260a00190565b8a815261ffff8a16602082015288604082015287606082015260e060808201525f6148aa60e08301888a614627565b82810360a08401526148bd818789614627565b905082810360c08401526148d2818587614627565b9d9c50505050505050505050505050565b634e487b7160e01b5f52601160045260245ffd5b808201808211156115de576115de6148e3565b614914818c6145ee565b8960608201528860808201528760a082015261012060c08201525f61493e6101208301888a614627565b82810360e0840152614951818789614627565b90508281036101008401526148d2818587614627565b6001600160a01b038416815260406020820181905281018290525f6060600584901b830181019083018583605e1936839003015b87821015614a5157868503605f1901845282358181126149b9575f5ffd5b890163ffffffff6149c982613d9c565b16865263ffffffff6149dd60208301613d9c565b1660208701526040810135601e198236030181126149f9575f5ffd5b016020810190356001600160401b03811115614a13575f5ffd5b803603821315614a21575f5ffd5b60606040880152614a36606088018284614627565b9650505060208301925060208401935060018201915061499b565b509298975050505050505050565b818382375f9101908152919050565b6001600160a01b038781168252861660208201526040810185905261ffff8416606082015260a0608082018190525f90614aab9083018486614627565b98975050505050505050565b60018060a01b038816815286602082015260a060408201525f614ade60a083018789614627565b6001600160a01b03861660608401528281036080840152614697818587614627565b63ffffffff9390931683526001600160a01b03919091166020830152604082015260600190565b60a08101614b3582866145ee565b6001600160a01b0393909316606082015260800152919050565b6001600160401b0381811683821601908111156115de576115de6148e3565b5f5f8335601e19843603018112614b83575f5ffd5b8301803591506001600160401b03821115614b9c575f5ffd5b60200191503681900382131561142c575f5ffd5b606080825285516001600160401b031682820152602086015163ffffffff16608083015260408601516001600160a01b031660a08301528501515f90614bfe60c084018263ffffffff169052565b50608086015160e083015260a086015161010083015260c086015160e0610120840152614c2f610140840182613f41565b90508281036020840152614c44818688614627565b915050612700604083018415159052565b5f60408284031215614c65575f5ffd5b604080519081016001600160401b0381118282101715614c8757614c87614770565b604052825181526020928301519281019290925250919050565b5f60408284031215614cb1575f5ffd5b611c928383614c55565b5f5f60608385031215614ccc575f5ffd5b614cd68484614c55565b915060408301516001600160401b03811115614cf0575f5ffd5b614cfc85828601614784565b9150509250929050565b606081525f614d186060830187613f41565b8281036020840152614d2b818688614627565b91505060018060a01b038316604083015295945050505050565b5f60208284031215614d55575f5ffd5b5051919050565b606081016115de82846145ee56fea2646970667358221220f88e6d599335a1d32e9f8c25d86fa8a376de4d3a3b93b7891dad4d83ed258f2664736f6c634300081c00336080604052348015600e575f5ffd5b506101b88061001c5f395ff3fe608060405234801561000f575f5ffd5b506004361061004a575f3560e01c806301ffc9a7146100635780631881d94d1461008b57806354fd4d501461009a5780636750cd4c146100c1575b604051632657b6c360e01b815260040160405180910390fd5b61007661007136600461010b565b6100d5565b60405190151581526020015b60405180910390f35b60026040516100829190610139565b6040805167ffffffffffffffff815260ff6020820152600291810191909152606001610082565b6100766100cf36600461015f565b50600190565b5f6001600160e01b031982166325fc096160e21b148061010557506301ffc9a760e01b6001600160e01b03198316145b92915050565b5f6020828403121561011b575f5ffd5b81356001600160e01b031981168114610132575f5ffd5b9392505050565b602081016003831061015957634e487b7160e01b5f52602160045260245ffd5b91905290565b5f6020828403121561016f575f5ffd5b813563ffffffff81168114610132575f5ffdfea264697066735822122092270bb09ea79855cecd5441931179eee821ff97585c2b8301ebde4bff57bcb364736f6c634300081c0033","linkReferences":{}},"methodIdentifiers":{"EMPTY_PAYLOAD_HASH()":"cb5026b9","NIL_PAYLOAD_HASH()":"2baf0be7","blockedLibrary()":"73318091","burn(address,uint32,bytes32,uint64,bytes32)":"40f80683","clear(address,(uint32,bytes32,uint64),bytes32,bytes)":"2a56c1b0","composeQueue(address,address,bytes32,uint16)":"35d330b0","defaultReceiveLibrary(uint32)":"6f50a803","defaultReceiveLibraryTimeout(uint32)":"6e83f5bb","defaultSendLibrary(uint32)":"f64be4c7","delegates(address)":"587cde1e","eid()":"416ecebf","getConfig(address,address,uint32,uint32)":"2b3197b9","getReceiveLibrary(address,uint32)":"402f8468","getRegisteredLibraries()":"9132e5c3","getSendContext()":"14f651a9","getSendLibrary(address,uint32)":"b96a277f","inboundNonce(address,uint32,bytes32)":"a0dd43fc","inboundPayloadHash(address,uint32,bytes32,uint64)":"c9fc7bcd","initializable((uint32,bytes32,uint64),address)":"861e1ca5","isDefaultSendLibrary(address,uint32)":"dc93c8a2","isRegisteredLibrary(address)":"dc706a62","isSendingMessage()":"79624ca9","isSupportedEid(uint32)":"6750cd4c","isValidReceiveLibrary(address,uint32,address)":"9d7f9775","lazyInboundNonce(address,uint32,bytes32)":"5b17bb70","lzCompose(address,address,bytes32,uint16,bytes,bytes)":"91d20fa1","lzComposeAlert(address,address,bytes32,uint16,uint256,uint256,bytes,bytes,bytes)":"697fe6b6","lzReceive((uint32,bytes32,uint64),address,bytes32,bytes,bytes)":"0c0c389e","lzReceiveAlert((uint32,bytes32,uint64),address,bytes32,uint256,uint256,bytes,bytes,bytes)":"6bf73fa3","lzToken()":"e4fe1d94","nativeToken()":"e1758bd8","nextGuid(address,uint32,bytes32)":"aafe5e07","nilify(address,uint32,bytes32,uint64,bytes32)":"2e80fbf3","outboundNonce(address,uint32,bytes32)":"9c6d7340","owner()":"8da5cb5b","quote((uint32,bytes32,bytes,bytes,bool),address)":"ddc28c58","receiveLibraryTimeout(address,uint32)":"ef667aa1","recoverToken(address,address,uint256)":"a7229fd9","registerLibrary(address)":"e8964e81","renounceOwnership()":"715018a6","send((uint32,bytes32,bytes,bytes,bool),address)":"2637a450","sendCompose(address,bytes32,uint16,bytes)":"7cb59012","setConfig(address,address,(uint32,uint32,bytes)[])":"6dbd9f90","setDefaultReceiveLibrary(uint32,address,uint256)":"a718531b","setDefaultReceiveLibraryTimeout(uint32,address,uint256)":"d4b4ec8f","setDefaultSendLibrary(uint32,address)":"aafea312","setDelegate(address)":"ca5eb5e1","setLzToken(address)":"c28e0eed","setReceiveLibrary(address,uint32,address,uint256)":"6a14d715","setReceiveLibraryTimeout(address,uint32,address,uint256)":"183c834f","setSendLibrary(address,uint32,address)":"9535ff30","skip(address,uint32,bytes32,uint64)":"d70b8902","transferOwnership(address)":"f2fde38b","verifiable((uint32,bytes32,uint64),address)":"c9a54a99","verify((uint32,bytes32,uint64),address,bytes32)":"a825d747"},"id":155}