{"abi":[{"type":"constructor","inputs":[],"stateMutability":"nonpayable"},{"type":"function","name":"MAX_MINT","inputs":[],"outputs":[{"name":"","type":"uint256","internalType":"uint256"}],"stateMutability":"view"},{"type":"function","name":"MAX_TOTAL_SUPPLY","inputs":[],"outputs":[{"name":"","type":"uint256","internalType":"uint256"}],"stateMutability":"view"},{"type":"function","name":"allowance","inputs":[{"name":"owner","type":"address","internalType":"address"},{"name":"spender","type":"address","internalType":"address"}],"outputs":[{"name":"","type":"uint256","internalType":"uint256"}],"stateMutability":"view"},{"type":"function","name":"approve","inputs":[{"name":"spender","type":"address","internalType":"address"},{"name":"value","type":"uint256","internalType":"uint256"}],"outputs":[{"name":"","type":"bool","internalType":"bool"}],"stateMutability":"nonpayable"},{"type":"function","name":"balanceOf","inputs":[{"name":"account","type":"address","internalType":"address"}],"outputs":[{"name":"","type":"uint256","internalType":"uint256"}],"stateMutability":"view"},{"type":"function","name":"burn","inputs":[{"name":"from","type":"address","internalType":"address"},{"name":"amount","type":"uint256","internalType":"uint256"}],"outputs":[],"stateMutability":"nonpayable"},{"type":"function","name":"decimals","inputs":[],"outputs":[{"name":"","type":"uint8","internalType":"uint8"}],"stateMutability":"view"},{"type":"function","name":"mint","inputs":[{"name":"to","type":"address","internalType":"address"},{"name":"amount","type":"uint256","internalType":"uint256"}],"outputs":[],"stateMutability":"nonpayable"},{"type":"function","name":"mockDecimals","inputs":[{"name":"decimals_","type":"uint8","internalType":"uint8"}],"outputs":[],"stateMutability":"nonpayable"},{"type":"function","name":"mockMinimumTotalSupply","inputs":[{"name":"totalSupply_","type":"uint256","internalType":"uint256"}],"outputs":[],"stateMutability":"nonpayable"},{"type":"function","name":"name","inputs":[],"outputs":[{"name":"","type":"string","internalType":"string"}],"stateMutability":"view"},{"type":"function","name":"symbol","inputs":[],"outputs":[{"name":"","type":"string","internalType":"string"}],"stateMutability":"view"},{"type":"function","name":"token","inputs":[],"outputs":[{"name":"","type":"address","internalType":"address"}],"stateMutability":"view"},{"type":"function","name":"totalSupply","inputs":[],"outputs":[{"name":"","type":"uint256","internalType":"uint256"}],"stateMutability":"view"},{"type":"function","name":"transfer","inputs":[{"name":"to","type":"address","internalType":"address"},{"name":"value","type":"uint256","internalType":"uint256"}],"outputs":[{"name":"","type":"bool","internalType":"bool"}],"stateMutability":"nonpayable"},{"type":"function","name":"transferFrom","inputs":[{"name":"from","type":"address","internalType":"address"},{"name":"to","type":"address","internalType":"address"},{"name":"value","type":"uint256","internalType":"uint256"}],"outputs":[{"name":"","type":"bool","internalType":"bool"}],"stateMutability":"nonpayable"},{"type":"event","name":"Approval","inputs":[{"name":"owner","type":"address","indexed":true,"internalType":"address"},{"name":"spender","type":"address","indexed":true,"internalType":"address"},{"name":"value","type":"uint256","indexed":false,"internalType":"uint256"}],"anonymous":false},{"type":"event","name":"Transfer","inputs":[{"name":"from","type":"address","indexed":true,"internalType":"address"},{"name":"to","type":"address","indexed":true,"internalType":"address"},{"name":"value","type":"uint256","indexed":false,"internalType":"uint256"}],"anonymous":false},{"type":"error","name":"ERC20InsufficientAllowance","inputs":[{"name":"spender","type":"address","internalType":"address"},{"name":"allowance","type":"uint256","internalType":"uint256"},{"name":"needed","type":"uint256","internalType":"uint256"}]},{"type":"error","name":"ERC20InsufficientBalance","inputs":[{"name":"sender","type":"address","internalType":"address"},{"name":"balance","type":"uint256","internalType":"uint256"},{"name":"needed","type":"uint256","internalType":"uint256"}]},{"type":"error","name":"ERC20InvalidApprover","inputs":[{"name":"approver","type":"address","internalType":"address"}]},{"type":"error","name":"ERC20InvalidReceiver","inputs":[{"name":"receiver","type":"address","internalType":"address"}]},{"type":"error","name":"ERC20InvalidSender","inputs":[{"name":"sender","type":"address","internalType":"address"}]},{"type":"error","name":"ERC20InvalidSpender","inputs":[{"name":"spender","type":"address","internalType":"address"}]}],"bytecode":{"object":"0x608060405234801561000f575f5ffd5b5060405180604001604052806007815260200166135bd8dad3d19560ca1b815250604051806040016040528060048152602001631353d19560e21b8152506012828281600390816100609190610125565b50600461006d8282610125565b50506005805460ff191660ff9390931692909217909155506101df915050565b634e487b7160e01b5f52604160045260245ffd5b600181811c908216806100b557607f821691505b6020821081036100d357634e487b7160e01b5f52602260045260245ffd5b50919050565b601f82111561012057805f5260205f20601f840160051c810160208510156100fe5750805b601f840160051c820191505b8181101561011d575f815560010161010a565b50505b505050565b81516001600160401b0381111561013e5761013e61008d565b6101528161014c84546100a1565b846100d9565b6020601f821160018114610184575f831561016d5750848201515b5f19600385901b1c1916600184901b17845561011d565b5f84815260208120601f198516915b828110156101b35787850151825560209485019460019092019101610193565b50848210156101d057868401515f19600387901b60f8161c191681555b50505050600190811b01905550565b610a15806101ec5f395ff3fe608060405234801561000f575f5ffd5b50600436106100fb575f3560e01c806340c10f1911610093578063a9059cbb11610063578063a9059cbb14610211578063dd62ed3e14610224578063f0292a03146101a2578063fc0c546a1461025c575f5ffd5b806340c10f19146101bb57806370a08231146101ce57806395d89b41146101f65780639dc29fac146101fe575f5ffd5b806323a41137116100ce57806323a411371461016757806323b872dd1461017a578063313ce5671461018d57806333039d3d146101a2575f5ffd5b806306fdde03146100ff578063095ea7b31461011d5780630be284a21461014057806318160ddd14610155575b5f5ffd5b61010761026a565b6040516101149190610833565b60405180910390f35b61013061012b366004610883565b6102fa565b6040519015158152602001610114565b61015361014e3660046108ab565b610313565b005b6002545b604051908152602001610114565b6101536101753660046108c2565b6103bb565b6101306101883660046108e9565b610425565b60055460405160ff9091168152602001610114565b6101596e111b0ec57e6499a1f4b1014d3f6d5960321b81565b6101536101c9366004610883565b610448565b6101596101dc366004610923565b6001600160a01b03165f9081526020819052604090205490565b6101076104c2565b61015361020c366004610883565b6104d1565b61013061021f366004610883565b6104db565b61015961023236600461093c565b6001600160a01b039182165f90815260016020908152604080832093909416825291909152205490565b604051308152602001610114565b6060600380546102799061096d565b80601f01602080910402602001604051908101604052809291908181526020018280546102a59061096d565b80156102f05780601f106102c7576101008083540402835291602001916102f0565b820191905f5260205f20905b8154815290600101906020018083116102d357829003601f168201915b5050505050905090565b5f336103078185856104e8565b60019150505b92915050565b6e111b0ec57e6499a1f4b1014d3f6d5960321b8111156103925760405162461bcd60e51b815260206004820152602f60248201527f546f74616c20737570706c79206d757374206265206c657373207468616e204d60448201526e41585f544f54414c5f535550504c5960881b60648201526084015b60405180910390fd5b6002548111156103b8576103b8306103a960025490565b6103b390846109b9565b6104fa565b50565b60328160ff16111561040f5760405162461bcd60e51b815260206004820152601d60248201527f446563696d616c73206d757374206265206c657373207468616e2035300000006044820152606401610389565b6005805460ff191660ff92909216919091179055565b5f3361043285828561052e565b61043d8585856105aa565b506001949350505050565b6e111b0ec57e6499a1f4b1014d3f6d5960321b8111156104b45760405162461bcd60e51b815260206004820152602160248201527f416d6f756e74206d757374206265206c657373207468616e204d41585f4d494e6044820152601560fa1b6064820152608401610389565b6104be82826104fa565b5050565b6060600480546102799061096d565b6104be8282610607565b5f336103078185856105aa565b6104f5838383600161063b565b505050565b6001600160a01b0382166105235760405163ec442f0560e01b81525f6004820152602401610389565b6104be5f838361070d565b6001600160a01b038381165f908152600160209081526040808320938616835292905220545f198110156105a4578181101561059657604051637dc7a0d960e11b81526001600160a01b03841660048201526024810182905260448101839052606401610389565b6105a484848484035f61063b565b50505050565b6001600160a01b0383166105d357604051634b637e8f60e11b81525f6004820152602401610389565b6001600160a01b0382166105fc5760405163ec442f0560e01b81525f6004820152602401610389565b6104f583838361070d565b6001600160a01b03821661063057604051634b637e8f60e11b81525f6004820152602401610389565b6104be825f8361070d565b6001600160a01b0384166106645760405163e602df0560e01b81525f6004820152602401610389565b6001600160a01b03831661068d57604051634a1406b160e11b81525f6004820152602401610389565b6001600160a01b038085165f90815260016020908152604080832093871683529290522082905580156105a457826001600160a01b0316846001600160a01b03167f8c5be1e5ebec7d5bd14f71427d1e84f3dd0314c0f7b2291e5b200ac8c7c3b925846040516106ff91815260200190565b60405180910390a350505050565b6001600160a01b038316610737578060025f82825461072c91906109cc565b909155506107a79050565b6001600160a01b0383165f90815260208190526040902054818110156107895760405163391434e360e21b81526001600160a01b03851660048201526024810182905260448101839052606401610389565b6001600160a01b0384165f9081526020819052604090209082900390555b6001600160a01b0382166107c3576002805482900390556107e1565b6001600160a01b0382165f9081526020819052604090208054820190555b816001600160a01b0316836001600160a01b03167fddf252ad1be2c89b69c2b068fc378daa952ba7f163c4a11628f55a4df523b3ef8360405161082691815260200190565b60405180910390a3505050565b602081525f82518060208401528060208501604085015e5f604082850101526040601f19601f83011684010191505092915050565b80356001600160a01b038116811461087e575f5ffd5b919050565b5f5f60408385031215610894575f5ffd5b61089d83610868565b946020939093013593505050565b5f602082840312156108bb575f5ffd5b5035919050565b5f602082840312156108d2575f5ffd5b813560ff811681146108e2575f5ffd5b9392505050565b5f5f5f606084860312156108fb575f5ffd5b61090484610868565b925061091260208501610868565b929592945050506040919091013590565b5f60208284031215610933575f5ffd5b6108e282610868565b5f5f6040838503121561094d575f5ffd5b61095683610868565b915061096460208401610868565b90509250929050565b600181811c9082168061098157607f821691505b60208210810361099f57634e487b7160e01b5f52602260045260245ffd5b50919050565b634e487b7160e01b5f52601160045260245ffd5b8181038181111561030d5761030d6109a5565b8082018082111561030d5761030d6109a556fea2646970667358221220a111561f810f259e9d5dfbf103b80a877bdbd7335bf36f970da9398e9d3bcc8a64736f6c634300081c0033","linkReferences":{}},"methodIdentifiers":{"MAX_MINT()":"f0292a03","MAX_TOTAL_SUPPLY()":"33039d3d","allowance(address,address)":"dd62ed3e","approve(address,uint256)":"095ea7b3","balanceOf(address)":"70a08231","burn(address,uint256)":"9dc29fac","decimals()":"313ce567","mint(address,uint256)":"40c10f19","mockDecimals(uint8)":"23a41137","mockMinimumTotalSupply(uint256)":"0be284a2","name()":"06fdde03","symbol()":"95d89b41","token()":"fc0c546a","totalSupply()":"18160ddd","transfer(address,uint256)":"a9059cbb","transferFrom(address,address,uint256)":"23b872dd"},"id":336}