{"abi":[{"type":"constructor","inputs":[{"name":"collateral","type":"address","internalType":"address"}],"stateMutability":"nonpayable"},{"type":"function","name":"COLLATERAL","inputs":[],"outputs":[{"name":"","type":"address","internalType":"address"}],"stateMutability":"view"},{"type":"function","name":"counter1","inputs":[],"outputs":[{"name":"","type":"uint256","internalType":"uint256"}],"stateMutability":"view"},{"type":"function","name":"counter2","inputs":[],"outputs":[{"name":"","type":"uint256","internalType":"uint256"}],"stateMutability":"view"},{"type":"function","name":"counter3","inputs":[],"outputs":[{"name":"","type":"uint256","internalType":"uint256"}],"stateMutability":"view"},{"type":"function","name":"distribute","inputs":[],"outputs":[],"stateMutability":"nonpayable"},{"type":"function","name":"onSlash","inputs":[{"name":"subnetwork","type":"bytes32","internalType":"bytes32"},{"name":"operator","type":"address","internalType":"address"},{"name":"","type":"uint256","internalType":"uint256"},{"name":"","type":"uint48","internalType":"uint48"}],"outputs":[],"stateMutability":"nonpayable"},{"type":"error","name":"SafeERC20FailedOperation","inputs":[{"name":"token","type":"address","internalType":"address"}]}],"bytecode":{"object":"0x60a0604052348015600e575f5ffd5b5060405161040e38038061040e833981016040819052602b91603b565b6001600160a01b03166080526066565b5f60208284031215604a575f5ffd5b81516001600160a01b0381168114605f575f5ffd5b9392505050565b60805161038361008b5f395f818160990152818161014d01526101c001526103835ff3fe608060405234801561000f575f5ffd5b5060043610610060575f3560e01c806301f7f29914610064578063065c1e031461007f57806324bbab8b14610094578063a17d256a146100d3578063e4fc6b6d146100dc578063f722ff7e146100e4575b5f5ffd5b61006c5f5481565b6040519081526020015b60405180910390f35b61009261008d3660046102b6565b6100ed565b005b6100bb7f000000000000000000000000000000000000000000000000000000000000000081565b6040516001600160a01b039091168152602001610076565b61006c60015481565b61009261012a565b61006c60025481565b5f5f81546100fa90610312565b90915550600180545f9061010d90610312565b90915550600280545f9061012090610312565b9091555050505050565b6040516370a0823160e01b81523060048201526101e79033906001600160a01b037f000000000000000000000000000000000000000000000000000000000000000016906370a0823190602401602060405180830381865afa158015610192573d5f5f3e3d5ffd5b505050506040513d601f19601f820116820180604052508101906101b69190610336565b6001600160a01b037f00000000000000000000000000000000000000000000000000000000000000001691906101e9565b565b604080516001600160a01b038416602482015260448082018490528251808303909101815260649091019091526020810180516001600160e01b031663a9059cbb60e01b17905261023b908490610240565b505050565b5f5f60205f8451602086015f885af18061025f576040513d5f823e3d81fd5b50505f513d91508115610276578060011415610283565b6001600160a01b0384163b155b156102b057604051635274afe760e01b81526001600160a01b038516600482015260240160405180910390fd5b50505050565b5f5f5f5f608085870312156102c9575f5ffd5b8435935060208501356001600160a01b03811681146102e6575f5ffd5b925060408501359150606085013565ffffffffffff81168114610307575f5ffd5b939692955090935050565b5f6001820161032f57634e487b7160e01b5f52601160045260245ffd5b5060010190565b5f60208284031215610346575f5ffd5b505191905056fea264697066735822122069dc921dd5ca75a7f9b71253987692a860fb12f7a16afb4f26d75a7ea15bf4f364736f6c634300081c0033","linkReferences":{}},"methodIdentifiers":{"COLLATERAL()":"24bbab8b","counter1()":"01f7f299","counter2()":"a17d256a","counter3()":"f722ff7e","distribute()":"e4fc6b6d","onSlash(bytes32,address,uint256,uint48)":"065c1e03"},"id":306}