{"abi":[{"type":"function","name":"decode","inputs":[{"name":"_options","type":"bytes","internalType":"bytes"}],"outputs":[{"name":"executorOptions","type":"bytes","internalType":"bytes"},{"name":"dvnOptions","type":"bytes","internalType":"bytes"}],"stateMutability":"pure"},{"type":"error","name":"LZ_ULN_InvalidLegacyType1Option","inputs":[]},{"type":"error","name":"LZ_ULN_InvalidLegacyType2Option","inputs":[]},{"type":"error","name":"LZ_ULN_InvalidWorkerId","inputs":[{"name":"workerId","type":"uint8","internalType":"uint8"}]},{"type":"error","name":"LZ_ULN_InvalidWorkerOptions","inputs":[{"name":"cursor","type":"uint256","internalType":"uint256"}]},{"type":"error","name":"LZ_ULN_UnsupportedOptionType","inputs":[{"name":"optionType","type":"uint16","internalType":"uint16"}]},{"type":"error","name":"SafeCastOverflowedUintDowncast","inputs":[{"name":"bits","type":"uint8","internalType":"uint8"},{"name":"value","type":"uint256","internalType":"uint256"}]}],"bytecode":{"object":"0x6080604052348015600e575f5ffd5b506107998061001c5f395ff3fe608060405234801561000f575f5ffd5b5060043610610029575f3560e01c8063e5c5e9a31461002d575b5f5ffd5b61004061003b366004610512565b610057565b60405161004e9291906105ae565b60405180910390f35b606080610064848461006f565b915091509250929050565b606080600283101561009b5760405163196499c760e21b81525f60048201526024015b60405180910390fd5b5f6100a960028286886105db565b6100b291610602565b60f01c90506002600219820161021157805f5b868310156101b7575f6100dd60018501858a8c6105db565b6100e69161063a565b60f81c90505f81900361010e57604051636780cfaf60e01b81525f6004820152602401610092565b8160ff165f036101205780915061015c565b8160ff168160ff161461015c57365f61013b86868c8e6105db565b9150915061014c8989868585610228565b9099509750859450919250829150505b60018401935f9061017290600301868b8d6105db565b61017b91610602565b60f01c90505f8190036101a45760405163196499c760e21b815260048101869052602401610092565b8060020161ffff168501945050506100c5565b8287146101da5760405163196499c760e21b815260048101849052602401610092565b600287111561020a57365f6101f185858b8d6105db565b915091506102028888858585610228565b909850965050505b505061021f565b61021c828787610345565b93505b50509250929050565b6060805f1960ff8616016102a3578651156102665786848460405160200161025293929190610670565b60405160208183030381529060405261029c565b83838080601f0160208091040260200160405190810160405280939291908181526020018383808284375f920191909152505050505b965061033a565b60011960ff86160161031c578551156102df578584846040516020016102cb93929190610670565b604051602081830303815290604052610315565b83838080601f0160208091040260200160405190810160405280939291908181526020018383808284375f920191909152505050505b955061033a565b604051636780cfaf60e01b815260ff86166004820152602401610092565b509495939450505050565b60605f1961ffff8516016103e35760228214610374576040516301b8ca5560e31b815260040160405180910390fd5b5f6103946103866022600286886105db565b61038f91610694565b6104d2565b604051600160f81b60208201819052601160f01b602183015260238201526001600160801b0319608083901b1660248201529091506034016040516020818303038152906040529150506104cb565b60011961ffff8516016104ac576042821115806104005750606282115b1561041e576040516360493e2b60e11b815260040160405180910390fd5b5f6104306103866022600286886105db565b90505f6104446103866042602287896105db565b90505f6041198501610459866042818a6105db565b61046291610694565b60405160086020938403029190911c9250610493916001916011918391889183916031916002918b918b91016106b2565b60405160208183030381529060405293505050506104cb565b604051630417051360e41b815261ffff85166004820152602401610092565b9392505050565b5f6fffffffffffffffffffffffffffffffff82111561050e576040516306dfcc6560e41b81526080600482015260248101839052604401610092565b5090565b5f5f60208385031215610523575f5ffd5b823567ffffffffffffffff811115610539575f5ffd5b8301601f81018513610549575f5ffd5b803567ffffffffffffffff81111561055f575f5ffd5b856020828401011115610570575f5ffd5b6020919091019590945092505050565b5f81518084528060208401602086015e5f602082860101526020601f19601f83011685010191505092915050565b604081525f6105c06040830185610580565b82810360208401526105d28185610580565b95945050505050565b5f5f858511156105e9575f5ffd5b838611156105f5575f5ffd5b5050820193919092039150565b80356001600160f01b03198116906002841015610633576001600160f01b0319600285900360031b81901b82161691505b5092915050565b80356001600160f81b03198116906001841015610633576001600160f81b031960019490940360031b84901b1690921692915050565b5f84518060208701845e5f908301908152838582375f930192835250909392505050565b803560208310156106ac575f19602084900360031b1b165b92915050565b60f88a811b6001600160f81b0319908116835260f08b901b6001600160f01b031916600184015289821b81166003840152608089901b6001600160801b03191660048401529087901b16601482015261071a601582018660f01b6001600160f01b0319169052565b610733601782018560f81b6001600160f81b0319169052565b61074c601882018460801b6001600160801b0319169052565b60288101919091526048019897505050505050505056fea2646970667358221220dcdf21823b8145b61a86083134b3efd21cfcfb81f98320c5075edcad0bfd963564736f6c634300081c0033","linkReferences":{}},"methodIdentifiers":{"decode(bytes)":"e5c5e9a3"},"id":150}