{"abi":[{"type":"function","name":"SYMBIOTIC_CONFIG_PATH_FROM_PROJECT_ROOT","inputs":[],"outputs":[{"name":"","type":"string","internalType":"string"}],"stateMutability":"view"}],"bytecode":{"object":"0x6080604052348015600e575f5ffd5b5060dc80601a5f395ff3fe6080604052348015600e575f5ffd5b50600436106026575f3560e01c8063772e99a714602a575b5f5ffd5b605d6040518060400160405280601581526020017431b7b73334b397b9bcb6b134b7ba34b1973539b7b760591b81525081565b604051606891906071565b60405180910390f35b602081525f82518060208401528060208501604085015e5f604082850101526040601f19601f8301168401019150509291505056fea2646970667358221220134464239f52972bac2f0920d9cc20873093da90e8ae6444255c3bf174cab85d64736f6c634300081c0033","linkReferences":{}},"methodIdentifiers":{"SYMBIOTIC_CONFIG_PATH_FROM_PROJECT_ROOT()":"772e99a7"},"id":20}