{"abi":[{"type":"constructor","inputs":[{"name":"_vault","type":"address","internalType":"address"}],"stateMutability":"nonpayable"},{"type":"function","name":"available_deposit_limit","inputs":[{"name":"receiver","type":"address","internalType":"address"}],"outputs":[{"name":"limit","type":"uint256","internalType":"uint256"}],"stateMutability":"view"},{"type":"function","name":"available_withdraw_limit","inputs":[{"name":"owner","type":"address","internalType":"address"},{"name":"","type":"uint256","internalType":"uint256"},{"name":"","type":"address[]","internalType":"address[]"}],"outputs":[{"name":"limit","type":"uint256","internalType":"uint256"}],"stateMutability":"view"},{"type":"function","name":"vault","inputs":[],"outputs":[{"name":"","type":"address","internalType":"address"}],"stateMutability":"view"}],"bytecode":{"object":"0x60a0604052348015600e575f5ffd5b506040516102c03803806102c0833981016040819052602b91603b565b6001600160a01b03166080526066565b5f60208284031215604a575f5ffd5b81516001600160a01b0381168114605f575f5ffd5b9392505050565b60805161023661008a5f395f818160810152818160be015261010101526102365ff3fe608060405234801561000f575f5ffd5b506004361061003f575f3560e01c8063320704ed14610043578063c36a0eee14610069578063fbfa77cf1461007c575b5f5ffd5b61005661005136600461015a565b6100bb565b6040519081526020015b60405180910390f35b61005661007736600461017a565b6100fe565b6100a37f000000000000000000000000000000000000000000000000000000000000000081565b6040516001600160a01b039091168152602001610060565b5f7f00000000000000000000000000000000000000000000000000000000000000006001600160a01b0316826001600160a01b0316036100f957505f195b919050565b5f7f00000000000000000000000000000000000000000000000000000000000000006001600160a01b0316856001600160a01b03160361013c57505f195b949350505050565b80356001600160a01b03811681146100f9575f5ffd5b5f6020828403121561016a575f5ffd5b61017382610144565b9392505050565b5f5f5f5f6060858703121561018d575f5ffd5b61019685610144565b935060208501359250604085013567ffffffffffffffff8111156101b8575f5ffd5b8501601f810187136101c8575f5ffd5b803567ffffffffffffffff8111156101de575f5ffd5b8760208260051b84010111156101f2575f5ffd5b94979396506020019450505056fea26469706673582212201fd3507d68d6c1303c8772a0502ea0e1306c05a0d2aed3f8228e1c261fe5adfe64736f6c634300081c0033","linkReferences":{}},"methodIdentifiers":{"available_deposit_limit(address)":"320704ed","available_withdraw_limit(address,uint256,address[])":"c36a0eee","vault()":"fbfa77cf"},"id":25}