{"abi":[{"type":"function","name":"LZ_CONFIG_PATH_FROM_PROJECT_ROOT","inputs":[],"outputs":[{"name":"","type":"string","internalType":"string"}],"stateMutability":"view"},{"type":"function","name":"addressToBytes32","inputs":[{"name":"_addr","type":"address","internalType":"address"}],"outputs":[{"name":"","type":"bytes32","internalType":"bytes32"}],"stateMutability":"pure"}],"bytecode":{"object":"0x6080604052348015600e575f5ffd5b506101568061001c5f395ff3fe608060405234801561000f575f5ffd5b5060043610610034575f3560e01c80637190a5691461003857806382c947b714610056575b5f5ffd5b61004061007e565b60405161004d919061009a565b60405180910390f35b6100706100643660046100cf565b6001600160a01b031690565b60405190815260200161004d565b6040518060600160405280602481526020016100fd6024913981565b602081525f82518060208401528060208501604085015e5f604082850101526040601f19601f83011684010191505092915050565b5f602082840312156100df575f5ffd5b81356001600160a01b03811681146100f5575f5ffd5b939250505056fe636f6e6669672f6c617965727a65726f2d76322d6465706c6f796d656e74732e6a736f6ea26469706673582212206e6ccded767154f612af32d6d1f2d8e79202dc18c937e9ee6bf118396ed9dbcb64736f6c634300081c0033","linkReferences":{}},"methodIdentifiers":{"LZ_CONFIG_PATH_FROM_PROJECT_ROOT()":"7190a569","addressToBytes32(address)":"82c947b7"},"id":18}