{"abi":[{"type":"constructor","inputs":[],"stateMutability":"nonpayable"},{"type":"function","name":"DOMAIN_SEPARATOR","inputs":[],"outputs":[{"name":"","type":"bytes32","internalType":"bytes32"}],"stateMutability":"view"},{"type":"function","name":"UPGRADE_INTERFACE_VERSION","inputs":[],"outputs":[{"name":"","type":"string","internalType":"string"}],"stateMutability":"view"},{"type":"function","name":"allowance","inputs":[{"name":"owner","type":"address","internalType":"address"},{"name":"spender","type":"address","internalType":"address"}],"outputs":[{"name":"","type":"uint256","internalType":"uint256"}],"stateMutability":"view"},{"type":"function","name":"approve","inputs":[{"name":"spender","type":"address","internalType":"address"},{"name":"value","type":"uint256","internalType":"uint256"}],"outputs":[{"name":"","type":"bool","internalType":"bool"}],"stateMutability":"nonpayable"},{"type":"function","name":"asset","inputs":[],"outputs":[{"name":"","type":"address","internalType":"address"}],"stateMutability":"view"},{"type":"function","name":"balanceOf","inputs":[{"name":"account","type":"address","internalType":"address"}],"outputs":[{"name":"","type":"uint256","internalType":"uint256"}],"stateMutability":"view"},{"type":"function","name":"convertToAssets","inputs":[{"name":"shares","type":"uint256","internalType":"uint256"}],"outputs":[{"name":"","type":"uint256","internalType":"uint256"}],"stateMutability":"view"},{"type":"function","name":"convertToShares","inputs":[{"name":"assets","type":"uint256","internalType":"uint256"}],"outputs":[{"name":"","type":"uint256","internalType":"uint256"}],"stateMutability":"view"},{"type":"function","name":"decimals","inputs":[],"outputs":[{"name":"_decimals","type":"uint8","internalType":"uint8"}],"stateMutability":"view"},{"type":"function","name":"deposit","inputs":[{"name":"assets","type":"uint256","internalType":"uint256"},{"name":"receiver","type":"address","internalType":"address"}],"outputs":[{"name":"","type":"uint256","internalType":"uint256"}],"stateMutability":"nonpayable"},{"type":"function","name":"eip712Domain","inputs":[],"outputs":[{"name":"fields","type":"bytes1","internalType":"bytes1"},{"name":"name","type":"string","internalType":"string"},{"name":"version","type":"string","internalType":"string"},{"name":"chainId","type":"uint256","internalType":"uint256"},{"name":"verifyingContract","type":"address","internalType":"address"},{"name":"salt","type":"bytes32","internalType":"bytes32"},{"name":"extensions","type":"uint256[]","internalType":"uint256[]"}],"stateMutability":"view"},{"type":"function","name":"initialize","inputs":[{"name":"_accessControl","type":"address","internalType":"address"},{"name":"_asset","type":"address","internalType":"address"},{"name":"_lockDuration","type":"uint256","internalType":"uint256"}],"outputs":[],"stateMutability":"nonpayable"},{"type":"function","name":"lastNotify","inputs":[],"outputs":[{"name":"_lastNotify","type":"uint256","internalType":"uint256"}],"stateMutability":"view"},{"type":"function","name":"lockDuration","inputs":[],"outputs":[{"name":"_lockDuration","type":"uint256","internalType":"uint256"}],"stateMutability":"view"},{"type":"function","name":"lockedProfit","inputs":[],"outputs":[{"name":"locked","type":"uint256","internalType":"uint256"}],"stateMutability":"view"},{"type":"function","name":"maxDeposit","inputs":[{"name":"","type":"address","internalType":"address"}],"outputs":[{"name":"","type":"uint256","internalType":"uint256"}],"stateMutability":"view"},{"type":"function","name":"maxMint","inputs":[{"name":"","type":"address","internalType":"address"}],"outputs":[{"name":"","type":"uint256","internalType":"uint256"}],"stateMutability":"view"},{"type":"function","name":"maxRedeem","inputs":[{"name":"owner","type":"address","internalType":"address"}],"outputs":[{"name":"","type":"uint256","internalType":"uint256"}],"stateMutability":"view"},{"type":"function","name":"maxWithdraw","inputs":[{"name":"owner","type":"address","internalType":"address"}],"outputs":[{"name":"","type":"uint256","internalType":"uint256"}],"stateMutability":"view"},{"type":"function","name":"mint","inputs":[{"name":"shares","type":"uint256","internalType":"uint256"},{"name":"receiver","type":"address","internalType":"address"}],"outputs":[{"name":"","type":"uint256","internalType":"uint256"}],"stateMutability":"nonpayable"},{"type":"function","name":"name","inputs":[],"outputs":[{"name":"","type":"string","internalType":"string"}],"stateMutability":"view"},{"type":"function","name":"nonces","inputs":[{"name":"owner","type":"address","internalType":"address"}],"outputs":[{"name":"","type":"uint256","internalType":"uint256"}],"stateMutability":"view"},{"type":"function","name":"notify","inputs":[],"outputs":[],"stateMutability":"nonpayable"},{"type":"function","name":"permit","inputs":[{"name":"owner","type":"address","internalType":"address"},{"name":"spender","type":"address","internalType":"address"},{"name":"value","type":"uint256","internalType":"uint256"},{"name":"deadline","type":"uint256","internalType":"uint256"},{"name":"v","type":"uint8","internalType":"uint8"},{"name":"r","type":"bytes32","internalType":"bytes32"},{"name":"s","type":"bytes32","internalType":"bytes32"}],"outputs":[],"stateMutability":"nonpayable"},{"type":"function","name":"previewDeposit","inputs":[{"name":"assets","type":"uint256","internalType":"uint256"}],"outputs":[{"name":"","type":"uint256","internalType":"uint256"}],"stateMutability":"view"},{"type":"function","name":"previewMint","inputs":[{"name":"shares","type":"uint256","internalType":"uint256"}],"outputs":[{"name":"","type":"uint256","internalType":"uint256"}],"stateMutability":"view"},{"type":"function","name":"previewRedeem","inputs":[{"name":"shares","type":"uint256","internalType":"uint256"}],"outputs":[{"name":"","type":"uint256","internalType":"uint256"}],"stateMutability":"view"},{"type":"function","name":"previewWithdraw","inputs":[{"name":"assets","type":"uint256","internalType":"uint256"}],"outputs":[{"name":"","type":"uint256","internalType":"uint256"}],"stateMutability":"view"},{"type":"function","name":"proxiableUUID","inputs":[],"outputs":[{"name":"","type":"bytes32","internalType":"bytes32"}],"stateMutability":"view"},{"type":"function","name":"redeem","inputs":[{"name":"shares","type":"uint256","internalType":"uint256"},{"name":"receiver","type":"address","internalType":"address"},{"name":"owner","type":"address","internalType":"address"}],"outputs":[{"name":"","type":"uint256","internalType":"uint256"}],"stateMutability":"nonpayable"},{"type":"function","name":"symbol","inputs":[],"outputs":[{"name":"","type":"string","internalType":"string"}],"stateMutability":"view"},{"type":"function","name":"totalAssets","inputs":[],"outputs":[{"name":"total","type":"uint256","internalType":"uint256"}],"stateMutability":"view"},{"type":"function","name":"totalSupply","inputs":[],"outputs":[{"name":"","type":"uint256","internalType":"uint256"}],"stateMutability":"view"},{"type":"function","name":"transfer","inputs":[{"name":"to","type":"address","internalType":"address"},{"name":"value","type":"uint256","internalType":"uint256"}],"outputs":[{"name":"","type":"bool","internalType":"bool"}],"stateMutability":"nonpayable"},{"type":"function","name":"transferFrom","inputs":[{"name":"from","type":"address","internalType":"address"},{"name":"to","type":"address","internalType":"address"},{"name":"value","type":"uint256","internalType":"uint256"}],"outputs":[{"name":"","type":"bool","internalType":"bool"}],"stateMutability":"nonpayable"},{"type":"function","name":"upgradeToAndCall","inputs":[{"name":"newImplementation","type":"address","internalType":"address"},{"name":"data","type":"bytes","internalType":"bytes"}],"outputs":[],"stateMutability":"payable"},{"type":"function","name":"withdraw","inputs":[{"name":"assets","type":"uint256","internalType":"uint256"},{"name":"receiver","type":"address","internalType":"address"},{"name":"owner","type":"address","internalType":"address"}],"outputs":[{"name":"","type":"uint256","internalType":"uint256"}],"stateMutability":"nonpayable"},{"type":"event","name":"Approval","inputs":[{"name":"owner","type":"address","indexed":true,"internalType":"address"},{"name":"spender","type":"address","indexed":true,"internalType":"address"},{"name":"value","type":"uint256","indexed":false,"internalType":"uint256"}],"anonymous":false},{"type":"event","name":"Deposit","inputs":[{"name":"sender","type":"address","indexed":true,"internalType":"address"},{"name":"owner","type":"address","indexed":true,"internalType":"address"},{"name":"assets","type":"uint256","indexed":false,"internalType":"uint256"},{"name":"shares","type":"uint256","indexed":false,"internalType":"uint256"}],"anonymous":false},{"type":"event","name":"EIP712DomainChanged","inputs":[],"anonymous":false},{"type":"event","name":"Initialized","inputs":[{"name":"version","type":"uint64","indexed":false,"internalType":"uint64"}],"anonymous":false},{"type":"event","name":"Notify","inputs":[{"name":"caller","type":"address","indexed":true,"internalType":"address"},{"name":"amount","type":"uint256","indexed":false,"internalType":"uint256"}],"anonymous":false},{"type":"event","name":"Transfer","inputs":[{"name":"from","type":"address","indexed":true,"internalType":"address"},{"name":"to","type":"address","indexed":true,"internalType":"address"},{"name":"value","type":"uint256","indexed":false,"internalType":"uint256"}],"anonymous":false},{"type":"event","name":"Upgraded","inputs":[{"name":"implementation","type":"address","indexed":true,"internalType":"address"}],"anonymous":false},{"type":"event","name":"Withdraw","inputs":[{"name":"sender","type":"address","indexed":true,"internalType":"address"},{"name":"receiver","type":"address","indexed":true,"internalType":"address"},{"name":"owner","type":"address","indexed":true,"internalType":"address"},{"name":"assets","type":"uint256","indexed":false,"internalType":"uint256"},{"name":"shares","type":"uint256","indexed":false,"internalType":"uint256"}],"anonymous":false},{"type":"error","name":"AccessDenied","inputs":[]},{"type":"error","name":"AddressEmptyCode","inputs":[{"name":"target","type":"address","internalType":"address"}]},{"type":"error","name":"ECDSAInvalidSignature","inputs":[]},{"type":"error","name":"ECDSAInvalidSignatureLength","inputs":[{"name":"length","type":"uint256","internalType":"uint256"}]},{"type":"error","name":"ECDSAInvalidSignatureS","inputs":[{"name":"s","type":"bytes32","internalType":"bytes32"}]},{"type":"error","name":"ERC1967InvalidImplementation","inputs":[{"name":"implementation","type":"address","internalType":"address"}]},{"type":"error","name":"ERC1967NonPayable","inputs":[]},{"type":"error","name":"ERC20InsufficientAllowance","inputs":[{"name":"spender","type":"address","internalType":"address"},{"name":"allowance","type":"uint256","internalType":"uint256"},{"name":"needed","type":"uint256","internalType":"uint256"}]},{"type":"error","name":"ERC20InsufficientBalance","inputs":[{"name":"sender","type":"address","internalType":"address"},{"name":"balance","type":"uint256","internalType":"uint256"},{"name":"needed","type":"uint256","internalType":"uint256"}]},{"type":"error","name":"ERC20InvalidApprover","inputs":[{"name":"approver","type":"address","internalType":"address"}]},{"type":"error","name":"ERC20InvalidReceiver","inputs":[{"name":"receiver","type":"address","internalType":"address"}]},{"type":"error","name":"ERC20InvalidSender","inputs":[{"name":"sender","type":"address","internalType":"address"}]},{"type":"error","name":"ERC20InvalidSpender","inputs":[{"name":"spender","type":"address","internalType":"address"}]},{"type":"error","name":"ERC2612ExpiredSignature","inputs":[{"name":"deadline","type":"uint256","internalType":"uint256"}]},{"type":"error","name":"ERC2612InvalidSigner","inputs":[{"name":"signer","type":"address","internalType":"address"},{"name":"owner","type":"address","internalType":"address"}]},{"type":"error","name":"ERC4626ExceededMaxDeposit","inputs":[{"name":"receiver","type":"address","internalType":"address"},{"name":"assets","type":"uint256","internalType":"uint256"},{"name":"max","type":"uint256","internalType":"uint256"}]},{"type":"error","name":"ERC4626ExceededMaxMint","inputs":[{"name":"receiver","type":"address","internalType":"address"},{"name":"shares","type":"uint256","internalType":"uint256"},{"name":"max","type":"uint256","internalType":"uint256"}]},{"type":"error","name":"ERC4626ExceededMaxRedeem","inputs":[{"name":"owner","type":"address","internalType":"address"},{"name":"shares","type":"uint256","internalType":"uint256"},{"name":"max","type":"uint256","internalType":"uint256"}]},{"type":"error","name":"ERC4626ExceededMaxWithdraw","inputs":[{"name":"owner","type":"address","internalType":"address"},{"name":"assets","type":"uint256","internalType":"uint256"},{"name":"max","type":"uint256","internalType":"uint256"}]},{"type":"error","name":"FailedCall","inputs":[]},{"type":"error","name":"InvalidAccountNonce","inputs":[{"name":"account","type":"address","internalType":"address"},{"name":"currentNonce","type":"uint256","internalType":"uint256"}]},{"type":"error","name":"InvalidInitialization","inputs":[]},{"type":"error","name":"NotInitializing","inputs":[]},{"type":"error","name":"SafeERC20FailedOperation","inputs":[{"name":"token","type":"address","internalType":"address"}]},{"type":"error","name":"StillVesting","inputs":[]},{"type":"error","name":"UUPSUnauthorizedCallContext","inputs":[]},{"type":"error","name":"UUPSUnsupportedProxiableUUID","inputs":[{"name":"slot","type":"bytes32","internalType":"bytes32"}]}],"bytecode":{"object":"0x60a060405230608052348015610013575f5ffd5b5061001c610021565b6100d3565b7ff0c57e16840df040f15088dc2f81fe391c3923bec73e23a9662efc9c229c6a00805468010000000000000000900460ff16156100715760405163f92ee8a960e01b815260040160405180910390fd5b80546001600160401b03908116146100d05780546001600160401b0319166001600160401b0390811782556040519081527fc7f505b2f371ae2175ee4913f4499e1f2633a7b5936321eed1cdaeb6115181d29060200160405180910390a15b50565b608051612adc6100f95f395f81816112110152818161123a015261137b0152612adc5ff3fe608060405260043610610212575f3560e01c806370a082311161011e578063b460af94116100a8578063d505accf1161006d578063d505accf146105db578063d905777e146105fa578063dd62ed3e14610619578063ef8b30f71461059d578063efe4760714610638575f5ffd5b8063b460af941461055f578063ba0876521461057e578063c63d75b6146103cb578063c6e6f5921461059d578063ce96cb77146105bc575f5ffd5b806394bf804d116100ee57806394bf804d146104be57806395d89b41146104dd578063a9059cbb146104f1578063ad3cb1cc14610510578063b3d7f6b914610540575f5ffd5b806370a08231146104455780637ecebe001461046457806384b0196e14610483578063899f5898146104aa575f5ffd5b8063313ce5671161019f57806344b813961161016f57806344b81396146103eb5780634cdad5061461027e5780634f1ef286146103ff57806352d1902d146104125780636e553f6514610426575f5ffd5b8063313ce5671461035e5780633644e5151461038457806338d52e0f14610398578063402d267d146103cb575f5ffd5b8063095ea7b3116101e5578063095ea7b31461029d5780630a28a477146102cc5780631794bb3c146102eb57806318160ddd1461030c57806323b872dd1461033f575f5ffd5b806301e1d11414610216578063045544431461023d57806306fdde031461025d57806307a2d13a1461027e575b5f5ffd5b348015610221575f5ffd5b5061022a61066b565b6040519081526020015b60405180910390f35b348015610248575f5ffd5b505f516020612a275f395f51905f525461022a565b348015610268575f5ffd5b50610271610692565b6040516102349190612295565b348015610289575f5ffd5b5061022a6102983660046122a7565b610737565b3480156102a8575f5ffd5b506102bc6102b73660046122d9565b610748565b6040519015158152602001610234565b3480156102d7575f5ffd5b5061022a6102e63660046122a7565b61075f565b3480156102f6575f5ffd5b5061030a610305366004612301565b61076b565b005b348015610317575f5ffd5b507f52c63247e1f47db19d5ce0460030c497f067ca4cebf71ba98eeadabe20bace025461022a565b34801561034a575f5ffd5b506102bc610359366004612301565b6109ba565b348015610369575f5ffd5b506103726109df565b60405160ff9091168152602001610234565b34801561038f575f5ffd5b5061022a6109e8565b3480156103a3575f5ffd5b505f516020612a875f395f51905f52546040516001600160a01b039091168152602001610234565b3480156103d6575f5ffd5b5061022a6103e536600461233b565b505f1990565b3480156103f6575f5ffd5b5061022a6109f1565b61030a61040d3660046123c0565b610a7c565b34801561041d575f5ffd5b5061022a610a9b565b348015610431575f5ffd5b5061022a61044036600461244b565b610ab6565b348015610450575f5ffd5b5061022a61045f36600461233b565b610ae7565b34801561046f575f5ffd5b5061022a61047e36600461233b565b610b17565b34801561048e575f5ffd5b50610497610b21565b6040516102349796959493929190612475565b3480156104b5575f5ffd5b5061030a610bca565b3480156104c9575f5ffd5b5061022a6104d836600461244b565b610d22565b3480156104e8575f5ffd5b50610271610d3d565b3480156104fc575f5ffd5b506102bc61050b3660046122d9565b610d7b565b34801561051b575f5ffd5b50610271604051806040016040528060058152602001640352e302e360dc1b81525081565b34801561054b575f5ffd5b5061022a61055a3660046122a7565b610d88565b34801561056a575f5ffd5b5061022a61057936600461250b565b610d94565b348015610589575f5ffd5b5061022a61059836600461250b565b610dea565b3480156105a8575f5ffd5b5061022a6105b73660046122a7565b610e37565b3480156105c7575f5ffd5b5061022a6105d636600461233b565b610e42565b3480156105e6575f5ffd5b5061030a6105f5366004612544565b610e55565b348015610605575f5ffd5b5061022a61061436600461233b565b610faa565b348015610624575f5ffd5b5061022a6106333660046125b1565b610fb4565b348015610643575f5ffd5b507fc3a6ec7b30f1d79063d00dcbb5942b226b77fe48a28f1a19018e7d1f70fd76025461022a565b5f6106746109f1565b5f516020612a075f395f51905f525461068d91906125ed565b905090565b60605f5f5160206129e75f395f51905f525b90508060030180546106b590612600565b80601f01602080910402602001604051908101604052809291908181526020018280546106e190612600565b801561072c5780601f106107035761010080835404028352916020019161072c565b820191905f5260205f20905b81548152906001019060200180831161070f57829003601f168201915b505050505091505090565b5f610742825f610ffd565b92915050565b5f33610755818585611054565b5060019392505050565b5f610742826001611066565b7ff0c57e16840df040f15088dc2f81fe391c3923bec73e23a9662efc9c229c6a008054600160401b810460ff16159067ffffffffffffffff165f811580156107b05750825b90505f8267ffffffffffffffff1660011480156107cc5750303b155b9050811580156107da575080155b156107f85760405163f92ee8a960e01b815260040160405180910390fd5b845467ffffffffffffffff19166001178555831561082257845460ff60401b1916600160401b1785555b5f876001600160a01b03166306fdde036040518163ffffffff1660e01b81526004015f60405180830381865afa15801561085e573d5f5f3e3d5ffd5b505050506040513d5f823e601f3d908101601f191682016040526108859190810190612638565b60405160200161089591906126c4565b60405160208183030381529060405290505f886001600160a01b03166395d89b416040518163ffffffff1660e01b81526004015f60405180830381865afa1580156108e2573d5f5f3e3d5ffd5b505050506040513d5f823e601f3d908101601f191682016040526109099190810190612638565b60405160200161091991906126df565b6040516020818303038152906040529050610933896110b4565b61093d82826110c8565b610946826110da565b61094f8a611105565b610957611116565b50505f516020612a275f395f51905f5286905583156109b057845460ff60401b19168555604051600181527fc7f505b2f371ae2175ee4913f4499e1f2633a7b5936321eed1cdaeb6115181d29060200160405180910390a15b5050505050505050565b5f336109c7858285611120565b6109d2858585611171565b60019150505b9392505050565b5f61068d6111ce565b5f61068d6111fd565b5f516020612a275f395f51905f52545f905f516020612a075f395f51905f52908203610a1e575f91505090565b5f816002015442610a2f91906125ed565b90505f82600301548210610a43575f610a53565b818360030154610a5391906125ed565b90508260030154818460010154610a6a91906126f5565b610a749190612720565b935050505090565b610a84611206565b610a8d826112aa565b610a9782826112b4565b5050565b5f610aa4611370565b505f516020612a675f395f51905f5290565b5f5f19610ac7565b60405180910390fd5b5f610ad185610e37565b9050610adf338587846113b9565b949350505050565b5f805f5160206129e75f395f51905f525b6001600160a01b039093165f9081526020939093525050604090205490565b5f610742826113ee565b5f60608082808083815f516020612a475f395f51905f528054909150158015610b4c57506001810154155b610b905760405162461bcd60e51b81526020600482015260156024820152741152540dcc4c8e88155b9a5b9a5d1a585b1a5e9959605a1b6044820152606401610abe565b610b98611416565b610ba0611454565b604080515f80825260208201909252600f60f81b9c939b5091995046985030975095509350915050565b5f516020612a275f395f51905f52547fc3a6ec7b30f1d79063d00dcbb5942b226b77fe48a28f1a19018e7d1f70fd7602545f516020612a075f395f51905f52914291610c169190612754565b1115610c3457604051628099ef60e11b815260040160405180910390fd5b5f610c535f516020612a875f395f51905f52546001600160a01b031690565b6040516370a0823160e01b81523060048201526001600160a01b0391909116906370a0823190602401602060405180830381865afa158015610c97573d5f5f3e3d5ffd5b505050506040513d601f19601f82011682018060405250810190610cbb9190612767565b8254909150811115610a975781545f90610cd590836125ed565b6001840181905582845542600285015560405181815290915033907f534b8c68fce1c341e67c2f4a3e2cebe2c8c749e662eb7a303cfb265e63141dec9060200160405180910390a2505050565b5f5f195f610d2f85610d88565b9050610adf338583886113b9565b7f52c63247e1f47db19d5ce0460030c497f067ca4cebf71ba98eeadabe20bace0480546060915f5160206129e75f395f51905f52916106b590612600565b5f33610755818585611171565b5f610742826001610ffd565b5f5f610d9f83610e42565b905080851115610dc857828582604051633fa733bb60e21b8152600401610abe93929190612733565b5f610dd28661075f565b9050610de1338686898561146a565b95945050505050565b5f5f610df583610faa565b905080851115610e1e57828582604051632e52afbb60e21b8152600401610abe93929190612733565b5f610e2886610737565b9050610de1338686848a61146a565b5f610742825f611066565b5f610742610e4f83610ae7565b5f610ffd565b83421115610e795760405163313c898160e11b815260048101859052602401610abe565b5f7f6e71edae12b1b97f4d1f60370fef10105fa2faae0126114a169c64845d6126c9888888610ee38c6001600160a01b03165f9081527f5ab42ced628888259c08ac98db1eb0cf702fc1501344311d8b100cd1bfe4bb006020526040902080546001810190915590565b6040805160208101969096526001600160a01b0394851690860152929091166060840152608083015260a082015260c0810186905260e0016040516020818303038152906040528051906020012090505f610f3d826114a1565b90505f610f4c828787876114cd565b9050896001600160a01b0316816001600160a01b031614610f93576040516325c0072360e11b81526001600160a01b0380831660048301528b166024820152604401610abe565b610f9e8a8a8a611054565b50505050505050505050565b5f61074282610ae7565b6001600160a01b039182165f9081527f52c63247e1f47db19d5ce0460030c497f067ca4cebf71ba98eeadabe20bace016020908152604080832093909416825291909152205490565b5f6109d861100961066b565b611014906001612754565b61101f5f600a612861565b7f52c63247e1f47db19d5ce0460030c497f067ca4cebf71ba98eeadabe20bace025461104b9190612754565b859190856114f9565b611061838383600161153b565b505050565b5f6109d861107582600a612861565b7f52c63247e1f47db19d5ce0460030c497f067ca4cebf71ba98eeadabe20bace02546110a19190612754565b6110a961066b565b61104b906001612754565b6110bc61161f565b6110c581611668565b50565b6110d061161f565b610a9782826116d8565b6110e261161f565b6110c581604051806040016040528060018152602001603160f81b815250611728565b61110d61161f565b6110c581611787565b61111e61161f565b565b5f61112b8484610fb4565b90505f1981101561116b578181101561115d57828183604051637dc7a0d960e11b8152600401610abe93929190612733565b61116b84848484035f61153b565b50505050565b6001600160a01b03831661119a57604051634b637e8f60e11b81525f6004820152602401610abe565b6001600160a01b0382166111c35760405163ec442f0560e01b81525f6004820152602401610abe565b6110618383836117d3565b5f805f516020612a875f395f51905f5290505f81546111f79190600160a01b900460ff1661286f565b91505090565b5f61068d6118f9565b306001600160a01b037f000000000000000000000000000000000000000000000000000000000000000016148061128c57507f00000000000000000000000000000000000000000000000000000000000000006001600160a01b03166112805f516020612a675f395f51905f52546001600160a01b031690565b6001600160a01b031614155b1561111e5760405163703e46dd60e11b815260040160405180910390fd5b5f610a978161196c565b816001600160a01b03166352d1902d6040518163ffffffff1660e01b8152600401602060405180830381865afa92505050801561130e575060408051601f3d908101601f1916820190925261130b91810190612767565b60015b61133657604051634c9c8ce360e01b81526001600160a01b0383166004820152602401610abe565b5f516020612a675f395f51905f52811461136657604051632a87526960e21b815260048101829052602401610abe565b6110618383611a2c565b306001600160a01b037f0000000000000000000000000000000000000000000000000000000000000000161461111e5760405163703e46dd60e11b815260040160405180910390fd5b6113c584848484611a81565b815f516020612a075f395f51905f5280545f906113e3908490612754565b909155505050505050565b5f807f5ab42ced628888259c08ac98db1eb0cf702fc1501344311d8b100cd1bfe4bb00610af8565b7fa16a46d94261c7517cc8ff89f61c0ce93598e3c849801011dee649a6a557d10280546060915f516020612a475f395f51905f52916106b590612600565b60605f5f516020612a475f395f51905f526106a4565b6114778585858585611afe565b815f516020612a075f395f51905f5280545f906114959084906125ed565b90915550505050505050565b5f6107426114ad6111fd565b8360405161190160f01b8152600281019290925260228201526042902090565b5f5f5f5f6114dd88888888611bb2565b9250925092506114ed8282611c7a565b50909695505050505050565b5f61152661150683611d32565b801561152157505f848061151c5761151c61270c565b868809115b151590565b611531868686611d5e565b610de19190612754565b5f5160206129e75f395f51905f526001600160a01b0385166115725760405163e602df0560e01b81525f6004820152602401610abe565b6001600160a01b03841661159b57604051634a1406b160e11b81525f6004820152602401610abe565b6001600160a01b038086165f9081526001830160209081526040808320938816835292905220839055811561161857836001600160a01b0316856001600160a01b03167f8c5be1e5ebec7d5bd14f71427d1e84f3dd0314c0f7b2291e5b200ac8c7c3b9258560405161160f91815260200190565b60405180910390a35b5050505050565b7ff0c57e16840df040f15088dc2f81fe391c3923bec73e23a9662efc9c229c6a0054600160401b900460ff1661111e57604051631afcd79f60e31b815260040160405180910390fd5b61167061161f565b5f516020612a875f395f51905f525f8061168984611e14565b915091508161169957601261169b565b805b83546001600160a81b031916600160a01b60ff92909216919091026001600160a01b031916176001600160a01b0394909416939093179091555050565b6116e061161f565b5f5160206129e75f395f51905f527f52c63247e1f47db19d5ce0460030c497f067ca4cebf71ba98eeadabe20bace0361171984826128cc565b506004810161116b83826128cc565b61173061161f565b5f516020612a475f395f51905f527fa16a46d94261c7517cc8ff89f61c0ce93598e3c849801011dee649a6a557d10261176984826128cc565b506003810161177883826128cc565b505f8082556001909101555050565b61178f61161f565b807fb413d65cb88f23816c329284a0d3eb15a99df7963ab7402ade4c5da22bff6b005b80546001600160a01b0319166001600160a01b039290921691909117905550565b5f5160206129e75f395f51905f526001600160a01b03841661180d5781816002015f8282546118029190612754565b9091555061186a9050565b6001600160a01b0384165f908152602082905260409020548281101561184c5784818460405163391434e360e21b8152600401610abe93929190612733565b6001600160a01b0385165f9081526020839052604090209083900390555b6001600160a01b0383166118885760028101805483900390556118a6565b6001600160a01b0383165f9081526020829052604090208054830190555b826001600160a01b0316846001600160a01b03167fddf252ad1be2c89b69c2b068fc378daa952ba7f163c4a11628f55a4df523b3ef846040516118eb91815260200190565b60405180910390a350505050565b5f7f8b73c3c69bb8fe3d512ecc4cf759cc79239f7b179b0ffacaa9a75d522b39400f611923611eea565b61192b611f52565b60408051602081019490945283019190915260608201524660808201523060a082015260c00160405160208183030381529060405280519060200120905090565b5f7fb413d65cb88f23816c329284a0d3eb15a99df7963ab7402ade4c5da22bff6b0054604051633657648360e21b81526001600160e01b0319841660048201523060248201523360448201526001600160a01b039091169063d95d920c90606401602060405180830381865afa1580156119e8573d5f5f3e3d5ffd5b505050506040513d601f19601f82011682018060405250810190611a0c9190612987565b905080610a9757604051634ca8886760e01b815260040160405180910390fd5b611a3582611f94565b6040516001600160a01b038316907fbc7cd75a20ee27fd9adebab32041f755214dbc6bffa90cc0225b39da2e5c2d3b905f90a2805115611a79576110618282611fdd565b610a97612046565b5f516020612a875f395f51905f528054611aa6906001600160a01b0316863086612065565b611ab084836120cc565b836001600160a01b0316856001600160a01b03167fdcbc1c05240f31ff3ad067ef1ee35ce4997762752e3a095284754544f4c709d7858560405161160f929190918252602082015260400190565b5f516020612a875f395f51905f526001600160a01b0386811690851614611b2a57611b2a848784611120565b611b348483612100565b8054611b4a906001600160a01b03168685612134565b836001600160a01b0316856001600160a01b0316876001600160a01b03167ffbde797d201c681b91056529119e0b02407c7bb96a4a2c75c01fc9667232c8db8686604051611ba2929190918252602082015260400190565b60405180910390a4505050505050565b5f80807f7fffffffffffffffffffffffffffffff5d576e7357a4501ddfe92f46681b20a0841115611beb57505f91506003905082611c70565b604080515f808252602082018084528a905260ff891692820192909252606081018790526080810186905260019060a0016020604051602081039080840390855afa158015611c3c573d5f5f3e3d5ffd5b5050604051601f1901519150506001600160a01b038116611c6757505f925060019150829050611c70565b92505f91508190505b9450945094915050565b5f826003811115611c8d57611c8d6129a6565b03611c96575050565b6001826003811115611caa57611caa6129a6565b03611cc85760405163f645eedf60e01b815260040160405180910390fd5b6002826003811115611cdc57611cdc6129a6565b03611cfd5760405163fce698f760e01b815260048101829052602401610abe565b6003826003811115611d1157611d116129a6565b03610a97576040516335e2f38360e21b815260048101829052602401610abe565b5f6002826003811115611d4757611d476129a6565b611d5191906129ba565b60ff166001149050919050565b5f838302815f1985870982811083820303915050805f03611d9257838281611d8857611d8861270c565b04925050506109d8565b808411611da957611da96003851502601118612165565b5f848688095f868103871696879004966002600389028118808a02820302808a02820302808a02820302808a02820302808a02820302808a02909103029181900381900460010186841190950394909402919094039290920491909117919091029150509392505050565b60408051600481526024810182526020810180516001600160e01b031663313ce56760e01b17905290515f918291829182916001600160a01b03871691611e5a916129db565b5f60405180830381855afa9150503d805f8114611e92576040519150601f19603f3d011682016040523d82523d5f602084013e611e97565b606091505b5091509150818015611eab57506020815110155b15611ede575f81806020019051810190611ec59190612767565b905060ff8111611edc576001969095509350505050565b505b505f9485945092505050565b5f5f516020612a475f395f51905f5281611f02611416565b805190915015611f1a57805160209091012092915050565b81548015611f29579392505050565b7fc5d2460186f7233c927e7db2dcc703c0e500b653ca82273b7bfad8045d85a470935050505090565b5f5f516020612a475f395f51905f5281611f6a611454565b805190915015611f8257805160209091012092915050565b60018201548015611f29579392505050565b806001600160a01b03163b5f03611fc957604051634c9c8ce360e01b81526001600160a01b0382166004820152602401610abe565b805f516020612a675f395f51905f526117b2565b60605f5f846001600160a01b031684604051611ff991906129db565b5f60405180830381855af49150503d805f8114612031576040519150601f19603f3d011682016040523d82523d5f602084013e612036565b606091505b5091509150610de1858383612176565b341561111e5760405163b398979f60e01b815260040160405180910390fd5b6040516001600160a01b03848116602483015283811660448301526064820183905261116b9186918216906323b872dd906084015b604051602081830303815290604052915060e01b6020820180516001600160e01b0383818316178352505050506121d2565b6001600160a01b0382166120f55760405163ec442f0560e01b81525f6004820152602401610abe565b610a975f83836117d3565b6001600160a01b03821661212957604051634b637e8f60e11b81525f6004820152602401610abe565b610a97825f836117d3565b6040516001600160a01b0383811660248301526044820183905261106191859182169063a9059cbb9060640161209a565b634e487b715f52806020526024601cfd5b60608261218b576121868261223e565b6109d8565b81511580156121a257506001600160a01b0384163b155b156121cb57604051639996b31560e01b81526001600160a01b0385166004820152602401610abe565b50806109d8565b5f5f60205f8451602086015f885af1806121f1576040513d5f823e3d81fd5b50505f513d91508115612208578060011415612215565b6001600160a01b0384163b155b1561116b57604051635274afe760e01b81526001600160a01b0385166004820152602401610abe565b80511561224e5780518082602001fd5b60405163d6bda27560e01b815260040160405180910390fd5b5f81518084528060208401602086015e5f602082860101526020601f19601f83011685010191505092915050565b602081525f6109d86020830184612267565b5f602082840312156122b7575f5ffd5b5035919050565b80356001600160a01b03811681146122d4575f5ffd5b919050565b5f5f604083850312156122ea575f5ffd5b6122f3836122be565b946020939093013593505050565b5f5f5f60608486031215612313575f5ffd5b61231c846122be565b925061232a602085016122be565b929592945050506040919091013590565b5f6020828403121561234b575f5ffd5b6109d8826122be565b634e487b7160e01b5f52604160045260245ffd5b604051601f8201601f1916810167ffffffffffffffff8111828210171561239157612391612354565b604052919050565b5f67ffffffffffffffff8211156123b2576123b2612354565b50601f01601f191660200190565b5f5f604083850312156123d1575f5ffd5b6123da836122be565b9150602083013567ffffffffffffffff8111156123f5575f5ffd5b8301601f81018513612405575f5ffd5b803561241861241382612399565b612368565b81815286602083850101111561242c575f5ffd5b816020840160208301375f602083830101528093505050509250929050565b5f5f6040838503121561245c575f5ffd5b8235915061246c602084016122be565b90509250929050565b60ff60f81b8816815260e060208201525f61249360e0830189612267565b82810360408401526124a58189612267565b606084018890526001600160a01b038716608085015260a0840186905283810360c0850152845180825260208087019350909101905f5b818110156124fa5783518352602093840193909201916001016124dc565b50909b9a5050505050505050505050565b5f5f5f6060848603121561251d575f5ffd5b8335925061252d602085016122be565b915061253b604085016122be565b90509250925092565b5f5f5f5f5f5f5f60e0888a03121561255a575f5ffd5b612563886122be565b9650612571602089016122be565b95506040880135945060608801359350608088013560ff81168114612594575f5ffd5b9699959850939692959460a0840135945060c09093013592915050565b5f5f604083850312156125c2575f5ffd5b6125cb836122be565b915061246c602084016122be565b634e487b7160e01b5f52601160045260245ffd5b81810381811115610742576107426125d9565b600181811c9082168061261457607f821691505b60208210810361263257634e487b7160e01b5f52602260045260245ffd5b50919050565b5f60208284031215612648575f5ffd5b815167ffffffffffffffff81111561265e575f5ffd5b8201601f8101841361266e575f5ffd5b805161267c61241382612399565b818152856020838501011115612690575f5ffd5b8160208401602083015e5f91810160200191909152949350505050565b5f81518060208401855e5f93019283525090919050565b66029ba30b5b2b2160cd1b81525f6109d860078301846126ad565b611cdd60f21b81525f6109d860028301846126ad565b8082028115828204841417610742576107426125d9565b634e487b7160e01b5f52601260045260245ffd5b5f8261272e5761272e61270c565b500490565b6001600160a01b039390931683526020830191909152604082015260600190565b80820180821115610742576107426125d9565b5f60208284031215612777575f5ffd5b5051919050565b6001815b60018411156127b95780850481111561279d5761279d6125d9565b60018416156127ab57908102905b60019390931c928002612782565b935093915050565b5f826127cf57506001610742565b816127db57505f610742565b81600181146127f157600281146127fb57612817565b6001915050610742565b60ff84111561280c5761280c6125d9565b50506001821b610742565b5060208310610133831016604e8410600b841016171561283a575081810a610742565b6128465f19848461277e565b805f1904821115612859576128596125d9565b029392505050565b5f6109d860ff8416836127c1565b60ff8181168382160190811115610742576107426125d9565b601f82111561106157805f5260205f20601f840160051c810160208510156128ad5750805b601f840160051c820191505b81811015611618575f81556001016128b9565b815167ffffffffffffffff8111156128e6576128e6612354565b6128fa816128f48454612600565b84612888565b6020601f82116001811461292c575f83156129155750848201515b5f19600385901b1c1916600184901b178455611618565b5f84815260208120601f198516915b8281101561295b578785015182556020948501946001909201910161293b565b508482101561297857868401515f19600387901b60f8161c191681555b50505050600190811b01905550565b5f60208284031215612997575f5ffd5b815180151581146109d8575f5ffd5b634e487b7160e01b5f52602160045260245ffd5b5f60ff8316806129cc576129cc61270c565b8060ff84160691505092915050565b5f6109d882846126ad56fe52c63247e1f47db19d5ce0460030c497f067ca4cebf71ba98eeadabe20bace00c3a6ec7b30f1d79063d00dcbb5942b226b77fe48a28f1a19018e7d1f70fd7600c3a6ec7b30f1d79063d00dcbb5942b226b77fe48a28f1a19018e7d1f70fd7603a16a46d94261c7517cc8ff89f61c0ce93598e3c849801011dee649a6a557d100360894a13ba1a3210667c828492db98dca3e2076cc3735a920a3ca505d382bbc0773e532dfede91f04b12a73d3d2acd361424f41f76b4fb79f090161e36b4e00a2646970667358221220643d74210e584efb58d8e4fd61f09d53c1fda510816521f5ef6ecba644dc61b364736f6c634300081c0033","linkReferences":{}},"methodIdentifiers":{"DOMAIN_SEPARATOR()":"3644e515","UPGRADE_INTERFACE_VERSION()":"ad3cb1cc","allowance(address,address)":"dd62ed3e","approve(address,uint256)":"095ea7b3","asset()":"38d52e0f","balanceOf(address)":"70a08231","convertToAssets(uint256)":"07a2d13a","convertToShares(uint256)":"c6e6f592","decimals()":"313ce567","deposit(uint256,address)":"6e553f65","eip712Domain()":"84b0196e","initialize(address,address,uint256)":"1794bb3c","lastNotify()":"efe47607","lockDuration()":"04554443","lockedProfit()":"44b81396","maxDeposit(address)":"402d267d","maxMint(address)":"c63d75b6","maxRedeem(address)":"d905777e","maxWithdraw(address)":"ce96cb77","mint(uint256,address)":"94bf804d","name()":"06fdde03","nonces(address)":"7ecebe00","notify()":"899f5898","permit(address,address,uint256,uint256,uint8,bytes32,bytes32)":"d505accf","previewDeposit(uint256)":"ef8b30f7","previewMint(uint256)":"b3d7f6b9","previewRedeem(uint256)":"4cdad506","previewWithdraw(uint256)":"0a28a477","proxiableUUID()":"52d1902d","redeem(uint256,address,address)":"ba087652","symbol()":"95d89b41","totalAssets()":"01e1d114","totalSupply()":"18160ddd","transfer(address,uint256)":"a9059cbb","transferFrom(address,address,uint256)":"23b872dd","upgradeToAndCall(address,bytes)":"4f1ef286","withdraw(uint256,address,address)":"b460af94"},"id":99}