{"abi":[{"type":"constructor","inputs":[{"name":"_eid","type":"uint32","internalType":"uint32"},{"name":"_owner","type":"address","internalType":"address"},{"name":"_altToken","type":"address","internalType":"address"}],"stateMutability":"nonpayable"},{"type":"function","name":"EMPTY_PAYLOAD_HASH","inputs":[],"outputs":[{"name":"","type":"bytes32","internalType":"bytes32"}],"stateMutability":"view"},{"type":"function","name":"NIL_PAYLOAD_HASH","inputs":[],"outputs":[{"name":"","type":"bytes32","internalType":"bytes32"}],"stateMutability":"view"},{"type":"function","name":"blockedLibrary","inputs":[],"outputs":[{"name":"","type":"address","internalType":"address"}],"stateMutability":"view"},{"type":"function","name":"burn","inputs":[{"name":"_oapp","type":"address","internalType":"address"},{"name":"_srcEid","type":"uint32","internalType":"uint32"},{"name":"_sender","type":"bytes32","internalType":"bytes32"},{"name":"_nonce","type":"uint64","internalType":"uint64"},{"name":"_payloadHash","type":"bytes32","internalType":"bytes32"}],"outputs":[],"stateMutability":"nonpayable"},{"type":"function","name":"clear","inputs":[{"name":"_oapp","type":"address","internalType":"address"},{"name":"_origin","type":"tuple","internalType":"struct Origin","components":[{"name":"srcEid","type":"uint32","internalType":"uint32"},{"name":"sender","type":"bytes32","internalType":"bytes32"},{"name":"nonce","type":"uint64","internalType":"uint64"}]},{"name":"_guid","type":"bytes32","internalType":"bytes32"},{"name":"_message","type":"bytes","internalType":"bytes"}],"outputs":[],"stateMutability":"nonpayable"},{"type":"function","name":"composeQueue","inputs":[{"name":"from","type":"address","internalType":"address"},{"name":"to","type":"address","internalType":"address"},{"name":"guid","type":"bytes32","internalType":"bytes32"},{"name":"index","type":"uint16","internalType":"uint16"}],"outputs":[{"name":"messageHash","type":"bytes32","internalType":"bytes32"}],"stateMutability":"view"},{"type":"function","name":"defaultReceiveLibrary","inputs":[{"name":"srcEid","type":"uint32","internalType":"uint32"}],"outputs":[{"name":"lib","type":"address","internalType":"address"}],"stateMutability":"view"},{"type":"function","name":"defaultReceiveLibraryTimeout","inputs":[{"name":"srcEid","type":"uint32","internalType":"uint32"}],"outputs":[{"name":"lib","type":"address","internalType":"address"},{"name":"expiry","type":"uint256","internalType":"uint256"}],"stateMutability":"view"},{"type":"function","name":"defaultSendLibrary","inputs":[{"name":"dstEid","type":"uint32","internalType":"uint32"}],"outputs":[{"name":"lib","type":"address","internalType":"address"}],"stateMutability":"view"},{"type":"function","name":"delegates","inputs":[{"name":"oapp","type":"address","internalType":"address"}],"outputs":[{"name":"delegate","type":"address","internalType":"address"}],"stateMutability":"view"},{"type":"function","name":"eid","inputs":[],"outputs":[{"name":"","type":"uint32","internalType":"uint32"}],"stateMutability":"view"},{"type":"function","name":"getConfig","inputs":[{"name":"_oapp","type":"address","internalType":"address"},{"name":"_lib","type":"address","internalType":"address"},{"name":"_eid","type":"uint32","internalType":"uint32"},{"name":"_configType","type":"uint32","internalType":"uint32"}],"outputs":[{"name":"config","type":"bytes","internalType":"bytes"}],"stateMutability":"view"},{"type":"function","name":"getReceiveLibrary","inputs":[{"name":"_receiver","type":"address","internalType":"address"},{"name":"_srcEid","type":"uint32","internalType":"uint32"}],"outputs":[{"name":"lib","type":"address","internalType":"address"},{"name":"isDefault","type":"bool","internalType":"bool"}],"stateMutability":"view"},{"type":"function","name":"getRegisteredLibraries","inputs":[],"outputs":[{"name":"","type":"address[]","internalType":"address[]"}],"stateMutability":"view"},{"type":"function","name":"getSendContext","inputs":[],"outputs":[{"name":"","type":"uint32","internalType":"uint32"},{"name":"","type":"address","internalType":"address"}],"stateMutability":"view"},{"type":"function","name":"getSendLibrary","inputs":[{"name":"_sender","type":"address","internalType":"address"},{"name":"_dstEid","type":"uint32","internalType":"uint32"}],"outputs":[{"name":"lib","type":"address","internalType":"address"}],"stateMutability":"view"},{"type":"function","name":"inboundNonce","inputs":[{"name":"_receiver","type":"address","internalType":"address"},{"name":"_srcEid","type":"uint32","internalType":"uint32"},{"name":"_sender","type":"bytes32","internalType":"bytes32"}],"outputs":[{"name":"","type":"uint64","internalType":"uint64"}],"stateMutability":"view"},{"type":"function","name":"inboundPayloadHash","inputs":[{"name":"receiver","type":"address","internalType":"address"},{"name":"srcEid","type":"uint32","internalType":"uint32"},{"name":"sender","type":"bytes32","internalType":"bytes32"},{"name":"inboundNonce","type":"uint64","internalType":"uint64"}],"outputs":[{"name":"payloadHash","type":"bytes32","internalType":"bytes32"}],"stateMutability":"view"},{"type":"function","name":"initializable","inputs":[{"name":"_origin","type":"tuple","internalType":"struct Origin","components":[{"name":"srcEid","type":"uint32","internalType":"uint32"},{"name":"sender","type":"bytes32","internalType":"bytes32"},{"name":"nonce","type":"uint64","internalType":"uint64"}]},{"name":"_receiver","type":"address","internalType":"address"}],"outputs":[{"name":"","type":"bool","internalType":"bool"}],"stateMutability":"view"},{"type":"function","name":"isDefaultSendLibrary","inputs":[{"name":"_sender","type":"address","internalType":"address"},{"name":"_dstEid","type":"uint32","internalType":"uint32"}],"outputs":[{"name":"","type":"bool","internalType":"bool"}],"stateMutability":"view"},{"type":"function","name":"isRegisteredLibrary","inputs":[{"name":"lib","type":"address","internalType":"address"}],"outputs":[{"name":"","type":"bool","internalType":"bool"}],"stateMutability":"view"},{"type":"function","name":"isSendingMessage","inputs":[],"outputs":[{"name":"","type":"bool","internalType":"bool"}],"stateMutability":"view"},{"type":"function","name":"isSupportedEid","inputs":[{"name":"_eid","type":"uint32","internalType":"uint32"}],"outputs":[{"name":"","type":"bool","internalType":"bool"}],"stateMutability":"view"},{"type":"function","name":"isValidReceiveLibrary","inputs":[{"name":"_receiver","type":"address","internalType":"address"},{"name":"_srcEid","type":"uint32","internalType":"uint32"},{"name":"_actualReceiveLib","type":"address","internalType":"address"}],"outputs":[{"name":"","type":"bool","internalType":"bool"}],"stateMutability":"view"},{"type":"function","name":"lazyInboundNonce","inputs":[{"name":"receiver","type":"address","internalType":"address"},{"name":"srcEid","type":"uint32","internalType":"uint32"},{"name":"sender","type":"bytes32","internalType":"bytes32"}],"outputs":[{"name":"nonce","type":"uint64","internalType":"uint64"}],"stateMutability":"view"},{"type":"function","name":"lzCompose","inputs":[{"name":"_from","type":"address","internalType":"address"},{"name":"_to","type":"address","internalType":"address"},{"name":"_guid","type":"bytes32","internalType":"bytes32"},{"name":"_index","type":"uint16","internalType":"uint16"},{"name":"_message","type":"bytes","internalType":"bytes"},{"name":"_extraData","type":"bytes","internalType":"bytes"}],"outputs":[],"stateMutability":"payable"},{"type":"function","name":"lzComposeAlert","inputs":[{"name":"_from","type":"address","internalType":"address"},{"name":"_to","type":"address","internalType":"address"},{"name":"_guid","type":"bytes32","internalType":"bytes32"},{"name":"_index","type":"uint16","internalType":"uint16"},{"name":"_gas","type":"uint256","internalType":"uint256"},{"name":"_value","type":"uint256","internalType":"uint256"},{"name":"_message","type":"bytes","internalType":"bytes"},{"name":"_extraData","type":"bytes","internalType":"bytes"},{"name":"_reason","type":"bytes","internalType":"bytes"}],"outputs":[],"stateMutability":"nonpayable"},{"type":"function","name":"lzReceive","inputs":[{"name":"_origin","type":"tuple","internalType":"struct Origin","components":[{"name":"srcEid","type":"uint32","internalType":"uint32"},{"name":"sender","type":"bytes32","internalType":"bytes32"},{"name":"nonce","type":"uint64","internalType":"uint64"}]},{"name":"_receiver","type":"address","internalType":"address"},{"name":"_guid","type":"bytes32","internalType":"bytes32"},{"name":"_message","type":"bytes","internalType":"bytes"},{"name":"_extraData","type":"bytes","internalType":"bytes"}],"outputs":[],"stateMutability":"payable"},{"type":"function","name":"lzReceiveAlert","inputs":[{"name":"_origin","type":"tuple","internalType":"struct Origin","components":[{"name":"srcEid","type":"uint32","internalType":"uint32"},{"name":"sender","type":"bytes32","internalType":"bytes32"},{"name":"nonce","type":"uint64","internalType":"uint64"}]},{"name":"_receiver","type":"address","internalType":"address"},{"name":"_guid","type":"bytes32","internalType":"bytes32"},{"name":"_gas","type":"uint256","internalType":"uint256"},{"name":"_value","type":"uint256","internalType":"uint256"},{"name":"_message","type":"bytes","internalType":"bytes"},{"name":"_extraData","type":"bytes","internalType":"bytes"},{"name":"_reason","type":"bytes","internalType":"bytes"}],"outputs":[],"stateMutability":"nonpayable"},{"type":"function","name":"lzToken","inputs":[],"outputs":[{"name":"","type":"address","internalType":"address"}],"stateMutability":"view"},{"type":"function","name":"nativeToken","inputs":[],"outputs":[{"name":"","type":"address","internalType":"address"}],"stateMutability":"view"},{"type":"function","name":"nextGuid","inputs":[{"name":"_sender","type":"address","internalType":"address"},{"name":"_dstEid","type":"uint32","internalType":"uint32"},{"name":"_receiver","type":"bytes32","internalType":"bytes32"}],"outputs":[{"name":"","type":"bytes32","internalType":"bytes32"}],"stateMutability":"view"},{"type":"function","name":"nilify","inputs":[{"name":"_oapp","type":"address","internalType":"address"},{"name":"_srcEid","type":"uint32","internalType":"uint32"},{"name":"_sender","type":"bytes32","internalType":"bytes32"},{"name":"_nonce","type":"uint64","internalType":"uint64"},{"name":"_payloadHash","type":"bytes32","internalType":"bytes32"}],"outputs":[],"stateMutability":"nonpayable"},{"type":"function","name":"outboundNonce","inputs":[{"name":"sender","type":"address","internalType":"address"},{"name":"dstEid","type":"uint32","internalType":"uint32"},{"name":"receiver","type":"bytes32","internalType":"bytes32"}],"outputs":[{"name":"nonce","type":"uint64","internalType":"uint64"}],"stateMutability":"view"},{"type":"function","name":"owner","inputs":[],"outputs":[{"name":"","type":"address","internalType":"address"}],"stateMutability":"view"},{"type":"function","name":"quote","inputs":[{"name":"_params","type":"tuple","internalType":"struct MessagingParams","components":[{"name":"dstEid","type":"uint32","internalType":"uint32"},{"name":"receiver","type":"bytes32","internalType":"bytes32"},{"name":"message","type":"bytes","internalType":"bytes"},{"name":"options","type":"bytes","internalType":"bytes"},{"name":"payInLzToken","type":"bool","internalType":"bool"}]},{"name":"_sender","type":"address","internalType":"address"}],"outputs":[{"name":"","type":"tuple","internalType":"struct MessagingFee","components":[{"name":"nativeFee","type":"uint256","internalType":"uint256"},{"name":"lzTokenFee","type":"uint256","internalType":"uint256"}]}],"stateMutability":"view"},{"type":"function","name":"receiveLibraryTimeout","inputs":[{"name":"receiver","type":"address","internalType":"address"},{"name":"srcEid","type":"uint32","internalType":"uint32"}],"outputs":[{"name":"lib","type":"address","internalType":"address"},{"name":"expiry","type":"uint256","internalType":"uint256"}],"stateMutability":"view"},{"type":"function","name":"recoverToken","inputs":[{"name":"_token","type":"address","internalType":"address"},{"name":"_to","type":"address","internalType":"address"},{"name":"_amount","type":"uint256","internalType":"uint256"}],"outputs":[],"stateMutability":"nonpayable"},{"type":"function","name":"registerLibrary","inputs":[{"name":"_lib","type":"address","internalType":"address"}],"outputs":[],"stateMutability":"nonpayable"},{"type":"function","name":"renounceOwnership","inputs":[],"outputs":[],"stateMutability":"nonpayable"},{"type":"function","name":"send","inputs":[{"name":"_params","type":"tuple","internalType":"struct MessagingParams","components":[{"name":"dstEid","type":"uint32","internalType":"uint32"},{"name":"receiver","type":"bytes32","internalType":"bytes32"},{"name":"message","type":"bytes","internalType":"bytes"},{"name":"options","type":"bytes","internalType":"bytes"},{"name":"payInLzToken","type":"bool","internalType":"bool"}]},{"name":"_refundAddress","type":"address","internalType":"address"}],"outputs":[{"name":"","type":"tuple","internalType":"struct MessagingReceipt","components":[{"name":"guid","type":"bytes32","internalType":"bytes32"},{"name":"nonce","type":"uint64","internalType":"uint64"},{"name":"fee","type":"tuple","internalType":"struct MessagingFee","components":[{"name":"nativeFee","type":"uint256","internalType":"uint256"},{"name":"lzTokenFee","type":"uint256","internalType":"uint256"}]}]}],"stateMutability":"payable"},{"type":"function","name":"sendCompose","inputs":[{"name":"_to","type":"address","internalType":"address"},{"name":"_guid","type":"bytes32","internalType":"bytes32"},{"name":"_index","type":"uint16","internalType":"uint16"},{"name":"_message","type":"bytes","internalType":"bytes"}],"outputs":[],"stateMutability":"nonpayable"},{"type":"function","name":"setConfig","inputs":[{"name":"_oapp","type":"address","internalType":"address"},{"name":"_lib","type":"address","internalType":"address"},{"name":"_params","type":"tuple[]","internalType":"struct SetConfigParam[]","components":[{"name":"eid","type":"uint32","internalType":"uint32"},{"name":"configType","type":"uint32","internalType":"uint32"},{"name":"config","type":"bytes","internalType":"bytes"}]}],"outputs":[],"stateMutability":"nonpayable"},{"type":"function","name":"setDefaultReceiveLibrary","inputs":[{"name":"_eid","type":"uint32","internalType":"uint32"},{"name":"_newLib","type":"address","internalType":"address"},{"name":"_gracePeriod","type":"uint256","internalType":"uint256"}],"outputs":[],"stateMutability":"nonpayable"},{"type":"function","name":"setDefaultReceiveLibraryTimeout","inputs":[{"name":"_eid","type":"uint32","internalType":"uint32"},{"name":"_lib","type":"address","internalType":"address"},{"name":"_expiry","type":"uint256","internalType":"uint256"}],"outputs":[],"stateMutability":"nonpayable"},{"type":"function","name":"setDefaultSendLibrary","inputs":[{"name":"_eid","type":"uint32","internalType":"uint32"},{"name":"_newLib","type":"address","internalType":"address"}],"outputs":[],"stateMutability":"nonpayable"},{"type":"function","name":"setDelegate","inputs":[{"name":"_delegate","type":"address","internalType":"address"}],"outputs":[],"stateMutability":"nonpayable"},{"type":"function","name":"setLzToken","inputs":[{"name":"_lzToken","type":"address","internalType":"address"}],"outputs":[],"stateMutability":"nonpayable"},{"type":"function","name":"setReceiveLibrary","inputs":[{"name":"_oapp","type":"address","internalType":"address"},{"name":"_eid","type":"uint32","internalType":"uint32"},{"name":"_newLib","type":"address","internalType":"address"},{"name":"_gracePeriod","type":"uint256","internalType":"uint256"}],"outputs":[],"stateMutability":"nonpayable"},{"type":"function","name":"setReceiveLibraryTimeout","inputs":[{"name":"_oapp","type":"address","internalType":"address"},{"name":"_eid","type":"uint32","internalType":"uint32"},{"name":"_lib","type":"address","internalType":"address"},{"name":"_expiry","type":"uint256","internalType":"uint256"}],"outputs":[],"stateMutability":"nonpayable"},{"type":"function","name":"setSendLibrary","inputs":[{"name":"_oapp","type":"address","internalType":"address"},{"name":"_eid","type":"uint32","internalType":"uint32"},{"name":"_newLib","type":"address","internalType":"address"}],"outputs":[],"stateMutability":"nonpayable"},{"type":"function","name":"skip","inputs":[{"name":"_oapp","type":"address","internalType":"address"},{"name":"_srcEid","type":"uint32","internalType":"uint32"},{"name":"_sender","type":"bytes32","internalType":"bytes32"},{"name":"_nonce","type":"uint64","internalType":"uint64"}],"outputs":[],"stateMutability":"nonpayable"},{"type":"function","name":"transferOwnership","inputs":[{"name":"newOwner","type":"address","internalType":"address"}],"outputs":[],"stateMutability":"nonpayable"},{"type":"function","name":"verifiable","inputs":[{"name":"_origin","type":"tuple","internalType":"struct Origin","components":[{"name":"srcEid","type":"uint32","internalType":"uint32"},{"name":"sender","type":"bytes32","internalType":"bytes32"},{"name":"nonce","type":"uint64","internalType":"uint64"}]},{"name":"_receiver","type":"address","internalType":"address"}],"outputs":[{"name":"","type":"bool","internalType":"bool"}],"stateMutability":"view"},{"type":"function","name":"verify","inputs":[{"name":"_origin","type":"tuple","internalType":"struct Origin","components":[{"name":"srcEid","type":"uint32","internalType":"uint32"},{"name":"sender","type":"bytes32","internalType":"bytes32"},{"name":"nonce","type":"uint64","internalType":"uint64"}]},{"name":"_receiver","type":"address","internalType":"address"},{"name":"_payloadHash","type":"bytes32","internalType":"bytes32"}],"outputs":[],"stateMutability":"nonpayable"},{"type":"event","name":"ComposeDelivered","inputs":[{"name":"from","type":"address","indexed":false,"internalType":"address"},{"name":"to","type":"address","indexed":false,"internalType":"address"},{"name":"guid","type":"bytes32","indexed":false,"internalType":"bytes32"},{"name":"index","type":"uint16","indexed":false,"internalType":"uint16"}],"anonymous":false},{"type":"event","name":"ComposeSent","inputs":[{"name":"from","type":"address","indexed":false,"internalType":"address"},{"name":"to","type":"address","indexed":false,"internalType":"address"},{"name":"guid","type":"bytes32","indexed":false,"internalType":"bytes32"},{"name":"index","type":"uint16","indexed":false,"internalType":"uint16"},{"name":"message","type":"bytes","indexed":false,"internalType":"bytes"}],"anonymous":false},{"type":"event","name":"DefaultReceiveLibrarySet","inputs":[{"name":"eid","type":"uint32","indexed":false,"internalType":"uint32"},{"name":"newLib","type":"address","indexed":false,"internalType":"address"}],"anonymous":false},{"type":"event","name":"DefaultReceiveLibraryTimeoutSet","inputs":[{"name":"eid","type":"uint32","indexed":false,"internalType":"uint32"},{"name":"oldLib","type":"address","indexed":false,"internalType":"address"},{"name":"expiry","type":"uint256","indexed":false,"internalType":"uint256"}],"anonymous":false},{"type":"event","name":"DefaultSendLibrarySet","inputs":[{"name":"eid","type":"uint32","indexed":false,"internalType":"uint32"},{"name":"newLib","type":"address","indexed":false,"internalType":"address"}],"anonymous":false},{"type":"event","name":"DelegateSet","inputs":[{"name":"sender","type":"address","indexed":false,"internalType":"address"},{"name":"delegate","type":"address","indexed":false,"internalType":"address"}],"anonymous":false},{"type":"event","name":"InboundNonceSkipped","inputs":[{"name":"srcEid","type":"uint32","indexed":false,"internalType":"uint32"},{"name":"sender","type":"bytes32","indexed":false,"internalType":"bytes32"},{"name":"receiver","type":"address","indexed":false,"internalType":"address"},{"name":"nonce","type":"uint64","indexed":false,"internalType":"uint64"}],"anonymous":false},{"type":"event","name":"LibraryRegistered","inputs":[{"name":"newLib","type":"address","indexed":false,"internalType":"address"}],"anonymous":false},{"type":"event","name":"LzComposeAlert","inputs":[{"name":"from","type":"address","indexed":true,"internalType":"address"},{"name":"to","type":"address","indexed":true,"internalType":"address"},{"name":"executor","type":"address","indexed":true,"internalType":"address"},{"name":"guid","type":"bytes32","indexed":false,"internalType":"bytes32"},{"name":"index","type":"uint16","indexed":false,"internalType":"uint16"},{"name":"gas","type":"uint256","indexed":false,"internalType":"uint256"},{"name":"value","type":"uint256","indexed":false,"internalType":"uint256"},{"name":"message","type":"bytes","indexed":false,"internalType":"bytes"},{"name":"extraData","type":"bytes","indexed":false,"internalType":"bytes"},{"name":"reason","type":"bytes","indexed":false,"internalType":"bytes"}],"anonymous":false},{"type":"event","name":"LzReceiveAlert","inputs":[{"name":"receiver","type":"address","indexed":true,"internalType":"address"},{"name":"executor","type":"address","indexed":true,"internalType":"address"},{"name":"origin","type":"tuple","indexed":false,"internalType":"struct Origin","components":[{"name":"srcEid","type":"uint32","internalType":"uint32"},{"name":"sender","type":"bytes32","internalType":"bytes32"},{"name":"nonce","type":"uint64","internalType":"uint64"}]},{"name":"guid","type":"bytes32","indexed":false,"internalType":"bytes32"},{"name":"gas","type":"uint256","indexed":false,"internalType":"uint256"},{"name":"value","type":"uint256","indexed":false,"internalType":"uint256"},{"name":"message","type":"bytes","indexed":false,"internalType":"bytes"},{"name":"extraData","type":"bytes","indexed":false,"internalType":"bytes"},{"name":"reason","type":"bytes","indexed":false,"internalType":"bytes"}],"anonymous":false},{"type":"event","name":"LzTokenSet","inputs":[{"name":"token","type":"address","indexed":false,"internalType":"address"}],"anonymous":false},{"type":"event","name":"OwnershipTransferred","inputs":[{"name":"previousOwner","type":"address","indexed":true,"internalType":"address"},{"name":"newOwner","type":"address","indexed":true,"internalType":"address"}],"anonymous":false},{"type":"event","name":"PacketBurnt","inputs":[{"name":"srcEid","type":"uint32","indexed":false,"internalType":"uint32"},{"name":"sender","type":"bytes32","indexed":false,"internalType":"bytes32"},{"name":"receiver","type":"address","indexed":false,"internalType":"address"},{"name":"nonce","type":"uint64","indexed":false,"internalType":"uint64"},{"name":"payloadHash","type":"bytes32","indexed":false,"internalType":"bytes32"}],"anonymous":false},{"type":"event","name":"PacketDelivered","inputs":[{"name":"origin","type":"tuple","indexed":false,"internalType":"struct Origin","components":[{"name":"srcEid","type":"uint32","internalType":"uint32"},{"name":"sender","type":"bytes32","internalType":"bytes32"},{"name":"nonce","type":"uint64","internalType":"uint64"}]},{"name":"receiver","type":"address","indexed":false,"internalType":"address"}],"anonymous":false},{"type":"event","name":"PacketNilified","inputs":[{"name":"srcEid","type":"uint32","indexed":false,"internalType":"uint32"},{"name":"sender","type":"bytes32","indexed":false,"internalType":"bytes32"},{"name":"receiver","type":"address","indexed":false,"internalType":"address"},{"name":"nonce","type":"uint64","indexed":false,"internalType":"uint64"},{"name":"payloadHash","type":"bytes32","indexed":false,"internalType":"bytes32"}],"anonymous":false},{"type":"event","name":"PacketSent","inputs":[{"name":"encodedPayload","type":"bytes","indexed":false,"internalType":"bytes"},{"name":"options","type":"bytes","indexed":false,"internalType":"bytes"},{"name":"sendLibrary","type":"address","indexed":false,"internalType":"address"}],"anonymous":false},{"type":"event","name":"PacketVerified","inputs":[{"name":"origin","type":"tuple","indexed":false,"internalType":"struct Origin","components":[{"name":"srcEid","type":"uint32","internalType":"uint32"},{"name":"sender","type":"bytes32","internalType":"bytes32"},{"name":"nonce","type":"uint64","internalType":"uint64"}]},{"name":"receiver","type":"address","indexed":false,"internalType":"address"},{"name":"payloadHash","type":"bytes32","indexed":false,"internalType":"bytes32"}],"anonymous":false},{"type":"event","name":"ReceiveLibrarySet","inputs":[{"name":"receiver","type":"address","indexed":false,"internalType":"address"},{"name":"eid","type":"uint32","indexed":false,"internalType":"uint32"},{"name":"newLib","type":"address","indexed":false,"internalType":"address"}],"anonymous":false},{"type":"event","name":"ReceiveLibraryTimeoutSet","inputs":[{"name":"receiver","type":"address","indexed":false,"internalType":"address"},{"name":"eid","type":"uint32","indexed":false,"internalType":"uint32"},{"name":"oldLib","type":"address","indexed":false,"internalType":"address"},{"name":"timeout","type":"uint256","indexed":false,"internalType":"uint256"}],"anonymous":false},{"type":"event","name":"SendLibrarySet","inputs":[{"name":"sender","type":"address","indexed":false,"internalType":"address"},{"name":"eid","type":"uint32","indexed":false,"internalType":"uint32"},{"name":"newLib","type":"address","indexed":false,"internalType":"address"}],"anonymous":false},{"type":"error","name":"LZ_AlreadyRegistered","inputs":[]},{"type":"error","name":"LZ_ComposeExists","inputs":[]},{"type":"error","name":"LZ_ComposeNotFound","inputs":[{"name":"expected","type":"bytes32","internalType":"bytes32"},{"name":"actual","type":"bytes32","internalType":"bytes32"}]},{"type":"error","name":"LZ_DefaultReceiveLibUnavailable","inputs":[]},{"type":"error","name":"LZ_DefaultSendLibUnavailable","inputs":[]},{"type":"error","name":"LZ_InsufficientFee","inputs":[{"name":"requiredNative","type":"uint256","internalType":"uint256"},{"name":"suppliedNative","type":"uint256","internalType":"uint256"},{"name":"requiredLzToken","type":"uint256","internalType":"uint256"},{"name":"suppliedLzToken","type":"uint256","internalType":"uint256"}]},{"type":"error","name":"LZ_InvalidArgument","inputs":[]},{"type":"error","name":"LZ_InvalidExpiry","inputs":[]},{"type":"error","name":"LZ_InvalidNonce","inputs":[{"name":"nonce","type":"uint64","internalType":"uint64"}]},{"type":"error","name":"LZ_InvalidPayloadHash","inputs":[]},{"type":"error","name":"LZ_InvalidReceiveLibrary","inputs":[]},{"type":"error","name":"LZ_LzTokenUnavailable","inputs":[]},{"type":"error","name":"LZ_OnlyAltToken","inputs":[]},{"type":"error","name":"LZ_OnlyNonDefaultLib","inputs":[]},{"type":"error","name":"LZ_OnlyReceiveLib","inputs":[]},{"type":"error","name":"LZ_OnlyRegisteredLib","inputs":[]},{"type":"error","name":"LZ_OnlyRegisteredOrDefaultLib","inputs":[]},{"type":"error","name":"LZ_OnlySendLib","inputs":[]},{"type":"error","name":"LZ_PathNotInitializable","inputs":[]},{"type":"error","name":"LZ_PathNotVerifiable","inputs":[]},{"type":"error","name":"LZ_PayloadHashNotFound","inputs":[{"name":"expected","type":"bytes32","internalType":"bytes32"},{"name":"actual","type":"bytes32","internalType":"bytes32"}]},{"type":"error","name":"LZ_SameValue","inputs":[]},{"type":"error","name":"LZ_SendReentrancy","inputs":[]},{"type":"error","name":"LZ_Unauthorized","inputs":[]},{"type":"error","name":"LZ_UnsupportedEid","inputs":[]},{"type":"error","name":"LZ_UnsupportedInterface","inputs":[]},{"type":"error","name":"LZ_ZeroLzTokenFee","inputs":[]},{"type":"error","name":"OwnableInvalidOwner","inputs":[{"name":"owner","type":"address","internalType":"address"}]},{"type":"error","name":"OwnableUnauthorizedAccount","inputs":[{"name":"account","type":"address","internalType":"address"}]},{"type":"error","name":"SafeERC20FailedOperation","inputs":[{"name":"token","type":"address","internalType":"address"}]},{"type":"error","name":"Transfer_NativeFailed","inputs":[{"name":"_to","type":"address","internalType":"address"},{"name":"_value","type":"uint256","internalType":"uint256"}]},{"type":"error","name":"Transfer_ToAddressIsZero","inputs":[]}],"bytecode":{"object":"0x60e06040526001600d55348015610014575f5ffd5b50604051615455380380615455833981016040819052610033916102d6565b828281816001600160a01b03811661006557604051631e4fbdf760e01b81525f60048201526024015b60405180910390fd5b61006e816100cb565b5063ffffffff16608052604051610084906102ae565b604051809103905ff08015801561009d573d5f5f3e3d5ffd5b506001600160a01b031660a08190526100b59061011a565b50506001600160a01b031660c052506103469050565b5f80546001600160a01b038381166001600160a01b0319831681178455604051919092169283917f8be0079c531659141344cd1fd0a4f28419497f9722a3daafe3b4186f6b6457e09190a35050565b610122610280565b6040516301ffc9a760e01b81526325fc096160e21b60048201526001600160a01b038216906301ffc9a790602401602060405180830381865afa15801561016b573d5f5f3e3d5ffd5b505050506040513d601f19601f8201168201806040525081019061018f9190610320565b6101ac5760405163eb64f35d60e01b815260040160405180910390fd5b6001600160a01b0381165f9081526005602052604090205460ff16156101e55760405163457517f360e11b815260040160405180910390fd5b6001600160a01b0381165f818152600560209081526040808320805460ff191660019081179091556004805491820181559093527f8a35acfbc15ff81a39ae7d344fd709f28e8600b4aa8c65c6b64bfe7fe36bd19b90920180546001600160a01b0319168417905590519182527f6b374d56679ca9463f27c85c6311e2bb7fde69bf201d3da39d53f10bd9d78af5910160405180910390a150565b5f546001600160a01b031633146102ac5760405163118cdaa760e01b815233600482015260240161005c565b565b6101d48061528183390190565b80516001600160a01b03811681146102d1575f5ffd5b919050565b5f5f5f606084860312156102e8575f5ffd5b835163ffffffff811681146102fb575f5ffd5b9250610309602085016102bb565b9150610317604085016102bb565b90509250925092565b5f60208284031215610330575f5ffd5b8151801515811461033f575f5ffd5b9392505050565b60805160a05160c051614ed96103a85f395f8181610b1f015281816129c3015281816136c6015261387301525f61075601525f8181610515015281816126fa01528181612ee201528181612f48015281816134a5015261350b0152614ed95ff3fe608060405260043610610341575f3560e01c80639132e5c3116101bd578063c9fc7bcd116100f2578063ddc28c5811610092578063e8964e811161006d578063e8964e8114610b62578063ef667aa114610b81578063f2fde38b14610bca578063f64be4c714610be9575f5ffd5b8063ddc28c5814610ae5578063e1758bd814610b11578063e4fe1d9414610b43575f5ffd5b8063d4b4ec8f116100cd578063d4b4ec8f14610a2f578063d70b890214610a4e578063dc706a6214610a6d578063dc93c8a214610a9b575f5ffd5b8063c9fc7bcd146109b8578063ca5eb5e1146109fd578063cb5026b914610a1c575f5ffd5b8063a7229fd91161015d578063aafea31211610138578063aafea3121461093c578063b96a277f1461095b578063c28e0eed1461097a578063c9a54a9914610999575f5ffd5b8063a7229fd9146108df578063a825d747146108fe578063aafe5e071461091d575f5ffd5b80639c6d7340116101985780639c6d73401461083d5780639d7f977514610882578063a0dd43fc146108a1578063a718531b146108c0575f5ffd5b80639132e5c3146107ea57806391d20fa11461080b5780639535ff301461081e575f5ffd5b80635b17bb70116102935780636f50a8031161023357806379624ca91161020e57806379624ca9146107785780637cb5901214610790578063861e1ca5146107af5780638da5cb5b146107ce575f5ffd5b80636f50a803146106fd578063715018a6146107315780637331809114610745575f5ffd5b80636a14d7151161026e5780636a14d715146106435780636bf73fa3146106625780636dbd9f90146106815780636e83f5bb146106a0575f5ffd5b80635b17bb70146105985780636750cd4c146105f5578063697fe6b614610624575f5ffd5b80632baf0be7116102fe578063402f8468116102d9578063402f8468146104a757806340f80683146104e5578063416ecebf14610504578063587cde1e1461054c575f5ffd5b80632baf0be7146104215780632e80fbf31461044357806335d330b014610462575f5ffd5b80630c0c389e1461034557806314f651a91461035a578063183c834f146103975780632637a450146103b65780632a56c1b0146103d65780632b3197b9146103f5575b5f5ffd5b610358610353366004613e3d565b610c1d565b005b348015610365575f5ffd5b5061036e610d17565b6040805163ffffffff90931683526001600160a01b039091166020830152015b60405180910390f35b3480156103a2575f5ffd5b506103586103b1366004613ee8565b610d47565b6103c96103c4366004613f30565b610fe4565b60405161038e9190613f7e565b3480156103e1575f5ffd5b506103586103f0366004613fbf565b611108565b348015610400575f5ffd5b5061041461040f366004614029565b6111a7565b60405161038e91906140a8565b34801561042c575f5ffd5b506104355f1981565b60405190815260200161038e565b34801561044e575f5ffd5b5061035861045d3660046140d0565b61126d565b34801561046d575f5ffd5b5061043561047c366004614132565b600c60209081525f948552604080862082529385528385208152918452828420909152825290205481565b3480156104b2575f5ffd5b506104c66104c1366004614171565b6113d8565b604080516001600160a01b03909316835290151560208301520161038e565b3480156104f0575f5ffd5b506103586104ff3660046140d0565b611454565b34801561050f575f5ffd5b506105377f000000000000000000000000000000000000000000000000000000000000000081565b60405163ffffffff909116815260200161038e565b348015610557575f5ffd5b50610580610566366004614199565b600f6020525f90815260409020546001600160a01b031681565b6040516001600160a01b03909116815260200161038e565b3480156105a3575f5ffd5b506105dd6105b23660046141b2565b600160209081525f93845260408085208252928452828420905282529020546001600160401b031681565b6040516001600160401b03909116815260200161038e565b348015610600575f5ffd5b5061061461060f3660046141ec565b6115b7565b604051901515815260200161038e565b34801561062f575f5ffd5b5061035861063e366004614205565b611605565b34801561064e575f5ffd5b5061035861065d366004613ee8565b61167a565b34801561066d575f5ffd5b5061035861067c3660046142f6565b611a4d565b34801561068c575f5ffd5b5061035861069b3660046143d4565b611ab7565b3480156106ab575f5ffd5b506106de6106ba3660046141ec565b600b6020525f9081526040902080546001909101546001600160a01b039091169082565b604080516001600160a01b03909316835260208301919091520161038e565b348015610708575f5ffd5b506105806107173660046141ec565b600a6020525f90815260409020546001600160a01b031681565b34801561073c575f5ffd5b50610358611b53565b348015610750575f5ffd5b506105807f000000000000000000000000000000000000000000000000000000000000000081565b348015610783575f5ffd5b50600d5460011415610614565b34801561079b575f5ffd5b506103586107aa36600461445f565b611b66565b3480156107ba575f5ffd5b506106146107c93660046144ab565b611c50565b3480156107d9575f5ffd5b505f546001600160a01b0316610580565b3480156107f5575f5ffd5b506107fe611cba565b60405161038e91906144d4565b61035861081936600461451f565b611d1a565b348015610829575f5ffd5b506103586108383660046145c6565b611ea4565b348015610848575f5ffd5b506105dd6108573660046141b2565b600360209081525f93845260408085208252928452828420905282529020546001600160401b031681565b34801561088d575f5ffd5b5061061461089c3660046145c6565b612101565b3480156108ac575f5ffd5b506105dd6108bb3660046141b2565b6121d5565b3480156108cb575f5ffd5b506103586108da366004614606565b612234565b3480156108ea575f5ffd5b506103586108f936600461462f565b61254a565b348015610909575f5ffd5b5061035861091836600461464a565b612562565b348015610928575f5ffd5b506104356109373660046141b2565b6126ab565b348015610947575f5ffd5b50610358610956366004614685565b61272a565b348015610966575f5ffd5b50610580610975366004614171565b61294c565b348015610985575f5ffd5b50610358610994366004614199565b6129b9565b3480156109a4575f5ffd5b506106146109b33660046144ab565b612a1f565b3480156109c3575f5ffd5b506104356109d236600461469f565b600260209081525f948552604080862082529385528385208152918452828420909152825290205481565b348015610a08575f5ffd5b50610358610a17366004614199565b612a82565b348015610a27575f5ffd5b506104355f81565b348015610a3a575f5ffd5b50610358610a49366004614606565b612ae8565b348015610a59575f5ffd5b50610358610a6836600461469f565b612d1d565b348015610a78575f5ffd5b50610614610a87366004614199565b60056020525f908152604090205460ff1681565b348015610aa6575f5ffd5b50610614610ab5366004614171565b6001600160a01b039182165f90815260066020908152604080832063ffffffff9490941683529290522054161590565b348015610af0575f5ffd5b50610b04610aff366004613f30565b612e0b565b60405161038e91906146de565b348015610b1c575f5ffd5b507f0000000000000000000000000000000000000000000000000000000000000000610580565b348015610b4e575f5ffd5b50600e54610580906001600160a01b031681565b348015610b6d575f5ffd5b50610358610b7c366004614199565b61306e565b348015610b8c575f5ffd5b506106de610b9b366004614171565b600860209081525f9283526040808420909152908252902080546001909101546001600160a01b039091169082565b348015610bd5575f5ffd5b50610358610be4366004614199565b6131ce565b348015610bf4575f5ffd5b50610580610c033660046141ec565b60096020525f90815260409020546001600160a01b031681565b610c6c86610c2e60208a018a6141ec565b60208a0135610c4360608c0160408d016146f5565b898989604051602001610c589392919061470e565b604051602081830303815290604052613208565b506040516313137d6560e01b81526001600160a01b038716906313137d65903490610ca7908b908a908a908a9033908b908b90600401614788565b5f604051808303818588803b158015610cbe575f5ffd5b505af1158015610cd0573d5f5f3e3d5ffd5b50505050507f3cd5e48f9730b129dc7550f0fcea9c767b7be37837cd10e55eb35f734f4bca048787604051610d069291906147de565b60405180910390a150505050505050565b5f5f610d26600d546001141590565b610d31575f5f610d3f565b610d3f600d5460a081901c91565b915091509091565b6001600160a01b0382165f90815260056020526040902054829060ff16610d8157604051631bc58ef360e11b815260040160405180910390fd5b826001600160a01b03811615610e21575f816001600160a01b0316631881d94d6040518163ffffffff1660e01b8152600401602060405180830381865afa158015610dce573d5f5f3e3d5ffd5b505050506040513d601f19601f82011682018060405250810190610df29190614818565b6002811115610e0357610e03614804565b03610e21576040516342756b1b60e11b815260040160405180910390fd5b83856001600160a01b03821615610ebb576040516319d4335360e21b815263ffffffff821660048201526001600160a01b03831690636750cd4c90602401602060405180830381865afa158015610e7a573d5f5f3e3d5ffd5b505050506040513d601f19601f82011682018060405250810190610e9e9190614843565b610ebb57604051630e476aa960e21b815260040160405180910390fd5b610ec4886133bf565b5f610ecf89896113d8565b9150508015610ef157604051633c075f7560e01b815260040160405180910390fd5b855f03610f37576001600160a01b0389165f90815260086020908152604080832063ffffffff8c168452909152812080546001600160a01b031916815560010155610f9c565b438611610f57576040516302efcf9160e11b815260040160405180910390fd5b6001600160a01b038981165f90815260086020908152604080832063ffffffff8d168452909152902080546001600160a01b0319169189169190911781556001018690555b7f4e0a5bbfa0c11a64effb1ada324b5437a17272e1aed9320398715ef71bb2092889898989604051610fd1949392919061485e565b60405180910390a1505050505050505050565b610fec613d94565b610ff960208401846141ec565b336001600d541461101d5760405163ee120b0960e01b815260040160405180910390fd5b63ffffffff60a01b60a083811b919091166001600160a01b03831617600d5561104b9086016080870161488e565b80156110605750600e546001600160a01b0316155b1561107e57604051632d7b695560e11b815260040160405180910390fd5b5f5f61108a338861340f565b915091505f6110976136af565b90505f6110b26110ad60a08b0160808c0161488e565b61373c565b90506110c3846040015183836137d4565b600e546040850151602001516110e5916001600160a01b03169083868c613822565b6040840151516110f79083858b61384f565b50506001600d555095945050505050565b611111856133bf565b5f8383836040516020016111279392919061470e565b60408051601f1981840301815291905290506111658661114a60208801886141ec565b602088013561115f60608a0160408b016146f5565b85613208565b507f3cd5e48f9730b129dc7550f0fcea9c767b7be37837cd10e55eb35f734f4bca0485876040516111979291906147de565b60405180910390a1505050505050565b6001600160a01b0383165f90815260056020526040902054606090849060ff166111e457604051631bc58ef360e11b815260040160405180910390fd5b604051639c33abf760e01b815263ffffffff80861660048301526001600160a01b0388811660248401529085166044830152861690639c33abf7906064015f60405180830381865afa15801561123c573d5f5f3e3d5ffd5b505050506040513d5f823e601f3d908101601f191682016040526112639190810190614946565b9695505050505050565b611276856133bf565b6001600160a01b0385165f90815260026020908152604080832063ffffffff88168452825280832086845282528083206001600160401b03861684529091529020548181146112e757604051637182306f60e01b815260048101829052602481018390526044015b60405180910390fd5b6001600160a01b0386165f90815260016020908152604080832063ffffffff8916845282528083208784529091529020546001600160401b0390811690841611801590611332575080155b1561135b57604051630c09b63560e41b81526001600160401b03841660048201526024016112de565b6001600160a01b0386165f90815260026020908152604080832063ffffffff89168452825280832087845282528083206001600160401b0387168452909152908190205f199055517faf0450c392c4f702515a457a362328c8aa21916048ca6d0419e248b30cb552929061119790879087908a9088908890614977565b6001600160a01b038083165f90815260076020908152604080832063ffffffff86168452909152812054909116908161144d5763ffffffff83165f908152600a60205260409020546001600160a01b031691508161144957604051633c74268360e11b815260040160405180910390fd5b5060015b9250929050565b61145d856133bf565b6001600160a01b0385165f90815260026020908152604080832063ffffffff88168452825280832086845282528083206001600160401b03861684529091529020548181146114c957604051637182306f60e01b815260048101829052602481018390526044016112de565b80158061151257506001600160a01b0386165f90815260016020908152604080832063ffffffff8916845282528083208784529091529020546001600160401b03908116908416115b1561153b57604051630c09b63560e41b81526001600160401b03841660048201526024016112de565b6001600160a01b0386165f90815260026020908152604080832063ffffffff89168452825280832087845282528083206001600160401b038716845290915280822091909155517f7f68a37a6e69a0de35024a234558f9efe4b33b58657753d21eaaa82d51c3510e9061119790879087908a9088908890614977565b63ffffffff81165f908152600960205260408120546001600160a01b0316158015906115ff575063ffffffff82165f908152600a60205260409020546001600160a01b031615155b92915050565b336001600160a01b03168b6001600160a01b03168d6001600160a01b03167f8a0b1dce321c5c5fb42349bce46d18087c04140de520917661fb923e44a904b98d8d8d8d8d8d8d8d8d8d6040516116649a999897969594939291906149b4565b60405180910390a4505050505050505050505050565b6001600160a01b0382165f90815260056020526040902054829060ff161580156116ac57506001600160a01b03811615155b156116ca5760405163a4ff2ec360e01b815260040160405180910390fd5b826001600160a01b0381161561176a575f816001600160a01b0316631881d94d6040518163ffffffff1660e01b8152600401602060405180830381865afa158015611717573d5f5f3e3d5ffd5b505050506040513d601f19601f8201168201806040525081019061173b9190614818565b600281111561174c5761174c614804565b0361176a576040516342756b1b60e11b815260040160405180910390fd5b83856001600160a01b03821615611804576040516319d4335360e21b815263ffffffff821660048201526001600160a01b03831690636750cd4c90602401602060405180830381865afa1580156117c3573d5f5f3e3d5ffd5b505050506040513d601f19601f820116820180604052508101906117e79190614843565b61180457604051630e476aa960e21b815260040160405180910390fd5b61180d886133bf565b6001600160a01b038089165f90815260076020908152604080832063ffffffff8c1684529091529020548116908716810361185b5760405163d0ecb66b60e01b815260040160405180910390fd5b6001600160a01b038981165f81815260076020908152604080832063ffffffff8e168085529083529281902080546001600160a01b031916958d1695861790558051938452908301919091528101919091527fcd6f92f5ac6185a5acfa02c92090746cec64d777269cbcd0ed031e396657a1c29060600160405180910390a185156119d2576001600160a01b03811615806118fd57506001600160a01b038716155b1561191b57604051633c075f7560e01b815260040160405180910390fd5b5f6040518060400160405280836001600160a01b0316815260200188436119429190614a30565b90526001600160a01b038b81165f90815260086020908152604080832063ffffffff8f168452825291829020845181546001600160a01b03191694169390931783558301516001909201829055519192507f4e0a5bbfa0c11a64effb1ada324b5437a17272e1aed9320398715ef71bb20928916119c4918d918d91879161485e565b60405180910390a150611a42565b6001600160a01b0389165f90815260086020908152604080832063ffffffff8c16845290915280822080546001600160a01b0319168155600101829055517f4e0a5bbfa0c11a64effb1ada324b5437a17272e1aed9320398715ef71bb2092891610fd1918c918c9186919061485e565b505050505050505050565b336001600160a01b03168a6001600160a01b03167f7edfa10fe10193301ad8a8bea7e968c7bcabcc64981f368e3aeada40ce26ae2c8d8c8c8c8c8c8c8c8c8c604051611aa29a99989796959493929190614a43565b60405180910390a35050505050505050505050565b6001600160a01b0383165f90815260056020526040902054839060ff16611af157604051631bc58ef360e11b815260040160405180910390fd5b611afa856133bf565b604051631077eb9160e11b81526001600160a01b038516906320efd72290611b2a90889087908790600401614aa0565b5f604051808303815f87803b158015611b41575f5ffd5b505af1158015611a42573d5f5f3e3d5ffd5b611b5b6138a1565b611b645f6138cd565b565b335f908152600c602090815260408083206001600160a01b03891684528252808320878452825280832061ffff8716845290915290205415611bbb57604051630542086560e21b815260040160405180910390fd5b8181604051611bcb929190614b98565b60408051918290038220335f818152600c60209081528482206001600160a01b038c16835281528482208a8352815284822061ffff8a168352905292909220557f3d52ff888d033fd3dd1d8057da59e850c91d91a72c41dfa445b247dfedeb6dc191611c41919088908890889088908890614ba7565b60405180910390a15050505050565b6001600160a01b0381165f9081526001602090815260408220611cb391859185918590611c7f908501856141ec565b63ffffffff16815260208082019290925260409081015f9081208984013582529092529020546001600160401b031661391c565b9392505050565b60606004805480602002602001604051908101604052809291908181526020018280548015611d1057602002820191905f5260205f20905b81546001600160a01b03168152600190910190602001808311611cf2575b5050505050905090565b6001600160a01b038089165f908152600c60209081526040808320938b168352928152828220898352815282822061ffff891683529052818120549151611d649087908790614b98565b60405180910390209050808214611d98576040516335ca595f60e01b815260048101839052602481018290526044016112de565b6001600160a01b03808b165f908152600c60209081526040808320938d168084529382528083208c8452825280832061ffff8c168452909152908190206001905551630685081360e51b815263d0a10260903490611e06908e908d908c908c9033908d908d90600401614bf0565b5f604051808303818588803b158015611e1d575f5ffd5b505af1158015611e2f573d5f5f3e3d5ffd5b50505050507e36c98efcf9e6641dfbc9051f66f405253e8e0c2ab4a24dccda15595b7378c88a8a8a8a604051611e9094939291906001600160a01b039485168152929093166020830152604082015261ffff91909116606082015260800190565b60405180910390a150505050505050505050565b6001600160a01b0381165f90815260056020526040902054819060ff16158015611ed657506001600160a01b03811615155b15611ef45760405163a4ff2ec360e01b815260040160405180910390fd5b816001600160a01b03811615611f95576001816001600160a01b0316631881d94d6040518163ffffffff1660e01b8152600401602060405180830381865afa158015611f42573d5f5f3e3d5ffd5b505050506040513d601f19601f82011682018060405250810190611f669190614818565b6002811115611f7757611f77614804565b03611f9557604051633d00f6f160e11b815260040160405180910390fd5b82846001600160a01b0382161561202f576040516319d4335360e21b815263ffffffff821660048201526001600160a01b03831690636750cd4c90602401602060405180830381865afa158015611fee573d5f5f3e3d5ffd5b505050506040513d601f19601f820116820180604052508101906120129190614843565b61202f57604051630e476aa960e21b815260040160405180910390fd5b612038876133bf565b6001600160a01b038781165f90815260066020908152604080832063ffffffff8b1684529091529020548187169116036120855760405163d0ecb66b60e01b815260040160405180910390fd5b6001600160a01b038781165f81815260066020908152604080832063ffffffff8c168085529083529281902080546001600160a01b031916958b1695861790558051938452908301919091528101919091527f4cff966ebee29a156dcb34cf72c1d06231fb1777f6bdf6e8089819232f002b1c90606001610d06565b5f5f5f61210e86866113d8565b91509150816001600160a01b0316846001600160a01b03160361213657600192505050611cb3565b5f81612169576001600160a01b0387165f90815260086020908152604080832063ffffffff8a168452909152902061217e565b63ffffffff86165f908152600b602052604090205b6040805180820190915281546001600160a01b03908116808352600190930154602083015290925086161480156121b85750438160200151115b156121c95760019350505050611cb3565b505f9695505050505050565b6001600160a01b0383165f90815260016020908152604080832063ffffffff8616845282528083208484529091528120546001600160401b03165b61221f8585858460010161399d565b1561222c57600101612210565b949350505050565b61223c6138a1565b6001600160a01b0382165f90815260056020526040902054829060ff1661227657604051631bc58ef360e11b815260040160405180910390fd5b826001600160a01b03811615612316575f816001600160a01b0316631881d94d6040518163ffffffff1660e01b8152600401602060405180830381865afa1580156122c3573d5f5f3e3d5ffd5b505050506040513d601f19601f820116820180604052508101906122e79190614818565b60028111156122f8576122f8614804565b03612316576040516342756b1b60e11b815260040160405180910390fd5b83856001600160a01b038216156123b0576040516319d4335360e21b815263ffffffff821660048201526001600160a01b03831690636750cd4c90602401602060405180830381865afa15801561236f573d5f5f3e3d5ffd5b505050506040513d601f19601f820116820180604052508101906123939190614843565b6123b057604051630e476aa960e21b815260040160405180910390fd5b63ffffffff87165f908152600a60205260409020546001600160a01b0390811690871681036123f25760405163d0ecb66b60e01b815260040160405180910390fd5b63ffffffff88165f818152600a602090815260409182902080546001600160a01b0319166001600160a01b038c169081179091558251938452908301527fc16891855cffb4a5ac51ac11864a3f3c96ba816cc45fe686c987ae36277de5ec910160405180910390a185156124de5763ffffffff88165f908152600b6020526040902080546001600160a01b0319166001600160a01b0383161781556124978743614a30565b600182018190556040517f55b28633cdb29709386f555dfc54418592ad475ce7a65a78ac5928af60ffb8f8916124d0918c918691614c39565b60405180910390a150612540565b63ffffffff88165f908152600b602052604080822080546001600160a01b0319168155600101829055517f55b28633cdb29709386f555dfc54418592ad475ce7a65a78ac5928af60ffb8f891612537918b918591614c39565b60405180910390a15b5050505050505050565b6125526138a1565b61255d8383836139e9565b505050565b6125798261257360208601866141ec565b33612101565b612596576040516313e9bb2b60e21b815260040160405180910390fd5b6001600160a01b0382165f90815260016020908152604082209082906125be908701876141ec565b63ffffffff16815260208082019290925260409081015f9081208784013582529092529020546001600160401b031690506125fa84848361391c565b6126175760405163751cb20f60e01b815260040160405180910390fd5b612622848483613a0c565b61263e5760405162bbf0e560e11b815260040160405180910390fd5b61266a8361264f60208701876141ec565b60208701356126646060890160408a016146f5565b86613ac2565b7f0d87345f3d1c929caba93e1c3821b54ff3512e12b66aa3cfe54b6bcbc17e59b484848460405161269d93929190614c60565b60405180910390a150505050565b6001600160a01b0383165f90815260036020908152604080832063ffffffff86168452825280832084845290915281205481906126f2906001600160401b03166001614c88565b9050612721817f0000000000000000000000000000000000000000000000000000000000000000878787613b27565b95945050505050565b6127326138a1565b6001600160a01b0381165f90815260056020526040902054819060ff1661276c57604051631bc58ef360e11b815260040160405180910390fd5b816001600160a01b0381161561280d576001816001600160a01b0316631881d94d6040518163ffffffff1660e01b8152600401602060405180830381865afa1580156127ba573d5f5f3e3d5ffd5b505050506040513d601f19601f820116820180604052508101906127de9190614818565b60028111156127ef576127ef614804565b0361280d57604051633d00f6f160e11b815260040160405180910390fd5b82846001600160a01b038216156128a7576040516319d4335360e21b815263ffffffff821660048201526001600160a01b03831690636750cd4c90602401602060405180830381865afa158015612866573d5f5f3e3d5ffd5b505050506040513d601f19601f8201168201806040525081019061288a9190614843565b6128a757604051630e476aa960e21b815260040160405180910390fd5b63ffffffff86165f908152600960205260409020546001600160a01b038087169116036128e75760405163d0ecb66b60e01b815260040160405180910390fd5b63ffffffff86165f8181526009602090815260409182902080546001600160a01b0319166001600160a01b038a169081179091558251938452908301527f16aa0f528038ab41019e95bae5b418a50ba8532c5800e3b7ea2f517d3fa625f59101611197565b6001600160a01b038083165f90815260066020908152604080832063ffffffff8616845290915290205416806115ff575063ffffffff81165f908152600960205260409020546001600160a01b0316806115ff57604051636c1ccdb560e01b815260040160405180910390fd5b6129c16138a1565b7f00000000000000000000000000000000000000000000000000000000000000006001600160a01b0316816001600160a01b031603612a13576040516310647d0b60e01b815260040160405180910390fd5b612a1c81613b9f565b50565b6001600160a01b0381165f9081526001602090815260408220611cb391859185918590612a4e908501856141ec565b63ffffffff16815260208082019290925260409081015f9081208984013582529092529020546001600160401b0316613a0c565b335f818152600f602090815260409182902080546001600160a01b0319166001600160a01b0386169081179091558251938452908301527f6ee10e9ed4d6ce9742703a498707862f4b00f1396a87195eb93267b3d798398191015b60405180910390a150565b6001600160a01b0382165f90815260056020526040902054829060ff16612b2257604051631bc58ef360e11b815260040160405180910390fd5b826001600160a01b03811615612bc2575f816001600160a01b0316631881d94d6040518163ffffffff1660e01b8152600401602060405180830381865afa158015612b6f573d5f5f3e3d5ffd5b505050506040513d601f19601f82011682018060405250810190612b939190614818565b6002811115612ba457612ba4614804565b03612bc2576040516342756b1b60e11b815260040160405180910390fd5b83856001600160a01b03821615612c5c576040516319d4335360e21b815263ffffffff821660048201526001600160a01b03831690636750cd4c90602401602060405180830381865afa158015612c1b573d5f5f3e3d5ffd5b505050506040513d601f19601f82011682018060405250810190612c3f9190614843565b612c5c57604051630e476aa960e21b815260040160405180910390fd5b612c646138a1565b845f03612c965763ffffffff87165f908152600b6020526040812080546001600160a01b031916815560010155612cea565b438511612cb6576040516302efcf9160e11b815260040160405180910390fd5b63ffffffff87165f908152600b6020526040902080546001600160a01b0319166001600160a01b0388161781556001018590555b7f55b28633cdb29709386f555dfc54418592ad475ce7a65a78ac5928af60ffb8f8878787604051610d0693929190614c39565b612d26846133bf565b612d318484846121d5565b612d3c906001614c88565b6001600160401b0316816001600160401b031614612d7857604051630c09b63560e41b81526001600160401b03821660048201526024016112de565b6001600160a01b0384165f81815260016020908152604080832063ffffffff8816808552908352818420878552835292819020805467ffffffffffffffff19166001600160401b038716908117909155815193845291830186905282019290925260608101919091527f28f40053783033ef755556a0c3315379141f51a33aed8334174ffbadd90bde489060800161269d565b604080518082019091525f8082526020820152612e2e60a084016080850161488e565b8015612e435750600e546001600160a01b0316155b15612e6157604051632d7b695560e11b815260040160405180910390fd5b6001600160a01b0382165f9081526003602090815260408220908290612e89908701876141ec565b63ffffffff16815260208082019290925260409081015f908120878401358252909252902054612ec3906001600160401b03166001614c88565b90505f6040518060e00160405280836001600160401b031681526020017f000000000000000000000000000000000000000000000000000000000000000063ffffffff168152602001856001600160a01b03168152602001865f016020810190612f2d91906141ec565b63ffffffff16815260200186602001358152602001612f84847f0000000000000000000000000000000000000000000000000000000000000000888a5f016020810190612f7a91906141ec565b8b60200135613b27565b8152602001612f966040880188614ca7565b8080601f0160208091040260200160405190810160405280939291908181526020018383808284375f92018290525093909452509293509150612fe290508561097560208901896141ec565b90506001600160a01b03811663d80e9bd98361300160608a018a614ca7565b61301160a08c0160808d0161488e565b6040518563ffffffff1660e01b81526004016130309493929190614ce9565b6040805180830381865afa15801561304a573d5f5f3e3d5ffd5b505050506040513d601f19601f820116820180604052508101906112639190614dda565b6130766138a1565b6040516301ffc9a760e01b81526325fc096160e21b60048201526001600160a01b038216906301ffc9a790602401602060405180830381865afa1580156130bf573d5f5f3e3d5ffd5b505050506040513d601f19601f820116820180604052508101906130e39190614843565b6131005760405163eb64f35d60e01b815260040160405180910390fd5b6001600160a01b0381165f9081526005602052604090205460ff16156131395760405163457517f360e11b815260040160405180910390fd5b6001600160a01b0381165f818152600560209081526040808320805460ff191660019081179091556004805491820181559093527f8a35acfbc15ff81a39ae7d344fd709f28e8600b4aa8c65c6b64bfe7fe36bd19b90920180546001600160a01b0319168417905590519182527f6b374d56679ca9463f27c85c6311e2bb7fde69bf201d3da39d53f10bd9d78af59101612add565b6131d66138a1565b6001600160a01b0381166131ff57604051631e4fbdf760e01b81525f60048201526024016112de565b612a1c816138cd565b6001600160a01b0385165f90815260016020908152604080832063ffffffff8816845282528083208684529091528120546001600160401b039081169084168110156132f457600181015b846001600160401b0316816001600160401b0316116132a8576132788888888461399d565b6132a057604051630c09b63560e41b81526001600160401b03821660048201526024016112de565b600101613253565b506001600160a01b0387165f90815260016020908152604080832063ffffffff8a16845282528083208884529091529020805467ffffffffffffffff19166001600160401b0386161790555b82516020808501919091206001600160a01b0389165f90815260028352604080822063ffffffff8b168352845280822089835284528082206001600160401b0389168352909352919091205490925080831461336d57604051637182306f60e01b815260048101829052602481018490526044016112de565b50506001600160a01b039095165f90815260026020908152604080832063ffffffff90971683529581528582209482529384528481206001600160401b03909316815291909252918220919091555090565b336001600160a01b038216148015906133f157506001600160a01b038181165f908152600f6020526040902054163314155b15612a1c5760405163c4c5259360e01b815260040160405180910390fd5b613417613d94565b5f806134868561342a60208701876141ec565b6001600160a01b03919091165f90815260036020908152604080832063ffffffff949094168352928152828220818901358352905220805467ffffffffffffffff19811660016001600160401b03928316019182161790915590565b90505f6040518060e00160405280836001600160401b031681526020017f000000000000000000000000000000000000000000000000000000000000000063ffffffff168152602001876001600160a01b03168152602001865f0160208101906134f091906141ec565b63ffffffff1681526020018660200135815260200161353d847f00000000000000000000000000000000000000000000000000000000000000008a8a5f016020810190612f7a91906141ec565b815260200161354f6040880188614ca7565b8080601f0160208091040260200160405190810160405280939291908181526020018383808284375f9201829052509390945250929350915061359b90508761097560208901896141ec565b90505f806001600160a01b038316634389e58f856135bc60608c018c614ca7565b6135cc60a08e0160808f0161488e565b6040518563ffffffff1660e01b81526004016135eb9493929190614ce9565b5f604051808303815f875af1158015613606573d5f5f3e3d5ffd5b505050506040513d5f823e601f3d908101601f1916820160405261362d9190810190614df4565b90925090507f1ab700d4ced0c005b164c0f789fd09fcbb0156d4c2041b8a3bfbcd961cd1567f8161366160608b018b614ca7565b866040516136729493929190614e3f565b60405180910390a1506040805160608101825260a09094015184526001600160401b03909416602084015292820192909252925090509250929050565b6040516370a0823160e01b81523060048201525f907f00000000000000000000000000000000000000000000000000000000000000006001600160a01b0316906370a0823190602401602060405180830381865afa158015613713573d5f5f3e3d5ffd5b505050506040513d601f19601f820116820180604052508101906137379190614e7e565b905090565b5f81156137cf57600e546040516370a0823160e01b81523060048201526001600160a01b03909116906370a0823190602401602060405180830381865afa158015613789573d5f5f3e3d5ffd5b505050506040513d601f19601f820116820180604052508101906137ad9190614e7e565b9050805f036137cf57604051631775123760e01b815260040160405180910390fd5b919050565b82518210806137e65750808360200151115b1561255d5782516020840151604051634f3ec0d360e01b81526004810192909252602482018490526044820152606481018290526084016112de565b831561383357613833858386613bf5565b82841015613848576138488582868603613bf5565b5050505050565b341561386e57604051634d18bd2960e11b815260040160405180910390fd5b61389b7f000000000000000000000000000000000000000000000000000000000000000085858585613822565b50505050565b5f546001600160a01b03163314611b645760405163118cdaa760e01b81523360048201526024016112de565b5f80546001600160a01b038381166001600160a01b0319831681178455604051919092169283917f8be0079c531659141344cd1fd0a4f28419497f9722a3daafe3b4186f6b6457e09190a35050565b5f5f826001600160401b0316118061222c5750604051600162842fc360e01b031981526001600160a01b0384169063ff7bd03d9061395e908790600401614e95565b602060405180830381865afa158015613979573d5f5f3e3d5ffd5b505050506040513d601f19601f8201168201806040525081019061222c9190614843565b6001600160a01b0384165f90815260026020908152604080832063ffffffff87168452825280832085845282528083206001600160401b03851684529091529020541515949350505050565b6001600160a01b038316613a015761255d8282613c30565b61255d838383613bf5565b5f6001600160401b038216613a2760608601604087016146f5565b6001600160401b0316118061222c57506001600160a01b0383165f9081526002602090815260408220908290613a5f908801886141ec565b63ffffffff1663ffffffff1681526020019081526020015f205f866020013581526020019081526020015f205f866040016020810190613a9f91906146f5565b6001600160401b0316815260208101919091526040015f20541415949350505050565b80613ae0576040516304df7fdb60e11b815260040160405180910390fd5b6001600160a01b039094165f90815260026020908152604080832063ffffffff90961683529481528482209382529283528381206001600160401b03909216815291522055565b5f85856001600160a01b03861660405160c09390931b6001600160c01b031916602084015260e091821b6001600160e01b03199081166028850152602c8401919091529085901b16604c8201526050810183905260700160405160208183030381529060405280519060200120905095945050505050565b613ba76138a1565b600e80546001600160a01b0319166001600160a01b0383169081179091556040519081527fd476ec5ec1ac11cec3714d41e7ea49419471aceb9bd0dff1becfc3e363a6239690602001612add565b6001600160a01b038216613c1c576040516306b7a93160e41b815260040160405180910390fd5b61255d6001600160a01b0384168383613cd9565b6001600160a01b038216613c57576040516306b7a93160e41b815260040160405180910390fd5b5f826001600160a01b0316826040515f6040518083038185875af1925050503d805f8114613ca0576040519150601f19603f3d011682016040523d82523d5f602084013e613ca5565b606091505b505090508061255d57604051631196f20d60e21b81526001600160a01b0384166004820152602481018390526044016112de565b604080516001600160a01b03841660248201526044808201849052825180830390910181526064909101909152602080820180516001600160e01b031663a9059cbb60e01b178152825161255d93879390925f9283929183919082885af180613d47576040513d5f823e3d81fd5b50505f513d91508115613d5e578060011415613d6b565b6001600160a01b0384163b155b1561389b57604051635274afe760e01b81526001600160a01b03851660048201526024016112de565b60405180606001604052805f81526020015f6001600160401b03168152602001613dcf60405180604001604052805f81526020015f81525090565b905290565b5f60608284031215613de4575f5ffd5b50919050565b80356001600160a01b03811681146137cf575f5ffd5b5f5f83601f840112613e10575f5ffd5b5081356001600160401b03811115613e26575f5ffd5b60208301915083602082850101111561144d575f5ffd5b5f5f5f5f5f5f5f60e0888a031215613e53575f5ffd5b613e5d8989613dd4565b9650613e6b60608901613dea565b95506080880135945060a08801356001600160401b03811115613e8c575f5ffd5b613e988a828b01613e00565b90955093505060c08801356001600160401b03811115613eb6575f5ffd5b613ec28a828b01613e00565b989b979a50959850939692959293505050565b803563ffffffff811681146137cf575f5ffd5b5f5f5f5f60808587031215613efb575f5ffd5b613f0485613dea565b9350613f1260208601613ed5565b9250613f2060408601613dea565b9396929550929360600135925050565b5f5f60408385031215613f41575f5ffd5b82356001600160401b03811115613f56575f5ffd5b830160a08186031215613f67575f5ffd5b9150613f7560208401613dea565b90509250929050565b5f608082019050825182526001600160401b0360208401511660208301526040830151613fb8604084018280518252602090810151910152565b5092915050565b5f5f5f5f5f60c08688031215613fd3575f5ffd5b613fdc86613dea565b9450613feb8760208801613dd4565b93506080860135925060a08601356001600160401b0381111561400c575f5ffd5b61401888828901613e00565b969995985093965092949392505050565b5f5f5f5f6080858703121561403c575f5ffd5b61404585613dea565b935061405360208601613dea565b925061406160408601613ed5565b915061406f60608601613ed5565b905092959194509250565b5f81518084528060208401602086015e5f602082860101526020601f19601f83011685010191505092915050565b602081525f611cb3602083018461407a565b80356001600160401b03811681146137cf575f5ffd5b5f5f5f5f5f60a086880312156140e4575f5ffd5b6140ed86613dea565b94506140fb60208701613ed5565b935060408601359250614110606087016140ba565b949793965091946080013592915050565b803561ffff811681146137cf575f5ffd5b5f5f5f5f60808587031215614145575f5ffd5b61414e85613dea565b935061415c60208601613dea565b92506040850135915061406f60608601614121565b5f5f60408385031215614182575f5ffd5b61418b83613dea565b9150613f7560208401613ed5565b5f602082840312156141a9575f5ffd5b611cb382613dea565b5f5f5f606084860312156141c4575f5ffd5b6141cd84613dea565b92506141db60208501613ed5565b929592945050506040919091013590565b5f602082840312156141fc575f5ffd5b611cb382613ed5565b5f5f5f5f5f5f5f5f5f5f5f5f6101208d8f031215614221575f5ffd5b61422a8d613dea565b9b5061423860208e01613dea565b9a5060408d0135995061424d60608e01614121565b985060808d0135975060a08d013596506001600160401b0360c08e01351115614274575f5ffd5b6142848e60c08f01358f01613e00565b90965094506001600160401b0360e08e013511156142a0575f5ffd5b6142b08e60e08f01358f01613e00565b90945092506001600160401b036101008e013511156142cd575f5ffd5b6142de8e6101008f01358f01613e00565b81935080925050509295989b509295989b509295989b565b5f5f5f5f5f5f5f5f5f5f5f6101408c8e031215614311575f5ffd5b61431b8d8d613dd4565b9a5061432960608d01613dea565b995060808c0135985060a08c0135975060c08c0135965060e08c01356001600160401b03811115614358575f5ffd5b6143648e828f01613e00565b9097509550506101008c01356001600160401b03811115614383575f5ffd5b61438f8e828f01613e00565b9095509350506101208c01356001600160401b038111156143ae575f5ffd5b6143ba8e828f01613e00565b915080935050809150509295989b509295989b9093969950565b5f5f5f5f606085870312156143e7575f5ffd5b6143f085613dea565b93506143fe60208601613dea565b925060408501356001600160401b03811115614418575f5ffd5b8501601f81018713614428575f5ffd5b80356001600160401b0381111561443d575f5ffd5b8760208260051b8401011115614451575f5ffd5b949793965060200194505050565b5f5f5f5f5f60808688031215614473575f5ffd5b61447c86613dea565b94506020860135935061449160408701614121565b925060608601356001600160401b0381111561400c575f5ffd5b5f5f608083850312156144bc575f5ffd5b6144c68484613dd4565b9150613f7560608401613dea565b602080825282518282018190525f918401906040840190835b818110156145145783516001600160a01b03168352602093840193909201916001016144ed565b509095945050505050565b5f5f5f5f5f5f5f5f60c0898b031215614536575f5ffd5b61453f89613dea565b975061454d60208a01613dea565b96506040890135955061456260608a01614121565b945060808901356001600160401b0381111561457c575f5ffd5b6145888b828c01613e00565b90955093505060a08901356001600160401b038111156145a6575f5ffd5b6145b28b828c01613e00565b999c989b5096995094979396929594505050565b5f5f5f606084860312156145d8575f5ffd5b6145e184613dea565b92506145ef60208501613ed5565b91506145fd60408501613dea565b90509250925092565b5f5f5f60608486031215614618575f5ffd5b61462184613ed5565b92506141db60208501613dea565b5f5f5f60608486031215614641575f5ffd5b61462184613dea565b5f5f5f60a0848603121561465c575f5ffd5b6146668585613dd4565b925061467460608501613dea565b929592945050506080919091013590565b5f5f60408385031215614696575f5ffd5b613f6783613ed5565b5f5f5f5f608085870312156146b2575f5ffd5b6146bb85613dea565b93506146c960208601613ed5565b92506040850135915061406f606086016140ba565b8151815260208083015190820152604081016115ff565b5f60208284031215614705575f5ffd5b611cb3826140ba565b838152818360208301375f910160200190815292915050565b63ffffffff61473582613ed5565b168252602081810135908301526001600160401b03614756604083016140ba565b1660408301525050565b81835281816020850137505f828201602090810191909152601f909101601f19169091010190565b6147928189614727565b86606082015260e060808201525f6147ae60e083018789614760565b6001600160a01b03861660a084015282810360c08401526147d0818587614760565b9a9950505050505050505050565b608081016147ec8285614727565b6001600160a01b039290921660609190910152919050565b634e487b7160e01b5f52602160045260245ffd5b5f60208284031215614828575f5ffd5b815160038110611cb3575f5ffd5b8015158114612a1c575f5ffd5b5f60208284031215614853575f5ffd5b8151611cb381614836565b6001600160a01b03948516815263ffffffff93909316602084015292166040820152606081019190915260800190565b5f6020828403121561489e575f5ffd5b8135611cb381614836565b634e487b7160e01b5f52604160045260245ffd5b5f82601f8301126148cc575f5ffd5b81516001600160401b038111156148e5576148e56148a9565b604051601f8201601f19908116603f011681016001600160401b0381118282101715614913576149136148a9565b60405281815283820160200185101561492a575f5ffd5b8160208501602083015e5f918101602001919091529392505050565b5f60208284031215614956575f5ffd5b81516001600160401b0381111561496b575f5ffd5b61222c848285016148bd565b63ffffffff95909516855260208501939093526001600160a01b039190911660408401526001600160401b03166060830152608082015260a00190565b8a815261ffff8a16602082015288604082015287606082015260e060808201525f6149e360e08301888a614760565b82810360a08401526149f6818789614760565b905082810360c0840152614a0b818587614760565b9d9c50505050505050505050505050565b634e487b7160e01b5f52601160045260245ffd5b808201808211156115ff576115ff614a1c565b614a4d818c614727565b8960608201528860808201528760a082015261012060c08201525f614a776101208301888a614760565b82810360e0840152614a8a818789614760565b9050828103610100840152614a0b818587614760565b6001600160a01b038416815260406020820181905281018290525f6060600584901b830181019083018583605e1936839003015b87821015614b8a57868503605f190184528235818112614af2575f5ffd5b890163ffffffff614b0282613ed5565b16865263ffffffff614b1660208301613ed5565b1660208701526040810135601e19823603018112614b32575f5ffd5b016020810190356001600160401b03811115614b4c575f5ffd5b803603821315614b5a575f5ffd5b60606040880152614b6f606088018284614760565b96505050602083019250602084019350600182019150614ad4565b509298975050505050505050565b818382375f9101908152919050565b6001600160a01b038781168252861660208201526040810185905261ffff8416606082015260a0608082018190525f90614be49083018486614760565b98975050505050505050565b60018060a01b038816815286602082015260a060408201525f614c1760a083018789614760565b6001600160a01b038616606084015282810360808401526147d0818587614760565b63ffffffff9390931683526001600160a01b03919091166020830152604082015260600190565b60a08101614c6e8286614727565b6001600160a01b0393909316606082015260800152919050565b6001600160401b0381811683821601908111156115ff576115ff614a1c565b5f5f8335601e19843603018112614cbc575f5ffd5b8301803591506001600160401b03821115614cd5575f5ffd5b60200191503681900382131561144d575f5ffd5b606080825285516001600160401b031682820152602086015163ffffffff16608083015260408601516001600160a01b031660a08301528501515f90614d3760c084018263ffffffff169052565b50608086015160e083015260a086015161010083015260c086015160e0610120840152614d6861014084018261407a565b90508281036020840152614d7d818688614760565b915050612721604083018415159052565b5f60408284031215614d9e575f5ffd5b604080519081016001600160401b0381118282101715614dc057614dc06148a9565b604052825181526020928301519281019290925250919050565b5f60408284031215614dea575f5ffd5b611cb38383614d8e565b5f5f60608385031215614e05575f5ffd5b614e0f8484614d8e565b915060408301516001600160401b03811115614e29575f5ffd5b614e35858286016148bd565b9150509250929050565b606081525f614e51606083018761407a565b8281036020840152614e64818688614760565b91505060018060a01b038316604083015295945050505050565b5f60208284031215614e8e575f5ffd5b5051919050565b606081016115ff828461472756fea264697066735822122029a0c8eb1380159d4e6bfaf1587c2723b030626cfad85fe8f855609d7bdd432764736f6c634300081c00336080604052348015600e575f5ffd5b506101b88061001c5f395ff3fe608060405234801561000f575f5ffd5b506004361061004a575f3560e01c806301ffc9a7146100635780631881d94d1461008b57806354fd4d501461009a5780636750cd4c146100c1575b604051632657b6c360e01b815260040160405180910390fd5b61007661007136600461010b565b6100d5565b60405190151581526020015b60405180910390f35b60026040516100829190610139565b6040805167ffffffffffffffff815260ff6020820152600291810191909152606001610082565b6100766100cf36600461015f565b50600190565b5f6001600160e01b031982166325fc096160e21b148061010557506301ffc9a760e01b6001600160e01b03198316145b92915050565b5f6020828403121561011b575f5ffd5b81356001600160e01b031981168114610132575f5ffd5b9392505050565b602081016003831061015957634e487b7160e01b5f52602160045260245ffd5b91905290565b5f6020828403121561016f575f5ffd5b813563ffffffff81168114610132575f5ffdfea264697066735822122092270bb09ea79855cecd5441931179eee821ff97585c2b8301ebde4bff57bcb364736f6c634300081c0033","linkReferences":{}},"methodIdentifiers":{"EMPTY_PAYLOAD_HASH()":"cb5026b9","NIL_PAYLOAD_HASH()":"2baf0be7","blockedLibrary()":"73318091","burn(address,uint32,bytes32,uint64,bytes32)":"40f80683","clear(address,(uint32,bytes32,uint64),bytes32,bytes)":"2a56c1b0","composeQueue(address,address,bytes32,uint16)":"35d330b0","defaultReceiveLibrary(uint32)":"6f50a803","defaultReceiveLibraryTimeout(uint32)":"6e83f5bb","defaultSendLibrary(uint32)":"f64be4c7","delegates(address)":"587cde1e","eid()":"416ecebf","getConfig(address,address,uint32,uint32)":"2b3197b9","getReceiveLibrary(address,uint32)":"402f8468","getRegisteredLibraries()":"9132e5c3","getSendContext()":"14f651a9","getSendLibrary(address,uint32)":"b96a277f","inboundNonce(address,uint32,bytes32)":"a0dd43fc","inboundPayloadHash(address,uint32,bytes32,uint64)":"c9fc7bcd","initializable((uint32,bytes32,uint64),address)":"861e1ca5","isDefaultSendLibrary(address,uint32)":"dc93c8a2","isRegisteredLibrary(address)":"dc706a62","isSendingMessage()":"79624ca9","isSupportedEid(uint32)":"6750cd4c","isValidReceiveLibrary(address,uint32,address)":"9d7f9775","lazyInboundNonce(address,uint32,bytes32)":"5b17bb70","lzCompose(address,address,bytes32,uint16,bytes,bytes)":"91d20fa1","lzComposeAlert(address,address,bytes32,uint16,uint256,uint256,bytes,bytes,bytes)":"697fe6b6","lzReceive((uint32,bytes32,uint64),address,bytes32,bytes,bytes)":"0c0c389e","lzReceiveAlert((uint32,bytes32,uint64),address,bytes32,uint256,uint256,bytes,bytes,bytes)":"6bf73fa3","lzToken()":"e4fe1d94","nativeToken()":"e1758bd8","nextGuid(address,uint32,bytes32)":"aafe5e07","nilify(address,uint32,bytes32,uint64,bytes32)":"2e80fbf3","outboundNonce(address,uint32,bytes32)":"9c6d7340","owner()":"8da5cb5b","quote((uint32,bytes32,bytes,bytes,bool),address)":"ddc28c58","receiveLibraryTimeout(address,uint32)":"ef667aa1","recoverToken(address,address,uint256)":"a7229fd9","registerLibrary(address)":"e8964e81","renounceOwnership()":"715018a6","send((uint32,bytes32,bytes,bytes,bool),address)":"2637a450","sendCompose(address,bytes32,uint16,bytes)":"7cb59012","setConfig(address,address,(uint32,uint32,bytes)[])":"6dbd9f90","setDefaultReceiveLibrary(uint32,address,uint256)":"a718531b","setDefaultReceiveLibraryTimeout(uint32,address,uint256)":"d4b4ec8f","setDefaultSendLibrary(uint32,address)":"aafea312","setDelegate(address)":"ca5eb5e1","setLzToken(address)":"c28e0eed","setReceiveLibrary(address,uint32,address,uint256)":"6a14d715","setReceiveLibraryTimeout(address,uint32,address,uint256)":"183c834f","setSendLibrary(address,uint32,address)":"9535ff30","skip(address,uint32,bytes32,uint64)":"d70b8902","transferOwnership(address)":"f2fde38b","verifiable((uint32,bytes32,uint64),address)":"c9a54a99","verify((uint32,bytes32,uint64),address,bytes32)":"a825d747"},"id":154}