{"abi":[{"type":"function","name":"price","inputs":[{"name":"_source","type":"address","internalType":"address"}],"outputs":[{"name":"latestAnswer","type":"uint256","internalType":"uint256"},{"name":"lastUpdated","type":"uint256","internalType":"uint256"}],"stateMutability":"view"}],"bytecode":{"object":"0x6103f2610034600b8282823980515f1a607314602857634e487b7160e01b5f525f60045260245ffd5b305f52607381538281f3fe7300000000000000000000000000000000000000003014608060405260043610610034575f3560e01c8063aea9107814610038575b5f5ffd5b61004b6100463660046101a9565b610064565b6040805192835260208301919091520160405180910390f35b5f5f5f836001600160a01b031663313ce5676040518163ffffffff1660e01b8152600401602060405180830381865afa1580156100a3573d5f5f3e3d5ffd5b505050506040513d601f19601f820116820180604052508101906100c791906101d6565b90505f846001600160a01b031663feaf968c6040518163ffffffff1660e01b815260040160a060405180830381865afa158015610106573d5f5f3e3d5ffd5b505050506040513d601f19601f8201168201806040525081019061012a9190610214565b509550909250505f821290506101405780610142565b5f5b935060088260ff1610156101735761015b826008610276565b61016690600a610378565b6101709085610386565b93505b60088260ff1611156101a25761018a600883610276565b61019590600a610378565b61019f908561039d565b93505b5050915091565b5f602082840312156101b9575f5ffd5b81356001600160a01b03811681146101cf575f5ffd5b9392505050565b5f602082840312156101e6575f5ffd5b815160ff811681146101cf575f5ffd5b805169ffffffffffffffffffff8116811461020f575f5ffd5b919050565b5f5f5f5f5f60a08688031215610228575f5ffd5b610231866101f6565b60208701516040880151606089015192975090955093509150610256608087016101f6565b90509295509295909350565b634e487b7160e01b5f52601160045260245ffd5b60ff828116828216039081111561028f5761028f610262565b92915050565b6001815b60018411156102d0578085048111156102b4576102b4610262565b60018416156102c257908102905b60019390931c928002610299565b935093915050565b5f826102e65750600161028f565b816102f257505f61028f565b816001811461030857600281146103125761032e565b600191505061028f565b60ff84111561032357610323610262565b50506001821b61028f565b5060208310610133831016604e8410600b8410161715610351575081810a61028f565b61035d5f198484610295565b805f190482111561037057610370610262565b029392505050565b5f6101cf60ff8416836102d8565b808202811582820484141761028f5761028f610262565b5f826103b757634e487b7160e01b5f52601260045260245ffd5b50049056fea26469706673582212201c5c9f9128a23d206b8ba9bb783e6e3d92e7e74b95d3fc7411b50a2e5df8bbab64736f6c634300081c0033","linkReferences":{}},"methodIdentifiers":{"price(address)":"aea91078"},"id":72}