{"abi":[{"type":"constructor","inputs":[{"name":"_actors","type":"address[]","internalType":"address[]"}],"stateMutability":"nonpayable"},{"type":"function","name":"randomActor","inputs":[{"name":"actorIndexSeed","type":"uint256","internalType":"uint256"},{"name":"actor1","type":"address","internalType":"address"},{"name":"actor2","type":"address","internalType":"address"},{"name":"actor3","type":"address","internalType":"address"}],"outputs":[{"name":"","type":"address","internalType":"address"}],"stateMutability":"pure"},{"type":"function","name":"randomActor","inputs":[{"name":"actorIndexSeed","type":"uint256","internalType":"uint256"}],"outputs":[{"name":"","type":"address","internalType":"address"}],"stateMutability":"view"},{"type":"function","name":"randomActor","inputs":[{"name":"_actors","type":"address[]","internalType":"address[]"},{"name":"actorIndexSeed","type":"uint256","internalType":"uint256"}],"outputs":[{"name":"","type":"address","internalType":"address"}],"stateMutability":"pure"},{"type":"function","name":"randomActor","inputs":[{"name":"actorIndexSeed","type":"uint256","internalType":"uint256"},{"name":"actor1","type":"address","internalType":"address"},{"name":"actor2","type":"address","internalType":"address"}],"outputs":[{"name":"","type":"address","internalType":"address"}],"stateMutability":"pure"},{"type":"function","name":"randomActorExcept","inputs":[{"name":"actorIndexSeed","type":"uint256","internalType":"uint256"},{"name":"except","type":"address","internalType":"address"}],"outputs":[{"name":"","type":"address","internalType":"address"}],"stateMutability":"view"}],"bytecode":{"object":"0x608060405234801561000f575f5ffd5b50604051610b81380380610b8183398101604081905261002e91610137565b80515f036100775760405162461bcd60e51b8152602060048201526012602482015271139bc81858dd1bdc9cc81c1c9bdd9a59195960721b604482015260640160405180910390fd5b805161008a906009906020840190610091565b5050610201565b828054828255905f5260205f209081019282156100e4579160200282015b828111156100e457825182546001600160a01b0319166001600160a01b039091161782556020909201916001909101906100af565b506100f09291506100f4565b5090565b5b808211156100f0575f81556001016100f5565b634e487b7160e01b5f52604160045260245ffd5b80516001600160a01b0381168114610132575f5ffd5b919050565b5f60208284031215610147575f5ffd5b81516001600160401b0381111561015c575f5ffd5b8201601f8101841361016c575f5ffd5b80516001600160401b0381111561018557610185610108565b604051600582901b90603f8201601f191681016001600160401b03811182821017156101b3576101b3610108565b6040529182526020818401810192908101878411156101d0575f5ffd5b6020850194505b838510156101f6576101e88561011c565b8152602094850194016101d7565b509695505050505050565b6109738061020e5f395ff3fe608060405234801561000f575f5ffd5b5060043610610055575f3560e01c80633704da21146100595780633fefd05814610088578063b829af851461009b578063cd888e84146100ae578063f114e313146100c1575b5f5ffd5b61006c6100673660046106d1565b6100d4565b6040516001600160a01b03909116815260200160405180910390f35b61006c61009636600461071b565b6101a8565b61006c6100a9366004610732565b6101f1565b61006c6100bc366004610770565b610377565b61006c6100cf366004610843565b6103ac565b604080516003808252608082019092525f918291906020820160608036833701905050905084815f8151811061010c5761010c61087c565b60200260200101906001600160a01b031690816001600160a01b03168152505083816001815181106101405761014061087c565b60200260200101906001600160a01b031690816001600160a01b03168152505082816002815181106101745761017461087c565b60200260200101906001600160a01b031690816001600160a01b03168152505061019e8187610377565b9695505050505050565b5f60096101c7835f60016009805490506101c291906108a4565b61044c565b815481106101d7576101d761087c565b5f918252602090912001546001600160a01b031692915050565b6009545f908190610204906001906108a4565b67ffffffffffffffff81111561021c5761021c61075c565b604051908082528060200260200182016040528015610245578160200160208202803683370190505b5090505f805b6009548110156102f957846001600160a01b0316600982815481106102725761027261087c565b5f918252602090912001546001600160a01b0316146102f1576009818154811061029e5761029e61087c565b905f5260205f20015f9054906101000a90046001600160a01b03168383815181106102cb576102cb61087c565b6001600160a01b0390921660209283029190910190910152816102ed816108b7565b9250505b60010161024b565b5081515f036103405760405162461bcd60e51b815260206004820152600e60248201526d139bc81858dd1bdc9cc81b19599d60921b60448201526064015b60405180910390fd5b81610354865f600186516101c291906108a4565b815181106103645761036461087c565b6020026020010151925050505b92915050565b5f8261038c835f600187516101c291906108a4565b8151811061039c5761039c61087c565b6020026020010151905092915050565b6040805160028082526060820183525f928392919060208301908036833701905050905083815f815181106103e3576103e361087c565b60200260200101906001600160a01b031690816001600160a01b03168152505082816001815181106104175761041761087c565b60200260200101906001600160a01b031690816001600160a01b0316815250506104418186610377565b9150505b9392505050565b5f610458848484610488565b90506104456040518060400160405280600c81526020016b109bdd5b99081c995cdd5b1d60a21b81525082610641565b5f818311156104ff5760405162461bcd60e51b815260206004820152603e60248201527f5374645574696c7320626f756e642875696e743235362c75696e743235362c7560448201527f696e74323536293a204d6178206973206c657373207468616e206d696e2e00006064820152608401610337565b82841015801561050f5750818411155b1561051b575082610445565b5f61052684846108a4565b6105319060016108cf565b90506003851115801561054357508481115b1561055a5761055285856108cf565b915050610445565b61056660035f196108a4565b851015801561057e575061057b855f196108a4565b81115b156105985761058e855f196108a4565b61055290846108a4565b828511156105eb575f6105ab84876108a4565b90505f6105b883836108e2565b9050805f036105cc57849350505050610445565b60016105d882886108cf565b6105e291906108a4565b93505050610639565b83851015610639575f6105fe86866108a4565b90505f61060b83836108e2565b9050805f0361061f57859350505050610445565b61062981866108a4565b6106349060016108cf565b935050505b509392505050565b6106868282604051602401610657929190610901565b60408051601f198184030181529190526020810180516001600160e01b0316632d839cb360e21b17905261068a565b5050565b61069381610696565b50565b80516a636f6e736f6c652e6c6f67602083015f808483855afa5050505050565b80356001600160a01b03811681146106cc575f5ffd5b919050565b5f5f5f5f608085870312156106e4575f5ffd5b843593506106f4602086016106b6565b9250610702604086016106b6565b9150610710606086016106b6565b905092959194509250565b5f6020828403121561072b575f5ffd5b5035919050565b5f5f60408385031215610743575f5ffd5b82359150610753602084016106b6565b90509250929050565b634e487b7160e01b5f52604160045260245ffd5b5f5f60408385031215610781575f5ffd5b823567ffffffffffffffff811115610797575f5ffd5b8301601f810185136107a7575f5ffd5b803567ffffffffffffffff8111156107c1576107c161075c565b8060051b604051601f19603f830116810181811067ffffffffffffffff821117156107ee576107ee61075c565b60405291825260208184018101929081018884111561080b575f5ffd5b6020850194505b8385101561083157610823856106b6565b815260209485019401610812565b50976020969096013596505050505050565b5f5f5f60608486031215610855575f5ffd5b83359250610865602085016106b6565b9150610873604085016106b6565b90509250925092565b634e487b7160e01b5f52603260045260245ffd5b634e487b7160e01b5f52601160045260245ffd5b8181038181111561037157610371610890565b5f600182016108c8576108c8610890565b5060010190565b8082018082111561037157610371610890565b5f826108fc57634e487b7160e01b5f52601260045260245ffd5b500690565b604081525f83518060408401528060208601606085015e5f606082850101526060601f19601f830116840101915050826020830152939250505056fea26469706673582212200bdd821b815f29d6e02adb3aba74d0d4cdcda223084875cca20c2abd56bde81f64736f6c634300081c0033","linkReferences":{}},"methodIdentifiers":{"randomActor(address[],uint256)":"cd888e84","randomActor(uint256)":"3fefd058","randomActor(uint256,address,address)":"f114e313","randomActor(uint256,address,address,address)":"3704da21","randomActorExcept(uint256,address)":"b829af85"},"id":322}