{"abi":[{"type":"function","name":"onSlash","inputs":[{"name":"subnetwork","type":"bytes32","internalType":"bytes32"},{"name":"operator","type":"address","internalType":"address"},{"name":"slashedAmount","type":"uint256","internalType":"uint256"},{"name":"captureTimestamp","type":"uint48","internalType":"uint48"},{"name":"data","type":"bytes","internalType":"bytes"}],"outputs":[],"stateMutability":"nonpayable"},{"type":"error","name":"NotNetworkRestakeDelegator","inputs":[]}],"bytecode":{"object":"0x6080604052348015600e575f5ffd5b5061097b8061001c5f395ff3fe608060405234801561000f575f5ffd5b5060043610610029575f3560e01c8063e49561ee1461002d575b5f5ffd5b61004061003b366004610581565b610042565b005b336001600160a01b031663bb24fe8a6040518163ffffffff1660e01b8152600401602060405180830381865afa15801561007e573d5f5f3e3d5ffd5b505050506040513d601f19601f820116820180604052508101906100a29190610659565b67ffffffffffffffff16156100ca576040516306d4818960e01b815260040160405180910390fd5b831561040d575f6100dd828401846106e2565b90505f815f015167ffffffffffffffff165f0361011a575f826020015180602001905181019061010d91906107bb565b6020015191506101bd9050565b815167ffffffffffffffff16600103610146575f826020015180602001905181019061010d91906107ec565b604080515f8152602081019182905263e02f693760e01b909152339063e02f69379061017b908b908b908a9060248101610845565b602060405180830381865afa158015610196573d5f5f3e3d5ffd5b505050506040513d601f19601f820116820180604052508101906101ba919061089f565b90505b604051633eb22c0f60e01b8152600481018990525f903390633eb22c0f90602401602060405180830381865afa1580156101f9573d5f5f3e3d5ffd5b505050506040513d601f19601f8201168201806040525081019061021d919061089f565b90508015610292573363021453488a6102368a85610415565b61024090856108ca565b6040516001600160e01b031960e085901b168152600481019290925260248201526044015f604051808303815f87803b15801561027b575f5ffd5b505af115801561028d573d5f5f3e3d5ffd5b505050505b604080515f808252602082019283905263069e9c1160e21b9092523390631a7a7044906102c8908d908d908c9060248101610845565b602060405180830381865afa1580156102e3573d5f5f3e3d5ffd5b505050506040513d601f19601f82011682018060405250810190610307919061089f565b6040516342c53e3360e01b8152600481018c90526001600160a01b038b1660248201529091505f9033906342c53e3390604401602060405180830381865afa158015610355573d5f5f3e3d5ffd5b505050506040513d601f19601f82011682018060405250810190610379919061089f565b90508015610407576103976103918a8487600161042c565b82610415565b6103a190826108ca565b60405163a33bc28760e01b8152600481018d90526001600160a01b038c16602482015260448101829052909150339063a33bc287906064015f604051808303815f87803b1580156103f0575f5ffd5b505af1158015610402573d5f5f3e3d5ffd5b505050505b50505050505b505050505050565b5f6104238284108484610477565b90505b92915050565b5f61045961043983610488565b801561045457505f848061044f5761044f6108dd565b868809115b151590565b6104648686866104b4565b61046e91906108f1565b95945050505050565b8181188315150281185b9392505050565b5f600282600381111561049d5761049d610904565b6104a79190610918565b60ff166001149050919050565b5f838302815f1985870982811083820303915050805f036104e8578382816104de576104de6108dd565b0492505050610481565b80841161050557610505610500851560126011610477565b610570565b5f848688095f868103871696879004966002600389028118808a02820302808a02820302808a02820302808a02820302808a02820302808a02909103029181900381900460010186841190950394909402919094039290920491909117919091029150509392505050565b634e487b715f52806020526024601cfd5b5f5f5f5f5f5f60a08789031215610596575f5ffd5b8635955060208701356001600160a01b03811681146105b3575f5ffd5b945060408701359350606087013565ffffffffffff811681146105d4575f5ffd5b9250608087013567ffffffffffffffff8111156105ef575f5ffd5b87015f80601f83018b13610601575f5ffd5b50813567ffffffffffffffff811115610618575f5ffd5b6020830191508a602082850101111561062f575f5ffd5b979a9699509497509295939492505050565b67ffffffffffffffff81168114610656575f5ffd5b50565b5f60208284031215610669575f5ffd5b815161048181610641565b634e487b7160e01b5f52604160045260245ffd5b6040805190810167ffffffffffffffff811182821017156106ab576106ab610674565b60405290565b604051601f8201601f1916810167ffffffffffffffff811182821017156106da576106da610674565b604052919050565b5f602082840312156106f2575f5ffd5b813567ffffffffffffffff811115610708575f5ffd5b820160408185031215610719575f5ffd5b610721610688565b813561072c81610641565b8152602082013567ffffffffffffffff811115610747575f5ffd5b80830192505084601f83011261075b575f5ffd5b813567ffffffffffffffff81111561077557610775610674565b610788601f8201601f19166020016106b1565b81815286602083860101111561079c575f5ffd5b816020850160208301375f602092820183015290820152949350505050565b5f60408284031280156107cc575f5ffd5b506107d5610688565b825181526020928301519281019290925250919050565b5f60608284031280156107fd575f5ffd5b506040516060810167ffffffffffffffff8111828210171561082157610821610674565b60409081528351825260208085015190830152928301519281019290925250919050565b84815260018060a01b038416602082015265ffffffffffff83166040820152608060608201525f8251806080840152806020850160a085015e5f60a0828501015260a0601f19601f83011684010191505095945050505050565b5f602082840312156108af575f5ffd5b5051919050565b634e487b7160e01b5f52601160045260245ffd5b81810381811115610426576104266108b6565b634e487b7160e01b5f52601260045260245ffd5b80820180821115610426576104266108b6565b634e487b7160e01b5f52602160045260245ffd5b5f60ff83168061093657634e487b7160e01b5f52601260045260245ffd5b8060ff8416069150509291505056fea26469706673582212208371f39caac03cbd9b498a6de9ffbd36f0be3472f4fa5281921fcfce5d37bdcd64736f6c634300081c0033","linkReferences":{}},"methodIdentifiers":{"onSlash(bytes32,address,uint256,uint48,bytes)":"e49561ee"},"id":17}