{"abi":[{"type":"function","name":"checkAccess","inputs":[{"name":"","type":"bytes4","internalType":"bytes4"},{"name":"","type":"address","internalType":"address"},{"name":"","type":"address","internalType":"address"}],"outputs":[{"name":"hasAccess","type":"bool","internalType":"bool"}],"stateMutability":"pure"},{"type":"function","name":"grantAccess","inputs":[{"name":"_selector","type":"bytes4","internalType":"bytes4"},{"name":"_contract","type":"address","internalType":"address"},{"name":"_caller","type":"address","internalType":"address"}],"outputs":[],"stateMutability":"nonpayable"},{"type":"function","name":"initialize","inputs":[{"name":"_admin","type":"address","internalType":"address"}],"outputs":[],"stateMutability":"nonpayable"},{"type":"function","name":"revokeAccess","inputs":[{"name":"_selector","type":"bytes4","internalType":"bytes4"},{"name":"_contract","type":"address","internalType":"address"},{"name":"_caller","type":"address","internalType":"address"}],"outputs":[],"stateMutability":"nonpayable"},{"type":"function","name":"role","inputs":[{"name":"_selector","type":"bytes4","internalType":"bytes4"},{"name":"_contract","type":"address","internalType":"address"}],"outputs":[{"name":"roleId","type":"bytes32","internalType":"bytes32"}],"stateMutability":"pure"},{"type":"error","name":"CannotRevokeSelf","inputs":[]}],"bytecode":{"object":"0x6080604052348015600e575f5ffd5b506101c78061001c5f395ff3fe608060405234801561000f575f5ffd5b5060043610610055575f3560e01c8063a5a492b414610059578063b716247b14610081578063bdf639d514610081578063c4d66de814610096578063d95d920c146100a7575b5f5ffd5b61006e610067366004610100565b5f92915050565b6040519081526020015b60405180910390f35b61009461008f366004610131565b505050565b005b6100946100a4366004610171565b50565b6100be6100b5366004610131565b50600192915050565b6040519015158152602001610078565b80356001600160e01b0319811681146100e5575f5ffd5b919050565b80356001600160a01b03811681146100e5575f5ffd5b5f5f60408385031215610111575f5ffd5b61011a836100ce565b9150610128602084016100ea565b90509250929050565b5f5f5f60608486031215610143575f5ffd5b61014c846100ce565b925061015a602085016100ea565b9150610168604085016100ea565b90509250925092565b5f60208284031215610181575f5ffd5b61018a826100ea565b939250505056fea26469706673582212206848f930a156b2e75844582e8c4051a9db0ded58f8890db01cf1f46e96e5c45464736f6c634300081c0033","linkReferences":{}},"methodIdentifiers":{"checkAccess(bytes4,address,address)":"d95d920c","grantAccess(bytes4,address,address)":"b716247b","initialize(address)":"c4d66de8","revokeAccess(bytes4,address,address)":"bdf639d5","role(bytes4,address)":"a5a492b4"},"id":331}